:020000040800F2
:100000000080002029CA0008B5CA000841BF0008C6
:1000100000000000000000000000000000000000E0
:10002000000000000000000000000000BDE8000823
:10003000000000000000000075E9000835BF00085E
:10004000B5CA0008B5CA0008B5CA0008B5CA000894
:10005000B5CA0008B5CA0008B5CA0008B5CA000884
:10006000B5CA000891BF00089DBF0008DDBF0008A9
:10007000B5CA0008B5CA0008B5CA0008B5CA000864
:10008000B5CA0008B5CA0008B5CA0008B5CA000854
:10009000B5CA0008B5CA0008B5CA0008B5CA000844
:1000A000B5CA0008B5CA0008B5CA000845BF0008AF
:0C00B00055BF000865BF0008B5CA000875
:1000BC0010B5064C2378002B07D1054B002B02D032
:1000CC00044800E000BF0123237010BD600A00202B
:1000DC0000000000987F0108044B10B5002B03D0E2
:1000EC000349044800E000BF10BDC04600000000FA
:1000FC00640A0020987F010802780B78002A03D04C
:10010C00013001319A42F7D0D01A70470023C25CFB
:10011C000133002AFBD1581E7047000002B471460F
:10012C0049084900095C49008E4402BC7047C0462E
:10013C0003B47146490840004900095A49008E44ED
:10014C0003BC7047002243088B4274D303098B42D3
:10015C005FD3030A8B4244D3030B8B4228D3030C8B
:10016C008B420DD3FF22090212BA030C8B4202D32D
:10017C001212090265D0030B8B4219D300E0090A55
:10018C00C30B8B4201D3CB03C01A5241830B8B425E
:10019C0001D38B03C01A5241430B8B4201D34B0347
:1001AC00C01A5241030B8B4201D30B03C01A5241AC
:1001BC00C30A8B4201D3CB02C01A5241830A8B4231
:1001CC0001D38B02C01A5241430A8B4201D34B021A
:1001DC00C01A5241030A8B4201D30B02C01A52417E
:1001EC00CDD2C3098B4201D3CB01C01A5241830932
:1001FC008B4201D38B01C01A524143098B4201D36C
:10020C004B01C01A524103098B4201D30B01C01A96
:10021C005241C3088B4201D3CB00C01A5241830810
:10022C008B4201D38B00C01A524143088B4201D33D
:10023C004B00C01A5241411A00D20146524110469D
:10024C007047FFE701B5002000F0F0F802BDC04692
:10025C000029F7D076E7704703460B437FD4002282
:10026C0043088B4274D303098B425FD3030A8B423E
:10027C0044D3030B8B4228D3030C8B420DD3FF22A8
:10028C00090212BA030C8B4202D31212090265D076
:10029C00030B8B4219D300E0090AC30B8B4201D329
:1002AC00CB03C01A5241830B8B4201D38B03C01A70
:1002BC005241430B8B4201D34B03C01A5241030BE7
:1002CC008B4201D30B03C01A5241C30A8B4201D398
:1002DC00CB02C01A5241830A8B4201D38B02C01A43
:1002EC005241430A8B4201D34B02C01A5241030ABA
:1002FC008B4201D30B02C01A5241CDD2C3098B429F
:10030C0001D3CB01C01A524183098B4201D38B011B
:10031C00C01A524143098B4201D34B01C01A5241BE
:10032C0003098B4201D30B01C01A5241C3088B4203
:10033C0001D3CB00C01A524183088B4201D38B00EE
:10034C00C01A524143088B4201D34B00C01A524190
:10035C00411A00D201465241104670475DE0CA0F67
:10036C0000D04942031000D34042534000229C4627
:10037C0003098B422DD3030A8B4212D3FC22890131
:10038C0012BA030A8B420CD3890192118B4208D307
:10039C00890192118B4204D389013AD0921100E069
:1003AC008909C3098B4201D3CB01C01A524183097D
:1003BC008B4201D38B01C01A524143098B4201D3AA
:1003CC004B01C01A524103098B4201D30B01C01AD5
:1003DC005241C3088B4201D3CB00C01A524183084F
:1003EC008B4201D38B00C01A5241D9D243088B42A5
:1003FC0001D34B00C01A5241411A00D20146634648
:10040C0052415B10104601D34042002B00D54942AB
:10041C00704763465B1000D3404201B5002000F0EA
:10042C0005F802BD0029F8D016E770477047C046A2
:10043C008446101C62468C46191C634600E0C0467C
:10044C001FB501F0AFF9002801D40021C8421FBD2F
:10045C0010B501F0F9F84042013010BD10B501F0B3
:10046C00A1F9002801DB002010BD012010BDC04601
:10047C0010B501F097F9002801DD002010BD012016
:10048C0010BDC04610B501F01BF9002801DC00209E
:10049C0010BD012010BDC04610B501F011F90028A7
:1004AC0001DA002010BD012010BDC0468446081C96
:1004BC006146FFE71FB500F02BFA002801D400219C
:1004CC00C8421FBD10B500F0AFF94042013010BD5D
:1004DC0010B500F01DFA002801DB002010BD012032
:1004EC0010BDC04610B500F013FA002801DD002045
:1004FC0010BD012010BDC04610B500F0BDF900289C
:10050C0001DC002010BD012010BDC04610B500F06C
:10051C00B3F9002801DA002010BD012010BDC0463F
:10052C00002B11D1002A0FD1002900D1002802D0B4
:10053C000021C943081C07B4024802A140180290CC
:10054C0003BDC046E9FEFFFF03B4684601B502983F
:10055C0000F09EF8019B9E4602B00CBC7047C04652
:10056C00F0B515042D0C0F0001002E00C646844674
:10057C000004140C000C090C46434D4360436143CA
:10058C004019340C241800B5A54203D98020400230
:10059C0080464144250C6D18614659437A4330041A
:1005AC0049192404000C2018891880BCB846F0BDE9
:1005BC0070B500220C4B04000D00FFF76DFF0028F6
:1005CC0004D12000290001F079FF70BD064B0022F8
:1005DC002000290001F0C2FB01F070FF80231B06F4
:1005EC009C466044F1E7C0460000E04170B5050050
:1005FC000C000022002328002100FFF72FFF002809
:10060C0008D12800210000F00FF802000B001000A8
:10061C00190070BD80231B06E118280000F004F8B7
:10062C00002342428B41F2E770B500220B4B0D00C8
:10063C00040001F027F9FFF7BBFF060001F0A4FF4F
:10064C000022074B01F01EF902000B0020002900CC
:10065C0001F084FBFFF7ACFF310070BD0000F03DF2
:10066C000000F04170B50600080001F05DFF0022AB
:10067C00064B01F007F90D000400300001F084FF77
:10068C002B00220000F08EF970BDC0460000F04136
:10069C00F0B557464E464546DE46E0B504000D0023
:1006AC009246994683B08B4230D82DD0494650465D
:1006BC0002F07EF829000600200002F079F8331AC7
:1006CC009846203B9B4633D45A4653469340424669
:1006DC001F00534693401E00AF423AD8AF4200D1A0
:1006EC0078E05B46A41BBD41002B00DA75E00022CC
:1006FC0000230092019301235A4693400193012356
:10070C0042469340009328E08242CFD90022002336
:10071C00009201930C9B002B01D01C605D60009833
:10072C00019903B0F0BCBB46B246A946A046F0BD49
:10073C00424620239B1A5246DA40414613004A4651
:10074C008A40170042461F43534693401E00AF4257
:10075C00C4D900220023009201934346002BD9D028
:10076C00FB0772081A4346467B080EE0AB4201D1E8
:10077C00A2420CD8A41A9D41012024196D410021DC
:10078C00013E24184D41002E06D0AB42EED9013E5D
:10079C0024196D41002EF8D1009801995B4600197F
:1007AC006941002B24DB2B005A464446D3402A00D7
:1007BC00E2401C005B461500002B2ADB26009E4005
:1007CC00330026004746BE403200801A9941009003
:1007DC0001919FE7A342BCD883E742462023002126
:1007EC009B1A0022009101920122DA40019286E7C5
:1007FC00424620239B1A2A0046469A402300F34087
:10080C00444613432A00E2401C005B461500002BB3
:10081C00D4DA42462F002023260097409B1ADE4054
:10082C003B003343CDE7C04670B542004E024C004E
:10083C0045026D0A120EC30F760A240EC90FFF2A49
:10084C000FD0FF2C11D00120A24200D070BDB542B8
:10085C00FCD18B420DD0002AF8D12800451EA841AE
:10086C00F4E70120002DF1D1EBE70120002EEDD1B2
:10087C00E9E70020EAE7C046F0B5420046024D0227
:10088C004C00C30F760A120E6D0A240EC80FFF2AF5
:10089C001FD0FF2C10D0002A1FD171427141002CA7
:1008AC0001D1002D1ED000290ED183421ED0022171
:1008BC00581E08400138F0BD002D26D1002AF4D175
:1008CC00714271410029F0D00028F4D1012040423E
:1008DC00F1E7002E19D1FF2CEED0002CE5D1002D24
:1008EC00E3D1E4E70020002EE5D0E0E7A24205DCEE
:1008FC00EADBAE4202D8E7D30020DCE741424141BB
:10090C004842022108400138D5E702204042D2E794
:10091C00F0B5420046024D024C00C30F760A120E8F
:10092C006D0A240EC80FFF2A0DD0FF2C0FD0002A01
:10093C0023D171427141002C0FD1002D0DD100201B
:10094C00002E14D00DE0002E10D1FF2C15D1002D4F
:10095C000CD1002A03D171427141002908D1834284
:10096C0010D00221581E0840013800E00220F0BDD2
:10097C000028FCD101204042F9E7002CEFD1002DDA
:10098C00EDD1EEE7A24205DCF2DBAE4202D8EFD3AA
:10099C000020ECE741424141484202210840013825
:1009AC00E5E7C046F0B54F46D64646460D00010079
:1009BC001800C0B517002B035A0A4B0F1343CA007B
:1009CC00914602036E004100520AEC0F7D0F154355
:1009DC00760D490DC00F8246AC46FF00721A844258
:1009EC0000D198E0002A00DC81E0002900D1B6E0BB
:1009FC00C9498E4200D172E18021280009040843C4
:100A0C008446382A00DD5EE11F2A00DDEEE120205D
:100A1C0039006546801A8740D14085400D43390026
:100A2C004F1EB9416746D7402943DB1B4A46551A2E
:100A3C00A945894149425B1A984643461B0200D49A
:100A4C00CCE043465B025B0A98464346002B00D140
:100A5C002CE1404601F08EFE0100083920222800CE
:100A6C004346521A8B40D0408D4003438E4200DDEA
:100A7C0017E18E1B721C1F2A00DDA7E12021180034
:100A8C002E00891A8D408840D640D340691E8D4176
:100A9C0030439846002605436B0709D00F232B40A3
:100AAC00042B05D02B1DAB42AD416D42A8441D005B
:100ABC0043461B0200D494E0974B721C9A4200D11F
:100ACC009DE04146954BED0819400B005205490736
:100ADC005B0229431B0B520D12051343E4072343FE
:100AEC0008001900E0BCBA46B146A846F0BD002A81
:100AFC0043D08A1B002E00D02AE14C461C4300D167
:100B0C00D1E1541E012A00D11FE2834DAA4200D12B
:100B1C0072E2220023E1002A00DC98E0002942D096
:100B2C007D498E4200D1DAE0802128000904084377
:100B3C008446382A00DD29E11F2A00DC87E11100F8
:100B4C0065462039CD40202A04D040206146821AC7
:100B5C0091400F4339004F1EB9410D431BE1290051
:100B6C00394300D1B5E0511E012A00D1ABE16A48EE
:100B7C00824200D1B2E10A0043E76949751C0D427B
:100B8C0000D0CFE0002E00D093E14946194300D1AC
:100B9C00D1E16146394300D0E3E149465807C90821
:100BAC000143DB0826E02900394300D191E0511EB6
:100BBC00012A05D05848824200D18FE10A00B8E7DB
:100BCC003D004D444D458941634498464942884413
:100BDC00434602261B0200D5EBE0013E6B0700D01A
:100BEC005CE74346E9085A0711433200DB084A48E0
:100BFC00824221D01B0352051B0B520D6CE70023C4
:100C0C00002169E72A003A4369D04A465807D108BF
:100C1C00DA0880231B0308431A4207D02900ED0889
:100C2C001D4203D12A00FF0848073843430FC10077
:100C3C005B07C908194313000A001A4300D113E2D9
:100C4C008022120313431B03334A1B0B44E7002A75
:100C5C004BD08A1B002E00D1E7E02F48814200D1F7
:100C6C0095E1802000040343382A00DD43E11F2A6C
:100C7C0000DDDBE120201D004E46801A8540D64069
:100C8C0035434E4686403000D340461EB0419C440E
:100C9C000543ED19BD429B415B42634498460E00EF
:100CAC007FE01E4A761A13409846F5E6280001F0BC
:100CBC0061FD010018311F2900DCCFE62B0008383C
:100CCC0083400025D2E662463A4311004F1EB941DB
:100CDC00ACE649465807C9080143DB0887E7494693
:100CEC005A07C9081143DB08A6E70D49701C0842D6
:100CFC0000D0BBE0002E00D014E14946194300D1CE
:100D0C0075E12900394300D07EE149465807C908EE
:100D1C000143DB086EE7C046FF070000FFFF7FFFC3
:100D2C00FE0700004946CD1B6146581AA94589416A
:100D3C004942884601004046091A8846090200D5F6
:100D4C00A6E04146294300D07FE60023002451E76A
:100D5C00C74CA14200D1C7E0802424042343382A85
:100D6C0054DC1F2A00DDCCE020244846A41A1D00C8
:100D7C004E46A040D640A5400400D34062463543C1
:100D8C00661EB441D31A9C46254344E062463A435E
:100D9C0015006F1EBD414D444D4589414942884661
:100DAC00984443461B0200D418E7B14B01369E42CF
:100DBC0049D04246AF4B01211A4013006A080D403E
:100DCC001543D9075B0898460D4365E618001F3E8E
:100DDC00F040202A03D040218A1A93401D43691EFB
:100DEC008D410023002698460543F7E61100654621
:100DFC002039CD40202A04D040206146821A9140EF
:100E0C000F4339004F1EB94129430FE64A4613439D
:100E1C001D006B1E9D417D1BAF429B4162465B4298
:100E2C00D31A984654460E0007E64846184300D19C
:100E3C00B3E0501E012A00D10DE18D4DAA4200D124
:100E4C00A5E0020010E732000023002144E6202137
:100E5C003800891A65468F408D40D040791E8F41ED
:100E6C0005433D436746D740DB1994E7804A9042DF
:100E7C0000D1ECE039004944494592416344524267
:100E8C009B18DD0749085B08984606000D43A5E64C
:100E9C004A46BD1AAF42894162464942D31A5B1A8F
:100EAC0098465446D1E56C07F9082143EB08040039
:100EBC009DE64A461A4375D16146394314D18023C5
:100ECC0000241B03BCE64A46D51BA9458941624652
:100EDC0049429B1A5B1A98460126AEE54A46D10850
:100EEC005A071143DB08A7E66346F9085A0754462C
:100EFC001143DB08A0E64A4613431D006B1E9D41BF
:100F0C00C7E614001E00203CE640202A05D04024F1
:100F1C00A21A93404A461A4391464D466B1E9D4178
:100F2C00354378E74A461A4300D06BE66B07F9085D
:100F3C001943EB0880E66146394354D06346F908FF
:100F4C005C072143DB08040054E64A46BD1AAF4255
:100F5C00894162464942D31A5B1A9846040001261D
:100F6C006BE54A46D51BA9458941624649429A1A06
:100F7C00521A9046120232D54A46BD1AAF428941E6
:100F8C0062464942D31A5B1A9846040084E56346CC
:100F9C00F9085A071143DB084EE6F90868070143C4
:100FAC00EB0824E662463A4300D198E64A46D1085B
:100FBC005A071143DA0880231B031A4208D06046F3
:100FCC00C5081D4204D154462A00F90843071943A9
:100FDC004B0FC9005B07C908194313002CE64146A7
:100FEC00294300D0FAE500230A00002402E66B072F
:100FFC00F9081943EB08FDE56346F9085B0719434B
:10100C0063460400DB0817E63D004D4463444D4540
:10101C00894198464942884443461B0200D4DDE589
:10102C004246144B01261A409046D7E510001E008C
:10103C002038C640202A05D04020821A93404A46C8
:10104C001A4391464D466B1E9D41354321E60200E5
:10105C000023002140E54A46D519BD42894163442D
:10106C00984649428844B3E50021014A0B0033E518
:10107C00FF070000FFFF7FFFF0B557464E46454681
:10108C00DE46E0B5814605000C03480092461F0081
:10109C0085B0240B400DCE0F002859D0874B9842B9
:1010AC0000D198E06B0FE4001C4380231B04234306
:1010BC009846834BED009B4600239946834400934E
:1010CC003C037B005046240B5B0DFF0F002B67D0BD
:1010DC007A4A934218D07A49420F8C46E40059461A
:1010EC001443802263441204CB1A14439B46C2005F
:1010FC00002033007B409A464B460F2B00D9EFE083
:10110C0070499B00CB589F466F4B52469C462243DE
:10111C00E344002A00D095E049460223194389464E
:10112C0000240220E5E700230024002552461B057D
:10113C002343D20713432800190005B0F0BCBB466B
:10114C00B246A946A046F0BD002400255B4BEDE756
:10115C004B462343984600D189E0002C00D1E0E1B6
:10116C00200001F007FB010002000B391D235B1A64
:10117C0049461000D940083884400B004D462343A3
:10118C009846854051483C03831A9B460023994658
:10119C0000937B005046240B5B0DFF0F002B97D167
:1011AC005246224355D0002C00D1CAE1200001F058
:1011BC00E1FA02000B3A1D2301009B1A5246083932
:1011CC00DA408C40144352468A40414B58449B466B
:1011DC00834400208DE74B462343984640D1082397
:1011EC009946063B00258346009369E7B246009B6F
:1011FC00022BA9D0032B00D111E2012B93D0354A3D
:10120C005A44002A00DC3CE16B0700D0A7E1ED0852
:10121C004346DB0106D542462F4B1A4090468022AE
:10122C00D2005A442D4B9A428EDC43465205580745
:10123C005C020543240B530D78E7BA46A046150013
:10124C000090D4E74A4603231A43914603205246A2
:10125C004FE749460123194389460024012048E7FA
:10126C000C239946093BA0468346009328E70423A8
:10127C00994600239B4601330025009320E7002369
:10128C0080249A4600250D4B24034FE780234146CA
:10129C001B03194208D01C4206D11C432403BA4636
:1012AC001500064B240B41E78024434624031C43C2
:1012BC002403B246014B240B38E7C046FF0700005D
:1012CC0001FCFFFFC07F010801F8FFFF0DFCFFFFD1
:1012DC00F3030000FF030000FFFFFFFEFE0700000A
:1012EC00444500D216E100D111E101235B429C463A
:1012FC002E0040460025E3442302140E1C431B0C15
:10130C00994623041F0C1202494600920197FEF7DE
:10131C009FFF02007A430B04310C804619438A422A
:10132C000BD901235B429C460919E0448C4204D83A
:10133C008A4202D9831E98460919881A4946FEF733
:10134C0087FF09048C4631046646019A090C424316
:10135C00030031438A4204D90919013B8C4200D85D
:10136C0011E1891A4246009E12041A43330C1F00E5
:10137C00100C9046029313043204160C32001B0C12
:10138C005A4303967B4346437843170CBC469B1940
:10139C0063449E4203D980267602B44660441E0CF8
:1013AC00301816041B04360C9E19814200D29CE0A6
:1013BC0000D197E0AE1B091AB54280414042081A91
:1013CC00844200D111E14946FEF742FF019A0B0419
:1013DC004243310C050019438A4207D90919013DD2
:1013EC008C4203D88A4201D9851E0919881A4946AC
:1013FC00FEF72EFF09048C4631046646019A090C4F
:10140C004243030031438A4207D90919013B8C42FC
:10141C0003D88A4201D9831E0919039E891A320006
:10142C002D041D43029F2B041B0C5A437B439C46EB
:10143C00280C4643130CB444634478439E4203D9AE
:10144C0080267602B44660441E0C12041B04120C57
:10145C0030189B18814206D302D001231D43CEE6DF
:10146C00002B00D1CBE661186E1EA14200D2A4E085
:10147C00814200D2C9E000D1D9E03500EDE7012569
:10148C006D420121891A382900DD4CE61F2900DC48
:10149C007FE01F235B429A1A4346D340202904D095
:1014AC004446654A5A44944025436A1E9541072296
:1014BC002B43150000241D401A4200D1A1E00F223D
:1014CC0000241A40042A00D198E01A1D9A429B412C
:1014DC005B42E4181300220200D48FE001230024A5
:1014EC00002523E6B54200D364E743465A1E009B11
:1014FC009C4665441F009D429B415B421B19C918C9
:10150C008C423AD2884263D860D0904652E7AA42C5
:10151C0000D9EAE64346DE0758086B081E43ED0780
:10152C00EAE6484601F026F90100020015312032A6
:10153C001C2900DC1AE64B460838834000259846E7
:10154C0020E601F017F903001A00153220301C2A8E
:10155C0000DC30E65446083B00229C4035E60F2365
:10156C002B40042B00D152E605235B42AB429B413E
:10157C0004355B42ED0898444AE68C42C5D1AF4233
:10158C00C0D9904616E78A4200D8EAE6831E0919AC
:10159C00E7E62A4A28005A44434695409340C840FF
:1015AC006A1E9541444603432B43CC405A0792D0C4
:1015BC000F221A40042A88D18DE73500814200D0D1
:1015CC004BE7009A934200D047E718E6AE429CD90D
:1015DC0002235B429C46009BE0449C4665449D4232
:1015EC009B415B421B19C918E4E6154A5A44002A70
:1015FC0000DC44E701230025984409E665076402F2
:10160C00240BDB081D43002390E5009E023D720075
:10161C00B242BF417F423C1909190092CEE78024A7
:10162C00434624031C432403064B240B7EE5009AFB
:10163C009A42EAD33500C4E73E0400001E040000C1
:10164C00FF030000FF070000F0B54F464646D646A4
:10165C00944691461A03120B184DC0B54C000F035B
:10166C0092465A00060080463F0B0120640DC90FBC
:10167C00520DDB0FAC420AD0AA4203D0944201D1E6
:10168C0057450DD0E0BCBA46B146A846F0BD3D006A
:10169C003543F7D1A242F5D1524665462A43F1D1E2
:1016AC000120C845EED1994206D0002CEAD13E4328
:1016BC003000461EB041E5E70020E3E7FF070000DD
:1016CC00F0B54E4645465746DE4604001800E0B5D8
:1016DC0016001B031B0B324D0F034A0099464300A7
:1016EC00A446B0463F0B520DC90F5B0DC00FAA426A
:1016FC0029D0AB4218D0002A2AD13C43A3466542DC
:10170C006541002B02D14C46264327D0002D15D124
:10171C00814228D00220013908400138F0BCBB4678
:10172C00B246A946A046F0BD4D462E432FD1002A05
:10173C00EED13C4365426541002DE9D00028EDD146
:10174C0001204042EAE73D00254320D19342EBD0F3
:10175C00002BDDD14C462643DAD1DBE75B4600207B
:10176C00002BDBD0D6E79A420ADCE7DB4F45D1D819
:10177C0010D000204F45D1D20029E1D00800CDE790
:10178C00434258410223404218400138C6E7022028
:10179C004042C3E7C445BDD80020C445BED2EBE7E8
:1017AC00FF070000F0B54E4645465746DE4604009E
:1017BC001800E0B516001B031B0B314D0F034A003C
:1017CC0099464300A446B0463F0B520DC90F5B0D22
:1017DC00C00FAA4211D0AB4214D0002A2FD13C43E7
:1017EC00A34665426541002B14D14C46264311D1CA
:1017FC005B460020002B17D010E03D00254312D192
:10180C0093421CD14D462E430DD1002A04D13C43AA
:10181C0065426541002D0DD1814216D0022001395F
:10182C000840013800E00220F0BCBB46B246A94695
:10183C00A046F0BD0028F7D101204042F4E7002B70
:10184C00EAD14C462643E7D1E8E79A4206DD43420B
:10185C0058410223404218400138E5E79A42E9DB3F
:10186C004F45DBD806D000204F45DDD20029E3D010
:10187C000800D9E7C445D1D80020C445D4D2F5E737
:10188C00FF070000F0B557464E464546DE46E0B52C
:10189C0098460C034B000600924687B0240B5B0D58
:1018AC00CF0F002B6CD0DD4A934200D186E0420F63
:1018BC00E4001443802212041443D94AC500944610
:1018CC0063440093002399469B46434642461E03BD
:1018DC00D20F5B0050469046360B5B0D00D178E082
:1018EC00CE4A93421DD0CE49420F8C460099634498
:1018FC00F6008C46164380229C4412046346164321
:10190C00C200002000930099434601318C464946A1
:10191C007B4001930F2900D97EE0C24B89005958B6
:10192C008F465246009B324300D056E1BB490026FD
:10193C008C4663444946009302231943894602208E
:10194C00E1E7434601933400150083465B46022BC6
:10195C005ED0032B00D1F3E1012B00D018E1002263
:10196C0000240025019B12052243DB071A432800A3
:10197C00110007B0F0BCBB46B246A946A046F0BD6C
:10198C002500054300D141E1002C00D1ADE1200040
:10199C0000F0F0FE010002000B391D2310005B1A51
:1019AC003100350008388440D94085400C439E48AE
:1019BC00831A0093002399469B4686E7050025432E
:1019CC0000D01CE1082200930223002491469B4680
:1019DC007BE75246324300D10AE1002E00D176E17A
:1019EC00300000F0C7FE02000B3A1D2301009B1AC9
:1019FC0052460839DA408E40164352468A40009BC4
:101A0C008949181A03008C466344002000937AE736
:101A1C0000240025814AA5E72F0C2D042D0C2B004A
:101A2C00110C1204120C53439846130028007B43EC
:101A3C00994648434844834640460B00000C824676
:101A4C0058467B4350440293814506D99A468023DD
:101A5C005B029946CA4453460293030C9B46434689
:101A6C001B0400041B0C9846030043440493330CE2
:101A7C0099462B003604360C7343984633007B434F
:101A8C009A464B465D435F4343465544180C4019F8
:101A9C00824503D980235B029A465744050CEB1907
:101AAC00059343461D042D0C00044019250C2404F9
:101ABC00240C270057436A4390462A003B0C9A4655
:101ACC004A436143414451448344884503D98023AC
:101ADC005B02984642443F040B0C3F0C0904C919A5
:101AEC00270098464B4677435C436E435D433B0C63
:101AFC009946A4194C4442440395A64204D9802328
:101B0C005B02984645440395029B3F045B441E00D0
:101B1C008342804123049846059B3F0C47449846DA
:101B2C0076188E428941474440423D18A846934658
:101B3C0049428A46C3449F42BF4180458041039B32
:101B4C00DA449846534640427F420743240C93455F
:101B5C0092418A4589413F19DC0D049B75021D4356
:101B6C00681E85415346524249420A43BF184744B6
:101B7C00F60D7F0235435A023C431543FB0100D45A
:101B8C00C1E001216A080D401543E20715436408C2
:101B9C0026496144002956DD6B0709D00F222A40E3
:101BAC00042A05D02A1DAA42AD416D4264191500C4
:101BBC00E30104D580211E4AC900144061441D4A2A
:101BCC00914200DD24E76207ED08640249051543E4
:101BDC00240B4A0DC6E60197B8E6104A032094463A
:101BEC0063444A46009303231A43914652468AE6BD
:101BFC0049460123194389460026012083E60C221D
:101C0C0000930323050091469B465EE60423994608
:101C1C0000230093013300249B4656E6FF07000087
:101C2C0001FCFFFF008001080DFCFFFFFF0300001B
:101C3C00FFFFFFFEFE070000002380240025444A1E
:101C4C00019324038EE60120401A382800DD86E635
:101C5C001F285BDD1F2223005242511ACB40190072
:101C6C00202803D03B4A6244944025436A1E954188
:101C7C002A000A4307210D000024154011425BD0B5
:101C8C000F2100241140042953D0111D914292417F
:101C9C005242A4180A0023024BD50122002400252D
:101CAC0060E680231B031C4209D01E4207D133433C
:101CBC001C0343461500240B254A019352E680224F
:101CCC00120314432403224A240B01974AE600F022
:101CDC0051FD03001A00153220301C2A00DC84E66A
:101CEC005646083B00229E4089E600F043FD010069
:101CFC000200153120321C2900DC4EE63400083875
:101D0C000025844053E6009B9C4641E71249220083
:101D1C0061442E008D408A40C640691E8D4132437D
:101D2C002A43C4405307B6D00F2111400429ACD12B
:101D3C00B1E765076402240BD2081543002211E6B3
:101D4C008022120314432403014A240B0AE6C046E2
:101D5C00FF0700003E0400001E040000F8B55746C3
:101D6C004E464546DE460400E0B51F0010000B034E
:101D7C00620F4E00CD0F5B0A39031343490AE20090
:101D8C00440F2143C24C91469246C0007A008046D3
:101D9C00760D520DFF0FA24200D1B4E00124674032
:101DAC00BB46BD4200D188E0B41AA446002C00DC2E
:101DBC00B2E0002A00D1C5E0B54A964200D18BE2D0
:101DCC008022120411436246382A00DDA1E11F2A49
:101DDC0000DD16E220270C00BF1ABC400200A04612
:101DEC006446B840E240444614430200501E82410F
:101DFC006046C14022435B1A49468C1AA145924168
:101E0C0052429B1A984643461B0200D417E14346A4
:101E1C005B025B0A98464346002B00D16CE14046BE
:101E2C0000F0A8FC0200083A202120004346891A41
:101E3C009340C84094400343964200DD57E1961B03
:101E4C00711C1F2900DDCBE1202218002600521A3C
:101E5C0094409040CE40CB40621E94413043984613
:101E6C0000260443630709D00F232340042B05D01D
:101E7C00231DA342A4416442A0441C0043461B0200
:101E8C0000D4DFE0824B01369E4200D1FBE042469B
:101E9C00804BE4081A401300710552075B02224381
:101EAC001B0B490D0905ED07194329431000F0BC24
:101EBC00BB46B246A946A046F8BDB41AA446002CAF
:101ECC0058DD002A00D19EE0714A964200D13BE1D8
:101EDC008022120411436246382A00DDC1E01F2A19
:101EEC0000DCBBE10C00203AD44022006446202CDC
:101EFC0004D040273F1BB940084380464446611E2E
:101F0C008C411443B1E00C0004432AD0BB46BD42C3
:101F1C002DD0614CA446B4446446002C5CD0941B78
:101F2C00A446002E00D015E14D461D4300D1C3E15F
:101F3C00651E012C00D10CE2554EB44200D1F8E1E3
:101F4C00AC460EE10A00024300D136E12200013A10
:101F5C00012C00D1C6E14E4CA44500D1F4E09446CE
:101F6C0031E701246740BB46BD4200D01CE74A4C18
:101F7C00A446B4446446002C00D1CFE0941BA44684
:101F8C00002E00D15CE1424EB24200D1ECE1802641
:101F9C00360433436446382C00DDB3E11F2C00DDDE
:101FAC0038E22026361B1C00B4404F46A04664463F
:101FBC00E74044463C434F46B7403E00771EBE4187
:101FCC0034436646F340C918241884429B415B4253
:101FDC009846160088444EE0304A741C144200D0D7
:101FEC00D6E04A461A43002E00D05BE1002A00D10D
:101FFC00A5E10A00024300D0BBE14A465907D208CA
:10200C000A43DB0827E00A00024300D174E12200F6
:10201C00013A012C05D01E4CA44500D194E0944605
:10202C0059E74844484592415B189846040052428F
:10203C009044434602261B0200D5C4E0013E6307D0
:10204C0000D011E74346B4465907E2080A43DB08BF
:10205C000F498C4540D061461B0349051B0B490DAC
:10206C0020E701430C00611E8C414C444C459241CD
:10207C0052429046984443461B02E0D5044B01362D
:10208C009E4200D09FE03100002300220AE7C046A8
:10209C00FF070000FFFF7FFF01F8FFFFFE070000B6
:1020AC00002A00D160E10A0002434DD04A465C0789
:1020BC00D20822438024DB082403234207D0CE0815
:1020CC00264204D15D463300C20849070A43510F2A
:1020DC00D200D20849070A431100194300D1C8E1C4
:1020EC00802109030B431B03D5491B0BDAE6D549A9
:1020FC00B61A0B409846B5E6200000F03BFB0200F8
:10210C0018321F2A00DC8FE6230008388340002495
:10211C0092E608430200501E82416DE6CA4C721CC6
:10212C00224200D0ADE04A461A43002EB8D1002A14
:10213C0000D158E10A00024300D059E14A46590740
:10214C00D2080A43DB0886E74A465907D2080A43F5
:10215C00DB08C1E7BA4DAA4200D11EE180252D044F
:10216C002B436446382C5DDC1F2C00DDD0E0202591
:10217C0067462D1B4E461C00FE40AC4034434E4679
:10218C00AE403500FB406E1EB541C91A2C434EE0E3
:10219C004A46141AA1459241524290465F1A3A009F
:1021AC004746D21B9046120200D58BE04246224392
:1021BC0000D030E6002300254DE74A465907D208E7
:1021CC000A43DB0844E742469E4B61081A40130061
:1021DC00012214400C43DA075B089846144341E68D
:1021EC001A001F3EF2401600202903D04022511A3B
:1021FC008B401C43621E94410023344398460026B6
:10220C001DE70C00203AD44022006446202C04D058
:10221C0040273F1BB940084380464446611E8C4111
:10222C002243E9E54C4623431C00631E9C41041BDE
:10223C00A0429B415B42CB1A98465D461600E2E5F4
:10224C004E461E4300D1AEE0661E012C00D1FDE0CF
:10225C007B4FBC4200D107E1B4469BE6644620228A
:10226C00121B0C00944007009040A0466446421E8E
:10227C0090416246E7404446D1403C4304435B18DE
:10228C00F3E66F4CA24200D1D5E048445B184845B8
:10229C00894149425B18DC0740085B0898461600E8
:1022AC000443CCE6002A00D082E00A00024340D16D
:1022BC00802300251B0313E74B07C2081A435D4616
:1022CC00CB08C5E64A46841AA0429241CB1A524228
:1022DC009B1A98465D469EE54A465907D2080A4322
:1022EC00DB08F9E64A46141AA14592415B1A5242A0
:1022FC009B1A9846012686E54A465907D2080A4396
:10230C00DB08A5E64C4623431C00631E9C415BE6A0
:10231C0065461E00203DEE40202C05D040252D1B8F
:10232C00AB404C461C43A2465446631E9C4134436E
:10233C007DE74B07C2081A435D46CB08CCE60A0082
:10234C00024300D136E74B07C2081A435D46CB085F
:10235C0081E64A46841AA0429241CB1A52429B1AF9
:10236C0098465D4601264EE54B07C2081A43CB083A
:10237C00B2E64A46141AA14592415F1A5242BA1A61
:10238C00904612026BD54A46841AA0429241CB1A4F
:10239C0052429B1A98465D4664E54B07C2081A43A5
:1023AC005D46CB0898E64B07C2081A43CB084FE6AC
:1023BC000A00024390D04A465C07D208144380229C
:1023CC00DB081203134208D0CE08164205D1C00810
:1023DC004907084304005D463300610FE2004907DA
:1023EC00D2080A4378E64B07C2081A43CB0832E6F8
:1023FC0048445B18484592419846524290444346A3
:10240C0004001B0200D41AE642460E4B01261A4069
:10241C00904614E666461F00203EF740202C05D05F
:10242C004026361BB3404C461C43A2465446631E02
:10243C009C413C43C8E511000023002232E5C04614
:10244C00FF070000FFFF7FFFFE0700004A4614183D
:10245C00844292415B18984652429044E9E54246C8
:10246C00224300D1A6E6EAE54B07C2081A43CB0883
:10247C0032E600220149130014E5C046FF070000B4
:10248C0070B505000C480C03160049001A035B00DC
:10249C00240B490D120B5B0D814208D0064900201C
:1024AC008B4203D132431000421E904170BD01207B
:1024BC002C43FBD1F2E7C046FF0700000A0030B501
:1024CC00134C530009030500090B00205B0DD20FC0
:1024DC00A34204DD0F48834202DD0F4BD01830BD00
:1024EC008020400301430D48C01A1F2808DD0C480A
:1024FC00C31AD9400B005842002AF0D11800EEE75D
:10250C00084CC540A446634499400B002B43F2E7AA
:10251C00FE0300001D040000FFFFFF7F33040000DA
:10252C0013040000EDFBFFFF70B5002816D0C31795
:10253C00C5185D40C40F280000F01CF9114A121A8E
:10254C000A2816DC03002E0015339E400B23181AA4
:10255C00C54053052D032D0B5B0D03E00024002318
:10256C00002500261B052B43E407234330001900EC
:10257C0070BD0B38854053052D0300262D0B5B0DCC
:10258C00F0E7C0461E04000010B5041E10D000F089
:10259C00F1F80F4B1B1A0A2811DC0B222100121A1E
:1025AC00D14015300A035B058440120B5B0D01E032
:1025BC00002300221B0513432000190010BD22002C
:1025CC000B3882405B0512030024120B5B0DF1E704
:1025DC001E04000070B543004602C40FFE201B0E03
:1025EC00591C750A08420CD0E022920094466D07E3
:1025FC00360B63441B053343E407234328001900BF
:10260C0070BD002B14D1002D1BD0280000F0B2F8A7
:10261C000A281CDC0B232A001B1ADA400300153392
:10262C009D400E4B12031B1A5B05160B5B0DE1E76D
:10263C00002D09D0320B80263603094B6D0716434B
:10264C00D8E700230026D5E70026054BD2E7030088
:10265C002A000B3B9A400025E3E7C04689030000A3
:10266C00FF07000002004B00F0B508035B0D3D4E68
:10267C00CC0F400A510F5F1C0843D50037420AD0DB
:10268C0039495E18FE2E16DDFF230021DB050B43B6
:10269C00E0071843F0BD002B06D1284327D00521B5
:1026AC008901490ADBB2F1E70543EDD08021C9036A
:1026BC00FF230143EAE7002E1CDD920111004A1EA4
:1026CC009141C0006D0F014329434B0748D00F23A4
:1026DC000B40042B00D004318023DB040B403FD093
:1026EC00721CFE2ED0D08901490AD3B2CEE700234A
:1026FC000021CBE73200173222DB80211E22090495
:10270C000843921B1F2A1DDD022149428E1B01002A
:10271C00F1400E00202A04D0144A94466344984099
:10272C00054329004D1EA941314300264B07CED14C
:10273C0080200B00C004012203400142D3D1AFE73B
:10274C000023ACE70A498C4629006344D1409D40E4
:10275C000A00290098404D1EA94101431143E4E7AA
:10276C0033009DE7FE07000080FCFFFFA2FCFFFF8B
:10277C0082FCFFFF1C2101231B04984201D3000C97
:10278C0010391B0A984201D3000A08391B099842D8
:10279C0001D30009043902A2105C40187047C046EE
:1027AC00040302020101010100000000000000000E
:1027BC0010B5002903D1FFF7DDFF203002E0081C23
:1027CC00FFF7D8FF10BDC046F0B505000B78FF240D
:1027DC00002B00D104780A4B1E78002E0EDD00234E
:1027EC00002002E00133B34209DAEA5CA242F9D2DA
:1027FC00CF5C002FF6D1D8B21400F3E70020F0BD67
:10280C001C00002010B50100064B1C78002C07DDC5
:10281C0000230120CA5C10400133A342FADB10BD37
:10282C000120FCE71C000020F8B5DE4657464E465A
:10283C004546E0B532200FF087F8804600286CD072
:10284C00384B1B78FE2B6AD1374B9946354C0123FC
:10285C0043449A4626E0002543465B19013B1B780E
:10286C00002B01D00135EDB228000FF06DF85B465E
:10287C00D86000283DD02A0041460FF09BFA2B4B24
:10288C001B780133294A13702A00002140460FF0AF
:10289C009AFA3B78FE2B36D1EA3B9C46E144244B1A
:1028AC00994530D02100143123004246161B1A786A
:1028BC00F25401338B42FAD11434CB4614225146D4
:1028CC0048460FF077FA1422002140460FF07BFAAD
:1028DC0027002378FD2BBED80025143E3355013438
:1028EC000135EDB227002378FD2BB5D8322DF5D16B
:1028FC00B2E71422002158460FF065FA40460FF05B
:10290C002DF80E2003E040460FF028F80020F0BC14
:10291C00BB46B246A946A046F8BDFB20F7E7FF2010
:10292C00F5E7C04600DC01085869002003120020BE
:10293C00BC690020F0B583B0234B1B889BB2234AA3
:10294C00934211D01A0A17D021490A70214A1370E8
:10295C001F4B1878002835D0012602226B46D91D52
:10296C0000239C461C4D0FE0194B01221A70194B89
:10297C0000221A70FA2025E0154A01211170E5E7B2
:10298C000136F6B286421CD863460B700B78DBB26C
:10299C000A2BF5D8731E9C00E4186400E4180A4B4B
:1029AC00D7180B783F881B195B00EF52023292B29A
:1029BC000B780133DBB20B700B78DBB20A2BEED940
:1029CC00DEE7002003B0F0BD00D80108FFFF0000D7
:1029DC001C0000205C100020800A0020F8B50E4B73
:1029EC001D78002D16D0012400250C4F1E0008E088
:1029FC00601C04F0B5FB09E00134E4B23378A34267
:102A0C0008D3631E5B00D95B0029F1D1192CF3D9D3
:102A1C000A25F1E72800F8BD1C0000206C6D002091
:102A2C00F8B53222002110480FF0CDF90F4B1D786C
:102A3C00002D16D0012400250B4F1E0008E0601C51
:102A4C0004F08EFB09E00134E4B23378A34208D3DE
:102A5C00631E5B00D95B0029F1D1192CF3D90A252F
:102A6C00F1E72800F8BDC0466C6D00201C0000206A
:102A7C00F8B50E4B1D78002D16D00D49022004F030
:102A8C0043FB01240025094E094F0134E4B233788D
:102A9C00A34209D3611E4900C919601C04F034FB20
:102AAC00192CF2D90A25F0E72800F8BD1C000020EB
:102ABC006C6D0020F0B5DE464F464646C0B500258D
:102ACC00002399461A4B9B461A4F04E00135EDB290
:102ADC003B78AB4225D3AB005B195B005A469B5C41
:102AEC00002BF3D0AE0076197600114B9C46664451
:102AFC004C461C34A4B24B4621339BB298463378D7
:102B0C001B027178C91889B2200004F029FB023627
:102B1C000134A4B2A045F2D14B4605339BB2994681
:102B2C00D4E70020E0BCBB46B146A846F0BDC04689
:102B3C00580F00201C000020F0B5DE4657464E46CC
:102B4C004546E0B583B06B460022DA80212700238E
:102B5C0098461A4B9B469A4610E04B469B004B44BA
:102B6C005B00534400225A7243460133DBB2984651
:102B7C000537BFB2124B1B78434517D37C1FA4B249
:102B8C0043469D0045446D005D446B469E1DC14609
:102B9C003100200004F0B8FA33886B701B0A2B70DC
:102BAC000134A4B20235A742F2D1D6E7002003B01B
:102BBC00F0BCBB46B246A946A046F0BD580F00205B
:102BCC001C000020F0B5D6464F464646C0B582B034
:102BDC006B460022DA80234B1B78002B1DD000247F
:102BEC00214E204DE1B2490071182000CB3080B24B
:102BFC0004F08AFA631C9CB22A78DBB29A42F1D8B0
:102C0C001A4B994627009E37BFB2D034A3B29846D0
:102C1C006B469E1D00239A460BE00024F0E74B46C2
:102C2C0052465A720A239C46E1440537BFB24745C7
:102C3C0010D07C1FA4B24D463100200004F064FA81
:102C4C0033886B701B0A2B700134A4B20235BC4262
:102C5C00F2D1E4E7002002B0E0BCBA46B146A84687
:102C6C00F0BDC0461C000020B00E00204C0E002011
:102C7C0070B584B00E21694400230B8003AA138025
:102C8C00E42004F041FA0025002802D10E236B4405
:102C9C001D780E216944E52004F036FA040003A9DE
:102CAC00E62004F031FA0443A4B20026002C06D12D
:102CBC000E236B441E88360403AB1B88F6180E21BA
:102CCC006944E72004F020FA040003A9E82004F08A
:102CDC001BFA204380B20024002806D10E236B443B
:102CEC001C88240403AB1B88E4180E216944E920DA
:102CFC0004F00AFA002807D10E236B441B88190A2A
:102D0C00284A1170284A13700E216944EA2004F0F5
:102D1C00FBF9002807D10E236B441B88190A234AA0
:102D2C001170234A13700E216944EB2004F0ECF966
:102D3C00002807D10E236B441B88190A1D4A1170F9
:102D4C001D4A1370174B1B78002B03D0164A1278B0
:102D5C00002A12D1154B1B78002B03D0144A127881
:102D6C00002A11D1134B1B78002B03D0124A127876
:102D7C00002A10D1002004B070BD00922200310056
:102D8C00280005F0D3FBE5E7009222003100280073
:102D9C0005F0CCFBE6E7009222003100280005F09C
:102DAC00C5FBE7E731110020490E0020321100204D
:102DBC004A0E0020331100204B0E0020F8B5DE46E1
:102DCC0057464E464546E0B50F0016001C000AABB0
:102DDC001B789B460BAB1B789A460CAB1B78994621
:102DEC000DAB1D780EAB1B7898460100E42004F067
:102DFC00B7F9390A89B2E52004F0B2F9B9B2E62084
:102E0C0004F0AEF9310A89B2E72004F0A9F9B1B2A5
:102E1C00E82004F0A5F924025C44A1B2E92004F0F6
:102E2C009FF953461902494489B2EA2004F098F9F3
:102E3C002D024544A9B2EB2004F092F90020F0BC1D
:102E4C00BB46B246A946A046F8BD000010B582B0FC
:102E5C008A206B46991D400004F056F9002800D0DA
:102E6C0064E06B4606331B88464A93711B0AD37188
:102E7C0016206B46991DFF3004F046F900285CD1F2
:102E8C006B46DA883F4B1A808B206B46991D4000AD
:102E9C0004F03AF9002853D16B46DA88394B5A8042
:102EAC0018206B46991DFF3004F02EF900284AD1EA
:102EBC006B4606331B88334A13711B0A53718C20E3
:102ECC006B46991D400004F01FF904001A2001A95B
:102EDC00FF3004F019F90443A4B2002C3AD101AB31
:102EEC001B881B046A46063212881343254A9360DA
:102EFC008D206B46991D400004F006F9002837D14F
:102F0C006B4606331B881F4A13731B0A53731C2012
:102F1C006B46991DFF3004F0F7F800282ED16B4654
:102F2C009A79184BDA76002002B010BD154B164A70
:102F3C0091799971D279DA719AE7134B1A88A1E7D2
:102F4C00114B5A88AAE70F4B0F4A11791971527914
:102F5C005A71B4E70D4B1B78002B04D0094BE122BE
:102F6C0052029A60C4E7084B9A68064B9A60BFE716
:102F7C00044B18225A7300221A73C8E7024BDA7EEC
:102F8C00CFE7C0463C690020000000207E0A0020EC
:102F9C0010B51A4CE3795B01A17919438A204000E2
:102FAC0004F0DEF821881620FF3004F0D9F861888F
:102FBC008B20400004F0D4F863791B02217B194369
:102FCC001820FF3004F0CCF821898C20400004F04C
:102FDC00C7F861891A20FF3004F0C2F8637B1B022A
:102FEC00217919438D20400004F0BAF8E17E1C20B1
:102FFC00FF3004F0B5F8002010BDC0463C6900203D
:10300C00F0B5CE46474680B589B01E236B440022EE
:10301C001A80364EEC2401250F27012398464CE0EC
:10302C00B2727374A80083B299461800E93080B26A
:10303C001E236B44190004F067F86B46DB8B1A0AED
:10304C00F272B3734846EA3080B21E236B44190007
:10305C0004F05AF86B46DB8B1A0A3273F37348464A
:10306C00EB3080B21E236B44190004F04DF86B4614
:10307C00DB8B1A0A72733374EBB2B07A994619006F
:10308C0004F076FF717CF37A4A104046024001400E
:10309C0000200590307C0490F07B0390B07B029074
:1030AC00707B0190307B0090484605F07BF8013531
:1030BC000434A4B20936082D12D01E236B44190017
:1030CC00200004F021F80028F1D16B46DB8B190AA3
:1030DC001A0BAA42EBD13A000A400F42E7D09FE705
:1030EC00002009B0C0BCB946B046F0BDEC140020BD
:1030FC0010B5FFF71FFCFFF7BBFCFFF71DFDFFF73B
:10310C0061FDFFF7B5FDFFF7A1FEFFF779FFFFF7B4
:10311C008BFB10BD30B58FB004AB009307AB122204
:10312C006A4408A9012008F019FE03AC009405AB11
:10313C000E226A4406A9022008F010FE01230A930D
:10314C0000250B956B465B8A099309A908980CF02E
:10315C0047FD0A9502230B932388099309A9059827
:10316C000CF03EFD6B46598A002208980CF028FEA4
:10317C00052009F099F9218805980CF01BFE030035
:10318C000020002B01D00FB030BD12336B441988D6
:10319C00012208980CF014FE052009F085F903AB08
:1031AC00198805980CF006FE013843425841C0B20C
:1031BC00E9E7000010B5074B074A12689A4200D1A4
:1031CC0010BD04F07DF80028FAD1034B014A1A60B7
:1031DC00F6E7C046ADDEEFBEF07F002010B509F07B
:1031EC0049FB0400E1231B0243608023DB000361E5
:1031FC0080235B0183600EF00DFA22681368202196
:10320C000B43136010BD000010B5044B9968FCF71C
:10321C0073FF43425841C0B210BDC0468400002029
:10322C00F8B505001B49FCF767FF060006271A4C8A
:10323C00002E23D021002800FCF75EFF00281FD0B1
:10324C0016492800FCF758FF00281BD01449280009
:10325C00FCF752FF002817D012492800FCF74CFF4E
:10326C00002813D010492800FCF746FF00280FD087
:10327C00013FFFB2002FDBD13800F8BD0127FBE77F
:10328C000227F9E70327F7E70427F5E70527F3E714
:10329C000627F1E7408001084480010848800108B6
:1032AC004C8001085080010854800108F0B583B0AF
:1032BC00070001240E4D032603E00134E4B2072C71
:1032CC0012D0A742F9D00B4B1B881A0A2A706B70CC
:1032DC00AC7000960A2300220021200005F044FA6D
:1032EC000A2009F018FCE8E7002003B0F0BDC04646
:1032FC00280F002050000020F0B5DE4657464E4601
:10330C004546E0B583B000AF474B1D78EB1DDB089D
:10331C00DB006A46D31A9D466C46002D09D0434A01
:10332C0000230021E154118001330232DEB2B54298
:10333C00F8D8013801232354162242433C4BD218AF
:10334C0000213A4E40000123984601339C467D6093
:10335C00A34603E001310232062911D05388002B19
:10336C00F8D0855BA94645468D40AA464D46544645
:10337C0025438553DB085B44013B64461C70E9E73D
:10338C007D685C46022399464B460133DBB2994675
:10339C00002D40D026480022002601235B424B44DE
:1033AC00B4461E002AE0013107291FD04B00C35A36
:1033BC00002BF8D0DB08013BE55C002DF3D14D1E52
:1033CC00AA4601255646B540AA46184D555BAB4654
:1033DC0055465E463543AA46144D564656534D4601
:1033EC00E55463460133DBB29C46DCE742467D681C
:1033FC003E6801321630D3B29D4209D9A35CB34268
:10340C00F7D1530001217D6090463E601A00CDE754
:10341C006646002EB8D10020BD4603B0F0BCBB46BA
:10342C00B246A946A046F0BD1C000020A80C002006
:10343C00800A0020F0B5DE4657464E464546E0B5BC
:10344C0091B006008A46002403942E22002104A881
:10345C000EF0B9FC1922002158480EF0B4FC3500CE
:10346C00701E574B1C54574B1C5416267043564E0B
:10347C0081190191012053469AB202E001300728CC
:10348C0010D04300CB5A002BF8D0DB089342F5D177
:10349C004B4B5344013B01221A70484B52461A7055
:1034AC00C0B283E0494B1978002914DD0123444A4A
:1034BC00541EFF229046434A501E0022944602E0BE
:1034CC0001338B4207DC9D42FAD04246E2541A1873
:1034DC0066461670F4E700243B4B98460C23434495
:1034EC009946374DD34603A8FFF78CF900282ED107
:1034FC0003A93348FFF768F90130C4B25C450BD01F
:10350C00671E03AB0122DA55162078434346C118D7
:10351C00484403AABA4605E0DA465C4618E0023194
:10352C008142E0D04B88002BF9D0DB08DBB2013BA9
:10353C00D65C002EF3D15646AE5D0136F6B2EF5C8A
:10354C00B742ECD91E4FFE541E4EF454E7E7DA4650
:10355C001C4B1B19013B1978002300290DD0174D6A
:10356C00184800E011001A000133DBB2AC544218C9
:10357C00013A12780C00002AF4D101200F4C104BA8
:10358C0053441F00013F019902E0013007280CD081
:10359C004300CB5A002BF8D03A78A218013A127893
:1035AC00DB089A42F1D1C0B200E0002011B0F0BCAF
:1035BC00BB46B246A946A046F0BDC046F469002001
:1035CC00FC10002018110020800A00201C00002094
:1035DC00F0B5CE46474680B585B080460D00160046
:1035EC001F00364B1878FFF725FF0400002F24D05E
:1035FC00324B1B78AB425ED000229146434550D0F3
:10360C003000FFF7EBFD2000FFF7E8FD2B4B1B789C
:10361C004B453FD0294B197800230393013B029370
:10362C000193033300930B002200300005F0EAFAFB
:10363C0005B0C0BCB946B046F0BD214B5B19013B8F
:10364C001A78012A22D01F4B9B18013B1B789946F4
:10365C001A4B1B784345D3D109F080FB80461A4B9B
:10366C0019682A000EF0A4FD184B196840460EF09C
:10367C00BFFD4046FCF74AFD82B232234146300082
:10368C0009F046F964200BF0B9FAB9E70B4B1B783B
:10369C009946DDE7200009F0EDF8012109F086F9E3
:1036AC00B8E709F05BFB8046094B19683B002A0020
:1036BC000EF07EFDD8E7A9463C009FE75C10002089
:1036CC00FC100020F469002078000020800000200D
:1036DC007C000020F0B5DE4657464E464546E0B528
:1036EC0083B00700594C5A4B220023CB23C21968D4
:1036FC0011609B8893802000FCF708FD82B20123A7
:10370C005B42009333332100380009F0D5F80124D3
:10371C00504B98464D4D01267642220041462800DA
:10372C000EF046FD2800FCF7F1FC82B20096322325
:10373C002900380009F0C0F80134072CEDD1012321
:10374C005B420093333303224349380009F0B4F849
:10375C00424B1B78002B69D000239B46404B9A466A
:10376C00012676423F4B9946B8462BE0072313407F
:10377C00D2083D4935480EF01BFD344D2800FCF7AE
:10378C00C5FC82B2009632232900404609F094F819
:10379C000234BC4207D06288002AE7D133492B4857
:1037AC000EF006FDE9E7009632230222304940462E
:1037BC0009F082F85B460133DBB29B46274B1B7842
:1037CC005B4532D95B465A1C204C514620000EF00A
:1037DC00EFFC2000FCF79AFC82B200963223210009
:1037EC00404609F069F816275B465F434B46FB5A87
:1037FC005900C91849001F4BC918052220000EF0AA
:10380C002BFD0096322305222100404609F054F886
:10381C000096322301221849404609F04DF84B46D8
:10382C00FC18164B9C466744B5E7474601235B42A0
:10383C000093333301221249380009F03DF803B0EC
:10384C00F0BCBB46B246A946A046F0BD9010002085
:10385C00588001086C800108608A01081C00002057
:10386C0074800108800A002084800108808001088F
:10387C009081010808850108688001088C0A0020E5
:10388C00F49D0108F0B5D6464F464646C0B582B009
:10389C008046314C314B220023CB23C223CB23C295
:1038AC001B6813602000FCF731FC82B201235B42E1
:1038BC00009333332100404608F0FEFF284B1B7861
:1038CC000127002B2CD0274E274B994624E0224B66
:1038DC009A4623003A00494650460EF069FC504681
:1038EC00FCF714FC82B201235B4200933333514644
:1038FC00404608F0E1FF0A2C08D021000134AA5BF5
:10390C0080231B020B411342F5D0E0E70137FFB2D5
:10391C00134B1B78BB4203D300247D1E6D00ECE7D8
:10392C000D4C124B220023CB23C223CB23C203CB3F
:10393C0003C22000FCF7EAFB82B201235B42009336
:10394C0033332100404608F0B7FF02B0E0BCBA4662
:10395C00B146A846F0BDC046901000208C800108EE
:10396C001C0000206C6D0020A8800108BC800108A0
:10397C00F0B5D6464F464646C0B582B0804609F0F3
:10398C00EDF9040000230370914B1A78914D924984
:10399C0028000EF00DFC290020000EF029FC8F4BA6
:1039AC001A788F4928000EF003FC290020000EF035
:1039BC001FFC04230093023B00228A4928000EF0CE
:1039CC00F7FB290020000EF013FC874A87492800DA
:1039DC000EF0EEFB290020000EF00AFC844A85490B
:1039EC0028000EF0E5FB290020000EF001FC824BB4
:1039FC002A0043CB43C219681160998891809B7946
:103A0C009371290020000EF0F3FB01257B4B9946A6
:103A1C00704F7B4B9A460EE06E4B7A4A11681960D8
:103A2C009188998092799A716A4920000EF0E0FB96
:103A3C000135072D39D02A00494638000EF0B8FB65
:103A4C00390020000EF0D4FB5346EB5C042BEBD872
:103A5C005346EB5C9B006C4AD3589F465D496B4BBD
:103A6C000A0043CB43C203CB03C21B781370DBE7C2
:103A7C00584A674B43CB43C2D6E75649654B0A00BD
:103A8C0043CB43C243CB43C21B881380CCE7514981
:103A9C00614B0A0043CB43C243CB43C2196811604C
:103AAC00998891809B799371BEE74A495B4B0A00D8
:103ABC0061CB61C261CB61C220000EF099FB584E04
:103ACC000127444D0EE0434B9A463A0055491800E5
:103ADC000EF06EFB514620000EF08AFB0137383693
:103AEC00072F17D03368002BEDD0706A07F028F839
:103AFC008246BB004C4AD05807F022F8009053463F
:103B0C003A004A4928000EF053FB290020000EF021
:103B1C006FFBE3E72000FCF7F9FA20180322444975
:103B2C000EF048F92000FCF7F1FA20181D2241494B
:103B3C000EF040F92000FCF7E9FA814600253E4ED4
:103B4C00234F0CE0234B9A462A003C4918000EF0F8
:103B5C002FFB514620000EF04BFB062D0BD02900FD
:103B6C0001353B78013B5B009A5B80231B020B41C8
:103B7C001342F2D0E6E72000FCF7C8FA4B461E04CD
:103B8C00360CB04210D02000FCF7C0FA20180322EB
:103B9C0027490EF00FF94346002B0BD102B0E0BCC5
:103BAC00BA46B146A846F0BD2018052224490EF0AD
:103BBC0001F9E8E72000FCF7A9FA82B201235B4285
:103BCC00009333332100404608F076FEE6E7C0460A
:103BDC005C10002090100020DC8001087F0A00207F
:103BEC00F880010814810108348101084081010822
:103BFC0058810108648101088081010894810108C1
:103C0C00E01000209C81010898820108A481010821
:103C1C00BC810108C8810108E48101080482010803
:103C2C000C1900201C82010888140020388201081D
:103C3C0090810108688201086C6D0020888201085F
:103C4C0090820108F0B5C64600B506002949FCF77C
:103C5C0053FA002810D028493000FCF74DFA002800
:103C6C0045D033789846232B0BD0244B1F78002F4C
:103C7C002AD0234D00241CE0224B187880BCB84677
:103C8C00F0BD701C0DF035FEC3B2002B03D01B4AE7
:103C9C0012789A4206D21B4A127866209A42EDD1CB
:103CAC0018B2EBE718B2E9E70134E4B20A35BC42CA
:103CBC000AD029003000FCF71FFA0028F4D1434643
:103CCC00002BF1D020B2D9E70F4F0025390030007E
:103CDC00FCF712FA002805D001350A370A2DF5D168
:103CEC006420CBE72C02FE20204300B2C6E7FF2065
:103CFC00C4E7C046AC820108B08201081C00002059
:103D0C00580F00205C1000204C0E0020F0B583B042
:103D1C0001900E00284C2500103521003000FCF7D6
:103D2C00EBF900283FD00434AC42F6D1234B1F787A
:103D3C00012F0BDD224C012521003000FCF7DCF9B2
:103D4C00002832D001350A34BD42F5DB1D4C25006C
:103D5C00643521003000FCF7CFF9002828D00A3454
:103D6C00AC42F6D1184C194B1C601F0023681D681F
:103D7C002800FCF7CBF90200290030000EF05BFAAA
:103D8C00002817D064683C60002CEFD1019B980090
:103D9C009C46604440000E4FC01931000EF043FAAF
:103DAC00FEF788FE02E0062000E0072003B0F0BD1D
:103DBC000720FBE70820F9E7E48401081C00002039
:103DCC00620F00204C0E002098000020E81000200C
:103DDC00580F0020F0B5CE4600B582B001900E0011
:103DEC00364F3D00002429003000FCF785F90028EF
:103DFC0047D001340A350A2CF5D1314C2500103549
:103E0C0021003000FCF778F9002850D00434AC4283
:103E1C00F6D12C4B1B789946012B0BDD2A4C012536
:103E2C0021003000FCF768F9002842D001350A3433
:103E3C004D45F5DB254C264B1C60994623681D68C7
:103E4C002800FCF763F90200290030000EF0F3F9AA
:103E5C00002830D064684B461C60002CEED13B78B7
:103E6C00002B1BD001340A370A2CF8D1019F013FDB
:103E7C0018497F000122A2407B5A13437B52002039
:103E8C0008E0019F013F13497F000122A2407B5AA9
:103E9C0013437B5202B080BCB946F0BDA0000019A0
:103EAC004000064B181831000EF0BDF9DEE7062075
:103EBC00F0E70720EEE70820ECE7C0464C0E0020A8
:103ECC00E48401081C000020620F002098000020F0
:103EDC00EC100020B00E0020F8B5DE4657464E46DA
:103EEC004546E0B5234B1B789946002B3AD001256B
:103EFC0000239946204B98469B46204F204B9A46D0
:103F0C001DE000248026360202E00134062C10D07D
:103F1C00601CC0B208F0AEFC436BB342F5D15B46FB
:103F2C001B78013B5B00DA5B310021410A43DA5319
:103F3C00EBE70135EDB20F4B1B78AB4212D3434686
:103F4C001B78AB42DDD000221321280004F034FE94
:103F5C00322008F0A9FA53461B78002BE9D0022333
:103F6C009946E6E74846F0BCBB46B246A946A04691
:103F7C00F8BDC0461C0000205C1000206C6D0020B9
:103F8C00F8100020F8B500240F4F104E80252D029C
:103F9C0007E008F06FFC012108F008FD0134062C45
:103FAC000FD0601CC0B23378013B5B00DB5B2A0096
:103FBC0022411A42EDD108F05DFC002108F0F6FC1C
:103FCC00ECE70020F8BDC0466C6D00205C100020B2
:103FDC0070B508F021F908F0BFF903F0D5F907F036
:103FEC0087FE06F0FFFD08F0EBF907F02DFE08F058
:103FFC0019FA07F01FFF00281AD1FFF78BF80028D9
:10400C0021D03E4B01221A70322008F04DFA06F0F6
:10401C0079FD3B4BE12252029A6001241D00A968F4
:10402C00200008F0B9FC0134E4B2072CF7D10FE002
:10403C00FFF7C0F8BFF34F8F324B334ADA60BFF350
:10404C004F8FC046FDE7322008F02EFA06F05AFDDD
:10405C00FFF74EF8FFF796FF07F032FA2B4B1B7861
:10406C00002B17D180252D019024E4050122290075
:10407C0020000BF0A5FEFA20400008F015FA0022F3
:10408C00290020000BF09CFE02F0B4FF204B012213
:10409C001A7070BD80252D019024E40501222900A1
:1040AC0020000BF08DFEFA20400008F0FDF90022F4
:1040BC00290020000BF084FE642008F0F5F90122A1
:1040CC00290020000BF07CFE642008F0EDF90022A2
:1040DC00290020000BF074FE642008F0E5F90122A1
:1040EC00290020000BF06CFE642008F0DDF90022A2
:1040FC00290020000BF064FEC6E7C0467E0A0020B3
:10410C003C69002000ED00E00400FA055C10002082
:10411C007D0A002010B582B01E200DF015FC0400A5
:10412C001E2200210DF04FFE08498B7D0A7D013ABD
:10413C00920007481258088B0190497D009105495F
:10414C0020000EF035F8200002B010BD3C690020B4
:10415C008C850108F484010800B585B00A00074B72
:10416C00197801230393023B0293019303330093C9
:10417C000B0004F047FD05B000BDC0465C100020EC
:10418C0030B587B005000C00002304930393029311
:10419C0001930093002200210020FEF70FFE6A1EFF
:1041AC00D3009B1ADB00144A9B58002B14D0621EC0
:1041BC00D3009B1ADB00104A9B58002B04D128001B
:1041CC0002F088FE002013E0280002F083FE20009D
:1041DC0002F080FE00200BE0621ED3009B1ADB0075
:1041EC00054A9B58002B05D0200002F073FE0020DE
:1041FC0007B030BD6820FBE70C19002030B5037800
:10420C00002B0FD0084D032404E00170013003781B
:10421C00002B07D0EA5C22401900012AF5D120338B
:10422C001900F2E730BDC0467DAA0108F0B5CE46B4
:10423C00474680B589B00500DE4B1C78052C00D1B3
:10424C001AE2DD49A3001A199200002050541A19E1
:10425C0092008A18507018198000023040180422FD
:10426C0000210DF0B0FD2B78622B02D1AB782E2BF8
:10427C0032D0D24C290020000DF0D5FFD04D2900B2
:10428C0020000EF047FE0400290000200EF042FE34
:10429C000600290000200EF03DFE0500002C00D188
:1042AC00ECE12000FEF7B0FF041E00D194E1002EDB
:1042BC0000D093E16736002D00D0BAE1BD4D2B78CC
:1042CC00BD499A00D0188000653E46540A18D47037
:1042DC0001332B700026ACE16F78303FFFB2002623
:1042EC00062F00D9A5E1B44AA300191989000120B1
:1042FC008854531800225A709F70EE1C0732B14933
:10430C0030000DF098FF002824D1A3001C19A40044
:10431C00A94B1C190523E370FA00D219AA4B9B1860
:10432C001B7A012216001E401A4205D00026A14A13
:10433C001378013313707CE101230593002304935C
:10434C00039302930193009300220121380003F0A0
:10435C0029FFECE70E229D4930000DF06CFF002880
:10436C0020D1A3001C19A400934B1C190623E37045
:10437C00FA00D219944B9B181B7A022216001E408D
:10438C001A4201D00026D2E701230593002304939F
:10439C000393029301930093013A0021380003F038
:1043AC0001FFC4E70C228A4930000DF044FF0028BD
:1043BC007BD1FA00D219844B9B189E78002E0FD01B
:1043CC00FA00D219804B9B18DE78002E29D0FA0007
:1043DC00D2197D4B9B181E79002E44D00C26A6E7D3
:1043EC00754B9846A3001B199B0043440922DA70B5
:1043FC0028000F300DF077FAC3B26E4A11788A009C
:10440C005218920042441371012205920022049228
:10441C0003920292019200920021380003F0C2FE36
:10442C0085E7654B9846A3001B199B0043440A2261
:10443C00DA7028000F300DF056FAC0B25D4B1A78C6
:10444C0093009B189B004344187101230593002390
:10445C0004930393029301930090002200213800EF
:10446C0003F0A0FE63E7544B9846A3001B199B0076
:10447C0043440B22DA7028000F300DF034FAC0B22E
:10448C004C4B1A7893009B189B00434418710123E2
:10449C00059300230493039302930190009300224D
:1044AC000021380003F07EFE41E70D22494930001F
:1044BC000DF0C1FE0026002800D038E7FA00D21912
:1044CC00414B9B185E79002E0FD0FA00D2193E4B4F
:1044DC009B189E79002E2AD0FA00D2193A4B9B18C1
:1044EC00DE79002E44D00D2621E7334B9846A300ED
:1044FC001B199B0043440C22DA70280010300DF07D
:10450C00F2F9C0B22B4B1A7893009B189B004344D2
:10451C0018710123059300230493039302900193D4
:10452C00009300220021380003F03CFEFFE6224BF2
:10453C009846142399465C434444073BE370280097
:10454C0010300DF0D0F9C0B21A4B1B784A465343C9
:10455C0043441871012305930021049103900291A7
:10456C00019100910B000A00380003F01BFEDEE6FF
:10457C00114B9846142399465C434444063BE37024
:10458C00280010300DF0AFF9C0B20A4B1B784A4628
:10459C005343434418710123059304900021039164
:1045AC000291019100910B000A00380003F0FAFD12
:1045BC00BDE6C04603120020586900206811002097
:1045CC00988101083C8D0108EC140020A885010895
:1045DC00B8850108C8850108002E51D0002D51D096
:1045EC002800FEF711FE002829D0284B1D78284AF8
:1045FC00AB005919890004278F5459198900511897
:10460C00CC70C871214C25783000FEF709FE204A89
:10461C00AB005B199B00D318587021788B005B188A
:10462C009B00D3185B78002B2ED00131174B1970DF
:10463C000026300009B0C0BCB946B046F0BD134BE3
:10464C0098461A78124F9300991889000320C85580
:10465C007B18DC7028000DF041F9FEF703F8079089
:10466C0043461B789800C01880000630C0190422FD
:10467C0007A90DF09FFBC5E70E26DAE76726D8E7FA
:10468C006726D6E76726D4E76726D2E70312002011
:10469C0058690020F8B50C00022817D0032803D065
:1046AC0001280FD00020F8BD354B1A78013A930041
:1046BC009B189B00334AD31801221A7406F0ECF8AD
:1046CC000020F0E70800FFF7B1FDECE72C4B1D785C
:1046DC00013DAB005B199B002A4AD318DE68002E03
:1046EC0032D03000FBF712FD07002000FBF70EFD67
:1046FC003918023130000DF099FB224EAB005D19D8
:10470C00AD007519E8601E4D2A78013A93009B188C
:10471C009B00F3187A1CD868801821000DF083FDDB
:10472C002A78013A93009B189B00F318DB6813223C
:10473C00DA552A78013A93009B189B00F618F36817
:10474C00002B12D00020AEE70800FBF7DFFC013095
:10475C000DF0FAF8AB005D19AD000A4B5D19E8607D
:10476C0021000DF060FD00209DE790008018800076
:10477C00044A8018142200210DF025FB0E2092E72C
:10478C000312002058690020F0B5DE4657464E460D
:10479C004546E0B58BB00490039115001C00002336
:1047AC0007930522002108A80DF00DFBD84B994664
:1047BC0029E1E91C0130FFF76DFF002805D1D44B2E
:1047CC0002221A700D23237027E05222D1492000B7
:1047DC000DF0F0FACE4B00221A701EE00622CE49E4
:1047EC0028000DF028FD00280BD0022E00D01AE175
:1047FC0029000220FFF74EFF002824D10D2323703F
:10480C000BE0C34B00221A70C4490330FFF742FF80
:10481C004122C34920000DF0CDFA2378002B00D1A2
:10482C00A8E1039B002B00D1BFE100272000FBF780
:10483C006DFC82B201235B42009333332100049858
:10484C0008F03AF8D4E05222B24920000DF0B2FA46
:10485C00E3E79922701C9200210008F0F5F907009B
:10486C00C2E02722AF4920000DF0A4FAD5E725229B
:10487C00AD4920000DF09EFACFE719220021AB487C
:10488C000DF0A1FA01362800FBF740FC070007A841
:10489C00FBF73CFC013F3A1A3100A5480DF0DCFC5B
:1048AC002800FBF733FC070007A8FBF72FFC3B1A8B
:1048BC009BB21722FF21404604F056F99922920030
:1048CC002100300008F0C0F907002000FBF71EFCA7
:1048DC0020181D2297490DF06DFA85E0059B1812E2
:1048EC00C3B29A46944B9B4652461A701922002129
:1048FC008E480DF068FA731C05932800FBF706FC34
:10490C00060007A8FBF702FC013E321A05998848FD
:10491C000DF0A2FC2800FBF7F9FB060007A8FBF73B
:10492C00F5FB331A9BB217225146404604F01CF992
:10493C00824B1B78013B5B00814A9B5A5A4612788A
:10494C001341DB0706D407AB22007E4920000DF093
:10495C002FFC49E0992292002100059808F074F987
:10496C000700F0E72800FBF7D1FB070007A8FBF7CF
:10497C00CDFB013F3A1A31006D480DF06DFC28005B
:10498C00FBF7C4FB060007A8FBF7C0FB013E361A79
:10499C00B2B21721504604F00FF9059A6A4920006B
:1049AC000DF006FC2378002B02D0039B002B08D1C2
:1049BC002000FBF7ABFB0200002120000DF003FAF6
:1049CC007CE02000FBF7A2FB82B201230093313381
:1049DC002100049807F070FFEAE799229200210069
:1049EC00280008F031F907002378002B00D07FE075
:1049FC002000FBF78BFB0200002120000DF0E3F9F7
:104A0C00002F00D1BEE02800FFF7F8FB4B461E78C4
:104A1C00002E00D0E2E603224C4928000DF00BFCDE
:104A2C00002800D1C5E62E2128000DF0EEFB061E55
:104A3C00D3D00338032246490DF0FDFB0028CCD01F
:104A4C007378444AD35C5B07C7D4721B290007A850
:104A5C000DF002FC07A8FFF7F5F80590374A12781D
:104A6C009046904200D1F4E6642800D1F9E666281D
:104A7C0000D1FCE6FF2800D1FFE66B461B7D9A4671
:104A8C00FE2B00D12AE701360622334930000DF007
:104A9C00D2FB002800D065E7304B00229A71192117
:104AAC00504604F089F8642008F035F82C4B1A783D
:104ABC00224B187800235146FEF78AFD274B9B7931
:104ACC00602B00D0A9E6FA218900012009F040FCF6
:104ADC00244B1B78002B00D19FE6234A138801330B
:104AEC001380059B2200214920000DF061FB94E608
:104AFC00039B002B00D17BE798E601235B420093DC
:104B0C00333338221A49049807F0D6FE46E0C046E3
:104B1C0030120020DC850108308601087080010805
:104B2C003886010880860108A8860108DC0C002064
:104B3C00280F0020D0860108021200205C100020F3
:104B4C00B00E0020F086010824870108D8850108E2
:104B5C007C8601087DAA01081C8701083C6900209D
:104B6C007F0A0020F8100020121700204887010847
:104B7C00688701082000FBF7C9FA02000021200019
:104B8C000DF021F90922002107A80DF01CF90B4B9F
:104B9C001B78002B02D1039B002BAED10BB0F0BCC9
:104BAC00BB46B246A946A046F0BD2000FBF7AEFAC4
:104BBC000200002120000DF006F9E3E7301200207E
:104BCC00F0B5D6464F464646C0B584B001214942A1
:104BDC00012009F0BDFB0F236B4400221A7008F072
:104BEC00BDF88246E1231B03584A92689A420FD0C3
:104BFC000124574E1D0003E00134E4B2072C07D00A
:104C0C003378A342F8D02900200007F0C5FEF3E763
:104C1C00504B1A8853009B185B004F4A9B184F4A05
:104C2C0012784F4C4A4D297800914E4920000DF0D6
:104C3C00BFFA28780A234C4A4C4907F069FE200039
:104C4C00FBF764FA82B228780A23210007F060FE91
:104C5C0000239846464B99461F005CE00F206844A1
:104C6C0002709801434A121800201055404AD4543F
:104C7C000F246C44364B18780A230122210007F0CC
:104C8C0047FE23780D2B27D00A2B42D0082B51D06E
:104C9C001A00203A5E2A3CD84246312A39DC364A80
:104CAC0041465354434601335BB2984631E00022EF
:104CBC00FA5409F029FE3E3C3378013B9A01AA18BC
:104CCC00125D002ACAD13F2CF1D009F01DFE01342F
:104CDC00A4B23F2CF0D9CBE71D4B18780A23022243
:104CEC00264907F015FE4346002B1ED0224C184BCC
:104CFC001878534622000121FFF746FD2100204879
:104D0C000DF091FA3222002120000DF05CF8002306
:104D1C00984609F0F9FD0E4B1B784B44013B1C786F
:104D2C003F2CA5D80A4E134DC6E7154912480DF075
:104D3C007AFADBE74346002BEBDD013B5BB298468E
:104D4C000D4B002241465A54E3E7C0463C69002013
:104D5C007F0A002050000020088501085C1000200C
:104D6C0004120020A487010893020000D0870108D8
:104D7C0034140020B412002034110020689B010868
:104D8C00D011002070B50C001C4B1A78013A93001E
:104D9C009B189B001A4AD318DB68002B2CD0194B9C
:104DAC001B68002B14D0174B1E683378002B12D0C5
:104DBC00132130000DF029FA051E11D0821B310091
:104DCC0020000DF049FA01350E4B1D60012070BD1D
:104DDC000C4B1860E7E70B4B00221A600020F6E73B
:104DEC00310020000DF01FFA2000FBF78FF9361868
:104DFC00044B1E600120EAE70020E8E703120020C4
:104E0C00586900202C120020F0B583B004008300F8
:104E1C001B189B003E4A9B5C012B21D00020032BCE
:104E2C0030D13B4DA60033199B00EB18DA78013AD0
:104E3C0053009B189B00374A9B581F6831198900F7
:104E4C0006314919042201A80CF0B4FF3619B6003A
:104E5C00AD196B78062B53D89B002F4AD3589F461D
:104E6C002B4A800003199B00D3189978CB005B1850
:104E7C000019800012182949585CD378C01A434293
:104E8C005841C0B203B0F0BD391C0198FBF71AFBB6
:104E9C00431E9841F6E7391C0198FBF719FB431E9A
:104EAC009841EFE7391C0198FBF726FB002829D025
:104EBC000021381CFBF706FB43425841E2E7391C42
:104ECC000198FBF70FFB431E9841DBE7391C019857
:104EDC00FBF71CFB002817D00021381CFBF7F2FA5B
:104EEC0043425841CEE7391C0198FBF7EBFA0028F6
:104EFC000CD10021381CFBF7E5FA43425841C1E7BD
:104F0C000020BFE70020BDE70020BBE70020B9E789
:104F1C005869002084000020648A0108EC140020E9
:104F2C00F8B5CE46474680B507F018FF0600204B73
:104F3C001B78002B36D000241E4F1F4B98461AE0CE
:104F4C001E4B1878330042460021FFF71DFC300041
:104F5C00FBF7DCF80200002130000CF034FF49466E
:104F6C00E868FFF70FFF0028EAD10134A4B2104B18
:104F7C001B78A34216D9A3001B199B00FB181B7CA2
:104F8C00002BF2D0E0B2FFF73FFF0028EDD00C4B26
:104F9C0020229A71084B9946A3001D19AD00054BB0
:104FAC005D19DCE70020C0BCB946B046F8BDC04670
:104FBC0003120020586900209C1100207F0A002059
:104FCC003C6900200020704770B582B004001500C9
:104FDC00002301930093002815D001AA0121280079
:104FEC0007F0C0FE0023C356702B0ED06A46022178
:104FFC00280007F0B7FE0CF07CFC132210492000AF
:10500C000CF0D8FE18E072B6FEE701300CF071FC23
:10501C0006006A460221280007F0A4FE0CF069FC89
:10502C000500F0B2290007F0B7FCFF2333402A003B
:10503C00044920000DF0BCF8002002B070BDC04641
:10504C00A88A0108808A010810B5002806D0044BF4
:10505C001A8804490DF0ACF8002010BD72B6FEE7BA
:10506C00CCF7FF1FBC8A0108F0B5D6464F4680B579
:10507C0085B00400100000230393634B1A7802AB35
:10508C001A70002C12D003AA012107F06BFE050048
:10509C005E49FBF731F8002874D15D4B1A785D4BF3
:1050AC009B18013B1F780125594E3EE072B6FEE776
:1050BC002A00594920000DF07BF82000FBF726F858
:1050CC0082B2534B1878642300935A3B210007F0AB
:1050DC00F3FB5422514920000CF06CFE2000FBF72E
:1050EC0015F882B24A4B1878642300935A3B21007E
:1050FC0007F0E2FB0137464B1B78013B9B01484A0A
:10510C00D318DB5D002B0DD19246414B9946012003
:10511C0009F074FD4B461B78013B9B015344DB5D4E
:10512C00002BF4D00135072D35D0EBB299463378EE
:10513C004B45F7D00CF060FE6B461872642300935D
:10514C005A3B012202A9484607F0B6FB484607F035
:10515C0091FB03689B8C6A46127ADBB29A42A7D009
:10516C002A00304920000DF023F82000FAF7CEFF7A
:10517C0082B2274B1878642300935A3B210007F026
:10518C009BFBA6E70023EB56702B0AD00F22264977
:10519C0020000CF00FFE002005B0C0BCBA46B14692
:1051AC00F0BD681C0CF0A5FB0500C6B2731E052BE8
:1051BC0005D91B221D4920000CF0FCFDEBE70CF07F
:1051CC001BFE6B46187264230093323B012202A92A
:1051DC00300007F071FB300007F04CFB03689B8C30
:1051EC006A46127ADBB29A4206D0FF222A400D4957
:1051FC0020000CF0DDFFCEE7FF222A4006492000FC
:10520C000CF0D6FFC7E7C0468C8B0108B0820108B2
:10521C007F0A002034140020DC8A01080C8B010862
:10522C00B4120020F88A0108608B0108708B010809
:10523C00F0B583B0040015000023019300930028FF
:10524C0017D001AA0121280007F08CFD0023C356BA
:10525C00702B10D06A460221280007F083FD002332
:10526C00C356702B28D00F221A4920000CF0A2FD37
:10527C002DE072B6FEE701300CF03BFB0600C7B226
:10528C006A460221280007F06DFD0023C356702BDF
:10529C00E9D101300CF02DFB0500C1B23800FEF74E
:1052AC006FFF00280CD1FF222B00134032400A491B
:1052BC0020000CF07DFF0AE001300CF01AFBD2E765
:1052CC006728D0D01922054920000CF073FD00206E
:1052DC0003B0F0BD608B0108908B0108B08B010806
:1052EC00F0B583B00400150000230193009300284F
:1052FC0017D001AA0121280007F034FD0023C35662
:10530C00702B10D06A460221280007F02BFD0023D9
:10531C00C356702B28D00F221A4920000CF04AFDDE
:10532C002DE072B6FEE701300CF0E3FA0600C7B2CE
:10533C006A460221280007F015FD0023C356702B86
:10534C00E9D101300CF0D5FA0500C1B23800FEF7F6
:10535C0003FF00280CD1FF222B00134032400A49D6
:10536C0020000CF025FF0AE001300CF0C2FAD2E765
:10537C006728D0D01722054920000CF01BFD002017
:10538C0003B0F0BD608B0108CC8B0108F08B0108D9
:10539C00F0B5DE4657464E464546E0B583B00700AD
:1053AC00100000230193002F13D001AA012107F054
:1053BC00D9FC0CF098FA8146C5B2002D03D0314BC4
:1053CC001B78AB4207D223222F4938000CF0F2FC99
:1053DC004FE072B6FEE7FF240440013C2B4B98468D
:1053EC00A60033199B00002292464246514699541E
:1053FC0033199B0043449B46524659703019800028
:10540C000230404404320CF0DEFC5B4652461A7407
:10541C00D8680CF0A3FA5C465346E360194B1E782F
:10542C00B5421CD2FF204B46184084002418A4001F
:10543C00164BE41804E00135EDB21434B5420ED02D
:10544C002378002BF7D014222100200014380CF004
:10545C00B1FC1422002120000CF0B5FCEBE7013E5E
:10546C00084B1E7005F018FA3622094938000CF06A
:10547C00A1FC002003B0F0BCBB46B246A946A04636
:10548C00F0BDC04603120020408C01085869002072
:10549C00088C010810B582B00400100000230193A1
:1054AC00002C14D001AA012107F05CFC0CF01BFAB3
:1054BC00C3B2002B03D0104A12789A4209D223228D
:1054CC000E4920000CF076FC002002B010BD72B624
:1054DC00FEE7FF230340013B9A00D3189B00084AC8
:1054EC00D31800221A7405F0D7F93522054920008B
:1054FC000CF060FCE8E7C04603120020408C010869
:10550C0058690020648C010810B582B004001000AA
:10551C0000230193002C14D001AA012107F022FCD6
:10552C000CF0E1F9C3B2002B03D0104A12789A4266
:10553C0009D223220E4920000CF03CFC002002B0C2
:10554C0010BD72B6FEE7FF230340013B9A00D3184F
:10555C009B00084AD31801221A7405F09DF93822D1
:10556C00054920000CF026FCE8E7C0460312002099
:10557C00408C0108586900209C8C0108F0B5DE466F
:10558C0057464E464546E0B58BB0040006AA804B04
:10559C0023CB23C21B881380002C13D07D4B18788F
:1055AC0001235B420093333337227B4907F084F9A4
:1055BC007A4B1B78002B00D1DDE00027784B984606
:1055CC00784DC3E072B6FEE7754B9B46B300994627
:1055DC009B199B005B441A7CD3009B1A06AA944629
:1055EC0063443A00704920000CF0E2FD4B469B19D5
:1055FC009B005A469B5C012B1CD1B3009B199B0052
:10560C00674AD318DB780B2B42D8082B61D8052BB3
:10561C0051D0062B00D0A5E0B3009E19B600604B0C
:10562C009E19B378F26800922200604920000CF0B9
:10563C00BFFD97E0032B00D094E0B10089198900DD
:10564C000631574B99464944042205A80CF0B2FB8D
:10565C00B3009E19B6004E44F278013A53009B18E1
:10566C009B00534AD3189B6899460598FCF7B2FFE8
:10567C00029003917378013B5A00D2184D4B9B1842
:10568C0000934B4622004C4920000CF091FD69E040
:10569C000C3B022B66D8B2009619B600404A921900
:1056AC009378D1680191127900922200434920002D
:1056BC000CF07EFD56E0B3009E19B600384B9E19D7
:1056CC00B378F268009222003D4920000CF070FD86
:1056DC0048E0B2009619B600314A92199378D16815
:1056EC000191127900922200364920000CF060FDE5
:1056FC0038E02B002200344920000CF059FD280022
:10570C00FAF704FD0200002128000CF05CFB49466E
:10571C00F068FFF737FB0028EBD12000FAF7F6FC16
:10572C0020180C2229490CF045FB2000FAF7EEFC5E
:10573C0082B2184B187801235B420093333321005B
:10574C0007F0BAF8154B1B78BB4214D93E00013751
:10575C00FFB2B246B3009B199B0042469B5C002BE8
:10576C0000D031E70F4B994653469B0053449B00A6
:10577C000B4EF618CBE7A722154920000CF01AFBAC
:10578C0000200BB0F0BCBB46B246A946A046F0BD0B
:10579C00B07F01087F0A0020D48C0108031200207E
:1057AC0058690020341200200C8D01082C8D010842
:1057BC008400002018A50108788D01085C8D010873
:1057CC00188D0108448D0108888D0108908D010801
:1057DC009C8D010810B5041E0CD009F023FA0304AB
:1057EC001B0C1C4A94466344082B2CD89B001A4A69
:1057FC00D3589F4672B6FEE7184A194920000CF0A0
:10580C00D7FC09F009FA030B2200164920000CF012
:10581C00CFFC002010BD144A114920000CF0C8FC2C
:10582C00EFE7124A0E4920000CF0C2FCE9E7104ADF
:10583C000B4920000CF0BCFCE3E70E4A08492000A1
:10584C000CF0B6FCDDE70C4A054920000CF0B0FC6E
:10585C00D7E7C046C0FBFFFFB48E0108448E010899
:10586C00508E01089C8E0108648E0108708E010810
:10587C007C8E0108888E0108948E010870B5041E78
:10588C0023D00E2212490CF095FA124B1B68124DC4
:10589C002200290020000CF08BFC104B1B6822000E
:1058AC00290020000CF084FC0D4B1B682200290001
:1058BC0020000CF07DFC2000FAF728FC20180322B5
:1058CC0008490CF077FA002070BD72B6FEE7C046AE
:1058DC00D88E0108ACF7FF1FE88E0108B0F7FF1F48
:1058EC00B4F7FF1F689B010810B584B0041E0AD0E2
:1058FC0006F032FD1C4B5B7B182B06D00C2B10D00A
:10590C00002004B010BD72B6FEE717494B7C8A7CB0
:10591C00C8890190097C0091144920000CF048FCC6
:10592C00EEE7114BDB7C012B0FD0022BE8D10E499B
:10593C004B7C8A7C0E480290C8890190097C0091AE
:10594C000C4920000CF034FCDAE707494B7C8A7CCC
:10595C0009480290C8890190097C009105492000F2
:10596C000CF026FCCCE7C0463C690020F08E010808
:10597C00488F0108188F0108448F010810B5041EC8
:10598C000AD006F0E9FCFEF7C5FB02000349200033
:10599C000CF00EFC002010BD72B6FEE74C8F010817
:1059AC00F0B5C64600B582B0040015000023019383
:1059BC000093002826D001AA0121280007F0D2F973
:1059CC000600744B1860042273490CF034FC002858
:1059DC0000D092E0371D019B1D1F2A006F49380033
:1059EC000CF029FC002821D16D4B9B79602B0BD03E
:1059FC00202B0FD0002B13D032006A4920000CF062
:105A0C00D7FB86E072B6FEE7674A684920000CF0C7
:105A1C00CFFB7EE0664A654920000CF0C9FB78E0BC
:105A2C00644A624920000CF0C3FB72E02A00624910
:105A3C0038000CF000FC002819D1594BDB79032BF2
:105A4C0009D0012B0DD0002BD6D15A4A5749200032
:105A5C000CF0AEFB5DE0544A544920000CF0A8FB5E
:105A6C0057E0534A514920000CF0A2FB51E02A00A8
:105A7C00524938000CF0DFFB002822D02A00504994
:105A8C0038000CF0D8FB002822D02A004D493800F1
:105A9C000CF0D1FB002822D02A004B4938000CF026
:105AAC00CAFB002822D02A00484938000CF0C3FB5E
:105ABC00002829D13A4B5A79454920000CF078FB43
:105ACC0027E0374B9A68424920000CF071FB20E02C
