:020000040800F2
:1000000000800020B5D4000841D5000835C900089B
:1000100000000000000000000000000000000000E0
:10002000000000000000000000000000F9EF0008E0
:100030000000000000000000A9F0000829C9000825
:1000400041D5000841D5000841D5000841D5000838
:1000500041D5000841D5000841D5000841D5000828
:1000600041D5000885C9000891C90008D1C9000818
:1000700041D5000841D5000841D5000841D5000808
:1000800041D5000841D5000841D5000841D50008F8
:1000900041D5000841D5000841D5000841D50008E8
:1000A00041D5000841D5000841D5000839C90008EC
:0C00B00049C9000859C9000841D50008E2
:1000BC0010B5064C2378002B07D1054B002B02D032
:1000CC00044800E000BF0123237010BD780A002013
:1000DC0000000000CC710108044B10B5002B03D0BC
:1000EC000349044800E000BF10BDC04600000000FA
:1000FC007C0A0020CC71010802780B78002A03D00E
:10010C00013001319A42F7D0D01A70470023C25CFB
:10011C000133002AFBD1581E7047000002B471460F
:10012C0049084900095C49008E4402BC7047C0462E
:10013C0003B47146490840004900095E49008E44E9
:10014C0003BC7047002243088B4274D303098B42D3
:10015C005FD3030A8B4244D3030B8B4228D3030C8B
:10016C008B420DD3FF22090212BA030C8B4202D32D
:10017C001212090265D0030B8B4219D300E0090A55
:10018C00C30B8B4201D3CB03C01A5241830B8B425E
:10019C0001D38B03C01A5241430B8B4201D34B0347
:1001AC00C01A5241030B8B4201D30B03C01A5241AC
:1001BC00C30A8B4201D3CB02C01A5241830A8B4231
:1001CC0001D38B02C01A5241430A8B4201D34B021A
:1001DC00C01A5241030A8B4201D30B02C01A52417E
:1001EC00CDD2C3098B4201D3CB01C01A5241830932
:1001FC008B4201D38B01C01A524143098B4201D36C
:10020C004B01C01A524103098B4201D30B01C01A96
:10021C005241C3088B4201D3CB00C01A5241830810
:10022C008B4201D38B00C01A524143088B4201D33D
:10023C004B00C01A5241411A00D20146524110469D
:10024C007047FFE701B5002000F0F0F802BDC04692
:10025C000029F7D076E7704703460B437FD4002282
:10026C0043088B4274D303098B425FD3030A8B423E
:10027C0044D3030B8B4228D3030C8B420DD3FF22A8
:10028C00090212BA030C8B4202D31212090265D076
:10029C00030B8B4219D300E0090AC30B8B4201D329
:1002AC00CB03C01A5241830B8B4201D38B03C01A70
:1002BC005241430B8B4201D34B03C01A5241030BE7
:1002CC008B4201D30B03C01A5241C30A8B4201D398
:1002DC00CB02C01A5241830A8B4201D38B02C01A43
:1002EC005241430A8B4201D34B02C01A5241030ABA
:1002FC008B4201D30B02C01A5241CDD2C3098B429F
:10030C0001D3CB01C01A524183098B4201D38B011B
:10031C00C01A524143098B4201D34B01C01A5241BE
:10032C0003098B4201D30B01C01A5241C3088B4203
:10033C0001D3CB00C01A524183088B4201D38B00EE
:10034C00C01A524143088B4201D34B00C01A524190
:10035C00411A00D201465241104670475DE0CA0F67
:10036C0000D04942031000D34042534000229C4627
:10037C0003098B422DD3030A8B4212D3FC22890131
:10038C0012BA030A8B420CD3890192118B4208D307
:10039C00890192118B4204D389013AD0921100E069
:1003AC008909C3098B4201D3CB01C01A524183097D
:1003BC008B4201D38B01C01A524143098B4201D3AA
:1003CC004B01C01A524103098B4201D30B01C01AD5
:1003DC005241C3088B4201D3CB00C01A524183084F
:1003EC008B4201D38B00C01A5241D9D243088B42A5
:1003FC0001D34B00C01A5241411A00D20146634648
:10040C0052415B10104601D34042002B00D54942AB
:10041C00704763465B1000D3404201B5002000F0EA
:10042C0005F802BD0029F8D016E770477047C046A2
:10043C008446101C62468C46191C634600E0C0467C
:10044C001FB501F089FC002801D40021C8421FBD52
:10045C0010B501F0E1FB4042013010BD10B501F0C8
:10046C007BFC002801DB002010BD012010BDC04624
:10047C0010B501F071FC002801DD002010BD012039
:10048C0010BDC04610B501F003FC002801DC0020B3
:10049C0010BD012010BDC04610B501F0F9FB0028BD
:1004AC0001DA002010BD012010BDC0468446081C96
:1004BC006146FFE71FB500F0EBF9002801D40021DD
:1004CC00C8421FBD10B500F06DF94042013010BD9F
:1004DC0010B500F0DDF9002801DB002010BD012073
:1004EC0010BDC04610B500F0D3F9002801DD002086
:1004FC0010BD012010BDC04610B500F07BF90028DE
:10050C0001DC002010BD012010BDC04610B500F06C
:10051C0071F9002801DA002010BD012010BDC04681
:10052C00002B11D1002A0FD1002900D1002802D0B4
:10053C000021C943081C07B4024802A140180290CC
:10054C0003BDC046E9FEFFFF03B4684601B502983F
:10055C0000F066F8019B9E4602B00CBC7047C0468A
:10056C00F0B5CE46474615042D0C2E0080B5070479
:10057C00140C3F0C9946030C7E435D436743634365
:10058C007F19340CE4199C46A54203D980235B02E5
:10059C009846C4444B4643435143250C36046544AA
:1005AC00360C2404A4195B19591820000CBC904675
:1005BC009946F0BD9E2110B5C905041CFFF7A6FF96
:1005CC00002803D1201C00F0A9FC10BD9E21201C8A
:1005DC00C90500F0DFFA00F0A1FC80231B069C4645
:1005EC006044F2E770B500220C4B04000D00FFF7DD
:1005FC0053FF002804D12000290002F0EBF970BD54
:10060C00064B00222000290001F080FE02F0E2F9E6
:10061C0080231B069C466044F1E7C0460000E04185
:10062C00F0B54F464646D646C0B5040082B00D0024
:10063C00914698468B422FD82CD04146484602F022
:10064C005FFB29000600200002F05AFB331A9C467F
:10065C00203B9A4600D576E04B46524693401F000D
:10066C004B46624693401E00AF4228D825D05346D5
:10067C00A41BBD41002B00DA7BE00022002300927A
:10068C000193012352469340019301236246934008
:10069C00009318E08242D0D90022002300920193EB
:1006AC000A9B002B01D01C605D600098019902B080
:1006BC001CBC90469946A246F0BDA342D7D9002255
:1006CC000023009201936346002BE9D0FB07984668
:1006DC00414672080A437B0866460EE0AB4201D1E4
:1006EC00A2420CD8A41A9D41012024196D4100216D
:1006FC00013E24184D41002E06D0AB42EED9013EEE
:10070C0024196D41002EF8D1009801995346001917
:10071C006941002B23DB2B005246D3402A00644650
:10072C00E2401C0053461500002B2DDB26005746DB
:10073C00BE40330026006746BE403200801A994105
:10074C0000900191ACE7624620239B1A4A46DA409E
:10075C006146130042468A4017001F4380E76246F9
:10076C0020239B1A2A0066469A402300F340134329
:10077C00D4E76246202300219B1A002200910192AB
:10078C000122DA40019280E72023624626009B1A60
:10079C00DE402F00B0466646B74046463B0033432A
:1007AC00C8E7C04670B542004E024C0045026D0AC7
:1007BC00120EC30F760A240EC90FFF2A0FD0FF2C7E
:1007CC0011D00120A24200D070BDB542FCD18B42A9
:1007DC000DD0002AF8D12800451EA841F4E70120CD
:1007EC00002DF1D1EBE70120002EEDD1E9E700203F
:1007FC00EAE7C04670B54A004E02450244006D0A55
:10080C00240EC30F760A120EC90FFF2C15D0FF2A27
:10081C000ED0002C15D1002A01D1002E1CD0002D99
:10082C0014D08B4227D00220013B1840013870BDF8
:10083C00002EEED002204042F9E7002DFAD1FF2A1B
:10084C000ED0002A0ED1002EEDD00BE00123013981
:10085C00994308000130EAE70020002DE7D0E2E7D9
:10086C00002EE7D18B42DED1944205DD0221581EC9
:10087C0008400138DBE70024A24204DCB542D2D8A0
:10088C000020B542D3D2581E012398430130CEE745
:10089C0030B5420044024D02C30F4800640A120EE8
:1008AC006D0A000EC90FFF2A12D0FF280CD0002AA7
:1008BC0012D1002819D1002D17D1002C2BD00220D9
:1008CC00013B1840013826E0002DF0D0022022E038
:1008DC00002CFBD1FF281FD000281FD1002D1DD1CB
:1008EC000220013B1840013815E0002C0ED08B4241
:1008FC00E5D10022904204DCAC42E0D80020AC42AE
:10090C0009D2581E01239843013004E00123013918
:10091C0099430800013030BD002DD7D18B42CED188
:10092C008242E7DD0221581E08400138F3E7C04639
:10093C00F0B54E4657464546DE46E0B543025B0AE7
:10094C00450083B00F1C99462D0EC60F002D57D0B5
:10095C00FF2D24D08020DB00C004184300238146E7
:10096C009A469B467F3D7C027A00FB0F640A120E6E
:10097C00984623D0FF2A4BD0E30080240020E404C7
:10098C007F3A1C43AD186B1C474601935346774086
:10099C003A000F2B48D87D499B00CB589F46002B23
:1009AC0000D085E008339A46063B9B467C027A00D1
:1009BC00FB0FFF25640A120E9846DBD1002C00D0E9
:1009CC0090E0524601231A4392460120DBE74C4645
:1009DC0058461700022824D0032800D1CFE000226B
:1009EC00002301284DD15802D205400AFF071043BD
:1009FC00384303B03CBC90469946A246AB46F0BD8A
:100A0C00002B5BD104239A46033B00259B46AAE7A7
:100A1C00FF35002C60D1524602231A439246022025
:100A2C00B1E7FF220023DEE74B461B0C9C464B46EE
:100A3C002604360C180461463300220C6446000C64
:100A4C0043434E435043544380191A0C1218964298
:100A5C0003D9802149028C4664441B041B0C1004EE
:100A6C00C01883015E1EB341800E1843130C1B1972
:100A7C009B0103431C00230179D5012362081C4010
:100A8C001443019A7F32002A4DDD630704D00F23F3
:100A9C002340042B00D00434230103D53C4B019A92
:100AAC001C408032FE2ABCDCA3015B0AD2B29AE75E
:100ABC000C239A46093BFF259B4654E7180002F08D
:100ACC0001F94A46431F76259A4000236D42914610
:100ADC002D1A9A469B4646E7524603231A439246E2
:100AEC00032050E7200002F0EDF8431F2D1A9C4024
:100AFC00763D002047E780230027DB03FF2272E7C7
:100B0C00424666E74C463200584662E780234A4626
:100B1C00DB031A4222D01C4220D123435B025B0A26
:100B2C004746FF225FE701239A1A1B2A21DC230088
:100B3C000199D3409E318C401A0023005C1EA341C6
:100B4C0013435A0704D00F221A40042A00D004334E
:100B5C005A0111D49B015B0A002244E780234A46C8
:100B6C00DB0313435B025B0A3700FF223BE7019573
:100B7C0087E70022002336E70122002333E7802396
:100B8C00DB0323435B025B0AFF222CE73C78010862
:100B9C00FFFFFFF7F8B54746CE464400C20F80B5BD
:100BAC0047024802400A8446664648007F0A240EE3
:100BBC00F60025009046FB00000EC90FB146FF2839
:100BCC0000D185E001267140261A914257D0002EA3
:100BDC0043DD002800D07FE04946002900D1AAE07F
:100BEC00013E002E00D0F7E05B1A5A0100D48BE0D6
:100BFC009B019C09200002F065F805388440854271
:100C0C0000DDD3E0451B230020200135EB40451BC4
:100C1C00AC40621E94412343072400251C40012252
:100C2C0041460A40002C04D00F211940042900D061
:100C3C000433590100D480E00135ECB2FF2D00D013
:100C4C00A3E0FF2400235B02E405580AD2072043EB
:100C5C0010430CBC90469946F8BD002E74D1601C14
:100C6C00C0B2012800DCA7E04A469C1A620100D5FC
:100C7C00B6E0002CBED1002200240023E3E7002EB6
:100C8C0000DC85E0002846D0FF2C49D08022484665
:100C9C00D2041043814601221B2E09DC20204C4635
:100CAC00801B84404A462000F240441EA04102436F
:100CBC009B185A0128D50135FF2D00D1A8E001223F
:100CCC00072494491A405B080B4013431C40A6E7C9
:100CDC00002E00D078E775E7FF2C54D080224946CF
:100CEC00D2041143894601221B2E09DC20214846DF
:100CFC00891B88404A460100F240481E81410A4344
:100D0C009B1A5A0100D573E7012241460A40590744
:100D1C0000D089E711E04846002858D1FF2C0CD1AF
:100D2C00DB08002B00D18CE78020C00303435B025F
:100D3C005B0AFF2487E7FF2C25D0DB08FF2DF0D0C2
:100D4C005B025B0AECB27EE7002C4DD0FF2818D07A
:100D5C008024E404724223431B2A00DDC4E01C00FF
:100D6C002025D440AA1A93405A1E934123434A4645
:100D7C000500D31A884638E7721CF8D0F243FF28D6
:100D8C00EAD10A004B46FF25D7E79B015B0A5AE7DD
:100D9C00002E41D1651CE9B2012945DDFF2D00D1A2
:100DAC004FE707244B445B081C4038E707225A4B9B
:100DBC002D1A2340144032E7002C1DD1002B7AD180
:100DCC004B46002B00D191E00A000025B5E7013E0F
:100DDC00002E19D14B446CE7FF2C84D1FF25ACE7D6
:100DEC004A468846D41A05E7002BC5D10A00FF28CD
:100DFC00C8D005004B46A0E7002B49D14B46002B31
:100E0C0077D00A00FF2598E7FF2C00D043E787E74F
:100E1C000A00FF24002316E7002C15D1002B57D114
:100E2C00FF28E6D14B467BE7002C20D1002B57D076
:100E3C004946002953D04B445A0168D50724364AF9
:100E4C001C4001251340EAE6FF28EBD08022D20497
:100E5C00764213431B2E53DC2025AD1B1A00AB40EE
:100E6C00F2405C1EA34113434B44050021E7002BC9
:100E7C00D8D04946002900D152E78021C9030F423E
:100E8C0000D14DE76046084200D049E74B4647E7A2
:100E9C004846FF25002800D14FE78022D203174295
:100EAC0004D06046104201D14B468846012241468F
:100EBC00FF250A4041E7484600281FD01A1A500166
:100ECC0020D54A460724D31A1C4088460025A6E69E
:100EDC00741CC9D0F643FF28BCD14B4620E7994679
:100EEC004B460025DB082BE7012340E700220023BB
:100EFC00A9E680230022DB03FF24A4E600251CE7DF
:100F0C000123B1E7002AF1D013000025FCE60025EF
:100F1C00FAE6C046FFFFFF7DFFFFFFFB41024200E8
:100F2C00C30F490A120E00207E2A0DD99D2A0CD817
:100F3C00802000040143952A0ADC9620821AD140B5
:100F4C004842002B00D108007047034A9818FBE771
:100F5C00963A9140F4E7C046FFFFFF7F70B5041E40
:100F6C0034D001F0AFFE9E22121A962A07DCD2B2C0
:100F7C0008282EDD083884406002400A21E0992AB6
:100F8C0009DD030021001B3399404B1E99410523B9
:100F9C001B1ADC400C43052801DD431F9C40230039
:100FAC000D490B40650709D00F252C40042C05D0AA
:100FBC0004335C0102D59F220B40121A9B01580A84
:100FCC00D2B24002D205400A104370BD002200206C
:100FDC00F7E76002400AF4E7FFFFFFFBF0B54F466E
:100FEC004646D6460C000903C0B5490A470F5E00B9
:100FFC0039431F03DB0F9C4665007B0A570F1F43C9
:10100C006D0DE40F760DA146C000B846D200AB1BA7
:10101C0064457BD0002B5FDD002E00D0A4E03E00A9
:10102C00164300D112E15E1E002E00D09EE1871AFD
:10103C004346B84280410125C91A4042091A0B02A5
:10104C0000D431E149024E0A002E00D16EE130008D
:10105C0001F038FE0300083B1F2B00DD61E120226C
:10106C003900D21A9E40D1409F400E439D4200DD74
:10107C0051E15D1B6B1C1F2B00DD7CE12021C91A8B
:10108C003D0030008F408840DD40791E8F4131009B
:10109C0007222843D940002507433A40002A09D0AB
:1010AC000F233B40042B05D03B1DBB42BF417F426D
:1010BC00C9191F000B0200D426E26A1CC64B550549
:1010CC006D0D9A4200D106E1C44AFF080A4053074D
:1010DC0052023B43120B8EE0002B00D0B8E06B1C8D
:1010EC005B055B0D012B00DC30E1871A4346B842EF
:1010FC00B641CB1A76429E1B330200D54CE13B0025
:10110C003343A1D100220024002570E0002B00DC29
:10111C00E5E0002E00D183E0AF4EB54260D08026D2
:10112C0036043743B846382B00DC3EE143461343C4
:10113C001F007A1E97413F18874280414042091890
:10114C000B0200D4B0E0A44B01359D4200D1C3E0AA
:10115C00A24A7B080A4001210F401F435108D307C4
:10116C0007221F433A4099E79B4EB54238D0802660
:10117C0036043743B846382B00DDDCE01F2B00DC8F
:10118C0030E11E004746203EF740BC46202B04D0E1
:10119C004026F31A46469E403243170063467A1E99
:1011AC0097411F43CCE0002B00D104E2434613438C
:1011BC0000D159E14B07C00818438023C9081B0311
:1011CC00194208D04546ED081D4204D14346D008CB
:1011DC00590708432900420FC9007F4D1143C00035
:1011EC004B07CA087C49C00803438D4268D01203E0
:1011FC006D05120B6D0D002112031800130B0A0D57
:10120C0012051A43764B2D0513402B435B00E40764
:10121C005B08234319001CBC90469946A246F0BDBE
:10122C003E00164312D05E1E002E00D000E187183F
:10123C008742804141444042091801250B0233D5B5
:10124C00022585E764463300414610001D00C7E7C0
:10125C00002D00D0DAE00C000443F3D05C1C00D16C
:10126C009FE15D4CA64200D12FE1DB43382B00DD22
:10127C0066E11F2B00DD83E120240500E41A0F003A
:10128C00DD40D940A0404346A7405B1A441EA04114
:10129C0098462F433843171ABA429241434652425A
:1012AC00991A64463500CAE607223A40002A00D053
:1012BC00F6E64B07CA084849FF083B438D4296D1D6
:1012CC001900114300D19EE1802109030A43120346
:1012DC00120B414D8FE71500002200238BE7002BEA
:1012EC0000D0C7E06B1C5F057F0D012F00DCF1E027
:1012FC00394DAB4200D1B9E085180A0085428941CD
:10130C004244494251180722CF076D082F43490820
:10131C003A401D00C2E607223049ED1A31403A40EE
:10132C00BCE63E002838864000279FE6380001F0D6
:10133C00C9FC20308EE6434613431F007A1E9741AA
:10134C00C71BB84280414042091A78E60E003B00A8
:10135C0006431343002D61D1002E00D0F4E0002B86
:10136C0000D11BE164463900100039E71A4FBB422B
:10137C007AD03300FFE630001F3DE840202B03D02D
:10138C004021CB1A9E4037437B1E9F4107220743C7
:10139C003A400021002589E7171A4346BA42B64164
:1013AC00591A76428E1B64464EE61F2B00DDADE0CB
:1013BC0020264746F61AB740B9461700B246DF401A
:1013CC004E463E4337005646B240561EB241174376
:1013DC004246DA408918AEE6FF070000FFFF7FFFA8
:1013EC00FFFF0F8020264746F61AB740B946170074
:1013FC00B246DF404E463E4337005646B240561E7C
:10140C00B24117434246DA40891A99E77F4CA6420B
:10141C005BD0802424045B42214327E7002E0CD1AF
:10142C00002B00D1CBE0644639001000774DD7E695
:10143C00764FBB4218D0330075E6002B14D04B0707
:10144C00C00818438023C9081B03194207D0FC08A5
:10145C001C4204D17907D0080843E14621004C46D0
:10146C00420FC9001143C000684DB9E61D000022AF
:10147C000023C0E6002D5BD10D00054300D1E2E650
:10148C005D1C00D1B0E0614DAE421FD0DB43382B68
:10149C0071DC1F2B00DD96E020250F00ED1AAF400C
:1014AC00B9460700AA46DF404D463D432F0055463E
:1014BC00A840D940451EA84188440743BF1897420D
:1014CC0092415142414435003AE66446350041466A
:1014DC00100085E60B000343002D00D063E6002BC3
:1014EC00F5D04346134300D17AE6871887428041F2
:1014FC0007224144404209183A400B0200D4D5E679
:10150C00434B01351940C9E5380069E61E004746D2
:10151C00203EF740BC46202B04D04026F31A46460A
:10152C009E403243170063467A1E97411F4302E6E2
:10153C00364DAE42CAD080252D045B422943A6E726
:10154C000843411E8841A6E6002B00D148E6871AC5
:10155C004346B842B641CB1A76429E1B33024BD55A
:10156C00171A4346BA429241591A5242891A072213
:10157C0064463A4092E501430F00791E8F419DE786
:10158C001C000F00203CE740202B03D04024E31A22
:10159C0099400843411E884138437CE600220024D0
:1015AC0025E6171A4346BA429241591A5242891AF1
:1015BC006446350043E541461000144D10E6802288
:1015CC000024120380E61D000F00203DEF40BC46B6
:1015DC00202B03D04025EB1A9940084307006346A3
:1015EC00781E87411F4369E7871897429B41414406
:1015FC005B42C9183500A3E53B003343CED007222C
:10160C0031003A4052E600231A00F4E5FF070000CF
:10161C00FFFF7FFFF0B55746DE464E464546E0B528
:10162C00834607000E03480085B092461C00360B1B
:10163C00400DCD0F002800D19DE0954B984239D03C
:10164C008023F6001B041E43924A7B0F33439946BA
:10165C00944603006344009300230026FF0002938A
:10166C0023031B0B98466300E40F52465B0D019459
:10167C0000D1B3E086498B4200D19EE04246D100B6
:10168C00802212040A435146490F11438B4681496B
:10169C0052468C4600996344CB1A0021D200009329
:1016AC002B0063409A460F2E00D905E17A4BB60009
:1016BC009B599F465B463343994600D0B8E00223C2
:1016CC000826002700900293CAE7CB463A000299FD
:1016DC000195019B9A46022927D0032900D180E26B
:1016EC00012944D06D49009B8C4663441C00002C9E
:1016FC0038DD530700D013E2D2085B46DB0109D575
:10170C005946674B19408B468021C9008C46009B7B
:10171C0063441C00634B9C4207DC5B4664055F071B
:10172C005B0217431B0B620D02E000230027584A93
:10173C0000211B031C0B0B0D1B05234314055A4ADC
:10174C00380013401C4353466400DB0764081C43F9
:10175C00210005B03CBC90469946A246AB46F0BD74
:10176C000122524201231B1B382B00DCADE100226D
:10177C0000230027DCE75B46334399465ED0002EFE
:10178C0000D18AE1300001F09DFA03000B3B1C2BC9
:10179C0000DD7BE11D22D31A5A460100DA400839DC
:1017AC008E4013005F46334399468F403F4B0026D3
:1017BC001B1A00930023029352E7414653460B43F6
:1017CC003B499B468C46009B634400935B46002B35
:1017DC003BD1022300221E43022161E743461343FF
:1017EC009B4637D04346002B00D162E1404601F0C6
:1017FC0069FA03000B3B1C2B00DD53E10200414650
:10180C00083A914088461D21CB1A5146D9400B000D
:10181C0041460B439B46534693401A00009B254977
:10182C009C46604403008C4663440093002137E7D8
:10183C000323B14600900C26029311E7002300937A
:10184C0001330426002702930AE70323C3461E43F1
:10185C00032125E701331E430022012120E7002349
:10186C009A46802300271B03094A61E780234946D7
:10187C001B03194200D1E2E05946194200D0DEE0C8
:10188C000B431B0317001B0BA246014A50E7C04633
:10189C00FF07000001FCFFFF7C780108FF0300003C
:1018AC00FFFFFFFEFE070000FFFF0F800DFCFFFF98
:1018BC0001F8FFFFF3030000D94500D9CBE000D1BC
:1018CC00C6E03C0048460027009B013B00935B466A
:1018DC00160E1B021E431302984633041B0C99462A
:1018EC00310C0191FEF7B4FC4A4642430B04210C27
:1018FC00050019438A4207D98919013D8E4203D844
:10190C008A4201D9851E8919881A0199FEF7A0FC13
:10191C0009048C464A46210464464243090C0300E0
:10192C0021438A4204D98919013B8E4200D8F1E047
:10193C002D041D43AB464346891A4246280C12041B
:10194C001D0C5B46140C22001B041B0C5A43039405
:10195C006B434443029568431B19150CEB189C42CE
:10196C0003D980246402A44660441C0C15041B0497
:10197C002D0C20185D19814277D373D00C1AA24A12
:10198C007D1BAF42BF419446009B7F426344E01BEA
:10199C001C00864200D1DBE00199FEF759FC4A4657
:1019AC0042430B04290C070019438A4207D98919B1
:1019BC00013F8E4203D88A4201D9871E8919881AA1
:1019CC000199FEF745FC09044A46894629044D460F
:1019DC004243090C030029438A4207D98919013B68
:1019EC008E4203D88A4201D9831E89193F04891A71
:1019FC003A00039F1A43380013041B0C58438146CA
:101A0C000298150C6F43434345434846000C8446EB
:101A1C00DB1963449F4203D980204002844665440D
:101A2C0048461F0C00041B04000C7D191818A94211
:101A3C0000D284E000D17FE001231A4357E68023D3
:101A4C004A461B0313431B031B0BAA466F4A6FE644
:101A5C00BA4200D935E74B46DC0758087B081C43D3
:101A6C00FF0734E70024AF4289D247444745A441DD
:101A7C005B466442A4196418013BA6421ED2A042E4
:101A8C006DD800D1B6E0241A9B4678E703005A467D
:101A9C00283B9A400027914688E6584601F012F9F7
:101AAC00203072E603005246283B9A4093460022AF
:101ABC00B4E6504601F006F920309AE6A642E2D18F
:101ACC00B845DCD9341A9B4659E71F2B65DC504CC2
:101ADC000099A4465C46614408008C401100824089
:101AEC00D940501E82410C4314435A46DA4013002D
:101AFC00620709D00F222240042A05D02200141DAF
:101B0C009442894149425B181A0262D50122002392
:101B1C0000270DE68A4200D80AE7831E891907E7D9
:101B2C000F231340042B00D1E6E5171D9742924179
:101B3C0053429B44FA08E0E5002800D1D7E5711820
:101B4C00531EB14227D3A94215D358D01A0073E7BC
:101B5C00002B00DC04E6012300229B44CDE502238C
:101B6C004744474589415B429C46494289190C19B7
:101B7C00E344241A03E743465F0047459B41B846BC
:101B8C005B429E19023A8919A94200D054E740459C
:101B9C0000D051E7ABE51A00F6E71F215F4649423A
:101BAC000C1BE740202B07D01A49009B8C46634442
:101BBC0018005B4683401A43501E82413A43072764
:101BCC000023174009D00F210023114014000429D1
:101BDC0095D122005F075B021B0BD2081743002232
:101BEC00A6E5802359461B030B431B0317001B0B55
:101BFC00064A9DE5BD42B2D89B460024BFE680450F
:101C0C00B9D31A00C3E7C046FF030000FF0700006A
:101C1C001E0400003E040000F0B54F464646D64672
:101C2C008446C0B58046194E18030F034D00000BB7
:101C3C005C0082463F0B6D0DC90F9146640DDB0FA6
:101C4C000120B5420AD0B44203D0A54201D1574578
:101C5C000CD01CBC90469946A246F0BD66463E434D
:101C6C00F7D1AC42F5D154461443F2D10120C8450A
:101C7C00EFD1994207D0002DEBD163461F433800BA
:101C8C00471EB841E5E70020E3E7C046FF07000028
:101C9C00F0B54F464646D6464D00C0B50E03C90FAB
:101CAC008A462C491F035C008046360B6D0D91460D
:101CBC003F0B640DDB0F8D421ED08C4216D0002DD5
:101CCC001ED130438446002C01D13A4323D06246C6
:101CDC00002A1AD09A4529D05146022001390840D1
:101CEC0001381CBC90469946A246F0BD3900114300
:101CFC00E5D002204042F4E73043FAD1AC420FD099
:101D0C00002C0FD13A43E7D00CE00122013B934366
:101D1C0018000130E5E763460020002BE1D0DBE73B
:101D2C003A43E6D19A45D7D1A542D5DCA54205DB8D
:101D3C00BE42D1D808D00020BE42D2D25046012398
:101D4C00013898430130CCE7C845C5D80020C845B8
:101D5C00F4D3C6E7FF070000F0B54F464646D6461B
:101D6C004D00C0B50E03C90F8A462E491F035C00F7
:101D7C008046360B6D0D91463F0B640DDB0F8D428B
:101D8C0018D08C4211D0002D18D130438446002C31
:101D9C001ED13A431CD163460020002B30D0514653
:101DAC0002200139084001382AE039001143EAD0F9
:101DBC00022025E03043FBD1AC4226D0002C26D1AA
:101DCC003A4324D15146022001390840013817E02A
:101DDC006246002A0FD09A45E1D1A54205DBBE42EE
:101DEC00DDD819D00020BE420AD25046012301385A
:101DFC009843013004E00122013B93431800013069
:101E0C001CBC90469946A246F0BD3A43D0D19A45A7
:101E1C00C5D1A542C3DCE0E7C845C0D80020C84501
:101E2C00E3D3EDE7FF070000F0B55746DE464E461C
:101E3C004546E0B5834606000F03480087B092463E
:101E4C001D003F0B400DCC0F002800D16FE0DE4B86
:101E5C00984238D08023FF001B041F43730F3B4371
:101E6C000193DA4B0027994600239B46F6008144E8
:101E7C002B0369001B0B52469846490DED0F0029A8
:101E8C0000D185E0D04B994200D173E04346DA0093
:101E9C0080231B0413435246CC48520F84461343F1
:101EAC00524600206144D2008944210069400091CF
:101EBC008C46012149448A460F2F00D990E0C44931
:101ECC00BF00CF59BF465B463B43019300D06AE14C
:101EDC0002230827002681469B46C9E73200584654
:101EEC00019B61460091022800D175E0032800D1C6
:101EFC00FEE1012800D02CE100230027002600255C
:101F0C003F032A0D3F0BB34812053A4302401B0511
:101F1C001343009A5B00D1075B080B433000190098
:101F2C0007B03CBC90469946A246AB46F0BD5B461A
:101F3C003B43019300D12FE1002F00D1A5E13800E4
:101F4C0000F0C0FE03000B3B1C2B00DD96E11D22B4
:101F5C00D31A5A460100DA405E4608398F40130006
:101F6C008E403B4301939C4B00271B1A9946002340
:101F7C009B467DE7414653460B4393498C46E144CF
:101F8C00002B00D01AE102220220174300228CE71A
:101F9C00134300D10DE14346002B00D181E14046B3
:101FAC0000F090FE02000B3A1C2A00DD72E10100E9
:101FBC00434608398B4098461D239A1A5346D34002
:101FCC001A004346134352468A404946081A82492E
:101FDC0089468144002068E77B4B002700268EE76A
:101FEC00140C1204120C1100370C3604350C794306
:101FFC0028008C462E0060436044834656432100E3
:10200C00300C80465846794340440291844506D9A9
:10201C008846802149028C46E044414602913604B0
:10202C00010C360C00048B4681191E0C1B041B0C76
:10203C000391190079438C46280075436544A846E2
:10204C005843050C45447743A94203D980214902E2
:10205C008C466744290C8C4639000004000C2D0476
:10206C002D186144AB4405915946049101990F0414
:10207C003F0C080C390051434243904602008C46F9
:10208C00090C8B4662437C4344445C44A04503D911
:10209C008021490288464244210C88466146090445
:1020AC00090C8C4639005943434370437E430F0C53
:1020BC00F6182404BE19644442448C46B34203D936
:1020CC0080235B0298464044029B61469846049BE1
:1020DC00370443449B46AB45AD416B420D04059917
:1020EC002D0C8C467F196744FD18A8465D462D19AA
:1020FC00A542A44193466442A446C344DC448F42A7
:10210C00BF4198459B4193459241A445A4415B42F4
:10211C007F421F43360C52426442BF192243BF1800
:10212C00624638184302D20D039913436A020A43DC
:10213C00501E82416146ED0D2A434E023243D901B5
:10214C0000D4B3E00126500832400243DE0732438C
:10215C005B08224C5444002C62DD510709D00F203F
:10216C001040042805D0101D9042924152429B18F9
:10217C000200D90104D580241948E40003405444DA
:10218C001848844200DD27E75E075B02D2081F0B6C
:10219C00630516435B0DB2E6002399460133042711
:1021AC0000269B4664E60323019781460C279B4639
:1021BC005EE6012201201743002276E6032303206A
:1021CC001F43434671E6C046FF07000001FCFFFFBA
:1021DC00BC780108FFFF0F800DFCFFFFFF03000020
:1021EC00FFFFFFFEFE0700000023802700933F0344
:1021FC000026434B83E6019B3200A446584670E60A
:10220C00AC466EE6802701993F0339422DD03B4204
:10221C002BD11F433F033F0B00951600384B6EE646
:10222C0001252D1B382D00DD66E61F2D40DC3548C1
:10223C001C005044160082408440EE40501E8241E7
:10224C0034431443EB40620709D00F222240042A86
:10225C0005D02200141D9442804140421B181A02E2
:10226C003ED501230027002649E68027019B3F032A
:10227C001F433F033F0B0094214B40E603005A469B
:10228C00283B9A40002601926DE6584600F01AFD54
:10229C00203057E603005246283B9A401300002298
:1022AC0093E6504600F00EFD20307BE6CA4650E720
:1022BC001F201E004042041BE640202D03D0124C70
:1022CC005444A3401A43501E824132430726002730
:1022DC00164009D00F200023104014000428B9D157
:1022EC0022005E075B021F0BD2081643002306E692
:1022FC0080273F031F433F033F0B1600004BFEE5B7
:10230C00FF0700001E0400003E040000F8B557460D
:10231C004E464546DE460C000903E0B5490A460F19
:10232C005F0031431E03DB0F760A9B46530F33438A
:10233C00C84E6500C000E40FD2006D0DA246814668
:10234C007F0D9C469046B74200D1B9E05B46012612
:10235C0073409B46EE1BA34500D183E0002E63DD4A
:10236C00002F00D0B1E06346134300D123E1731E6C
:10237C00002B00D0BAE1861A6346B0428041012599
:10238C00C91A4042091A0B0200D447E149024B0A10
:10239C0098464346002B00D189E1404600F092FC60
:1023AC000300083B1F2B00DD7CE120223000D21AF9
:1023BC004146D040994002009E400A439D4200DDB8
:1023CC006AE15D1B6B1C1F2B00DD94E120211000CA
:1023DC003500C91A8E40DA408840DD40711E8E41AE
:1023EC00110007222843002506433240002A09D059
:1023FC000F233340042B05D0331DB342B641764234
:10240C0089191E000B0200D43DE26A1C914B550544
:10241C006D0D9A4200D119E18F4AF6080A40570710
:10242C0052023743120B9BE0002E00D0C5E06E1C0D
:10243C007605760D012E00DC48E16746861ACB1B2B
:10244C00B042BF417F42B8461F004346FF1A3B00D3
:10245C00B8461B0200D55FE137439AD10022002415
:10246C00002579E0002E00DCFAE0002F00D18DE091
:10247C00784B9D4267D0802367461B041F43BC46A4
:10248C00382E00DC52E1634613435A1E93411E184A
:10249C0086428041404209180B0200D4BEE06D4BCD
:1024AC0001359D4200D1D2E06B4A73080A400121EC
:1024BC000E401E435108D30707221E43324095E7B6
:1024CC001E00164300D045E740E7624B9D423AD0D0
:1024DC00802367461B041F43BC46382E00DDEBE00F
:1024EC001F2E00DC3AE133006746203BDF403B0007
:1024FC00202E05D04027BF1B6646BE403243904677
:10250C004646721E96413343DAE0002B00D114E2AA
:10251C006346134300D168E180234E07C008C90805
:10252C001B030643194208D06046C008184204D168
:10253C0063460100D2085E071643F3009946C900B2
:10254C00720F444D11434B46DE08424B4F07374345
:10255C00CA089D4200D16EE012036D05120B6D0D81
:10256C0000211203130B0A0D12051A433B4B2D05C8
:10257C0013402B435B00E4075B082343380019002E
:10258C003CBC90469946A246AB46F8BD6346134305
:10259C0011D0731E002B00D007E1861886428041B3
:1025AC0061444042091801250B0237D502257BE70F
:1025BC003E00614691463500C5E75C46002D00D0D3
:1025CC00E1E00B000343F3D0731C00D1ACE1214BD1
:1025DC009F4200D13AE1F343382B00DD6FE11F2B12
:1025EC0000DD8CE120250E00ED1AAE40B046060051
:1025FC00AA46DE40454635432E005546D940A840F4
:10260C006346451EA8415B1A9C463043161AB242DB
:10261C00924163465242991A3D00B4E60722324079
:10262C00002A00D0E4E60B4BF6084F073743CA08E4
:10263C009D4200D090E73B00134300D1A6E18023DC
:10264C001B031A431203120B024D89E715000022DB
:10265C00002785E7FF070000FFFF7FFFFFFF0F80CC
:10266C00002E00D0C7E06B1C5E05760D012E00DC41
:10267C00F0E0C84DAB4200D1B9E085180A008542A4
:10268C0089416244494251180722CE076D082E43F6
:10269C00490832401D00A9E6BF49ED1A1140072236
:1026AC003240A3E6320028388240002686E630000D
:1026BC0000F008FB203073E6634613435A1E934127
:1026CC00C61AB04280414042091A5CE60E006746C9
:1026DC0006431743002D5ED1002E00D0F3E0002FEF
:1026EC0000D11EE15C46614691462CE7A94FBE42E3
:1026FC007BD01E00F1E610001F3DE840202B03D0DC
:10270C004021CB1A9A401643731E9E410722064362
:10271C0032400021002583E7161A6346B2428041FD
:10272C00591A40420B1A98465C4632E61F2E00DDC1
:10273C00ABE02027BB1B9A4663465746BB409946E5
:10274C0013004F46F3401F433B005746BA40571EF9
:10275C00BA4113436246F240891898E62027BB1B06
:10276C009A4663465746BB40994613004F46F34082
:10277C001F433B005746BA40571EBA4113436246AB
:10278C00F240891A9CE7834B9F425FD080252D0431
:10279C007342294320E7002E0CD1002F00D1D0E04A
:1027AC005C46614691467B4DCDE67A4FBE421CD0CD
:1027BC001E0065E6002F18D0C0084E070643802087
:1027CC00C9080003014208D06346DC08044204D166
:1027DC002100DA46D2085E071643F300994601241D
:1027EC005346C900720F11431C406A4DABE61D00E5
:1027FC0000220027B4E6002D59D10B00034300D171
:10280C00D6E6731C00D1B2E0624B9F421ED0F3435C
:10281C00382B6FDC1F2B00DD97E020250E00ED1A06
:10282C00AE40B0460600AA46DE40454635432E0073
:10283C005546A840D940451EA8418C440643B618BD
:10284C0096429241514261443D0025E63D0061466D
:10285C00914678E60B000343002D00D055E6002B83
:10286C00F5D06346134300D16DE68618864280414D
:10287C0061444042091800220B0200D4D0E6464BBA
:10288C0001351940B2E5B1465DE633006746203BA1
:10289C00DF403B00202E05D04027BF1B6646BE40C4
:1028AC00324390464646721E96413343EFE5394B10
:1028BC009F42CBD080252D0473422943A8E70843BF
:1028CC00411E8841A2E6002F00D13CE66346861AE1
:1028DC00CF1AB0429B415B42FB1A98461B024ED565
:1028EC00161A6346B2429241591A5242891A5C46F0
:1028FC0000227BE501430E00711E8E419FE71D00F7
:10290C000E00203DEE40B046202B04D04025EB1AA3
:10291C0099400843814648464346411E8841184326
:10292C0074E60022002417E6161A6346B24292415E
:10293C00591A5242891A3D0025E561469146154DBA
:10294C0001E680220024120379E61D000E00203DD2
:10295C00EE40B046202B04D04025EB1A994008439A
:10296C0081464E464346711E8E411E4367E78618CC
:10297C0096429B4161445B42C9183D008CE5474639
:10298C003743CED007224146324049E600273A0071
:10299C00E6E5C046FF070000FFFF7FFF70B50C4E59
:1029AC000D031C0349005B002D0B490D240B5B0D23
:1029BC00B14208D0064900208B4203D114432000B9
:1029CC00441EA04170BD05430120002DFAD1F1E752
:1029DC00FF07000030B5144D0A034B00120B5B0DC2
:1029EC00C90F0024AB4211DD104CA34210DC802433
:1029FC00640322430E4CE41A1F2C0CDD0D48C31A41
:102A0C00DA4013005C42002900D11C00200030BDCC
:102A1C00094BCC18FAE7094DE040AC4663449A40A8
:102A2C0013000343EEE7C046FE0300001D04000044
:102A3C003304000013040000FFFFFF7FEDFBFFFFDA
:102A4C0070B500282DD0C317C5185D40C40F2800E1
:102A5C0000F038F9154B1B1A5B055B0D0A2815DDC8
:102A6C000B38854000222D032D0B002110002D0367
:102A7C000A0D2D0B12052A430D4D1B052A4013433D
:102A8C005B00E4075B082343190070BD02002900BA
:102A9C00153291400A000B21081AC5402D032D0B4D
:102AAC00E3E70024002300250022DEE71E040000DB
:102ABC00FFFF0F8010B5041E25D000F003F9144B56
:102ACC001B1A5B055B0D0A2812DD0B3884400022B3
:102ADC002403240B0021100024030A0D240B1205DF
:102AEC0022430C4C1B05224013435B00590810BDBC
:102AFC0002002100153291400A000B21081AC44033
:102B0C002403240BE6E7002300240022E2E7C0465E
:102B1C001E040000FFFF0F804100090E4B1C70B516
:102B2C00DBB24602750AC40F012B14DDE0239B00B7
:102B3C006D07360BCB1800210A0D280012051C4D11
:102B4C0032435B052A405B0813435B00E4075B08D8
:102B5C002343190070BD002914D1002D1ED028006C
:102B6C0000F0B0F80A281CDC0B232A001B1ADA40F0
:102B7C00030015339D400F4B12031B1A5B05160BFC
:102B8C005B0DD8E7002D06D0320B802636036D077F
:102B9C001643094BCFE7084B0026CCE70023002651
:102BAC00C9E703002A000B3B9A400025E3E7C04627
:102BBC00FFFF0F8089030000FF070000F0B54C00F9
:102BCC00640D0B03621C5B0A460F5205C90F1E43B2
:102BDC00C500520D012A29DD374BE718FE2F1CDCEE
:102BEC00002F3BDD8001431E98410722F3006D0F3F
:102BFC0003432B431A40002A04D00F221A40042A04
:102C0C0000D004338022D2041A4024D00137FAB207
:102C1C00FF2F02D09B01580A01E0FF220020400246
:102C2C00D205400AC90710430843F0BD3543002CB8
:102C3C0004D1002D0AD100220020F0E7002DECD0A9
:102C4C008020C0033043FF22E9E7002400235B020D
:102C5C00580AE2B2E3E7DB083C00F8E73B00173325
:102C6C00F3DB80231B0433431E26F61B1F2E14DDBF
:102C7C0002225242D71B1A00FA401700202E04D011
:102C8C000E4A94466444A3401D432B005D1EAB4189
:102C9C0007223B431A400027ADE7094A2800A21837
:102CAC00954093406C1EA541F04007222B430343F3
:102CBC001A4000279FE7C04680FCFFFFA2FCFFFFE5
:102CCC0082FCFFFF1C2101231B04984201D3000C42
:102CDC0010391B0A984201D3000A08391B09984283
:102CEC0001D30009043902A2105C40187047C04699
:102CFC0004030202010101010000000000000000B9
:102D0C0010B5002903D1FFF7DDFF203002E0081CCD
:102D1C00FFF7D8FF10BDC046F0B5224B224A1B88E6
:102D2C0083B09BB2934235D01E0A2CD01F4AF6B208
:102D3C0016701F4A13706B46D91D00230222012402
:102D4C009C461C4D63460B700B780A2B14D8631EE3
:102D5C009800C0184000C018124BD7180B783F8849
:102D6C00C3185B00EF520B7802320133DBB20B70ED
:102D7C000B7892B20A2BEFD90134E4B2B442E1D908
:102D8C00002003B0F0BD0121084A01261170084A49
:102D9C001370D0E70122054BFA201A700022044B65
:102DAC001A70EEE700D80108FFFF000008000020B1
:102DBC00980A00200C0F0020F0B5C64600B50F4E47
:102DCC003378002B16D00023012498460C4F611E3B
:102DDC004900651C7918A8B208F00CFA192C01D915
:102DEC000A2398463378ECB2A342F0D2404604BC96
:102DFC009046F0BD00239846F8E7C0460800002036
:102E0C0030730020F0B54E46DE4657464546E0B5D9
:102E1C0083B06B469E1D002333809846174B1C24B1
:102E2C009A46174B9B4643469F00FD18631D9BB269
:102E3C0099466D0055442000310008F0DBF93388C9
:102E4C0001346B70A4B21B0A2B7002354C45F2D1C5
:102E5C00002347447F0057447B7243460133DBB267
:102E6C0098465B461B784345DDD2002003B03CBC42
:102E7C0090469946A246AB46F0BDC046FC0D0020DC
:102E8C0008000020F0B54646D6464F46C0B582B085
:102E9C006B469E1D0023224C338023780025002B8B
:102EAC003AD0204B002199461F1D28004900CB30F9
:102EBC00791880B2013508F09DF9ADB22378E9B2EA
:102ECC008B42F2D838232C00CB359C46ABB29846BB
:102EDC0000239A469934E144A4B24D46671DBFB213
:102EEC002000310008F086F9338801346B70A4B2ED
:102EFC001B0A2B700235BC42F2D14B4652465A7219
:102F0C000A239C46E144A045E7D1002002B01CBC3A
:102F1C0090469946A246F0BD024B9946D2E7C04670
:102F2C0008000020980A0020F0B5CE4647460E2631
:102F3C00002380B585B003AC6E442100E4202380CF
:102F4C00338008F057F90027002800D1277821009A
:102F5C00E52008F04FF931000500E62008F04AF9A9
:102F6C0000230543ADB29846002D04D12388328846
:102F7C001B04984690442100E72008F03BF93100EF
:102F8C000500E82008F036F900230543ADB2994658
:102F9C00002D04D1238832881B04994691442100CA
:102FAC00E92008F027F9002830D0264D2100EA202E
:102FBC0008F020F9002803D123881A0AAA77EB77A6
:102FCC002100EB2008F016F9002805D120222388D7
:102FDC00190AA9540132AB542B7F002B02D06A7F03
:102FEC00002A20D1AB7F002B02D0EA7F002A21D10E
:102FFC002023EB5C002B03D02122AA5C002A0BD1EE
:10300C00002005B00CBC90469946F0BD23880D4DB0
:10301C001A0A2A776B77C9E7009241464A4638006C
:10302C0004F044FDECE7009241464A46380004F0B7
:10303C003DFDD7E7009241464A46380004F036FD84
:10304C00D6E7C046180B00208A2070B582B001ACC0
:10305C002100400008F0CEF800285DD18E20238896
:10306C00544D21002B7040001B0A6B7008F0C2F805
:10307C0000285ED1162023882100DA0BFF305B0874
:10308C002A71EB8008F0B6F84B4D00285ED18B20EE
:10309C002388210040002B8008F0ACF800285FD179
:1030AC00182023882100FF306B8008F0A3F800283B
:1030BC0060D123882B711B0A6B718C20210040007E
:1030CC0008F098F86B4606001A20991DFF3008F09E
:1030DC0091F80643B6B2002E5FD16B46DB8822888E
:1030EC001B041343AB608D202100400008F082F8D4
:1030FC00002845D11C20238821002B73FF301B0A8C
:10310C006B7308F077F8002844D026232B4AD35C45
:10311C00AB76002002B070BD8E20284B254D1A795D
:10312C0021002A705B7940006B7008F063F800286E
:10313C00A0D01620214B21001A7AFF302A715B890E
:10314C00EB8008F057F81C4D0028A0D08B201B4BAF
:10315C0021009B8940002B8008F04CF800289FD060
:10316C001820164B2100DB89FF306B8008F042F8E9
:10317C0000289ED0114B1A7C2A715B7C6B719CE7EA
:10318C00C0231C205B01AB812100FF3008F032F81A
:10319C000028BAD12388AB76BBE72223084AD35C3C
:1031AC00002B03D0E1235B02AB609CE7034B5B6914
:1031BC00AB6098E7246E0020A46E0020080000206D
:1031CC00180B0020F0B5DE4657464E464546E0B596
:1031DC008BB002AB9C461E260023664433800F3313
:1031EC009A460E3B0125EC249B4604E00434013541
:1031FC00A4B2082D5ED03100200007F0FBFFEBB22B
:10320C00071E9946F2D13288130A1909A942EDD149
:10321C0051460B40EAD02B48E900804649198844B6
:10322C004146A8004B7083B21800E9300A7280B294
:10323C003100079307F0DEFF4146338807981A0ADE
:10324C00EA308A704B7180B2310007F0D3FF4146EF
:10325C00338807981A0AEB30CA708B7180B2310030
:10326C0007F0C8FF4146338848781A0A0A71CB71B7
:10327C00494608F06DFB43465846197A9B784A102C
:10328C000240014040460597C07904340490404602
:10329C0080790135039040464079A4B202904046B3
:1032AC00007901904046C0780090484608F05AFCDE
:1032BC00082DA0D100200BB03CBC90469946A246EC
:1032CC00AB46F0BD0C1F0020F8B5DE464546574610
:1032DC004E463220E0B50FF05DF9051E65D03B4C33
:1032EC00FF202278FE2A56D16B1C984664239946FF
:1032FC00374B384E9B46B1442000A2461430291B54
:10330C0022780A5501348442FAD114224146300005
:10331C000FF08DFB0021142228000FF091FB217877
:10332C008B1CDBB2012B42D95746280046370023B1
:10333C0002E00130A74234D001340170217801330E
:10334C008A1CD2B2DBB2012AF3D89A465A1EAA5C66
:10335C00002A02D00133DBB29A4650460FF01AF91C
:10336C00F060002828D0524629000FF060FB5B4625
:10337C005A461B78002101331370280052460FF077
:10338C005FFB2378FE2B02D11436B145B4D1280053
:10339C000FF00AF900203CBC90469946A246AB4679
:1033AC00F8BD322331229A46D1E7FB20F3E7012204
:1033BC00002352429A46CAE71422002130000FF033
:1033CC003FFB28000FF0F0F80E20E4E700DC0108CA
:1033DC0080110020C06E002010B5FFF79DFCFFF798
:1033EC00EBFCFFF70FFDFFF74DFDFFF79DFDFFF722
:1033FC002BFEFFF7E7FEFFF767FF10BDF0B5C646E3
:10340C0000B5104E3378002B16D0002301249846BB
:10341C000D4F07E0192C01D90A2398463378ECB2EA
:10342C00A3420BD3631E5B00F95A651C0029F1D033
:10343C00A8B207F00FFFEDE700239846404604BC06
:10344C009046F0BD08000020307300200023F0B53A
:10345C004646D6464F4698461C4BC0B599461C4B23
:10346C0000269A4605E0534601361B78F6B2B34265
:10347C0025D34B46B400A41964001B5D002BF2D07D
:10348C00454647461C3521374C44ADB2BFB2617836
:10349C001B02C9182800013589B2ADB207F0DAFE5B
:1034AC000234BD4201D02378F1E7434605339BB289
:1034BC009846534601361B78F6B2B342D9D2002057
:1034CC001CBC90469946A246F0BDC046FC0D00209F
:1034DC0008000020F8B5DE4657464E4645468B465A
:1034EC00E0B51E000AAB1B7881B29A460BAB1D7877
:1034FC000CAB1B78E42098460DAB1C780EAB9146B8
:10350C001F7807F0A7FE5B46190A89B2E52007F081
:10351C00A1FE5B46E62099B207F09CFE4B46190AC9
:10352C0089B2E72007F096FE4B46360299B2564414
:10353C00E8202D0207F08EFE4544B1B2E9202402AA
:10354C0007F088FEE419A9B2EA2007F083FEA1B2C5
:10355C00EB2007F07FFE00203CBC90469946A2462B
:10356C00AB46F8BD8A2010B51E4C4000637821781C
:10357C005B01194307F06EFE8E202179E388C903A5
:10358C00194389B2400007F065FE1620164CFF3037
:10359C00218807F05FFE8B206188400007F05AFEFF
:1035AC0018206379217B1B021943FF3007F052FE70
:1035BC008C202189400007F04DFE1A206189FF30D4
:1035CC0007F048FE8D20637B21791B0219434000D4
:1035DC0007F040FE1C20A17EFF3007F03BFE0020D0
:1035EC0010BDC046246E0020A46E0020F0B5C64667
:1035FC00124F00B53422002138000FF021FA104E82
:10360C0033789846002B15D00023012498460225C8
:10361C00192C01D90A2398463378ECB2A34209D36A
:10362C00631E5B00F95A651C0029F1D0A8B207F0A3
:10363C0011FEEDE7404604BC9046F0BD307300200F
:10364C00080000200E2370B512248EB003AD6B441D
:10365C006C4400932A0006AB05A9012008F092F8EF
:10366C0004AA08AB07A90094022008F08BF80123E8
:10367C0000260A932B8809A9059809930B960DF03F
:10368C00D9F802230B93238809A9089809930A9661
:10369C000DF0D0F82988002205980DF06BFA052062
:1036AC0009F0FAFB218808980DF05EFA030000205F
:1036BC00002B0FD12988012205980DF05BFA05200B
:1036CC0009F0EAFB218808980DF04EFA01384342C4
:1036DC005841C0B20EB070BD044B10B59968FCF7E0
:1036EC000BFD43425841C0B210BDC04694000020AF
:1036FC00F8B5DE4657464E4645462349E0B504002C
:10370C00FCF7FAFC214B06009846214B06259946FE
:10371C00204B214F9A46214B9B46002E28D0390036
:10372C002000FCF7E9FC002824D041462000FCF7DF
:10373C00E3FC002820D049462000FCF7DDFC0028E3
:10374C001CD051462000FCF7D7FC002818D0594655
:10375C002000FCF7D1FC002814D0013DEDB2002D67
:10376C00DBD100203CBC90469946A246AB46F8BD46
:10377C000120F7E70220F5E70320F3E70420F1E747
:10378C000520EFE70620EDE7FC7801080479010835
:10379C00087901080C7901080079010810790108F1
:1037AC0070B509F02DFA09F0D1FA07F039FE07F0DF
:1037BC00A7FF06F0F7FB09F0FBFA07F07DFC09F018
:1037CC0029FB08F04DF8002862D1FFF73BFF0028D9
:1037DC0052D022230122384E32200124F25409F017
:1037EC005BFB06F093FBE121344D200001344902D0
:1037FC00E4B2A96009F094FD072C07D02000013435
:10380C00A968E4B209F08CFD072CF7D1FFF7E4FDB1
:10381C0009F01AFE07F094F880219020284B012221
:10382C001B780901C005002B2DD00DF0A3F9FA204F
:10383C00400009F031FB8021902000220901C005D5
:10384C000DF098F9642009F027FB802190200122CB
:10385C00C00509010DF08EF9642009F01DFB8021D3
:10386C00902000220901C0050DF084F903F07EFDC3
:10387C0023230122F25470BD322009F00DFB06F017
:10388C0045FB0D4EC2E70DF075F9FA204000E4E758
:10389C000C4C0D4D2368AB4204D007F071FD002891
:1038AC0000D12560BFF34F8F084B094ADA60BFF394
:1038BC004F8FC046FDE7C046180B0020A46E0020B9
:1038CC00980A0020F07F0020ADDEEFBE00ED00E096
:1038DC000400FA0510B50BF0E3FC06F039F9FFF71C
:1038EC005FFF03F063FD09F057FE10BDF0B5C6464F
:1038FC00124E134B350007000124984600B52435B1
:10390C0082B0A74211D043461B8D2422190A6B703A
:10391C000323B154AC700022009300210733200024
:10392C0004F0B8F90A2009F03DFE0134E4B2072C8A
:10393C00E7D1002002B004BC9046F0BD180B00206B
:10394C0008000020F0B557464E464546DE46E0B529
:10395C0083B06A464B4B00AF1D78EB1DDB08DB00D8
:10396C00D31A9D466E46002D0CD000216C1E464A83
:10397C00E4B2013454326C441970013311800232B8
:10398C00A342F9D101231622013833543F4B424351
:10399C009C463D4B400018180123023262449C4661
:1039AC000133002154249A46B3467D601388002BC2
:1039BC000DD0055BDB08A84665468D40A9464546FB
:1039CC004E463543055355465B44013B1D70013152
:1039DC0002320629EAD15422022392465E469B46C5
:1039EC00294B7D689A445346A8465D463B60434646
:1039FC000135EDB2002B3BD06B1E99460023002203
:103A0C009C46AB4603E00132D3B298452CD9B35C4B
:103A1C004B45F8D116211E4B51439A460020514478
:103A2C00E246944655007D600B88002B12D0DB08D3
:103A3C00013BF25C002A0DD13C687A68155B0122CF
:103A4C00824015437A68155354465A460134F25451
:103A5C00E3B29A46013002310628E5D162460132C2
:103A6C00D3B2D4469845D2D863465D46002BBED11E
:103A7C000020BD4603B03CBC90469946A246AB46DE
:103A8C00F0BDC04608000020180B00200C0F0020D1
:103A9C000E0F0020F0B5DE464E4645465746E0B5C3
:103AAC0091B003AC05000E000191322200212000E0
:103ABC000EF0C6FF1A22002162480EF0C1FF002151
:103ACC002420614B6A1E9C469B18195419721623AC
:103ADC0053435E4A023393465B4499461A0023389B
:103AEC00B1B21388002B03D0DB088B4200D199E0D4
:103AFC00013002320728F4D1554B197801230029E3
:103B0C0000D19AE008226244904600226646FF27C4
:103B1C00924624369D4205D040465A1E8754504644
:103B2C00B218107001338B42F4DD08236344002576
:103B3C00984601220023E05C013302408B42FADB01
:103B4C00002A00D07CE063461A7A23781000002B00
:103B5C0000D0FF200025002301E042469A5C9042F1
:103B6C0004D9E65C002E01D11000DDB201338B428A
:103B7C00F3DB0135019BEDB29D4223D001236F1E77
:103B8C00E35516235E467B430E369A1C5A44F618B0
:103B9C00674400911388002B0FD0DB08DBB2013B8C
:103BAC00E05C002809D1387A63440130197AC0B23C
:103BBC00814202D9242118725D540232B242E9D1F9
:103BCC000099B6E7013B242263449A5C0023002A47
:103BDC0001D10BE00A001B49581CCD5463469B18BD
:103BEC00233319781500C3B20029F3D101204C46B8
:103BFC00019B63442288002A08D0124DD979AC4627
:103C0C00614401390978D208914214D00130023450
:103C1C000728EFD1002011B03CBC90469946A24633
:103C2C00AB46F0BD019901220B006344DA71054BE0
:103C3C00C0B21970EFE7C0B2EDE75B420025C2E7F6
:103C4C006B1EC0E76C6F0020980B00200C0F00203F
:103C5C00080000205C4BF0B51C0045464E46DE4685
:103C6C00574640342200E0B59846584B070023CB0A
:103C7C0023C20125196885B011609B886D42938021
:103C8C002100322300951122380009F0D3FA504B51
:103C9C00012699463200494620000FF0CBF820004F
:103CAC00FCF734FA013682B2009532232100380039
:103CBC0009F0C0FA072EEDD13223009503224549B5
:103CCC00380009F0B7FA444B1B78002B6CD0434BEF
:103CDC0045469B4601235B429846414B00249A463D
:103CEC00404B40359946631C1A003F49280003930A
:103CFC000FF0A0F82800FCF709FA434682B20093B3
:103D0C0029003223380009F095FA16235C435B46F0
:103D1C001B5B05225900C918344B49009C462800EE
:103D2C0061440FF0DCF8434605220093290032234E
:103D3C00380009F07FFA4346012200932C493223C4
:103D4C00380009F077FA5B46A61C0E335E441C194A
:103D5C0011E0494628000FF06DF82800FCF7D6F961
:103D6C00434682B20093290032233800023609F010
:103D7C0061FAA6420AD03288002AEAD007235146BB
:103D8C0013402800D2080FF055F8E6E7434602220C
:103D9C00009318493223380009F04CFA6B461C7B0F
:103DAC000D4B1B78A3429ED801235B42009301224A
:103DBC0033331149380009F03DFA05B03CBC90464C
:103DCC009946A246AB46F0BD980B00201479010829
:103DDC0028790108B4870108080000200C0F002086
:103DEC00407901083C790108307901089472010886
:103DFC00247901084C7A010828920108F0B545464F
:103E0C00DE4657464E463449E0B540310A00334B46
:103E1C00824631CB31C231CB31C21B6883B01360C7
:103E2C0001235B4200931B223333504609F002FA04
:103E3C002B4B1B78002B35D001239946294B9846E8
:103E4C00294B9B464B468026234F5D1E6D0000235D
:103E5C003602403702E023000A2C1BD031004246C8
:103E6C001941525B5C1C1142F5D023004A4659465D
:103E7C0038000EF0DFFF3800FCF748F901235B42F5
:103E8C0082B2009339003333504609F0D3F9230042
:103E9C000A2CE3D14B460133DBB29946104B1B780D
:103EAC004B45CFD20C49114B40310A0031CB31C2BA
:103EBC0031CB31C211CB11C201235B4200931F22C3
:103ECC003333504609F0B6F903B03CBC90469946E2
:103EDC00A246AB46F0BDC046980B002048790108BD
:103EEC0008000020307300206479010878790108FB
:103EFC00F0B5DE464E4645465746E0B585B00290D5
:103F0C0009F058FC00230400974D0370974B403583
:103F1C001A78974928009A460EF08CFF2900200049
:103F2C000EF0A8FF934B94491A7C280098460EF08B
:103F3C0081FF290020000EF09DFF06230022009334
:103F4C008E49043B28000EF075FF290020000EF06E
:103F5C0091FF8B4A8B4928000EF06CFF2900200042
:103F6C000EF088FF884A894928000EF063FF29006B
:103F7C0020000EF07FFF2A00854B43CB43C219680B
:103F8C00200011609988012691809B7929009371FA
:103F9C000EF070FF7F4B99467F4B9B463200494693
:103FAC0028000EF047FF290020000EF063FF434667
:103FBC001433F35C042B0BD85A469B00D3589F4602
:103FCC002A00764B83CB83C283CB83C21B8813809E
:103FDC002900200001360EF04DFF072EDED12A00FD
:103FEC006F4BA04643CB43C243CB43C229002000B6
:103FFC000EF040FF6B4B6C4E01259B461DE0706A2A
:10400C0005F0A0FF5A46AB00043B0400D05805F065
:10401C0099FF40239946544B2A009C46E14400905A
:10402C002300624948460EF005FF013549464046DB
:10403C000EF020FF3836072D11D03368002BDED15F
:10404C00494C2A0040345A4920000EF0F3FE013549
:10405C00210040460EF00EFF3836072DEDD14046BC
:10406C00FCF754F8444605008026524B02221900F6
:10407C00201899460EF0DBFCA81C1D2220184E4976
:10408C000EF0D5FC4D4B384F98464D4B1E350395D5
:10409C00002236029B46403702E02A00062D16D03D
:1040AC00534641461B78551C013B5B00CB5A3100F3
:1040BC0011411942F1D02A00594638000EF0BAFECF
:1040CC00390020000EF0D6FE2A00062DE8D1200083
:1040DC00FCF71CF86B469B8905002018AB423CD0C2
:1040EC00032249460EF0A3FC029B002B0BD02000B0
:1040FC00FCF70CF801235B4282B2009321003333AE
:10410C00029809F097F805B03CBC90469946A24637
:10411C00AB46F0BD2A002B4B83CB83C258E72A0059
:10412C00294B83CB83C203CB03C21B7813704FE79D
:10413C002B00264A83CA83C383CA83C311681960C0
:10414C009188998092799A7142E7214B1A682A607A
:10415C009A88AA809B79AB713AE705221D490EF02B
:10416C0066FC281D2018BBE7980B0020980A00203D
:10417C0098790108180C0020B4790108D07901084D
:10418C00F0790108FC790108147A0108207A0108F9
:10419C003C7A0108507A0108E8710108847A010818
:1041AC00C07A0108FC120020C01B0020F47A010820
:1041BC00D87A01084C7A0108247B0108307300205E
:1041CC00447B0108787A0108607A0108A07A01081A
:1041DC00587A01084C7B0108F0B5C646294900B550
:1041EC000600FBF789FF00282CD027493000FBF78D
:1041FC0083FF00282BD033789846232B30D0234BC9
:10420C001F78002F0FD00024214D29003000FBF720
:10421C0073FF002802D14346002B1AD10134E4B2BB
:10422C000A35A742F1D100241A4D38352900300047
:10423C00FBF762FF00280ED001340A350A2CF5D1A9
:10424C00642001E0134B187804BC9046F0BDFF20AD
:10425C00FAE720B2F8E7FE202402204300B2F3E78D
:10426C00701C0EF024F9C3B2002B03D0074A12784D
:10427C009A4204D2074A662012789A42E4D118B2C4
:10428C00E2E7C046547B0108587B01080800002077
:10429C00FC0D0020980A0020F0B5C6462C4C0700F7
:1042AC0026000D0000B5103621002800FBF724FF76
:1042BC00002840D00434A642F6D1264B1B78012BA3
:1042CC0014D9254C9E00F618230076000A3BF618EC
:1042DC0002E00A34B44209D021002800FBF70CFF9D
:1042EC000028F6D1072004BC9046F0BD1B4E3400CC
:1042FC009C36383421002800FBF7FEFE0028F1D054
:10430C000A34A642F6D1164B164C9846DC6104E0F2
:10431C0043466468DC61002C0FD023681E683000B3
:10432C00FBF7F4FE3100020028000EF0C7FD002858
:10433C00EED10820D7E70620D5E7B800C0190A4F00
:10434C0040002900C0190EF0B1FDFFF77FF8CAE755
:10435C004472010808000020060E0020980A002074
:10436C00180C0020B8000020FC0D0020F0B54F46C2
:10437C004646D6463E4BC0B51F00383780460E0029
:10438C0099463C00002521003000FBF7B5FE0028C3
:10439C002AD001350A340A2DF5D1364C25001035BA
:1043AC0021003000FBF7A8FE002851D00434A542B0
:1043BC00F6D1314B1B78012B20D9304C9D00ED18D8
:1043CC0023006D000A3BED1802E00A34A54215D01B
:1043DC0021003000FBF790FE0028F6D107201CBC12
:1043EC0090469946A246F0BD01224746AA40013F9D
:1043FC007F004F44BB881343BB80F0E7204B214C1C
:10440C009A461C6204E0534664681C62002C0DD072
:10441C0023681D682800FBF779FE29000200300094
:10442C000EF04CFD0028EED10820D8E73B78002B8D
:10443C0010D001340A370A2CF8D18023DB00474610
:10444C00013F7F004F44BA8800201343BB80C6E76E
:10445C000620C4E74B46A00000193833400018185A
:10446C0031000EF023FD0123A3401BB2E7E7C04649
:10447C00980A00204472010808000020060E002053
:10448C00180C0020B8000020F0B5454657464E46A3
:10449C00DE46E0B5824F83B00CAC40CC3D78019049
:1044AC002478A846002E59D020253D7065426C41D9
:1044BC00012522206442AC43A3468446D5B2A946CA
:1044CC00784DE344AA4229D824224C46764DAC546C
:1044DC002A0024325370082B14D8744A9B00D358EA
:1044EC009F460B682435AB710B681B12EB710B6884
:1044FC001B142B720B681B160A22594601986B72FF
:10450C0003F028FE434600203B70002E28D103B058
:10451C003CBC90469946A246AB46F0BD242084464E
:10452C0000208246604654465F4DAC442C54604695
:10453C004370100E8246604654468470100C8246BE
:10454C0060465446120A0271C47062464846507165
:10455C00082BD7D8564A9B00D3589F463E70A5E7E8
:10456C000AF0B6FE24240700524D285D0028CED058
:10457C000AF0AEFEC01BB042F7D3285DC7E70B783C
:10458C002435032220210198AB7003F0E3FDB9E739
:10459C000B782435072259460198AB7103F0DAFDEC
:1045AC00B0E70B682435AB710B681B0AEB710B6819
:1045BC001B0C2B720B681B0E9EE70B782435AB7013
:1045CC004B780A22EB708B7801982B71CB786B713E
:1045DC000B79AB714B79EB718B792B72CB792021E9
:1045EC006B7203F0B7FD8DE70B782435AB714B780C
:1045FC000E22EB718B7801982B72CB786B720B7946
:10460C00AB724B79EB728B792B73CB7959466B73FD
:10461C0003F0A0FD76E70B882435AB710B881BB239
:10462C001B12082259460198EB7103F093FD69E7C0
:10463C000B882435AB710B881B0AF2E70B68243509
:10464C00AB700B681B12EB700B681B142B710B6897
:10465C001B160622202101986B7103F07BFD51E79C
:10466C000B682435AB700B681B0AEB700B681B0CCA
:10467C002B710B681B0EECE70B882435AB700B8889
:10468C001BB21B12042220210198EB7003F062FD77
:10469C0038E70B882435AB700B881B0AF2E7C04651
:1046AC00246E0020FFFFFF07180B0020FC7101088F
:1046BC0020720108180C002030B5012183B01E2097
:1046CC000DF0FCFE040009480949027D058B837D31
:1046DC00013A0195407D92008A18009012692C31A4
:1046EC0020000EF0A7FB200003B030BDA46E00200C
:1046FC004472010800B5084B0A001978012385B0F3
:10470C000393023B02930193033300930B0003F0DA
:10471C0045FD05B000BDC046980A0020002330B509
:10472C0004000D0087B0049303930293019300934C
:10473C00002200210020FEF7CDFE601EC3001249AE
:10474C001B1ADB005B586A1E002B12D0D3009B1A7D
:10475C00DB005B582000002B04D106F03DF9002053
:10476C0007B030BD06F038F9280006F035F9002006
:10477C00F6E7D3009B1ADB005B58002B01D0280016
:10478C00EBE76820ECE7C046C01B0020F0B5D6462E
:10479C0046464F46C0B5274E274D33788046013BE1
:1047AC009C00E418A4002C19E3689A46FBF7AEFCB5
:1047BC0053468146002B2ED05046FBF7A7FC4946AA
:1047CC0002310700091850460EF06CF93278E0609F
:1047DC00013A93009B189B00EB18D8687A1C801840
:1047EC0041460EF063FB3278013A93009B1813227A
:1047FC009B00EB18DB68DA553378013B9800C01846
:10480C0080002818C368002B0DD000201CBC9046DB
:10481C009946A246F0BD01300DF0BCFE4146E06069
:10482C000EF044FBF1E7142200210EF009F90E20E2
:10483C00ECE7C04680110020C06E002070B50478F3
:10484C000500002C0DD003260DF096FE00194278C1
:10485C003240012A00D120342C7001352C78002CE8
:10486C00F2D170BDF0B557464E46DE464546E0B532
:10487C00D84E8BB034780700052C67D0A300D64DEA
:10488C00181980009A462B18994600234A46023084
:10489C0013802818042200210EF0D2F83B78622BEA
:1048AC0002D1BB782E2B57D0331D984618003900F7
:1048BC000EF0FCFAC94C404621000FF077F92100AC
:1048CC00070000200FF072F92100804600200FF045
:1048DC006DF90400002F2FD03800FEF7FDFE434683
:1048EC00071E36D0002B24D0002C25D02000FEF73C
:1048FC00F3FE00286BD0042233789C009946E31811
:10490C009B00EA54EB18DF70D8714046FEF7F0FEBE
:10491C0032784C449300A4009B182C199B006070B7
:10492C00ED186B78002B07D00023013232709846BB
:10493C0004E0002C00D17FE06723984640460BB082
:10494C003CBC90469946A246AB46F0BD0E23984619
:10495C00F4E7002BC8D1EFE77B78303BDBB29B460A
:10496C00002398465B46062BE8D849460123584657
:10497C000B80FB1C887007229949180007930EF0D6
:10498C009DFA00283DD00E22964907980EF096FA13
:10499C0000285ED106234A46D3705B46DA00924B60
:1049AC005A449B181B7A9B070ED40123059343464C
:1049BC00012204930393029301930093002100239B
:1049CC00584607F0CFF8347801343470B6E73278B3
:1049DC00200093009B1803229B00EA54EB18DF7015
:1049EC000DF05AFDFEF7EAF8337809909C00E018B8
:1049FC00800006302818042209A999460EF017F8F1
:104A0C0083E705234946CB705946774BCA005A4475
:104A1C009B1801221B7A1A42D6D1012305934346D7
:104A2C0000220493039302930193009301215846AF
:104A3C0007F098F83478C7E70221327893009B1876
:104A4C009B00E954ED1800230132E870327098464F
:104A5C0074E70C22654907980EF030FA002831D122
:104A6C005B46DA00604B5A449B189A78002A63D054
:104A7C00DA78002A7DD00C221B799046002BA3D12A
:104A8C002300380053449B00EB18013ADA700F30C6
:104A9C000DF007FD3278C0B293009B189B00ED1807
:104AAC000123287105930023002200210493039312
:104ABC00029301900093584607F054F80023347881
:104ACC00984681E70D224A4907980EF0F7F900281D
:104ADC0000D079E75B46444AD900CB18D3185879F3
:104AEC0000285ED09B79002B00D183E059445218EA
:104AFC00D37999460D2398464B46002B00D063E79B
:104B0C001433380098465C43063B2C19E370103084
:104B1C000DF0C7FC42463378C0B25343ED18012365
:104B2C00287105934B460393029301930093002342
:104B3C0004901A001900BEE709234A463800D370C6
:104B4C000F300DF0AEFC3178C3B28A0052189200CF
:104B5C00AD1801222B7105924246049203920292E7
:104B6C000192009200220021584606F0FBFF347897
:104B7C002AE70A234A463800D3700F300DF091FC17
:104B8C003278C0B293009B189B00ED18012328715A
:104B9C0005934346009004930393029301930023DF
:104BAC00E0E70C234A463800D37010300DF079FC46
:104BBC003278C0B293009B189B00ED18012328712A
:104BCC0005934346029004930393019300930023AF
:104BDC00C8E7C04680110020C06E0020547A01083E
:104BEC00E88701081C8001080C1F00202C8001089C
:104BFC003C80010823000D22380053449B00EB1825
:104C0C00DA7010300DF04DFC3278C0B293009B1866
:104C1C009B00ED1801232871059300230390049346
:104C2C000293019300930022002144E7F0B5DE4685
:104C3C00574645464E468A46E0B58BB00290150065
:104C4C000021092207A81C000DF0FAFECD4B564698
:104C5C009846CD4BBA469B462DE00622CB49280000
:104C6C000EF02CF9002857D0022F00D1D2E02E21C3
:104C7C0028000EF00DF9071E07D003380322594601
:104C8C000EF01CF9002800D079E099222100920046
:104C9C00280008F017FD82462378002B39D120001C
:104CAC00FBF734FA0021020020000DF0C9FE534638
:104CBC00002B00D1D0E12800FFF7C0FD3623994628
:104CCC0043464A469F5C002FC7D1333AB04928006F
:104CDC000EF0F4F8071ECAD1E81CFFF7C3FD00283C
:104CEC0000D09FE002234246494653540B332370B5
:104CFC00002E27D000239A462000FBF707FA012349
:104D0C005B4282B2009321003333029808F092FA8E
:104D1C00C5E7002EC3D0EFE743464A4698541A78AD
:104D2C00013A93009B189B4A9B00D31801221A74DA
:104D3C0004F066FF4122984920000DF078FE23789C
:104D4C00002BD5D12000FBF7E1F900210200200057
:104D5C00B2460DF075FE0922002107A80DF070FE79
:104D6C0036234246D35C002B02D15346002B6AD12A
:104D7C000BB03CBC90469946A246AB46F0BD0DF03C
:104D8C00FBFB7B78C01843785B0700D57DE77A1B6B
:104D9C00290007A80EF0A3F807A8FFF71DFA7F4B10
:104DAC0003901B780593984257D0039B642B00D13A
:104DBC00DAE0039B662B00D1DDE07B1C0493039BA4
:104DCC00FF2B00D18BE06B461B7B9946FE2B00D151
:104DDC0002E10622724904980EF070F8002844D1C2
:104DEC00704B00221870192148469A4603F0B2F90C
:104DFC00642008F0D7FB6C4B49461A78674B18783F
:104E0C00002305F021F853461B78602B00D195E068
:104E1C00237895E72800FFF7B9FC00280CD10D2367
:104E2C00237065E75222614920000DF000FE4346D5
:104E3C004A469F54237883E752225C4920000DF0A8
:104E4C00F6FD23787CE701235B4200933822333351
:104E5C005749029808F0EEF98AE79922781C9200DB
:104E6C00210008F02FFC824616E72800FBF74EF9CC
:104E7C00070007A8FBF74AF982467A1E121A049912
:104E8C004C480EF02CF82800FBF740F9534601383B
:104E9C00C21A92B21721484603F05CF9039A4649AC
:104EAC0020000DF0C7FF23782000002B0DD0FBF75E
:104EBC002DF90200002E0BD0012382B200932100A9
:104ECC003133029808F0B6F92000FBF71FF9020005
:104EDC00002120000DF0B4FD324B9A4693E71A22C4
:104EEC00002136480DF0ACFD2800FBF70FF9070048
:104EFC0007A8FBF70BF98146013F3A1A049F2D488E
:104F0C0039000DF0ECFF2800FBF700F94B46C31AF3
:104F1C009BB21722FF21059803F0D6F899222100A5
:104F2C009200380008F0CEFB82462000FBF7EEF82A
:104F3C001D22201822490DF07AFDADE6FA21012040
:104F4C00890009F0E7FD1F4B1B78002B00D15FE7B0
:104F5C001D4A1E491388200001331380039B220035
:104F6C000DF068FF2378EBE62722194920000DF09D
:104F7C005EFD2378E4E62522164920000DF057FD4E
:104F8C002378DDE680110020F0800108A480010860
:104F9C004C800108C06E0020AC800108980A0020EB
:104FAC0090810108246E0020280C002050800108FC
:104FBC00DC8101083C0B002098810108E00D0020E9
:104FCC00448101083C0C0020161B0020BC81010808
:104FDC00F48001081C81010840463722039B002104
:104FEC001F12FBB283541D3A1C4803930DF028FD8D
:104FFC002800FBF78BF8070007A8FBF787F881461A
:10500C00013F3A1A049916480DF069FF2800FBF786
:10501C007DF84F46C31B9BB217220399059803F0EA
:10502C0053F8104B104A1B784146013B5B009B5ACE
:10503C0037228A5C1341DB0706D407AB22000B49ED
:10504C0020000DF0F7FE27E699222100920004982B
:10505C0008F038FB8246F0E7B2467CE6E00D002013
:10506C003C0B0020980A00209C0A00206481010857
:10507C00F0B5DE4657464E46454601210023E0B5C5
:10508C0087B002AA49420120D37309F043FD08F00E
:10509C0091FBE123624A039092681B039A4211D060
:1050AC000125604B197802938D4206D0E12128002E
:1050BC00090308F035F9029B19780135EDB2072D7B
:1050CC00F2D102E0574B19780293574B574D1A887F
:1050DC00383553009B18564A5B009B18554A2800DC
:1050EC001278009154490DF0A5FEA422029C0A23CB
:1050FC0092005249207808F0CFF82800FBF706F808
:10510C000A2382B22900207808F0C6F800234C4A02
:10511C000026904699464B4D029B1F787C1E285DBD
:10512C0083B2BF2B1DD862001119890141449246EC
:10513C000A5C002A0DD14A1C9346BF2B35D15B4625
:10514C001A782E55002A60D10223CA5C1800002A56
:10515C00F3D002A9CA735246121992014244165452
:10516C002B5502A884460F210A23012261443800E2
:10517C0008F092F802ABDB7B0D2B26D00A2B11D05A
:10518C00082B15D07F2B13D01A00203A5E2A09D891
:10519C004A46312A06DC4C462B4A01344A441375E4
:1051AC0063B2994609F04EFFB6E701339BB2CCE7E8
:1051BC004B46002BF6D04C46013CE3B25AB291461A
:1051CC00214A944663441E75ECE7029B0222187830
:1051DC001E490A2308F060F84B46002B18D01A4CD5
:1051EC00029B143418782200039B0121FFF71EFD4B
:1051FC000E48210060300DF059FE322200212000B3
:10520C000DF01EFC00239946CCE701200123A0E7FA
:10521C0006490D48603114300DF048FEDFE7C046FA
:10522C00A46E0020280C00203000002080110020EB
:10523C0094720108980A002018820108448201081F
:10524C008C1300204C13002000120020349A01080B
:10525C00F8B51A4B0C001A78013A93009B18184AAF
:10526C009B00D318DB68002B18D0164EB56C002DA4
:10527C0016D02B78002B0ED0132128000DF008FE31
:10528C00071E10D0421B290020000DF028FE012023
:10529C000137B764F8BDB3640020FBE70020F9E7E1
:1052AC00B0640500E5E7290020000DF0FFFD2000AB
:1052BC00FAF72CFF2D18B5640120EBE780110020C4
:1052CC00C06E002000120020830030B518182E4943
:1052DC0080000B5C83B0012B20D0032B1BD10C184E
:1052EC00E2780630013A53009B18284A9B009B58E1
:1052FC004118042201A81D680DF099FB6378062B58
:10530C0009D8234A9B00D3589F46291C0198FBF7C8
:10531C00F3F8002814D1002003B030BD08188278AF
:10532C00C078D3009B181B4A9B5C181A4342584107
:10533C00C0B2F1E7291C0198FBF7C4F80028EAD1A8
:10534C000021281CFBF7BEF843425841E4E7291C16
:10535C000198FBF7B7F8431E9841DDE7291C01982B
:10536C00FBF7B6F8431E9841D6E7291C0198FBF7CA
:10537C00B9F8431E9841CFE7291C0198FBF7C6F8F2
:10538C000028DDD1C7E7C046C06E00209400002085
:10539C00487301080C1F0020F8B5DE464E46454602
:1053AC005746E0B508F006FA234B060098461B78E2
:1053BC00002B39D0214B224F9B4620239A46214B60
:1053CC00214D00244C37994606E0434601341B78A6
:1053DC00A4B21435A34227D92B7C002BF5D0E0B214
:1053EC00FFF772FF0028F0D05B4652461A700EE0B1
:1053FC004B463A00187800213300FFF717FC3000B9
:10540C00FAF784FE0021020030000DF019FB390080
:10541C00E868FFF71DFF0028EAD1434601341B78EA
:10542C00A4B21435A342D7D800203CBC9046994670
:10543C00A246AB46F8BDC04680110020246E002069
:10544C0000120020280C0020C06E002000207047A5
:10545C0010B5034B03491A880DF0ECFC002010BD6D
:10546C00CCF7FF1FD884010810B50023040082B0CC
:10547C0001A968460093019306F0ECFC69462000F4
:10548C000DF014FD0198FDF747FB02000B00200006
:10549C0002490DF0CFFC002002B010BDF8840108C9
:1054AC0010B50023040082B001A968460093019353
:1054BC0006F0D0FC694620000DF0F8FC0098FDF7D2
:1054CC002BFB02000B00200002490DF0B3FC002066
:1054DC0002B010BD208501080023F0B5140085B082
:1054EC0001930293002301AA0121060020000393DB
:1054FC0008F064F9050002AA0221200008F05EF908
:10550C002B780700323B012B07D9152219493000A3
:10551C000DF08DFA002005B0F0BD28000CF0C7FF8F
:10552C00154DC4B229003800FAF7E6FD002805D065
:10553C0012493800FAF7E0FD002815D129002000A7
:10554C0006F05AFE03AA2900200006F0ADFE03A9BE
:10555C0030000DF0ABFC0398FBF72CF8084982B235
:10556C0030000DF067FCD5E71222064930000DF033
:10557C005EFACFE774850108448501084885010867
:10558C005085010860850108F0B55746DE464E4649
:10559C0045460023E0B585B003935B4B01211B7896
:1055AC00824602AF100003AA3B7008F007F9574976
:1055BC000400FAF7A1FD00285CD1554D554A2B7813
:1055CC000124D218013A1678534A914603E001346B
:1055DC00072C47D02B78E2B290469342F7D00DF0CF
:1055EC0047FA642338700122009339009B464046E9
:1055FC005A3B07F01FFE404607F0A4FE03683A78BA
:10560C009B8CDBB29A423FD02200444950460DF0AD
:10561C0011FC5046FAF77AFD5B4682B25146287867
:10562C0000930A2307F006FE54223D4950460DF024
:10563C00FEF9642328785322009351465A3B07F015
:10564C00F9FD013602E0012009F048FE2A78013A02
:10565C0053009B189B014B449B5D002BF3D00134F2
:10566C00072CB7D1002005B03CBC90469946A24609
:10567C00AB46F0BD0023E356702B16D00F22294900
:10568C0050460DF0D4F9EDE72200274950460DF0B5
:10569C00D1FB5046FAF73AFD5B4682B25146287868
:1056AC0000935A3B07F0C6FDBEE7601C0CF0FFFEF2
:1056BC00C5B26B1E0400052B05D91B221B49504695
:1056CC000DF0B5F9CEE70DF0D3F964233870012253
:1056DC00390000932800323B07F0ACFD002007F0A6
:1056EC0031FEFF22036839789B8C2240DBB2994251
:1056FC0004D00A4950460DF09DFBB3E70A495046C9
:10570C000DF098FBAEE7C046C0750108587B010848
:10571C00280C00204C1300208C130020A8850108B5
:10572C00BC8501082C8601088C85010810860108AF
:10573C0070B51400002382B005006A4601212000D8
:10574C000093019308F03AF80023C356702B10D045
:10575C0001AA0221200008F031F80023C356702B57
:10576C0027D00F22194928000DF061F9002002B052
:10577C0070BD01300CF09BFE01AA06000221200036
:10578C0008F01CF80023C356702BEAD101300CF042
:10579C008EFE0400C1B2F0B2FEF7C0FF00280CD19F
:1057AC00FF2223000A491340280032400DF042FB2F
:1057BC00DCE701300CF07BFED3E76728D1D019224F
:1057CC00044928000DF033F9D0E7C0462C860108B7
:1057DC003C8601085C86010870B51400002382B079
:1057EC0005006A46012120000093019307F0E6FFB3
:1057FC000023C356702B10D001AA0221200007F001
:10580C00DDFF0023C356702B27D00F221949280027
:10581C000DF00DF9002002B070BD01300CF047FE08
:10582C0001AA06000221200007F0C8FF0023C3567E
:10583C00702BEAD101300CF03AFE0400C1B2F0B288
:10584C00FEF758FF00280CD1FF2223000A49134011
:10585C00280032400DF0EEFADCE701300CF027FEA8
:10586C00D3E76728D1D01722044928000DF0DFF8C0
:10587C00D0E7C0462C860108788601089C86010872
:10588C00F0B5D64646464F460024C0B582B001213D
:10589C000600100001AA019407F090FF0CF001FE25
:1058AC00C5B2002D03D0304F3B78AB420BD2232234
:1058BC002E4930000DF0BBF8002002B01CBC904605
:1058CC009946A246F0BDFF2303409A46013B98003F
:1058DC00C018274B800099468046C8444346023086
:1058EC001C800422002148440DF0AAF800234246F3
:1058FC001374D0680CF058FE4346DC603B78AB4226
:10590C002ED9013B581BC0B25044524685002D186D
:10591C00484694005444A400AD0014304C449846BE
:10592C002D1802E01434AC4210D02378002BF9D09F
:10593C0020002100142214380DF079F820001422D4
:10594C00002114340DF07CF8AC42EED143463B7090
:10595C0004F056F93622074930000DF068F8ABE731
:10596C00013B9846F2E7C04680110020EC86010806
:10597C00C06E0020B486010830B5002483B001212C
:10598C000500100001AA019407F018FF0CF089FD26
:10599C00C3B2002B03D00E4A12789A4207D22322AC
:1059AC000C4928000DF043F8002003B030BDFF2354
:1059BC001840013883001818074B8000181804741D
:1059CC0004F01EF93522054928000DF030F8EBE7FC
:1059DC0080110020EC860108C06E002010870108A1
:1059EC00002310B582B001210400100001AA01931C
:1059FC0007F0E4FE0CF055FDC3B2002B03D00F4AA8
:105A0C0012789A4207D223220D4920000DF00FF88C
:105A1C00002002B010BDFF23184001388300181875
:105A2C00084B800018180123037404F0E9F838229D
:105A3C00054920000CF0FBFFEAE7C046801100206E
:105A4C00EC860108C06E002048870108F0B5DE46E0
:105A5C0057464E464546E0B57C4B8BB0043306AA00
:105A6C00070013CB13C21B8879491380794B37225B
:105A7C00187801235B420093333307F0DBFB764B42
:105A8C001B78002B44D00025744BA8469A46744CC6
:105A9C0043469D00E9185E1C8B009B4653465A46B4
:105AAC009B5CF6B2002B40D159465144C868454422
:105ABC00AD0055440EE023003A006A4938000DF061
:105ACC00B9F92000FAF722FB0021020020000CF0AB
