:020000040800F2
:10000000008000203DD50008C9D5000875CA000849
:1000100000000000000000000000000000000000E0
:1000200000000000000000000000000039F300089C
:100030000000000000000000F1F3000869CA000899
:10004000C9D50008C9D50008C9D50008C9D5000818
:10005000C9D50008C9D50008C9D50008C9D5000808
:10006000C9D50008C5CA0008D1CA000811CB0008CC
:10007000C9D50008C9D50008C9D50008C9D50008E8
:10008000C9D50008C9D50008C9D50008C9D50008D8
:10009000C9D50008C9D50008C9D50008C9D50008C8
:1000A000C9D50008C9D50008C9D5000879CA000813
:0C00B00089CA000899CA0008C9D50008D8
:1000BC0010B5064C2378002B07D1054B002B02D032
:1000CC00044800E000BF0123237010BD580A002033
:1000DC000000000094770108044B10B5002B03D0EE
:1000EC000349044800E000BF10BDC04600000000FA
:1000FC005C0A00209477010802780B78002A03D060
:10010C00013001319A42F7D0D01A70470023C25CFB
:10011C000133002AFBD1581E7047000002B471460F
:10012C0049084900095C49008E4402BC7047C0462E
:10013C0003B47146490840004900095E49008E44E9
:10014C0003BC7047002243088B4274D303098B42D3
:10015C005FD3030A8B4244D3030B8B4228D3030C8B
:10016C008B420DD3FF22090212BA030C8B4202D32D
:10017C001212090265D0030B8B4219D300E0090A55
:10018C00C30B8B4201D3CB03C01A5241830B8B425E
:10019C0001D38B03C01A5241430B8B4201D34B0347
:1001AC00C01A5241030B8B4201D30B03C01A5241AC
:1001BC00C30A8B4201D3CB02C01A5241830A8B4231
:1001CC0001D38B02C01A5241430A8B4201D34B021A
:1001DC00C01A5241030A8B4201D30B02C01A52417E
:1001EC00CDD2C3098B4201D3CB01C01A5241830932
:1001FC008B4201D38B01C01A524143098B4201D36C
:10020C004B01C01A524103098B4201D30B01C01A96
:10021C005241C3088B4201D3CB00C01A5241830810
:10022C008B4201D38B00C01A524143088B4201D33D
:10023C004B00C01A5241411A00D20146524110469D
:10024C007047FFE701B5002000F0F0F802BDC04692
:10025C000029F7D076E7704703460B437FD4002282
:10026C0043088B4274D303098B425FD3030A8B423E
:10027C0044D3030B8B4228D3030C8B420DD3FF22A8
:10028C00090212BA030C8B4202D31212090265D076
:10029C00030B8B4219D300E0090AC30B8B4201D329
:1002AC00CB03C01A5241830B8B4201D38B03C01A70
:1002BC005241430B8B4201D34B03C01A5241030BE7
:1002CC008B4201D30B03C01A5241C30A8B4201D398
:1002DC00CB02C01A5241830A8B4201D38B02C01A43
:1002EC005241430A8B4201D34B02C01A5241030ABA
:1002FC008B4201D30B02C01A5241CDD2C3098B429F
:10030C0001D3CB01C01A524183098B4201D38B011B
:10031C00C01A524143098B4201D34B01C01A5241BE
:10032C0003098B4201D30B01C01A5241C3088B4203
:10033C0001D3CB00C01A524183088B4201D38B00EE
:10034C00C01A524143088B4201D34B00C01A524190
:10035C00411A00D201465241104670475DE0CA0F67
:10036C0000D04942031000D34042534000229C4627
:10037C0003098B422DD3030A8B4212D3FC22890131
:10038C0012BA030A8B420CD3890192118B4208D307
:10039C00890192118B4204D389013AD0921100E069
:1003AC008909C3098B4201D3CB01C01A524183097D
:1003BC008B4201D38B01C01A524143098B4201D3AA
:1003CC004B01C01A524103098B4201D30B01C01AD5
:1003DC005241C3088B4201D3CB00C01A524183084F
:1003EC008B4201D38B00C01A5241D9D243088B42A5
:1003FC0001D34B00C01A5241411A00D20146634648
:10040C0052415B10104601D34042002B00D54942AB
:10041C00704763465B1000D3404201B5002000F0EA
:10042C0005F802BD0029F8D016E770477047C046A2
:10043C008446101C62468C46191C634600E0C0467C
:10044C001FB501F089FC002801D40021C8421FBD52
:10045C0010B501F0E1FB4042013010BD10B501F0C8
:10046C007BFC002801DB002010BD012010BDC04624
:10047C0010B501F071FC002801DD002010BD012039
:10048C0010BDC04610B501F003FC002801DC0020B3
:10049C0010BD012010BDC04610B501F0F9FB0028BD
:1004AC0001DA002010BD012010BDC0468446081C96
:1004BC006146FFE71FB500F0EBF9002801D40021DD
:1004CC00C8421FBD10B500F06DF94042013010BD9F
:1004DC0010B500F0DDF9002801DB002010BD012073
:1004EC0010BDC04610B500F0D3F9002801DD002086
:1004FC0010BD012010BDC04610B500F07BF90028DE
:10050C0001DC002010BD012010BDC04610B500F06C
:10051C0071F9002801DA002010BD012010BDC04681
:10052C00002B11D1002A0FD1002900D1002802D0B4
:10053C000021C943081C07B4024802A140180290CC
:10054C0003BDC046E9FEFFFF03B4684601B502983F
:10055C0000F066F8019B9E4602B00CBC7047C0468A
:10056C00F0B5CE46474615042D0C2E0080B5070479
:10057C00140C3F0C9946030C7E435D436743634365
:10058C007F19340CE4199C46A54203D980235B02E5
:10059C009846C4444B4643435143250C36046544AA
:1005AC00360C2404A4195B19591820000CBC904675
:1005BC009946F0BD9E2110B5C905041CFFF7A6FF96
:1005CC00002803D1201C00F0A9FC10BD9E21201C8A
:1005DC00C90500F0DFFA00F0A1FC80231B069C4645
:1005EC006044F2E770B500220C4B04000D00FFF7DD
:1005FC0053FF002804D12000290002F0EBF970BD54
:10060C00064B00222000290001F080FE02F0E2F9E6
:10061C0080231B069C466044F1E7C0460000E04185
:10062C00F0B54F464646D646C0B5040082B00D0024
:10063C00914698468B422FD82CD04146484602F022
:10064C005FFB29000600200002F05AFB331A9C467F
:10065C00203B9A4600D576E04B46524693401F000D
:10066C004B46624693401E00AF4228D825D05346D5
:10067C00A41BBD41002B00DA7BE00022002300927A
:10068C000193012352469340019301236246934008
:10069C00009318E08242D0D90022002300920193EB
:1006AC000A9B002B01D01C605D600098019902B080
:1006BC001CBC90469946A246F0BDA342D7D9002255
:1006CC000023009201936346002BE9D0FB07984668
:1006DC00414672080A437B0866460EE0AB4201D1E4
:1006EC00A2420CD8A41A9D41012024196D4100216D
:1006FC00013E24184D41002E06D0AB42EED9013EEE
:10070C0024196D41002EF8D1009801995346001917
:10071C006941002B23DB2B005246D3402A00644650
:10072C00E2401C0053461500002B2DDB26005746DB
:10073C00BE40330026006746BE403200801A994105
:10074C0000900191ACE7624620239B1A4A46DA409E
:10075C006146130042468A4017001F4380E76246F9
:10076C0020239B1A2A0066469A402300F340134329
:10077C00D4E76246202300219B1A002200910192AB
:10078C000122DA40019280E72023624626009B1A60
:10079C00DE402F00B0466646B74046463B0033432A
:1007AC00C8E7C04670B542004E024C0045026D0AC7
:1007BC00120EC30F760A240EC90FFF2A0FD0FF2C7E
:1007CC0011D00120A24200D070BDB542FCD18B42A9
:1007DC000DD0002AF8D12800451EA841F4E70120CD
:1007EC00002DF1D1EBE70120002EEDD1E9E700203F
:1007FC00EAE7C04670B54A004E02450244006D0A55
:10080C00240EC30F760A120EC90FFF2C15D0FF2A27
:10081C000ED0002C15D1002A01D1002E1CD0002D99
:10082C0014D08B4227D00220013B1840013870BDF8
:10083C00002EEED002204042F9E7002DFAD1FF2A1B
:10084C000ED0002A0ED1002EEDD00BE00123013981
:10085C00994308000130EAE70020002DE7D0E2E7D9
:10086C00002EE7D18B42DED1944205DD0221581EC9
:10087C0008400138DBE70024A24204DCB542D2D8A0
:10088C000020B542D3D2581E012398430130CEE745
:10089C0030B5420044024D02C30F4800640A120EE8
:1008AC006D0A000EC90FFF2A12D0FF280CD0002AA7
:1008BC0012D1002819D1002D17D1002C2BD00220D9
:1008CC00013B1840013826E0002DF0D0022022E038
:1008DC00002CFBD1FF281FD000281FD1002D1DD1CB
:1008EC000220013B1840013815E0002C0ED08B4241
:1008FC00E5D10022904204DCAC42E0D80020AC42AE
:10090C0009D2581E01239843013004E00123013918
:10091C0099430800013030BD002DD7D18B42CED188
:10092C008242E7DD0221581E08400138F3E7C04639
:10093C00F0B54E4657464546DE46E0B543025B0AE7
:10094C00450083B00F1C99462D0EC60F002D57D0B5
:10095C00FF2D24D08020DB00C004184300238146E7
:10096C009A469B467F3D7C027A00FB0F640A120E6E
:10097C00984623D0FF2A4BD0E30080240020E404C7
:10098C007F3A1C43AD186B1C474601935346774086
:10099C003A000F2B48D87D499B00CB589F46002B23
:1009AC0000D085E008339A46063B9B467C027A00D1
:1009BC00FB0FFF25640A120E9846DBD1002C00D0E9
:1009CC0090E0524601231A4392460120DBE74C4645
:1009DC0058461700022824D0032800D1CFE000226B
:1009EC00002301284DD15802D205400AFF071043BD
:1009FC00384303B03CBC90469946A246AB46F0BD8A
:100A0C00002B5BD104239A46033B00259B46AAE7A7
:100A1C00FF35002C60D1524602231A439246022025
:100A2C00B1E7FF220023DEE74B461B0C9C464B46EE
:100A3C002604360C180461463300220C6446000C64
:100A4C0043434E435043544380191A0C1218964298
:100A5C0003D9802149028C4664441B041B0C1004EE
:100A6C00C01883015E1EB341800E1843130C1B1972
:100A7C009B0103431C00230179D5012362081C4010
:100A8C001443019A7F32002A4DDD630704D00F23F3
:100A9C002340042B00D00434230103D53C4B019A92
:100AAC001C408032FE2ABCDCA3015B0AD2B29AE75E
:100ABC000C239A46093BFF259B4654E7180002F08D
:100ACC0001F94A46431F76259A4000236D42914610
:100ADC002D1A9A469B4646E7524603231A439246E2
:100AEC00032050E7200002F0EDF8431F2D1A9C4024
:100AFC00763D002047E780230027DB03FF2272E7C7
:100B0C00424666E74C463200584662E780234A4626
:100B1C00DB031A4222D01C4220D123435B025B0A26
:100B2C004746FF225FE701239A1A1B2A21DC230088
:100B3C000199D3409E318C401A0023005C1EA341C6
:100B4C0013435A0704D00F221A40042A00D004334E
:100B5C005A0111D49B015B0A002244E780234A46C8
:100B6C00DB0313435B025B0A3700FF223BE7019573
:100B7C0087E70022002336E70122002333E7802396
:100B8C00DB0323435B025B0AFF222CE7E4770108BB
:100B9C00FFFFFFF7F8B54746CE464400C20F80B5BD
:100BAC0047024802400A8446664648007F0A240EE3
:100BBC00F60025009046FB00000EC90FB146FF2839
:100BCC0000D185E001267140261A914257D0002EA3
:100BDC0043DD002800D07FE04946002900D1AAE07F
:100BEC00013E002E00D0F7E05B1A5A0100D48BE0D6
:100BFC009B019C09200002F065F805388440854271
:100C0C0000DDD3E0451B230020200135EB40451BC4
:100C1C00AC40621E94412343072400251C40012252
:100C2C0041460A40002C04D00F211940042900D061
:100C3C000433590100D480E00135ECB2FF2D00D013
:100C4C00A3E0FF2400235B02E405580AD2072043EB
:100C5C0010430CBC90469946F8BD002E74D1601C14
:100C6C00C0B2012800DCA7E04A469C1A620100D5FC
:100C7C00B6E0002CBED1002200240023E3E7002EB6
:100C8C0000DC85E0002846D0FF2C49D08022484665
:100C9C00D2041043814601221B2E09DC20204C4635
:100CAC00801B84404A462000F240441EA04102436F
:100CBC009B185A0128D50135FF2D00D1A8E001223F
:100CCC00072494491A405B080B4013431C40A6E7C9
:100CDC00002E00D078E775E7FF2C54D080224946CF
:100CEC00D2041143894601221B2E09DC20214846DF
:100CFC00891B88404A460100F240481E81410A4344
:100D0C009B1A5A0100D573E7012241460A40590744
:100D1C0000D089E711E04846002858D1FF2C0CD1AF
:100D2C00DB08002B00D18CE78020C00303435B025F
:100D3C005B0AFF2487E7FF2C25D0DB08FF2DF0D0C2
:100D4C005B025B0AECB27EE7002C4DD0FF2818D07A
:100D5C008024E404724223431B2A00DDC4E01C00FF
:100D6C002025D440AA1A93405A1E934123434A4645
:100D7C000500D31A884638E7721CF8D0F243FF28D6
:100D8C00EAD10A004B46FF25D7E79B015B0A5AE7DD
:100D9C00002E41D1651CE9B2012945DDFF2D00D1A2
:100DAC004FE707244B445B081C4038E707225A4B9B
:100DBC002D1A2340144032E7002C1DD1002B7AD180
:100DCC004B46002B00D191E00A000025B5E7013E0F
:100DDC00002E19D14B446CE7FF2C84D1FF25ACE7D6
:100DEC004A468846D41A05E7002BC5D10A00FF28CD
:100DFC00C8D005004B46A0E7002B49D14B46002B31
:100E0C0077D00A00FF2598E7FF2C00D043E787E74F
:100E1C000A00FF24002316E7002C15D1002B57D114
:100E2C00FF28E6D14B467BE7002C20D1002B57D076
:100E3C004946002953D04B445A0168D50724364AF9
:100E4C001C4001251340EAE6FF28EBD08022D20497
:100E5C00764213431B2E53DC2025AD1B1A00AB40EE
:100E6C00F2405C1EA34113434B44050021E7002BC9
:100E7C00D8D04946002900D152E78021C9030F423E
:100E8C0000D14DE76046084200D049E74B4647E7A2
:100E9C004846FF25002800D14FE78022D203174295
:100EAC0004D06046104201D14B468846012241468F
:100EBC00FF250A4041E7484600281FD01A1A500166
:100ECC0020D54A460724D31A1C4088460025A6E69E
:100EDC00741CC9D0F643FF28BCD14B4620E7994679
:100EEC004B460025DB082BE7012340E700220023BB
:100EFC00A9E680230022DB03FF24A4E600251CE7DF
:100F0C000123B1E7002AF1D013000025FCE60025EF
:100F1C00FAE6C046FFFFFF7DFFFFFFFB41024200E8
:100F2C00C30F490A120E00207E2A0DD99D2A0CD817
:100F3C00802000040143952A0ADC9620821AD140B5
:100F4C004842002B00D108007047034A9818FBE771
:100F5C00963A9140F4E7C046FFFFFF7F70B5041E40
:100F6C0034D001F0AFFE9E22121A962A07DCD2B2C0
:100F7C0008282EDD083884406002400A21E0992AB6
:100F8C0009DD030021001B3399404B1E99410523B9
:100F9C001B1ADC400C43052801DD431F9C40230039
:100FAC000D490B40650709D00F252C40042C05D0AA
:100FBC0004335C0102D59F220B40121A9B01580A84
:100FCC00D2B24002D205400A104370BD002200206C
:100FDC00F7E76002400AF4E7FFFFFFFBF0B54F466E
:100FEC004646D6460C000903C0B5490A470F5E00B9
:100FFC0039431F03DB0F9C4665007B0A570F1F43C9
:10100C006D0DE40F760DA146C000B846D200AB1BA7
:10101C0064457BD0002B5FDD002E00D0A4E03E00A9
:10102C00164300D112E15E1E002E00D09EE1871AFD
:10103C004346B84280410125C91A4042091A0B02A5
:10104C0000D431E149024E0A002E00D16EE130008D
:10105C0001F038FE0300083B1F2B00DD61E120226C
:10106C003900D21A9E40D1409F400E439D4200DD74
:10107C0051E15D1B6B1C1F2B00DD7CE12021C91A8B
:10108C003D0030008F408840DD40791E8F4131009B
:10109C0007222843D940002507433A40002A09D0AB
:1010AC000F233B40042B05D03B1DBB42BF417F426D
:1010BC00C9191F000B0200D426E26A1CC64B550549
:1010CC006D0D9A4200D106E1C44AFF080A4053074D
:1010DC0052023B43120B8EE0002B00D0B8E06B1C8D
:1010EC005B055B0D012B00DC30E1871A4346B842EF
:1010FC00B641CB1A76429E1B330200D54CE13B0025
:10110C003343A1D100220024002570E0002B00DC29
:10111C00E5E0002E00D183E0AF4EB54260D08026D2
:10112C0036043743B846382B00DC3EE143461343C4
:10113C001F007A1E97413F18874280414042091890
:10114C000B0200D4B0E0A44B01359D4200D1C3E0AA
:10115C00A24A7B080A4001210F401F435108D307C4
:10116C0007221F433A4099E79B4EB54238D0802660
:10117C0036043743B846382B00DDDCE01F2B00DC8F
:10118C0030E11E004746203EF740BC46202B04D0E1
:10119C004026F31A46469E403243170063467A1E99
:1011AC0097411F43CCE0002B00D104E2434613438C
:1011BC0000D159E14B07C00818438023C9081B0311
:1011CC00194208D04546ED081D4204D14346D008CB
:1011DC00590708432900420FC9007F4D1143C00035
:1011EC004B07CA087C49C00803438D4268D01203E0
:1011FC006D05120B6D0D002112031800130B0A0D57
:10120C0012051A43764B2D0513402B435B00E40764
:10121C005B08234319001CBC90469946A246F0BDBE
:10122C003E00164312D05E1E002E00D000E187183F
:10123C008742804141444042091801250B0233D5B5
:10124C00022585E764463300414610001D00C7E7C0
:10125C00002D00D0DAE00C000443F3D05C1C00D16C
:10126C009FE15D4CA64200D12FE1DB43382B00DD22
:10127C0066E11F2B00DD83E120240500E41A0F003A
:10128C00DD40D940A0404346A7405B1A441EA04114
:10129C0098462F433843171ABA429241434652425A
:1012AC00991A64463500CAE607223A40002A00D053
:1012BC00F6E64B07CA084849FF083B438D4296D1D6
:1012CC001900114300D19EE1802109030A43120346
:1012DC00120B414D8FE71500002200238BE7002BEA
:1012EC0000D0C7E06B1C5F057F0D012F00DCF1E027
:1012FC00394DAB4200D1B9E085180A0085428941CD
:10130C004244494251180722CF076D082F43490820
:10131C003A401D00C2E607223049ED1A31403A40EE
:10132C00BCE63E002838864000279FE6380001F0D6
:10133C00C9FC20308EE6434613431F007A1E9741AA
:10134C00C71BB84280414042091A78E60E003B00A8
:10135C0006431343002D61D1002E00D0F4E0002B86
:10136C0000D11BE164463900100039E71A4FBB422B
:10137C007AD03300FFE630001F3DE840202B03D02D
:10138C004021CB1A9E4037437B1E9F4107220743C7
:10139C003A400021002589E7171A4346BA42B64164
:1013AC00591A76428E1B64464EE61F2B00DDADE0CB
:1013BC0020264746F61AB740B9461700B246DF401A
:1013CC004E463E4337005646B240561EB241174376
:1013DC004246DA408918AEE6FF070000FFFF7FFFA8
:1013EC00FFFF0F8020264746F61AB740B946170074
:1013FC00B246DF404E463E4337005646B240561E7C
:10140C00B24117434246DA40891A99E77F4CA6420B
:10141C005BD0802424045B42214327E7002E0CD1AF
:10142C00002B00D1CBE0644639001000774DD7E695
:10143C00764FBB4218D0330075E6002B14D04B0707
:10144C00C00818438023C9081B03194207D0FC08A5
:10145C001C4204D17907D0080843E14621004C46D0
:10146C00420FC9001143C000684DB9E61D000022AF
:10147C000023C0E6002D5BD10D00054300D1E2E650
:10148C005D1C00D1B0E0614DAE421FD0DB43382B68
:10149C0071DC1F2B00DD96E020250F00ED1AAF400C
:1014AC00B9460700AA46DF404D463D432F0055463E
:1014BC00A840D940451EA84188440743BF1897420D
:1014CC0092415142414435003AE66446350041466A
:1014DC00100085E60B000343002D00D063E6002BC3
:1014EC00F5D04346134300D17AE6871887428041F2
:1014FC0007224144404209183A400B0200D4D5E679
:10150C00434B01351940C9E5380069E61E004746D2
:10151C00203EF740BC46202B04D04026F31A46460A
:10152C009E403243170063467A1E97411F4302E6E2
:10153C00364DAE42CAD080252D045B422943A6E726
:10154C000843411E8841A6E6002B00D148E6871AC5
:10155C004346B842B641CB1A76429E1B33024BD55A
:10156C00171A4346BA429241591A5242891A072213
:10157C0064463A4092E501430F00791E8F419DE786
:10158C001C000F00203CE740202B03D04024E31A22
:10159C0099400843411E884138437CE600220024D0
:1015AC0025E6171A4346BA429241591A5242891AF1
:1015BC006446350043E541461000144D10E6802288
:1015CC000024120380E61D000F00203DEF40BC46B6
:1015DC00202B03D04025EB1A9940084307006346A3
:1015EC00781E87411F4369E7871897429B41414406
:1015FC005B42C9183500A3E53B003343CED007222C
:10160C0031003A4052E600231A00F4E5FF070000CF
:10161C00FFFF7FFFF0B55746DE464E464546E0B528
:10162C00834607000E03480085B092461C00360B1B
:10163C00400DCD0F002800D19DE0954B984239D03C
:10164C008023F6001B041E43924A7B0F33439946BA
:10165C00944603006344009300230026FF0002938A
:10166C0023031B0B98466300E40F52465B0D019459
:10167C0000D1B3E086498B4200D19EE04246D100B6
:10168C00802212040A435146490F11438B4681496B
:10169C0052468C4600996344CB1A0021D200009329
:1016AC002B0063409A460F2E00D905E17A4BB60009
:1016BC009B599F465B463343994600D0B8E00223C2
:1016CC000826002700900293CAE7CB463A000299FD
:1016DC000195019B9A46022927D0032900D180E26B
:1016EC00012944D06D49009B8C4663441C00002C9E
:1016FC0038DD530700D013E2D2085B46DB0109D575
:10170C005946674B19408B468021C9008C46009B7B
:10171C0063441C00634B9C4207DC5B4664055F071B
:10172C005B0217431B0B620D02E000230027584A93
:10173C0000211B031C0B0B0D1B05234314055A4ADC
:10174C00380013401C4353466400DB0764081C43F9
:10175C00210005B03CBC90469946A246AB46F0BD74
:10176C000122524201231B1B382B00DCADE100226D
:10177C0000230027DCE75B46334399465ED0002EFE
:10178C0000D18AE1300001F09DFA03000B3B1C2BC9
:10179C0000DD7BE11D22D31A5A460100DA400839DC
:1017AC008E4013005F46334399468F403F4B0026D3
:1017BC001B1A00930023029352E7414653460B43F6
:1017CC003B499B468C46009B634400935B46002B35
:1017DC003BD1022300221E43022161E743461343FF
:1017EC009B4637D04346002B00D162E1404601F0C6
:1017FC0069FA03000B3B1C2B00DD53E10200414650
:10180C00083A914088461D21CB1A5146D9400B000D
:10181C0041460B439B46534693401A00009B254977
:10182C009C46604403008C4663440093002137E7D8
:10183C000323B14600900C26029311E7002300937A
:10184C0001330426002702930AE70323C3461E43F1
:10185C00032125E701331E430022012120E7002349
:10186C009A46802300271B03094A61E780234946D7
:10187C001B03194200D1E2E05946194200D0DEE0C8
:10188C000B431B0317001B0BA246014A50E7C04633
:10189C00FF07000001FCFFFF24780108FF03000094
:1018AC00FFFFFFFEFE070000FFFF0F800DFCFFFF98
:1018BC0001F8FFFFF3030000D94500D9CBE000D1BC
:1018CC00C6E03C0048460027009B013B00935B466A
:1018DC00160E1B021E431302984633041B0C99462A
:1018EC00310C0191FEF7B4FC4A4642430B04210C27
:1018FC00050019438A4207D98919013D8E4203D844
:10190C008A4201D9851E8919881A0199FEF7A0FC13
:10191C0009048C464A46210464464243090C0300E0
:10192C0021438A4204D98919013B8E4200D8F1E047
:10193C002D041D43AB464346891A4246280C12041B
:10194C001D0C5B46140C22001B041B0C5A43039405
:10195C006B434443029568431B19150CEB189C42CE
:10196C0003D980246402A44660441C0C15041B0497
:10197C002D0C20185D19814277D373D00C1AA24A12
:10198C007D1BAF42BF419446009B7F426344E01BEA
:10199C001C00864200D1DBE00199FEF759FC4A4657
:1019AC0042430B04290C070019438A4207D98919B1
:1019BC00013F8E4203D88A4201D9871E8919881AA1
:1019CC000199FEF745FC09044A46894629044D460F
:1019DC004243090C030029438A4207D98919013B68
:1019EC008E4203D88A4201D9831E89193F04891A71
:1019FC003A00039F1A43380013041B0C58438146CA
:101A0C000298150C6F43434345434846000C8446EB
:101A1C00DB1963449F4203D980204002844665440D
:101A2C0048461F0C00041B04000C7D191818A94211
:101A3C0000D284E000D17FE001231A4357E68023D3
:101A4C004A461B0313431B031B0BAA466F4A6FE644
:101A5C00BA4200D935E74B46DC0758087B081C43D3
:101A6C00FF0734E70024AF4289D247444745A441DD
:101A7C005B466442A4196418013BA6421ED2A042E4
:101A8C006DD800D1B6E0241A9B4678E703005A467D
:101A9C00283B9A400027914688E6584601F012F9F7
:101AAC00203072E603005246283B9A4093460022AF
:101ABC00B4E6504601F006F920309AE6A642E2D18F
:101ACC00B845DCD9341A9B4659E71F2B65DC504CC2
:101ADC000099A4465C46614408008C401100824089
:101AEC00D940501E82410C4314435A46DA4013002D
:101AFC00620709D00F222240042A05D02200141DAF
:101B0C009442894149425B181A0262D50122002392
:101B1C0000270DE68A4200D80AE7831E891907E7D9
:101B2C000F231340042B00D1E6E5171D9742924179
:101B3C0053429B44FA08E0E5002800D1D7E5711820
:101B4C00531EB14227D3A94215D358D01A0073E7BC
:101B5C00002B00DC04E6012300229B44CDE502238C
:101B6C004744474589415B429C46494289190C19B7
:101B7C00E344241A03E743465F0047459B41B846BC
:101B8C005B429E19023A8919A94200D054E740459C
:101B9C0000D051E7ABE51A00F6E71F215F4649423A
:101BAC000C1BE740202B07D01A49009B8C46634442
:101BBC0018005B4683401A43501E82413A43072764
:101BCC000023174009D00F210023114014000429D1
:101BDC0095D122005F075B021B0BD2081743002232
:101BEC00A6E5802359461B030B431B0317001B0B55
:101BFC00064A9DE5BD42B2D89B460024BFE680450F
:101C0C00B9D31A00C3E7C046FF030000FF0700006A
:101C1C001E0400003E040000F0B54F464646D64672
:101C2C008446C0B58046194E18030F034D00000BB7
:101C3C005C0082463F0B6D0DC90F9146640DDB0FA6
:101C4C000120B5420AD0B44203D0A54201D1574578
:101C5C000CD01CBC90469946A246F0BD66463E434D
:101C6C00F7D1AC42F5D154461443F2D10120C8450A
:101C7C00EFD1994207D0002DEBD163461F433800BA
:101C8C00471EB841E5E70020E3E7C046FF07000028
:101C9C00F0B54F464646D6464D00C0B50E03C90FAB
:101CAC008A462C491F035C008046360B6D0D91460D
:101CBC003F0B640DDB0F8D421ED08C4216D0002DD5
:101CCC001ED130438446002C01D13A4323D06246C6
:101CDC00002A1AD09A4529D05146022001390840D1
:101CEC0001381CBC90469946A246F0BD3900114300
:101CFC00E5D002204042F4E73043FAD1AC420FD099
:101D0C00002C0FD13A43E7D00CE00122013B934366
:101D1C0018000130E5E763460020002BE1D0DBE73B
:101D2C003A43E6D19A45D7D1A542D5DCA54205DB8D
:101D3C00BE42D1D808D00020BE42D2D25046012398
:101D4C00013898430130CCE7C845C5D80020C845B8
:101D5C00F4D3C6E7FF070000F0B54F464646D6461B
:101D6C004D00C0B50E03C90F8A462E491F035C00F7
:101D7C008046360B6D0D91463F0B640DDB0F8D428B
:101D8C0018D08C4211D0002D18D130438446002C31
:101D9C001ED13A431CD163460020002B30D0514653
:101DAC0002200139084001382AE039001143EAD0F9
:101DBC00022025E03043FBD1AC4226D0002C26D1AA
:101DCC003A4324D15146022001390840013817E02A
:101DDC006246002A0FD09A45E1D1A54205DBBE42EE
:101DEC00DDD819D00020BE420AD25046012301385A
:101DFC009843013004E00122013B93431800013069
:101E0C001CBC90469946A246F0BD3A43D0D19A45A7
:101E1C00C5D1A542C3DCE0E7C845C0D80020C84501
:101E2C00E3D3EDE7FF070000F0B55746DE464E461C
:101E3C004546E0B5834606000F03480087B092463E
:101E4C001D003F0B400DCC0F002800D16FE0DE4B86
:101E5C00984238D08023FF001B041F43730F3B4371
:101E6C000193DA4B0027994600239B46F6008144E8
:101E7C002B0369001B0B52469846490DED0F0029A8
:101E8C0000D185E0D04B994200D173E04346DA0093
:101E9C0080231B0413435246CC48520F84461343F1
:101EAC00524600206144D2008944210069400091CF
:101EBC008C46012149448A460F2F00D990E0C44931
:101ECC00BF00CF59BF465B463B43019300D06AE14C
:101EDC0002230827002681469B46C9E73200584654
:101EEC00019B61460091022800D175E0032800D1C6
:101EFC00FEE1012800D02CE100230027002600255C
:101F0C003F032A0D3F0BB34812053A4302401B0511
:101F1C001343009A5B00D1075B080B433000190098
:101F2C0007B03CBC90469946A246AB46F0BD5B461A
:101F3C003B43019300D12FE1002F00D1A5E13800E4
:101F4C0000F0C0FE03000B3B1C2B00DD96E11D22B4
:101F5C00D31A5A460100DA405E4608398F40130006
:101F6C008E403B4301939C4B00271B1A9946002340
:101F7C009B467DE7414653460B4393498C46E144CF
:101F8C00002B00D01AE102220220174300228CE71A
:101F9C00134300D10DE14346002B00D181E14046B3
:101FAC0000F090FE02000B3A1C2A00DD72E10100E9
:101FBC00434608398B4098461D239A1A5346D34002
:101FCC001A004346134352468A404946081A82492E
:101FDC0089468144002068E77B4B002700268EE76A
:101FEC00140C1204120C1100370C3604350C794306
:101FFC0028008C462E0060436044834656432100E3
:10200C00300C80465846794340440291844506D9A9
:10201C008846802149028C46E044414602913604B0
:10202C00010C360C00048B4681191E0C1B041B0C76
:10203C000391190079438C46280075436544A846E2
:10204C005843050C45447743A94203D980214902E2
:10205C008C466744290C8C4639000004000C2D0476
:10206C002D186144AB4405915946049101990F0414
:10207C003F0C080C390051434243904602008C46F9
:10208C00090C8B4662437C4344445C44A04503D911
:10209C008021490288464244210C88466146090445
:1020AC00090C8C4639005943434370437E430F0C53
:1020BC00F6182404BE19644442448C46B34203D936
:1020CC0080235B0298464044029B61469846049BE1
:1020DC00370443449B46AB45AD416B420D04059917
:1020EC002D0C8C467F196744FD18A8465D462D19AA
:1020FC00A542A44193466442A446C344DC448F42A7
:10210C00BF4198459B4193459241A445A4415B42F4
:10211C007F421F43360C52426442BF192243BF1800
:10212C00624638184302D20D039913436A020A43DC
:10213C00501E82416146ED0D2A434E023243D901B5
:10214C0000D4B3E00126500832400243DE0732438C
:10215C005B08224C5444002C62DD510709D00F203F
:10216C001040042805D0101D9042924152429B18F9
:10217C000200D90104D580241948E40003405444DA
:10218C001848844200DD27E75E075B02D2081F0B6C
:10219C00630516435B0DB2E6002399460133042711
:1021AC0000269B4664E60323019781460C279B4639
:1021BC005EE6012201201743002276E6032303206A
:1021CC001F43434671E6C046FF07000001FCFFFFBA
:1021DC0064780108FFFF0F800DFCFFFFFF03000078
:1021EC00FFFFFFFEFE0700000023802700933F0344
:1021FC000026434B83E6019B3200A446584670E60A
:10220C00AC466EE6802701993F0339422DD03B4204
:10221C002BD11F433F033F0B00951600384B6EE646
:10222C0001252D1B382D00DD66E61F2D40DC3548C1
:10223C001C005044160082408440EE40501E8241E7
:10224C0034431443EB40620709D00F222240042A86
:10225C0005D02200141D9442804140421B181A02E2
:10226C003ED501230027002649E68027019B3F032A
:10227C001F433F033F0B0094214B40E603005A469B
:10228C00283B9A40002601926DE6584600F01AFD54
:10229C00203057E603005246283B9A401300002298
:1022AC0093E6504600F00EFD20307BE6CA4650E720
:1022BC001F201E004042041BE640202D03D0124C70
:1022CC005444A3401A43501E824132430726002730
:1022DC00164009D00F200023104014000428B9D157
:1022EC0022005E075B021F0BD2081643002306E692
:1022FC0080273F031F433F033F0B1600004BFEE5B7
:10230C00FF0700001E0400003E040000F8B557460D
:10231C004E464546DE460C000903E0B5490A460F19
:10232C005F0031431E03DB0F760A9B46530F33438A
:10233C00C84E6500C000E40FD2006D0DA246814668
:10234C007F0D9C469046B74200D1B9E05B46012612
:10235C0073409B46EE1BA34500D183E0002E63DD4A
:10236C00002F00D0B1E06346134300D123E1731E6C
:10237C00002B00D0BAE1861A6346B0428041012599
:10238C00C91A4042091A0B0200D447E149024B0A10
:10239C0098464346002B00D189E1404600F092FC60
:1023AC000300083B1F2B00DD7CE120223000D21AF9
:1023BC004146D040994002009E400A439D4200DDB8
:1023CC006AE15D1B6B1C1F2B00DD94E120211000CA
:1023DC003500C91A8E40DA408840DD40711E8E41AE
:1023EC00110007222843002506433240002A09D059
:1023FC000F233340042B05D0331DB342B641764234
:10240C0089191E000B0200D43DE26A1C914B550544
:10241C006D0D9A4200D119E18F4AF6080A40570710
:10242C0052023743120B9BE0002E00D0C5E06E1C0D
:10243C007605760D012E00DC48E16746861ACB1B2B
:10244C00B042BF417F42B8461F004346FF1A3B00D3
:10245C00B8461B0200D55FE137439AD10022002415
:10246C00002579E0002E00DCFAE0002F00D18DE091
:10247C00784B9D4267D0802367461B041F43BC46A4
:10248C00382E00DC52E1634613435A1E93411E184A
:10249C0086428041404209180B0200D4BEE06D4BCD
:1024AC0001359D4200D1D2E06B4A73080A400121EC
:1024BC000E401E435108D30707221E43324095E7B6
:1024CC001E00164300D045E740E7624B9D423AD0D0
:1024DC00802367461B041F43BC46382E00DDEBE00F
:1024EC001F2E00DC3AE133006746203BDF403B0007
:1024FC00202E05D04027BF1B6646BE403243904677
:10250C004646721E96413343DAE0002B00D114E2AA
:10251C006346134300D168E180234E07C008C90805
:10252C001B030643194208D06046C008184204D168
:10253C0063460100D2085E071643F3009946C900B2
:10254C00720F444D11434B46DE08424B4F07374345
:10255C00CA089D4200D16EE012036D05120B6D0D81
:10256C0000211203130B0A0D12051A433B4B2D05C8
:10257C0013402B435B00E4075B082343380019002E
:10258C003CBC90469946A246AB46F8BD6346134305
:10259C0011D0731E002B00D007E1861886428041B3
:1025AC0061444042091801250B0237D502257BE70F
:1025BC003E00614691463500C5E75C46002D00D0D3
:1025CC00E1E00B000343F3D0731C00D1ACE1214BD1
:1025DC009F4200D13AE1F343382B00DD6FE11F2B12
:1025EC0000DD8CE120250E00ED1AAE40B046060051
:1025FC00AA46DE40454635432E005546D940A840F4
:10260C006346451EA8415B1A9C463043161AB242DB
:10261C00924163465242991A3D00B4E60722324079
:10262C00002A00D0E4E60B4BF6084F073743CA08E4
:10263C009D4200D090E73B00134300D1A6E18023DC
:10264C001B031A431203120B024D89E715000022DB
:10265C00002785E7FF070000FFFF7FFFFFFF0F80CC
:10266C00002E00D0C7E06B1C5E05760D012E00DC41
:10267C00F0E0C84DAB4200D1B9E085180A008542A4
:10268C0089416244494251180722CE076D082E43F6
:10269C00490832401D00A9E6BF49ED1A1140072236
:1026AC003240A3E6320028388240002686E630000D
:1026BC0000F008FB203073E6634613435A1E934127
:1026CC00C61AB04280414042091A5CE60E006746C9
:1026DC0006431743002D5ED1002E00D0F3E0002FEF
:1026EC0000D11EE15C46614691462CE7A94FBE42E3
:1026FC007BD01E00F1E610001F3DE840202B03D0DC
:10270C004021CB1A9A401643731E9E410722064362
:10271C0032400021002583E7161A6346B2428041FD
:10272C00591A40420B1A98465C4632E61F2E00DDC1
:10273C00ABE02027BB1B9A4663465746BB409946E5
:10274C0013004F46F3401F433B005746BA40571EF9
:10275C00BA4113436246F240891898E62027BB1B06
:10276C009A4663465746BB40994613004F46F34082
:10277C001F433B005746BA40571EBA4113436246AB
:10278C00F240891A9CE7834B9F425FD080252D0431
:10279C007342294320E7002E0CD1002F00D1D0E04A
:1027AC005C46614691467B4DCDE67A4FBE421CD0CD
:1027BC001E0065E6002F18D0C0084E070643802087
:1027CC00C9080003014208D06346DC08044204D166
:1027DC002100DA46D2085E071643F300994601241D
:1027EC005346C900720F11431C406A4DABE61D00E5
:1027FC0000220027B4E6002D59D10B00034300D171
:10280C00D6E6731C00D1B2E0624B9F421ED0F3435C
:10281C00382B6FDC1F2B00DD97E020250E00ED1A06
:10282C00AE40B0460600AA46DE40454635432E0073
:10283C005546A840D940451EA8418C440643B618BD
:10284C0096429241514261443D0025E63D0061466D
:10285C00914678E60B000343002D00D055E6002B83
:10286C00F5D06346134300D16DE68618864280414D
:10287C0061444042091800220B0200D4D0E6464BBA
:10288C0001351940B2E5B1465DE633006746203BA1
:10289C00DF403B00202E05D04027BF1B6646BE40C4
:1028AC00324390464646721E96413343EFE5394B10
:1028BC009F42CBD080252D0473422943A8E70843BF
:1028CC00411E8841A2E6002F00D13CE66346861AE1
:1028DC00CF1AB0429B415B42FB1A98461B024ED565
:1028EC00161A6346B2429241591A5242891A5C46F0
:1028FC0000227BE501430E00711E8E419FE71D00F7
:10290C000E00203DEE40B046202B04D04025EB1AA3
:10291C0099400843814648464346411E8841184326
:10292C0074E60022002417E6161A6346B24292415E
:10293C00591A5242891A3D0025E561469146154DBA
:10294C0001E680220024120379E61D000E00203DD2
:10295C00EE40B046202B04D04025EB1A994008439A
:10296C0081464E464346711E8E411E4367E78618CC
:10297C0096429B4161445B42C9183D008CE5474639
:10298C003743CED007224146324049E600273A0071
:10299C00E6E5C046FF070000FFFF7FFF70B50C4E59
:1029AC000D031C0349005B002D0B490D240B5B0D23
:1029BC00B14208D0064900208B4203D114432000B9
:1029CC00441EA04170BD05430120002DFAD1F1E752
:1029DC00FF07000030B5144D0A034B00120B5B0DC2
:1029EC00C90F0024AB4211DD104CA34210DC802433
:1029FC00640322430E4CE41A1F2C0CDD0D48C31A41
:102A0C00DA4013005C42002900D11C00200030BDCC
:102A1C00094BCC18FAE7094DE040AC4663449A40A8
:102A2C0013000343EEE7C046FE0300001D04000044
:102A3C003304000013040000FFFFFF7FEDFBFFFFDA
:102A4C0070B500282DD0C317C5185D40C40F2800E1
:102A5C0000F038F9154B1B1A5B055B0D0A2815DDC8
:102A6C000B38854000222D032D0B002110002D0367
:102A7C000A0D2D0B12052A430D4D1B052A4013433D
:102A8C005B00E4075B082343190070BD02002900BA
:102A9C00153291400A000B21081AC5402D032D0B4D
:102AAC00E3E70024002300250022DEE71E040000DB
:102ABC00FFFF0F8010B5041E25D000F003F9144B56
:102ACC001B1A5B055B0D0A2812DD0B3884400022B3
:102ADC002403240B0021100024030A0D240B1205DF
:102AEC0022430C4C1B05224013435B00590810BDBC
:102AFC0002002100153291400A000B21081AC44033
:102B0C002403240BE6E7002300240022E2E7C0465E
:102B1C001E040000FFFF0F804100090E4B1C70B516
:102B2C00DBB24602750AC40F012B14DDE0239B00B7
:102B3C006D07360BCB1800210A0D280012051C4D11
:102B4C0032435B052A405B0813435B00E4075B08D8
:102B5C002343190070BD002914D1002D1ED028006C
:102B6C0000F0B0F80A281CDC0B232A001B1ADA40F0
:102B7C00030015339D400F4B12031B1A5B05160BFC
:102B8C005B0DD8E7002D06D0320B802636036D077F
:102B9C001643094BCFE7084B0026CCE70023002651
:102BAC00C9E703002A000B3B9A400025E3E7C04627
:102BBC00FFFF0F8089030000FF070000F0B54C00F9
:102BCC00640D0B03621C5B0A460F5205C90F1E43B2
:102BDC00C500520D012A29DD374BE718FE2F1CDCEE
:102BEC00002F3BDD8001431E98410722F3006D0F3F
:102BFC0003432B431A40002A04D00F221A40042A04
:102C0C0000D004338022D2041A4024D00137FAB207
:102C1C00FF2F02D09B01580A01E0FF220020400246
:102C2C00D205400AC90710430843F0BD3543002CB8
:102C3C0004D1002D0AD100220020F0E7002DECD0A9
:102C4C008020C0033043FF22E9E7002400235B020D
:102C5C00580AE2B2E3E7DB083C00F8E73B00173325
:102C6C00F3DB80231B0433431E26F61B1F2E14DDBF
:102C7C0002225242D71B1A00FA401700202E04D011
:102C8C000E4A94466444A3401D432B005D1EAB4189
:102C9C0007223B431A400027ADE7094A2800A21837
:102CAC00954093406C1EA541F04007222B430343F3
:102CBC001A4000279FE7C04680FCFFFFA2FCFFFFE5
:102CCC0082FCFFFF1C2101231B04984201D3000C42
:102CDC0010391B0A984201D3000A08391B09984283
:102CEC0001D30009043902A2105C40187047C04699
:102CFC0004030202010101010000000000000000B9
:102D0C0010B5002903D1FFF7DDFF203002E0081CCD
:102D1C00FFF7D8FF10BDC046F0B583B0234B1B881E
:102D2C009BB2234A934233D01A0A39D021490A70F4
:102D3C00214A13701F4B1E78002E35D0012402221D
:102D4C006B46D91D00239C461C4D63460B700B78BB
:102D5C00DBB20A2B15D8631E9800C0184000C018AF
:102D6C00124BD7180B783F881B185B00EF520232BE
:102D7C0092B20B780133DBB20B700B78DBB20A2BFF
:102D8C00EED90134E4B2B442DFD9002003B0F0BD77
:102D9C00084B01221A70084B00221A70FA20F5E732
:102DAC00044A01211170C3E70020EFE700D80108A5
:102DBC00FFFF00001C00002076100020780A002085
:102DCC00F8B50F4B1B780025002B17D00D490220AE
:102DDC0004F0D0FC01240025094F0A4E0134E4B262
:102DEC003B78A3420AD3611E49008919601C04F088
:102DFC00C1FCA31C1B2BF1DD0A25EFE72800F8BD55
:102E0C001C000020406E0020F0B5DE4657464E46B2
:102E1C004546E0B583B06B460022DA801C240027BF
:102E2C00184B9A469B460CE04B469B004B445B0070
:102E3C005B4400225A720137FFB2134B1B78BB4222
:102E4C0017D3BD00ED196D005544631D9BB2984618
:102E5C006B469E1DB9463100200004F08BFC338874
:102E6C006B701B0A2B700134A4B20235A045F2D151
:102E7C00DAE7002003B03CBC90469946A246AB462C
:102E8C00F0BDC046680F00201C000020F0B5D646EF
:102E9C004F464646C0B582B06B460022DA80224BC4
:102EAC001B78002B1DD00025204E1F4CE9B2490089
:102EBC0071182800CB3080B204F05CFC0135ADB247
:102ECC002278EBB29A42F1D8194B99462C009934DE
:102EDC00A4B2CB35ABB298466B469E1D00239A46E6
:102EEC0009E00025F0E74B4652465A720A239C46ED
:102EFC00E144444510D0671DBFB24D46310020005F
:102F0C0004F038FC33886B701B0A2B700134A4B2AC
:102F1C000235BC42F2D1E6E7002002B01CBC904660
:102F2C009946A246F0BDC0461C000020C00E0020F1
:102F3C005C0E002070B584B00E21694400230B8018
:102F4C0003AA1380E42004F015FC0026002802D10B
:102F5C000E236B441E780E216944E52004F00AFC14
:102F6C00040003A9E62004F005FC0443A4B20025E8
:102F7C00002C06D10E236B441D882D0403AB1B883B
:102F8C00ED180E216944E72004F0F4FB040003A9BA
:102F9C00E82004F0EFFB204380B20024002806D187
:102FAC000E236B441C88240403AB1B88E4180E21ED
:102FBC006944E92004F0DEFB002807D10E236B44A2
:102FCC001B88190A284A1170284A13700E2169446B
:102FDC00EA2004F0CFFB002807D10E236B441B889A
:102FEC00190A234A1170234A13700E216944EB20ED
:102FFC0004F0C0FB002807D10E236B441B88190A70
:10300C001D4A11701D4A1370174B1B78002B03D0EF
:10301C00164A1278002A12D1154B1B78002B03D0BC
:10302C00144A1278002A11D1134B1B78002B03D0B1
:10303C00124A1278002A10D1002004B070BD009200
:10304C0022002900300005F0EDFFE5E70092220098
:10305C002900300005F0E6FFE6E700922200290087
:10306C00300005F0DFFFE7E74A110020590E002081
:10307C004B1100205A0E00204C1100205B0E00203A
:10308C0010B582B08A206B46991D400004F072FB8B
:10309C00002800D064E06B4606331B88494A9371C4
:1030AC001B0AD37116206B46991DFF3004F062FB8E
:1030BC0000285CD16B46DA88424B1A808B206B4619
:1030CC00991D400004F056FB002855D16B46DA8858
:1030DC003C4B5A8018206B46991DFF3004F04AFB7C
:1030EC0000284ED16B4606331B88364A13711B0AD7
:1030FC0053718C206B46991D400004F03BFB04007F
:10310C001A2001A9FF3004F035FB0443A4B2002CB3
:10311C003ED101AB1B881B046A460632128813434E
:10312C00284A93608D206B46991D400004F022FBC9
:10313C0000283BD16B4606331B88224A13731B0AAB
:10314C0053731C206B46991DFF3004F013FB0028B1
:10315C0032D01D4BDA7E1B4BDA76002002B010BD4C
:10316C00184B194A91799971D279DA719AE7164B01
:10317C001A88144B1A80A1E7134B5A88114B5A80AA
:10318C00A8E7104B104A1179197152795A71B0E7AE
:10319C000E4B1B78002B04D00A4BE12252029A6092
:1031AC00C0E7094B9A68074B9A60BBE7054B18229E
:1031BC005A7300221A73C4E76B46DA88014BDA762D
:1031CC00CBE7C046C469002000000020760A00202E
:1031DC00F0B5CE46474680B589B01E236B4400221D
:1031EC001A800125EC241E000F23984604E00434B9
:1031FC00A4B20135082D58D03100200004F0BAFAE1
:10320C000028F4D131880B0A1A09AA42EFD14046A2
:10321C000340ECD0D00082182748814691444A469E
:10322C0053701172AF00BFB23800E93080B2310078
:10323C0004F0A0FA33881A0A49468A704B71380098
:10324C00EA3080B2310004F095FA33881A0A494604
:10325C00CA708B71EB37B8B2310004F08BFA33883B
:10326C001A0A49460A71CB71EFB24878390004F05A
:10327C0097FF4B46197A9B784A1001200240014077
:10328C00002005904846C079049048468079039008
:10329C004846407902904846007901904846C078EB
:1032AC000090380005F096F8A1E7002009B00CBC9E
:1032BC0090469946F0BDC0461C150020F0B5DE4680
:1032CC0057464E46C0B582B032200FF01BFC071E8D
:1032DC0000D171E0394B1B78FF20FE2B66D1384EA4
:1032EC009A3B9B46B344354D7B1C0193354B994619
:1032FC0023E000243B19013B1B78002B01D0013447
:10330C00E4B220000FF0FEFB5346D86000283FD0FB
:10331C00220039000FF043FE4B461B7801334A461E
:10332C0013702200002138000FF042FE009B1B7826
:10333C00FE2B37D114365E4534D0280014302B00C8
:10334C00791B1A78CA5401338342FAD11435B24628
:10335C001422019930000FF022FE142200213800B3
:10336C000FF026FE00952A78931CDBB2012BC0D9F6
:10337C00390000240A7001350134E4B200952A7832
:10338C00931CDBB2012BB5D90131322CF2D1B1E750
:10339C001422002150460FF00BFE38000FF0BCFB3E
:1033AC000E2003E038000FF0B7FB002002B01CBC6D
:1033BC0091469A46A346F0BDFB20F7E700DC0108D6
:1033CC00E06900201F12002010B5FFF7A5FCFFF7E5
:1033DC00F7FCFFF719FDFFF759FDFFF7ABFDFFF702
:1033EC004FFEFFF7F5FEFFF769FF10BDF0B583B098
:1033FC00114B1B78002B1AD00124002301930F4E84
:10340C000D4F08E0601C04F0E5F90AE00134E4B269
:10341C003B78A3420DD32500631E5B00995B00290A
:10342C00F0D102351B2DF1DD0A230193EEE70023C9
:10343C000193019803B0F0BD1C000020406E0020E9
:10344C00F0B5D6464F464646C0B5002600239846F2
:10345C001A4B9A461A4B994605E00136F6B24B4682
:10346C001B78B34224D3B3009B195B0052469B5C80
:10347C00002BF2D0B500AD196D00104B9C46654485
:10348C0044461C34A4B247462137BFB22B781B02EA
:10349C006978C91889B2200004F09CF9023501340E
:1034AC00A4B2BC42F2D1434605339BB29846D4E752
:1034BC0000201CBC90469946A246F0BD680F002027
:1034CC001C000020F8B5DE4657464E464546E0B592
:1034DC000F00160099460AAB1B789B460BAB1D7868
:1034EC000CAB1B789A460DAB1C780EAB1B78984630
:1034FC0081B2E42004F06EF9390A89B2E52004F0B7
:10350C0069F9B9B2E62004F065F9310A89B2E7200D
:10351C0004F060F9B1B2E82004F05CF94B461902F2
:10352C00594489B2E92004F055F92D025544A9B249
:10353C00EA2004F04FF924024444A1B2EB2004F039
:10354C0049F900203CBC90469946A246AB46F8BDD2
:10355C0010B51A4CE3795B01A17919438A2040001C
:10356C0004F038F921881620FF3004F033F9618813
:10357C008B20400004F02EF963791B02217B194348
:10358C001820FF3004F026F921898C20400004F02B
:10359C0021F961891A20FF3004F01CF9637B1B02AE
:1035AC00217919438D20400004F014F9E17E1C2090
:1035BC00FF3004F00FF9002010BDC046C469002094
:1035CC00F0B583B03422002113480FF0F1FC134BFB
:1035DC001B78002B1AD00124002301930E4E0F4FA1
:1035EC0008E0601C04F0F6F80AE00134E4B23B7821
:1035FC00A3420DD32500631E5B00995B0029F0D11B
:10360C0002351B2DF1DD0A230193EEE70023019314
:10361C00019803B0F0BDC046406E00201C00002095
:10362C0010B5064B064A12689A4206D004F07AF995
:10363C00002802D1024B014A1A6010BDADDEEFBE6C
:10364C00F07F002070B58EB012256D4404AB009352
:10365C0007AB2A0008A9012009F01AF903AC009461
:10366C0005AB0E226A4406A9022009F011F90123C8
:10367C000A9300260B962B88099309A908980DF03C
:10368C00F5FA0A9602230B932388099309A9059846
:10369C000DF0ECFA2988002208980DF05BFC05204F
:1036AC0009F09AFC218805980DF04EFC00230028A7
:1036BC0002D018000EB070BD12336B441988012271
:1036CC0008980DF047FC052009F086FC03AB19881F
:1036DC0005980DF039FC013843424341DBB2E8E771
:1036EC0010B509F053FE0400E1231B024360802354
:1036FC00DB00036180235B0183600FF061F82268BB
:10370C00136820210B43136010BD000010B5044B4F
:10371C009968FCF7F1FC43425841C0B210BDC04659
:10372C008400002070B504001B49FCF7E5FC060082
:10373C000625002E23D019492000FCF7DDFC0028BB
:10374C001FD017492000FCF7D7FC00281BD01549C7
:10375C002000FCF7D1FC002817D013492000FCF7FF
:10376C00CBFC002813D011492000FCF7C5FC002825
:10377C000FD0013DEDB2002DDBD1002070BD01203A
:10378C00FCE70220FAE70320F8E70420F6E705201F
:10379C00F4E70620F2E7C046107B0108147B010811
:1037AC00187B01081C7B0108207B0108247B010885
:1037BC00F0B5C64600B582B0060001240F4B984602
:1037CC000F4D0327A6420FD043461B881A0A2A70B6
:1037DC006B70AC7000970A2300220021200005F0CA
:1037EC0043FD0A2009F021FF0134E4B2072CE9D192
:1037FC00002002B004BC9046F0BDC0465000002032
:10380C00380F0020F0B5DE4657464E464546E0B52B
:10381C0085B000AF474B1B789C460733DB08DB00B9
:10382C006A46D31A9D466C466346002B0DD0230086
:10383C00414A61464D1EEDB201352D19002119701A
:10384C00118001330232AB42F9D1013801232354E8
:10385C00162242430232394BD2180021364D400019
:10386C0001239846A34603E001310232062911D008
:10387C001388002BF8D0465BB14646468E40B246C4
:10388C004E46544626434653DB085B44013B022418
:10389C001C70E9E75C460226284B02337B6001234F
:1038AC009B46B046260043460133DBB2984663463E
:1038BC00002B35D000220023FB60013B434499468A
:1038CC001EE001300231062815D00B88002BF8D0F1
:1038DC00DB08013BF55C002DF3D1174AA55A5A467B
:1038EC0082401543144AA5524246F254FB680133F8
:1038FC00DBB2FB60E5E7BA680132D3B263450CD2A8
:10390C00B35C4B45F8D1162151437B689A46514420
:10391C0053000020BA601C00D7E7FB68002BC2D113
:10392C000020BD4605B03CBC90469946A246AB462D
:10393C00F0BDC0461C000020B80C0020780A002006
:10394C00F0B50B78FF24002B00D104780A4B1D78BE
:10395C00002D0EDD0023002702E00133AB4209DA13
:10396C00C25CA242F9D2CE5C002EF6D1DFB21400BA
:10397C00F3E700273800F0BD1C000020074B197836
:10398C00002908D00300411801201A781040013397
:10399C008B42FAD170470120FCE7C0461C00002086
:1039AC00F0B5DE4657464E464546E0B58FB00500AD
:1039BC008A463222002101A80FF0FAFA1A220021BD
:1039CC005A480FF0F5FA2900681E0023584A135480
:1039DC00584A1354162545430235574BED182A0007
:1039EC00012053469CB203E00130023207280FD06D
:1039FC001388002BF8D0DB08A342F5D14C4B534471
:103A0C00013B01221A70494B52461A70C0B285E034
:103A1C004A4B1E78002E11DD0123FF24454F002058
:103A2C00AC4602E00133B34207DC9942FAD05A1E8D
:103A3C003F4DAC54BA181070F4E7654600243E4B69
:103A4C0098460E23434456469B46A9461DE04D46D8
:103A5C00B246340034E00231814215D00B88002B81
:103A6C00F9D0DB08DBB2013BD75C002FF3D1304F30
:103A7C007F5D0137FFB22E4EF65CBE42EBD92C4E69
:103A8C00F7542C4EF454E6E7564601A8FFF776FFA0
:103A9C00002813D101A92648FFF752FF0130C4B208
:103AAC00B442D4D0651E01AB01225A55162068438E
:103ABC00811C414458441A00B246CFE74D46B246E9
:103ACC001C4B1B19013B1A780023002A0ED01749F6
:103ADC008C46184E00E00A00581C6146CC54B318B2
:103AEC00013B19781400C3B20029F4D101200F490D
:103AFC000F4B53441F00013F03E0013002350728F0
:103B0C000BD02B88002BF8D03A788A18013A12780F
:103B1C00DB089A42F1D1C0B200E000200FB03CBCEF
:103B2C0090469946A246AB46F0BDC046C86A0020F6
:103B3C001411002030110020780A00201C000020F5
:103B4C00F0B587B007000E0005921D00374B1878B2
:103B5C00FFF726FF0490002D20D0344B1C78B44284
:103B6C005FD0BC4234D000240598FFF7B9FD04980F
:103B7C00FFF7B6FD2D4B1B78A34246D02B4B197883
:103B8C0000230393013B02930193033300930B0037
:103B9C00049A059805F0B6FD07B0F0BD244B9B19AF
:103BAC00013B1A78012A10D0224B9B18013B1C7840
:103BBC001E4B1B78BB42D7D109F04CFE07001E4BA5
:103BCC00196832000FF0EEFB0DE0184B1C78EFE794
:103BDC0009F040FE07000024184B19682B00320036
:103BEC0038000FF0DFFB164B196838000FF0FAFBAA
:103BFC003800FCF78BFA82B232233900059809F0B1
:103C0C000FFC64200BF03CFDAEE7049809F0BEFB02
:103C1C00012109F055FCB1E709F01CFE07000495E1
:103C2C00DAE7BC42F8D004959EE7C0467610002037
:103C3C0014110020C86A0020780000207C000020AD
:103C4C0080000020F0B5D6464F464646C0B584B03D
:103C5C0005000390564C574B220043CB43C21968C6
:103C6C0011609B8893802000FCF750FA82B20123EC
:103C7C005B42009333332100280009F0A9FB012497
:103C8C004D4F4B4D012676422200390028000FF093
:103C9C0089FB2800FCF73AFA82B2009632232900FD
:103CAC00039809F095FB0134072CEDD101235B42FD
:103CBC000093333303224149039809F089FB404BAD
:103CCC001B78002B65D0002601277F423D4B99467F
:103CDC000E234B449A462AE007231340D2083A4954
:103CEC0033480FF05FFB324D2800FCF70FFA82B21D
:103CFC00009732232900039809F06AFB0234B4427E
:103D0C0007D02288002AE7D1304929480FF04AFB16
:103D1C00E9E746460097322302222D49039809F021
:103D2C0057FB0136F6B2264B1B78B34231D9721CC5
:103D3C001F4C284920000FF035FB2000FCF7E6F95A
:103D4C0082B2009732232100039809F041FB16251B
:103D5C0075434B46EB5A5900C91849001E4BC918FC
:103D6C00052220000FF073FB00973223052221005F
:103D7C00039C200009F02CFB0097322301221749E9
:103D8C00200009F025FBAC1C4C445544B0462E00D9
:103D9C00B7E701235B4200933333012210490398A8
:103DAC0009F016FB04B01CBC90469946A246F0BD27
:103DBC00A8100020D47A0108E87A01086C8F010859
:103DCC001C000020780A0020007B0108FC7A010806
:103DDC007C790108F07A01083C7B0108E47A01083F
:103DEC0030910108F0B5C64600B584B005000390CB
:103DFC00304C314B220043CB43C243CB43C21B68F4
:103E0C0013602000FCF782F982B201235B4200931D
:103E1C0033332100280009F0DBFA284B1B780122F0
:103E2C009046002B2CD0264E25E023000A2C1AD0CD
:103E3C005C1CA95B802212021A410A42F5D01D4F6C
:103E4C00230042461F4938000FF0ACFA3800FCF74B
:103E5C005DF982B201235B4200933333390003983E
:103E6C0009F0B6FAE1E743460133DBB29846134B4F
:103E7C001B78434504D300234246551E6D00D7E7FB
:103E8C000C4C114B220023CB23C223CB23C203CBDC
:103E9C0003C22000FCF73AF982B201235B42009383
:103EAC0033332100039809F093FA04B004BC904614
:103EBC00F0BDC046A8100020847A01081C00002028
:103ECC00406E0020A07A0108B47A0108F0B5D646FD
:103EDC0000B584B0039009F0BDFC0400002303700E
:103EEC008D4B1A788D4D8E4928000FF05BFA290006
:103EFC0020000FF077FA8B4B1A788B4928000FF0C3
:103F0C0051FA290020000FF06DFA05230093033BB2
:103F1C000022864928000FF045FA290020000FF0F6
:103F2C0061FA834A834928000FF03CFA29002000EB
:103F3C000FF058FA804A814928000FF033FA290013
:103F4C0020000FF04FFA7E4B2A0043CB43C2196876
:103F5C001160998891809B799371290020000FF052
:103F6C0041FA01276D4D774B9A460EE06B4B764A22
:103F7C00116819609188998092799A71674920002B
:103F8C000FF030FA0137072F39D03A006F4928006B
:103F9C000FF008FA290020000FF024FA5346FB5CBE
:103FAC00042BEBD85346FB5C9B00694AD3589F46C5
:103FBC005A49684B0A0043CB43C203CB03C21B785C
:103FCC001370DBE7554A644B43CB43C2D6E75349E6
:103FDC00624B0A0043CB43C243CB43C21B881380C2
:103FEC00CCE74E495E4B0A0043CB43C243CB43C2A2
:103FFC0019681160998891809B799371BEE7474944
:10400C00584B0A0061CB61C261CB61C220000FF03A
:10401C00E9F9554F01260DE0404D32005349280077
:10402C000FF0C0F9290020000FF0DCF90136383709
:10403C00072E18D03B68002BEED0786A07F022FBD5
:10404C000500B300043B4A4AD05807F01BFB009014
:10405C002B003200474931480FF0A4F92F492000BA
:10406C000FF0C0F9E2E72000FCF750F8201803220B
:10407C0041490EF094FF2000FCF748F820181D224F
:10408C003E490EF08CFF2000FCF740F882460022DF
:10409C003B4F214E02E02A00062D13D0551C3378DD
:1040AC00013B5B00D95B80231B0213410B42F2D016
:1040BC002A00344919480FF075F9184920000FF0FF
:1040CC0091F9E8E72000FCF721F853461B041B0C80
:1040DC0098420ED02000FCF719F82018032226492C
:1040EC000EF05DFF039B002B09D104B004BC92467B
:1040FC00F0BD2018052224490EF051FFEAE72000FC
:10410C00FCF704F882B201235B42009333332100A5
:10411C00039809F05DF9E8E776100020A81000205C
:10412C00C8780108770A0020E478010800790108B2
:10413C00207901082C79010844790108507901088B
:10414C006C790108F8100020887901088079010841
:10415C00A478010890790108A8790108B4790108BC
:10416C00D0790108F079010894190020087A010827
:10417C00A8140020247A01087C790108547A0108DB
:10418C00406E0020747A01087C7A0108F0B5C646AE
:10419C0000B505002949FBF7AFFF002810D02849CE
:1041AC002800FBF7A9FF002845D02B789846232B35
:1041BC000BD0244B1F78002F2AD0234E00241CE058
:1041CC00224B187804BC9046F0BD681C0EF05DFCC8
:1041DC00C3B2002B03D01B4A12789A4206D21B4A58
:1041EC00127866209A42EDD110B2EBE718B2E9E7EB
:1041FC000134E4B20A36BC420AD031002800FBF785
:10420C007BFF0028F4D14346002BF1D020B2D9E734
:10421C000F4F002639002800FBF76EFF002805D051
:10422C0001360A370A2EF5D16420CBE73402FE2082
:10423C00204300B2C6E7FF20C4E7C046087B010854
:10424C000C7B01081C000020680F00207610002059
:10425C005C0E0020F0B583B001900D002A4C2700B5
:10426C00103721002800FBF747FF002843D0043407
:10427C00BC42F6D1254B1B78012B0FD9244C9F0047
:10428C00FF187F0023000A3BFF1821002800FBF7D2
:10429C0033FF002831D00A34BC42F6D11D4C270024
:1042AC00643721002800FBF727FF002828D00A34A8
:1042BC00BC42F6D1184C194B1C601E0023681F68B9
:1042CC003800FBF723FF0200390028000FF0AEF88E
:1042DC00002817D064683460002CEFD1019B980043
:1042EC009C46604440000E4E801929000FF096F851
:1042FC00FFF7A6F802E0062000E0072003B0F0BDAF
:10430C000720FBE70820F9E7B87801081C0000201B
:10431C00720F00205C0E002098000020001100207D
:10432C00680F0020F0B5C64600B507000E003A4DE8
:10433C00002429003000FBF7DFFE002850D00134A8
:10434C000A350A2CF5D1354C2500103521003000EA
:10435C00FBF7D2FE002858D00434AC42F6D1304BD7
:10436C001B78012B0FD92F4C9D00ED186D002300ED
:10437C000A3BED1821003000FBF7BEFE002846D0AA
:10438C000A34AC42F6D1284C284B1C609846236862
:10439C001D682800FBF7BAFE0200290030000FF060
:1043AC0045F8002835D0646843461C60002CEED1DB
:1043BC00194B1B78002B1ED0174B0A3301341A787B
:1043CC00002A19D001340A330A2CF8D1013F1849BC
:1043DC007F000122A2407B5A13437B52002007E04E
:1043EC00013F13497F000122A2407B5A13437B52A9
:1043FC0004BC9046F0BD0024A00000194000064B00
:10440C00181831000FF00AF8E0E70620F0E7072053
:10441C00EEE70820ECE7C0465C0E0020B8780108F7
:10442C001C000020720F00209800002004110020B6
:10443C00C00E0020F0B5CE46474680B583B0244B65
:10444C001B78002B3CD0012500230193214B99466E
:10445C00214B984621E00026012480273F0204E0EE
:10446C000134E4B20136072C11D0200008F08EFF85
:10447C00436BBB42F4D1174B1B78013B5B004246AC
:10448C009A5A390031410A4341465A52E8E70135FC
:10449C00EDB20F4B1B78AB4214D34B461B78AB429F
:1044AC00D9D000221321280005F006F9322008F09B
:1044BC0093FD0A4B1B78002BE9D002230193E6E70E
:1044CC0000230193019803B00CBC90469946F0BDB3
:1044DC001C00002076100020406E002010110020DF
:1044EC00F0B5C64600B500250124124B9846124F74
:1044FC00802636020AE0200008F048FF012108F06F
:10450C00DFFF0134E4B20135072C0FD03B78013BBF
:10451C005B0042469B5A32002A411A42EBD12000E2
:10452C0008F034FF002108F0CBFFEAE7002004BCC0
:10453C009046F0BD406E00207610002070B508F05B
:10454C0003FC08F0A1FC03F051FA08F06BF907F03A
:10455C00EBF808F0CDFC08F011F908F0FBFC08F0C2
:10456C0003FA00281AD1FFF76DF8002821D0364B3A
:10457C0001221A70322008F02FFD07F067F8334B38
:10458C00E12252029A6001241D00A968200008F063
:10459C008DFF0134E4B2072CF7D10FE0FFF740F8A0
:1045AC00BFF34F8F2A4B2B4ADA60BFF34F8FC046B5
:1045BC00FDE7322008F010FD07F048F8FEF704FF85
:1045CC00FFF78EFF07F018FD234B1B78002B27D02D
:1045DC0080252D019024E4050122290020000CF0F7
:1045EC00B9FCFA20400008F0F7FC0022290020005A
:1045FC000CF0B0FC642008F0EFFC01222900200034
:10460C000CF0A8FC642008F0E7FC00222900200034
:10461C000CF0A0FC03F026F8104B01221A7070BDB0
:10462C0080252D019024E4050122290020000CF0A6
:10463C0091FCFA20400008F0CFFC00222900200059
:10464C000CF088FCE6E7C046760A0020C46900201E
:10465C0000ED00E00400FA0576100020750A002039
:10466C0010B50AF0EFFF06F07BFEFFF767FF03F0D3
:10467C00E7FB08F0D5FF10BD10B582B01E200EF080
:10468C0041FA04001E2200210EF092FC08498B7D99
:10469C000A7D013A920007481258088B0190497D17
:1046AC000091054920000EF07DFE200002B010BDE7
:1046BC00C46900201C7E0108287B010800B585B068
:1046CC000A00074B197801230393023B02930193D1
:1046DC00033300930B0005F015F805B000BDC04680
:1046EC007610002030B587B004000D000023049331
:1046FC000393029301930093002200210020FEF704
:10470C00E1FE621ED3009B1ADB00144A9B58002B5F
:10471C0015D06A1ED3009B1ADB00104A9B58002B45
:10472C0004D1200002F012FF002006E0200002F06D
:10473C000DFF280002F00AFF002007B030BD6A1EF2
:10474C00D3009B1ADB00054A9B58002B04D0280091
:10475C0002F0FCFE0020F0E76820EEE79419002040
:10476C0070B505000478002C10D0032604E02A70E4
:10477C0001352C78002C09D00EF0B6F900194378CD
:10478C0033402200012BF2D12032F0E770BD000043
:10479C00F0B5C64600B588B00500DC4B1C78052C7E
:1047AC0000D110E2DA49A3001A19920000205054EB
:1047BC001A1992008A18507018198000023040188B
:1047CC00042200210EF0F4FB2B78622B02D1AB7883
:1047DC002E2B32D0CF4E290030000EF01FFECE4CC7
:1047EC00210030000FF09AFC0500210000200FF092
:1047FC0095FC0600210000200FF090FC0400002D19
:10480C0000D1E5E12800FEF781FF051E00D18FE104
:10481C00002E00D08EE16720002C00D0D4E1BB4CE0
:10482C002378BB499A00D0188000023646540A18E7
:10483C00D570013323700020C6E16E78303EF6B29D
:10484C000020062E00D9BFE1B14AA3001919890036
:10485C0001308854531800225A709E70EF1C073296
:10486C00AE4938000EF0E2FD002821D1A3001C193E
:10487C00A400A74B1C190523E370F2009219A84B56
:10488C009B181B7ADB0704D5A04A137801331370ED
:10489C009AE101230593002304930393029301935C
:1048AC00009300220121300003F094FD0020EBE77F
:1048BC000E229C4938000EF0B9FD00281CD1A30033
:1048CC001C19A400924B1C190623E370F2009219D8
:1048DC00934B9B181B7A9B07D6D40123059300237B
:1048EC00049303930293019300930122002130005F
:1048FC0003F070FD0020C7E70C228B4938000EF046
:10490C0095FD00287AD1F2009219854B9B189B7863
:10491C00002B30D0F2009219814B9B18DB78002BC6
:10492C004AD0F20092197E4B9B181B790C20002B5D
:10493C00AAD1774FA3001B199B00FB180B22DA702E
:10494C0028000F300EF09BF8C0B2704B1A78930011
:10495C009B189B00FF1838710123059300230493C7
:10496C00039302930190009300220021300003F086
:10497C0031FD002088E7664FA3001B199B00FB1834
:10498C000922DA7028000F300EF079F8C3B25F4AB2
:10499C0011788A0052189200BF183B7101220592BF
:1049AC0000220492039202920192009200213000A4
:1049BC0003F010FD002067E7554FA3001B199B0067
:1049CC00FB180A22DA7028000F300EF058F8C0B22B
:1049DC004E4B1A7893009B189B00FF1838710123DB
:1049EC0005930023049303930293019300900022F8
:1049FC000021300003F0EEFC002045E70D224B496E
:104A0C0038000EF013FD03000020002B00D03BE714
:104A1C00F2009219424B9B185B79002B31D0F200BB
:104A2C0092193F4B9B189B79002B4CD0F20092199A
:104A3C003B4B9B18DB790D20002B00D024E7344F27
:104A4C00143398465C433C19063BE3702800103045
:104A5C000EF015F8C0B22D4B1B7842465343FF188D
:104A6C00387101230593049000240394029401945B
:104A7C000094230022002100300003F0ABFC200046
:104A8C0002E7234FA3001B199B00FB180C22DA70C2
:104A9C00280010300DF0F3FFC0B21C4B1A789300B5
:104AAC009B189B00FF183871012305930023049376
:104ABC00039302900193009300220021300003F035
:104ACC0089FC0020E0E6124FA3001B199B00FB1889
:104ADC000D22DA70280010300DF0D1FFC0B20B4B54
:104AEC001A7893009B189B00FF18387101230593CB
:104AFC00002304930390029301930093002200215E
:104B0C00300003F067FC0020BEE6C0461F120020F8
:104B1C00E06900208411002084790108A08F01082D
:104B2C001C150020208001083080010840800108FD
:104B3C00002E4FD0002C4FD02000FEF7E7FD0028B0
:104B4C0024D0274B1C78274AA30019198900042765
:104B5C008F54191989005118CD70C871204D2C78BB
:104B6C003000FEF7DFFD1F49A3001B199B00CB187B
:104B7C0058702A7893009B189B00CB185B78002BFD
:104B8C002CD00132164B1A7000201DE0144B9846A5
:104B9C001A78144F9300991889000320C8557B1874
:104BAC00DD7020000DF066FFFEF708F80790434615
:104BBC001B789800C01880000630C019042207A981
:104BCC000EF0EDF9CAE70E2008B004BC9046F0BD1B
:104BDC006720F9E76720F7E76720F5E76720F3E739
:104BEC001F120020E0690020F8B50C00022817D035
:104BFC00032803D001280FD000200CE0354B1A7885
:104C0C00013A93009B189B00334AD31801221A7463
:104C1C0006F0FEFB0020F8BD0800FFF7B9FDFAE72F
:104C2C002C4B1D78013DAB005B199B002A4AD31815
:104C3C00DE68002E3DD03000FBF768FA070020003C
:104C4C00FBF764FA3918023130000EF0E3F9224E0A
:104C5C00AB005D19AD007519E8601E4D2A78013A5C
:104C6C0093009B189B00F3187A1CD86880182100BD
:104C7C000EF0D4FB2A78013A93009B189B00F6188F
:104C8C00F3681322DA55134B1A78013A93009B18E8
:104C9C009B001149CB18DB680020002BBBD1900086
:104CAC00801880004018142200210EF081F90E208B
:104CBC00B1E70800FBF72AFA01300DF023FFAB0037
:104CCC005D19AD00044B5D19E86021000EF0A6FBE8
:104CDC00D9E7C0461F120020E0690020F0B5DE467F
:104CEC0057464E464546E0B58BB004908846039235
:104CFC001C000922002107A80EF05AF9D54F2E00EE
:104D0C0034E05222D44920000EF049F9D14B002254
:104D1C001A7044E00622D14903980EF087FB002854
:104D2C0053D0022D5ED02E2103980EF069FB051E88
:104D3C0006D003380322CA490EF078FB002860D154
:104D4C00992292002100039808F006FD06002378B2
:104D5C00002B00D06FE12000FBF7D8F902000021F6
:104D6C0020000EF025F9002E00D1ABE10398FFF7DF
:104D7C00F7FC3D78002DCDD10322BA4903980EF0F3
:104D8C0055FB0028CFD1039BD91C0130FFF72CFF1A
:104D9C000028B6D1AF4B02221A700D232370237852
:104DAC00002B00D186E14346002B00D19DE100266B
:104DBC002000FBF7ABF982B201235B420093333343
:104DCC002100049808F004FBC5E7A24B00221A70DE
:104DDC00A5490330FFF708FF4122A44920000EF03B
:104DEC00DEF8DCE703990220FFF7FEFE002802D173
:104DFC000D232370D3E75222974920000EF0CFF8F1
:104E0C00CDE70DF071FE6B78C01843785B0797D433
:104E1C0003996A1A07A80EF01AFB07A8FFF7B6F950
:104E2C000590934A1278934690423DD0642843D023
:104E3C00662847D0FF284BD06B461B7D9A46FE2B2D
:104E4C0078D0013506228B4928000EF0EFFA0028A5
:104E5C0000D0B4E0884B00229A711921504604F01E
:104E6C002BFC642008F0E1FB844B1A78804B1878FB
:104E7C0000235146FEF764FE7F4B9B79602B8ED14D
:104E8C00FA218900012009F0A3FF7D4B1B78002B30
:104E9C0085D07C4A138801331380059B22007A4904
:104EAC0020000EF07FFA7AE79922681C920021000C
:104EBC0008F052FC06004AE72722744920000EF045
:104ECC006EF86CE72522724920000EF068F866E750
:104EDC001A2200216F480EF06BF801350398FBF78E
:104EEC0015F9060007AB1800FBF710F9721E121A21
:104EFC00290069480EF0ABFA0398FBF707F9060096
:104F0C0007A8FBF703F9331A9BB21722FF21584667
:104F1C0004F0AAFB992292002100280008F01CFC46
:104F2C0006002000FBF7F2F820181D225B490EF05A
:104F3C0036F80CE7059B1B12DBB29A46584B994688
:104F4C0052461A701A22002152480EF031F86B1C8E
:104F5C0005930398FBF7DAF8050007AA1000FBF796
:104F6C00D5F8013D2A1A05994B480EF070FA0398B2
:104F7C00FBF7CCF8050007A8FBF7C8F82B1A9BB277
:104F8C0017225146584604F06FFB394B1B78013BF6
:104F9C005B00444A9B5A4A4612781341DB0706D4FD
:104FAC0007AB2200404920000EF0FCF9CFE6992215
:104FBC0092002100059808F0CFFB0600F0E703985B
:104FCC00FBF7A4F8060007AB1800FBF79FF8721E5E
:104FDC00121A290030480EF03AFA0398FBF796F8AB
:104FEC00050007A8FBF792F8013D2A1A92B2172187
:104FFC00504604F061FB059A2C4920000EF0D2F9C2
:10500C002378002B02D04346002B08D12000FBF75D
:10501C007DF80200002120000DF0CAFF2CE72000D3
:10502C00FBF774F882B2012300933133210004980A
:10503C0008F0CEF9EAE74346002B00D18BE6B7E641
:10504C0001235B420093333338221949049808F04A
:10505C00BFF943E04C120020587E0108AC7E0108D9
:10506C00F87E0108547E0108EC7A0108B47E010830
:10507C0076100020987F0108C4690020770A002070
:10508C00101100209A170020C47F0108FC7E010833
:10509C00247F0108EC0C0020380F00204C7F010805
:1050AC001E120020C00E00206C7F0108A07F01089A
:1050BC00E47F01082000FBF729F802000021200002
:1050CC000DF076FF0922002107A80DF071FF0B4BA4
:1050DC001B78002B02D14346002BB1D10BB03CBC4A
:1050EC0090469946A246AB46F0BD2000FBF70EF861
:1050FC000200002120000DF05BFFE3E74C120020C2
:10510C00F0B5DE4657464E46C0B586B00121494241
:10511C00012009F05DFE0F2302AA9446634400228D
:10512C001A7008F097FB0390E1231B035F4A926807
:10513C009A4209D001245E4E1D003378A3422DD132
:10514C000134E4B2072CF8D15A4B1A8853009B183F
:10515C005B00594A9B18594A1278594C544D29787E
:10516C000091584920000EF01DF9A42228780A233A
:10517C009200554908F054F92000FAF7C7FF82B2A3
:10518C0028780A23210008F04BF900239B46484B52
:10519C009A464E4B99461F00564666E02900200061
:1051AC0008F084F9CCE70F2002ADAC4660440270E5
:1051BC009801474A121800205054444AD4540F24E2
:1051CC0002AB9C4664443A4B18780A230122210016
:1051DC0008F026F923780D2B28D00A2B43D0082B66
:1051EC0059D01A00203A5E2A3DD85A46312A3ADC68
:1051FC00384A594653545B4601335BB29B4632E006
:10520C000022FA540AF0BEF83E3C3378013B2100F0
:10521C009A01AA18125D002AC5D13F2CF0D00AF0D1
:10522C00B1F80134A4B23F2CEFD9C8E7204B187861
:10523C000A230222284908F0F3F85B46002B25D0FC
:10524C00244C1B4B1878039B22000121FFF746FDD1
:10525C00210022480EF0E2F83222002120000DF04D
:10526C00A7FE00239B460AF08DF853461B78013BA2
:10527C004A46D25C94B23F2CA1D811009D0114482F
:10528C004019825C002A8ED1114DC6E71349114892
:10529C000EF0C4F8D4E75B46002BE4DD013B5BB2B7
:1052AC009B460C4B002259465A54DCE7C46900203B
:1052BC00770A0020500000203C7B0108761000206B
:1052CC0020120020508001087C800108501400201E
:1052DC00D0120020501100203C990108EC11002044
:1052EC0070B50C001C4B1A78013A93009B189B006C
:1052FC001A4AD318DB68002B2CD0194B1B68002BD7
:10530C0014D0174B1D682B78002B12D013212800BA
:10531C000EF076F8061E11D0421B290020000EF06C
:10532C0096F801360E4B1E60012006E00C4B1860FF
:10533C00E7E70B4B00221A60002070BD290020000B
:10534C000EF06CF82000FAF7E1FE2D18044B1D60EE
:10535C000120F2E70020F0E71F120020E069002096
:10536C0048120020F0B583B0040083001B189B008A
:10537C003F4A9B5C012B03D0032B15D0002011E07E
:10538C003B4983001A1892008A189078C2001218B0
:10539C001B199B00CB183749505CDB78C01A434271
:1053AC005841C0B203B0F0BD314E85002B189B00A4
:1053BC00F318DA78013A53009B189B002E4A9B583D
:1053CC001F682918890006318919042201A80DF0DB
:1053DC00E6FD2D19AD0075196B78062B3FD89B0097
:1053EC00264AD3589F46391C0198FBF76BF8431E8D
:1053FC009841D7E7391C0198FBF76AF8431E98418E
:10540C00D0E7391C0198FBF777F8002829D0002148
:10541C00381CFBF757F843425841C3E7391C019835
:10542C00FBF760F8431E9841BCE7391C0198FBF769
:10543C006DF8002817D00021381CFBF743F84342C5
:10544C005841AFE7391C0198FBF73CF800280CD108
:10545C000021381CFBF736F843425841A2E70020E4
:10546C00A0E700209EE700209CE700209AE7C046BA
:10547C00E06900201C15002084000020387E010803
:10548C00F8B508F0E7F905001C4B1B78002B32D05F
:10549C0000241B4F1AE01B4B18782B001A4A0021D2
:1054AC00FFF71CFC2800FAF731FE0200002128004F
:1054BC000DF07EFD1449F068FFF712FF0028EAD1C9
:1054CC000134A4B20D4B1B78A34214D9A3001B19B1
:1054DC009B00FB181B7C002BF2D0E0B2FFF742FFC5
:1054EC000028EDD0094B20229A71A3001E19B6009A
:1054FC00034B9E19DEE70020F8BDC0461F120020AA
:10550C00E0690020770A0020B8110020C46900204F
:10551C000020704770B582B0040015000023019381
:10552C000093002801D172B6FEE701AA01212800E0
:10553C0008F094F90023C356702B0CD06A46022154
:10554C00280008F08BF90DF0A0FA13220F49200067
:10555C000DF025FD16E001300DF097FA06006A46B5
:10556C000221280008F07AF90DF08FFA0500F0B24C
:10557C00290007F09BFFFF2333402A000449200039
:10558C000DF010FF002002B070BDC046088D010860
:10559C00E08C010810B5002801D172B6FEE7034B70
:1055AC001A8803490DF0FEFE002010BDCCF7FF1F3A
:1055BC00D486010810B582B00400100000230193BA
:1055CC0000230093002C01D172B6FEE701AA012141
:1055DC0008F044F90378323B012B07D915220B490B
:1055EC0020000DF0DCFC002002B010BD0DF04DFAD7
:1055FC00C0B2694603F08AF90098FDF78DFA0200F3
:10560C000B00034920000DF0CDFEECE7D083010820
:10561C00AC83010810B582B0040000230193009301
:10562C00002801D172B6FEE7694601A803F0B0F874
:10563C0001A920000DF0F2FE0098FDF76DFA0200B2
:10564C000B00034920000DF0ADFE002002B010BD90
:10565C001C84010810B582B0040000230193009350
:10566C00002801D172B6FEE7694601A803F090F854
:10567C0001A920000DF0D2FE0198FDF74DFA0200B1
:10568C000B00034920000DF08DFE002002B010BD70
:10569C00E883010870B584B004001600002303935E
:1056AC00029300230193002801D172B6FEE703AAEE
:1056BC000121300008F0D2F8050002AA02213000C6
:1056CC0008F0CCF806002B78323B012B07D91522B9
:1056DC00194920000DF063FC002004B070BD2800B7
:1056EC000DF0D3F9C5B215493000FAF705FD0028C5
:1056FC0005D013493000FAF7FFFC002816D10F4EE5
:10570C003100280003F0CCF901AA3100280003F085
:10571C00F5F901A920000DF081FE0198FAF74AFF76
:10572C0082B2084920000DF03DFED5E71222064951
:10573C0020000DF034FCCFE7D08301085C83010816
:10574C00608301086883010878830108F0B5D646A8
:10575C00474680B585B00400100000230393624BCC
:10576C001A7802AB1A70002C01D172B6FEE703AAAC
:10577C00012108F073F805005C49FAF7BDFC00281C
:10578C0073D15B4B1A785B4B9B18013B1E78012540
:10579C00574B984615E02A00574920000DF002FEA1
:1057AC002000FAF7B3FC82B2514B187864230093B3
:1057BC005A3B210007F00CFE2FE00135072D00D1DC
:1057CC007FE0EBB29A4643461B785345F5D00DF07B
:1057DC0007FC02AF3870642300935A3B0122390056
:1057EC00504607F0F5FD504607F0D0FD03689B8C42
:1057FC003A78DBB29A42CED02A00404920000DF014
:10580C00D1FD2000FAF782FC82B2394B1878642360
:10581C0000935A3B210007F0DBFD5422384920004D
:10582C000DF0BDFB2000FAF771FC82B2304B1878FA
:10583C00642300935A3B210007F0CAFD01362C4B20
:10584C001B78013B9B012F4AD3189B5D002BB4D1D5
:10585C009246274F012009F013FF3B78013B9B0137
:10586C0053449B5D002BF5D0A7E70023EB56702B20
:10587C0005D00F22244920000DF091FB21E0681C7B
:10588C000DF003F90500C7B27B1E052B25D80DF0D2
:10589C00A7FB02AE307064230093323B012231002F
:1058AC00380007F095FD380007F070FD03689B8CFD
:1058BC003278DBB29A420AD1EAB20F4920000DF0DD
:1058CC0071FD002005B00CBC90469A46F0BDEAB2C2
:1058DC000A4920000DF066FDF3E71B220B4920005E
:1058EC000DF05DFBEDE7C046B07701080C7B0108BD
:1058FC00770A002050140020CC9F0108E89F010873
:10590C00FC9F0108D012002050A0010860A00108E3
:10591C00F0B583B004001500002301930093002818
:10592C0001D172B6FEE701AA0121280007F096FF0B
:10593C000023C356702B0ED06A460221280007F0B4
:10594C008DFF0023C356702B1ED00F221A49200046
:10595C000DF025FB15E001300DF097F80600C7B2ED
:10596C006A460221280007F079FF0023C356702BEA
:10597C000ED067206728E8D01922104920000DF0BE
:10598C000EFB002003B0F0BD01300DF07EF8DCE71B
:10599C0001300DF07AF80500C1B23800FEF7A2FE16
:1059AC000028E7D1FF222B0013403240044920008D
:1059BC000DF0F8FCE5E7C04650A0010818A101085D
:1059CC00F8A00108F0B583B0040015000023019382
:1059DC000093002801D172B6FEE701AA012128002C
:1059EC0007F03CFF0023C356702B0ED06A460221F1
:1059FC00280007F033FF0023C356702B1ED00F2254
:105A0C001A4920000DF0CBFA15E001300DF03DF8ED
:105A1C000600C7B26A460221280007F01FFF0023C8
:105A2C00C356702B0ED067206728E8D01722104978
:105A3C0020000DF0B4FA002003B0F0BD01300DF0E1
:105A4C0024F8DCE701300DF020F80500C1B2380075
:105A5C00FEF734FE0028E7D1FF222B001340324022
:105A6C00044920000DF09EFCE5E7C04650A001085B
:105A7C00708501084C850108F0B585B00500100053
:105A8C0000230393002D01D172B6FEE703AA012176
:105A9C0007F0E4FE0CF0F3FF0190C6B2002E03D029
:105AAC00274B1B78B34207D22322264928000DF03E
:105ABC0076FA002005B0F0BD6B461A79013A2248FF
:105ACC001423534300271F54C4186770023318184B
