:020000040800F2
:1000000000800020CDE1000859E20008D5D30008A7
:1000100000000000000000000000000000000000E0
:10002000000000000000000000000000C9FD000802
:10003000000000000000000055FE0008C9D30008C1
:1000400059E2000859E2000859E2000859E20008A4
:1000500059E2000859E2000859E2000859E2000894
:1000600059E2000859D4000865D40008A5D4000856
:1000700059E2000859E2000859E2000859E2000874
:1000800059E2000859E2000859E2000859E2000864
:1000900059E2000859E2000859E2000859E2000854
:1000A00059E2000859E2000859E200080DD400089E
:0C00B0001DD400082DD4000859E20008FF
:1000BC0010B5064C2378002B07D1054B002B02D032
:1000CC00044800E000BF0123237010BD800700200E
:1000DC000000000094970108044B10B5002B03D0CE
:1000EC000349044800E000BF10BDC04600000000FA
:1000FC00840700209497010802780B78002A03D01B
:10010C00013001319A42F7D0D01A70470023C25CFB
:10011C000133002AFBD1581E7047000002B471460F
:10012C0049084900095C49008E4402BC7047C0462E
:10013C0003B47146490840004900095A49008E44ED
:10014C0003BC7047002243088B4274D303098B42D3
:10015C005FD3030A8B4244D3030B8B4228D3030C8B
:10016C008B420DD3FF22090212BA030C8B4202D32D
:10017C001212090265D0030B8B4219D300E0090A55
:10018C00C30B8B4201D3CB03C01A5241830B8B425E
:10019C0001D38B03C01A5241430B8B4201D34B0347
:1001AC00C01A5241030B8B4201D30B03C01A5241AC
:1001BC00C30A8B4201D3CB02C01A5241830A8B4231
:1001CC0001D38B02C01A5241430A8B4201D34B021A
:1001DC00C01A5241030A8B4201D30B02C01A52417E
:1001EC00CDD2C3098B4201D3CB01C01A5241830932
:1001FC008B4201D38B01C01A524143098B4201D36C
:10020C004B01C01A524103098B4201D30B01C01A96
:10021C005241C3088B4201D3CB00C01A5241830810
:10022C008B4201D38B00C01A524143088B4201D33D
:10023C004B00C01A5241411A00D20146524110469D
:10024C007047FFE701B5002000F0F0F802BDC04692
:10025C000029F7D076E7704703460B437FD4002282
:10026C0043088B4274D303098B425FD3030A8B423E
:10027C0044D3030B8B4228D3030C8B420DD3FF22A8
:10028C00090212BA030C8B4202D31212090265D076
:10029C00030B8B4219D300E0090AC30B8B4201D329
:1002AC00CB03C01A5241830B8B4201D38B03C01A70
:1002BC005241430B8B4201D34B03C01A5241030BE7
:1002CC008B4201D30B03C01A5241C30A8B4201D398
:1002DC00CB02C01A5241830A8B4201D38B02C01A43
:1002EC005241430A8B4201D34B02C01A5241030ABA
:1002FC008B4201D30B02C01A5241CDD2C3098B429F
:10030C0001D3CB01C01A524183098B4201D38B011B
:10031C00C01A524143098B4201D34B01C01A5241BE
:10032C0003098B4201D30B01C01A5241C3088B4203
:10033C0001D3CB00C01A524183088B4201D38B00EE
:10034C00C01A524143088B4201D34B00C01A524190
:10035C00411A00D201465241104670475DE0CA0F67
:10036C0000D04942031000D34042534000229C4627
:10037C0003098B422DD3030A8B4212D3FC22890131
:10038C0012BA030A8B420CD3890192118B4208D307
:10039C00890192118B4204D389013AD0921100E069
:1003AC008909C3098B4201D3CB01C01A524183097D
:1003BC008B4201D38B01C01A524143098B4201D3AA
:1003CC004B01C01A524103098B4201D30B01C01AD5
:1003DC005241C3088B4201D3CB00C01A524183084F
:1003EC008B4201D38B00C01A5241D9D243088B42A5
:1003FC0001D34B00C01A5241411A00D20146634648
:10040C0052415B10104601D34042002B00D54942AB
:10041C00704763465B1000D3404201B5002000F0EA
:10042C0005F802BD0029F8D016E770477047C046A2
:10043C008446100062468C461900634600E0C046B4
:10044C001FB501F015FD002801D40021C8421FBDC5
:10045C0010B501F065FC4042013010BD10B501F043
:10046C0007FD002801DB002010BD012010BDC04697
:10047C0010B501F0FDFC002801DD002010BD0120AD
:10048C0010BDC04610B501F08DFC002801DC002029
:10049C0010BD012010BDC04610B501F083FC002832
:1004AC0001DA002010BD012010BDC04684460800B2
:1004BC006146FFE71FB500F04BFA002801D400217C
:1004CC00C8421FBD10B500F0D7F94042013010BD35
:1004DC0010B500F03DFA002801DB002010BD012012
:1004EC0010BDC04610B500F033FA002801DD002025
:1004FC0010BD012010BDC04610B500F0E3F9002876
:10050C0001DC002010BD012010BDC04610B500F06C
:10051C00D9F9002801DA002010BD012010BDC04619
:10052C00994201D1801A04D002D201204042704776
:10053C0001207047002B11D1002A0FD1002900D1C6
:10054C00002802D00021C943080007B4024802A1C8
:10055C004018029003BDC046D5FEFFFF03B46846A9
:10056C0001B5029800F0BCF8019B9E4602B00CBC91
:10057C007047C046F0B5CE469946030C9C46130412
:10058C0047461B0C1D000E0061460404240C80B56C
:10059C000700100C4B436543414360432C0CC018BF
:1005AC0020188C46834203D980235B029846C444AE
:1005BC00494679435643030C2D042D0C8919634489
:1005CC0000044019C918C0BCB946B046F0BDC046BD
:1005DC009E2110B5C905041CFFF798FF002803D114
:1005EC00201C00F0E7FC10BD9E21201CC90500F06A
:1005FC0041FB00F0DFFC80231B069C466044F2E7C5
:10060C0070B500220C4B04000D00FFF745FF0028CD
:10061C0004D12000290002F0F1FA70BD064B002233
:10062C002000290001F04AFF02F0E8FA80231B06A3
:10063C009C466044F1E7C0460000E04170B50500FF
:10064C000C000022002328002100FFF707FF0028E0
:10065C0008D12800210000F00FF802000B00100058
:10066C00190070BD80231B06E118280000F004F867
:10067C00002342428B41F2E770B500220B4B0D0078
:10068C00040001F059FCFFF7BBFF060002F01CFB55
:10069C000022074B01F050FC02000B002000290047
:1006AC0001F00CFFFFF7ACFF310070BD0000F03D16
:1006BC000000F04170B50600080002F0D5FA0022E7
:1006CC00064B01F039FC0D000400300002F0FCFA7E
:1006DC002B00220000F0D6FC70BDC0460000F0419B
:1006EC00F0B557464E464546DE46E0B504000D00D3
:1006FC009246994683B08B4230D82DD0494650460D
:10070C0002F0F4FB29000600200002F0EFFB331A84
:10071C009846203B34D49B4653465A469340424617
:10072C001F00534693401E00AF423BD8AF4200D14E
:10073C0079E05B46A41BBD41002B00DA76E0002279
:10074C0000230092019301235A4693400193012305
:10075C0042469340009329E08242CFD900220023E5
:10076C00009201930C9B002B01D01C605D600098E3
:10077C00019903B0F0BCBB46B246A946A046F0BDF9
:10078C0042469B4620239B1A5246DA4041461300B0
:10079C004A468A40170042461F43534693401E0068
:1007AC00AF42C3D900220023009201934346002B91
:1007BC00D8D0FB0772081A4346467B080EE0AB42C2
:1007CC0001D1A2420CD8A41A9D41012024196D41DB
:1007DC000021013E24184D41002E06D0AB42EED92B
:1007EC00013E24196D41002EF8D1009801995B4609
:1007FC0000196941002B24DB2B005A464446D34098
:10080C002A00E2401C005B461500002B2ADB260068
:10081C009E40330026004746BE403200801A994164
:10082C00009001919EE7A342BCD882E74246202368
:10083C0000219B1A0022009101920122DA400192C0
:10084C0085E7424620239B1A2A0046469A402300FD
:10085C00F340444613432A00E2401C005B4615005B
:10086C00002BD4DA42462F002023260097409B1AF7
:10087C00DE403B003343CDE770B5420045024E02EB
:10088C004C00C30F6D0A0120120E760A240EC90FFC
:10089C00FF2A06D0FF2C03D0A24201D1B54206D0CC
:1008AC0070BD002DFCD1FF2CFAD1002EF8D18B425B
:1008BC0006D00120002AF3D12800431E9841EFE70F
:1008CC000020EDE770B5420045024E024C00C30F0C
:1008DC006D0A120E760A240EC80FFF2A1BD0FF2CAD
:1008EC000ED0002A1BD1002C01D1002E1CD0002DC3
:1008FC000CD083421CD00221581E0840013870BD18
:10090C00002E22D1002AF4D1002DF2D10028F6D1EC
:10091C0001204042F3E7002D17D1FF2CF0D0002C22
:10092C00E7D1002EE5D1E6E70020002DE7D0E2E785
:10093C00A24205DCEADBB54202D8E7D30020DEE7B1
:10094C004342584140000138D9E702204042D6E7E3
:10095C0070B5420045024E024C00C30F6D0A120ED8
:10096C00760A240EC80FFF2A0BD0FF2C0DD0002ABC
:10097C001FD1002C16D1002E14D10020002D10D028
:10098C0009E0002D0CD1FF2C13D1002E08D1002A28
:10099C0008D0834212D00221581E0840013800E0D2
:1009AC00022070BD002DF4D10028FAD10120404264
:1009BC00F7E7002CEDD1002EEBD1ECE7A24205DCE1
:1009CC00F2DBB54202D8EFD30020EAE743425841AC
:1009DC0040000138E5E7C04643025B0AF0B54F46DC
:1009EC0046469946D646C30F45009846C0B54B4679
:1009FC000F1C2D0E00D1CBE0FF2D00D1CFE08022BB
:100A0C00DB00D2041A430023914600269A467F3D10
:100A1C007C027B00640A1B0EFF0F002B00D1A9E0A7
:100A2C00FF2B11D08022E400D204144342467F3BBA
:100A3C005B197A400020D2B25D1C0A2E13DD3A00FD
:100A4C000B2E47D047463FE02B00FF33002C1ED126
:100A5C0002221643424601357A40D2B2FF350A2EA5
:100A6C0000DDE4E00220022E1CDC013E012E42D807
:100A7C0002283DD0012866D100200021C005084382
:100A8C00D2071043E0BCBA46B146A846F0BD0322DB
:100A9C001643424601357A40D2B2FF350A2E00DDAC
:100AAC00E4E003200121B140A626F60031420AD130
:100ABC009026B600314216D1B93EFF3E0E421AD0F6
:100ACC00A146824600E0170053463A00022B0FD095
:100ADC004C4650460328CDD18021C90321434902FD
:100AEC00FF20490ACAE780210022FF20C903C5E77D
:100AFC00FF200021C2E7200C49462404240C2700C7
:100B0C000E0C0904090C74434F4346434843390CFB
:100B1C00001909188C4203D980204002844666448F
:100B2C003F0408043F0CC0198401671EBC41090C2A
:100B3C00800E8919044389010C43090171D50123E5
:100B4C0061081C400C432B007F33002B51DD6107E7
:100B5C0004D00F212140042900D00434210103D5F5
:100B6C00434B1C402B008033FE2BC1DCA101490AF6
:100B7C00D8B283E7002C2CD1012342461E432B0014
:100B8C007A400120D2B25D1C0A2E00DD57E76AE7DD
:100B9C00002B10D10123042600259A4638E7002BA0
:100BAC0004D102230826FF259A4631E703230C269D
:100BBC00FF259A462CE7484602F07AF94A46431F2D
:100BCC0076259A4000236D42914600269A462D1AAE
:100BDC001EE7200002F06CF94246431F9C402B1A82
:100BEC00763B7A400020D2B25D1C0A2E00DD26E74F
:100BFC0039E70121CB1A1B2B00DD3DE79E35210087
:100C0C00AC40D940631E9C4121434B0704D00F23B9
:100C1C000B40042B00D004314B0104D501200021E2
:100C2C002CE71D008FE789010020490A26E70223E3
:100C3C000F2E0CD180214B46C9030B420DD00C4218
:100C4C000BD1214349023A00FF20490A16E70B2E2B
:100C5C0000D0F7E6A1469A4636E780214B46C903F9
:100C6C00194349024246FF20490A07E70323DFE7FD
:100C7C00FFFFFFF7F0B5C64643025B0A4500DA00FA
:100C8C00C40F48024F009446420A1E00904600B51D
:100C9C002D0E3F0EC90F8009FF2F59D00122514054
:100CAC008C4239D0EA1B002A58DD002F68D0FF2D6A
:100CBC0000D1D1E08023DB0418431B2A00DCE3E0E5
:100CCC0001236246D31A5A0100D4ACE09B019E0961
:100CDC00300002F0EDF8330005388340854200DC2B
:100CEC00C6E0B24A2D1A13405A0704D00F221A40FC
:100CFC00042A00D004335A0100D497E06A1CFE2D5C
:100D0C0000D184E09B015E0AD2B2D0053043E407E7
:100D1C00204380BCB846F0BDEA1B002A41DD002F01
:100D2C006BD0FF2D00D197E08023DB0418431B2AE6
:100D3C0000DCCCE0012363445A0174D50135FF2D4E
:100D4C0065D001229A491A405B080B401343CBE74C
:100D5C0000281FD08C4222D02A00FF3A002A35D01E
:100D6C007A1B002D00D099E06346002B00D1DDE00A
:100D7C00531E012A00D105E1FF2A6BD01A0094E022
:100D8C00002873D0511E012A00D1DFE0FF2A63D066
:100D9C000A0092E701225140A14200D082E72A00CA
:100DAC00FF3A002A36D07A1B002D00D1AAE0FF2F83
:100DBC0000D1DAE080236146DB0419438C461B2A00
:100DCC0000DCD4E001233D001B18B5E7FE276A1CAC
:100DDC00174271D1002D00D09EE06346002B00D14C
:100DEC00D5E00022002800D18FE71B1A5E0100D449
:100DFC00D6E063460C00C31A76E7002836D0511EA5
:100E0C00012A00D19AE0FF2A26D00A008FE7FF22A0
:100E1C0000267AE7FE276A1C174262D0FF2AF6D01A
:100E2C001500604443085A0700D05FE7DB08FF2D2C
:100E3C0012D05B025E0AEAB267E76246002A00D172
:100E4C0093E0002808D08022D203134204D04046FD
:100E5C00104201D10C004346002BD8D08026F6035B
:100E6C001E437602FF22760A4FE743461500DEE763
:100E7C002022401B0130121A19009340C1405A1E07
:100E8C00934100250B432FE720239B1A0100984028
:100E9C000300D1405A1E93410B4312E7FF2FD9D0C8
:100EAC0080236446DB041C43A4461B2A52DD012329
:100EBC000C003D00C31A06E763461E1A730139D4B1
:100ECC00002E00D004E70024002200261DE720237A
:100EDC009B1A010098400300D1405A1E93410B43CA
:100EEC0029E7002DA9D16346002B56D000220028FB
:100EFC0000D10AE7030063445A0194D52B4A01350B
:100F0C00134090E76346002BAFD0531E012A15D037
:100F1C00FF2A2AD01A0052E76246002A91D10028F3
:100F2C0098D180260024FF22F603EEE60C004346FF
:100F3C0015007CE763460C00C61AC9E6030063443F
:100F4C0001255A0100D46EE70225FAE66346012515
:100F5C001B1AB8E664462023D4409B1A62469A407A
:100F6C0013005A1E93412343A2E7434674E761469C
:100F7C002023D1409B1A62469A4013005A1E93417B
:100F8C000B4320E763460C000125C31A9BE600289F
:100F9C0099D00C0046460022B7E646460022B4E63D
:100FAC00002B00D03FE700240026AEE6FFFFFFFB3E
:100FBC00FFFFFF7D41024200C30F490A0020120EC1
:100FCC007E2A03DD9D2A02DD094A9818704780208D
:100FDC0000040143952A07DC9620821AD14048422E
:100FEC00002BF3D10800F1E7963A9140F7E7C046A1
:100FFC00FFFFFF7F70B5041E0ED001F059FF9E233A
:10100C0001001B1A962B0CDC08282CD008398C40BC
:10101C006402640AD8B201E000200024C005204319
:10102C0070BD992B0ADD020020001B32904002009B
:10103C00501E82410520401AC4401443052916DC79
:10104C0022000F480240650709D00F252C40042CC4
:10105C0005D00432540102D59F2302405B1A920141
:10106C00540AD8B2DAE764029620640AD6E74A1F1B
:10107C0094402200024802406507F0D0E5E7C046E4
:10108C00FFFFFFFBF0B54F464646D6460400C0B501
:10109C001F000B0310004E005B0ACD0F610F7A008E
:1010AC001943E3003C03FF0FBC46640A470F274378
:1010BC00760D520DC000B9468046B71A654500D171
:1010CC009BE0002F00DC84E0002A00D1BEE0C84A7F
:1010DC00964200D124E180224C4612041443A146CE
:1010EC00382F00DD67E11F2F00DDD6E120224C46B2
:1010FC00D21B9440A2464446FC4020005446044374
:10110C0040469040421E90414A46FA400443891A98
:10111C001C1BA342924152428B1A9A4653461B0205
:10112C0000D4D4E053465A02530A9A465346002B35
:10113C0000D104E1504601F0BBFE0300083B202225
:10114C002000D21A5146D040994002009C400A43DC
:10115C00B34200DA02E19B1B591C1F2900DDA7E0FA
:10116C002023100026005B1A9C409840CE40CA40B9
:10117C00631E9C413043924600260443630709D00A
:10118C000F232340042B05D0231DA342A44164420A
:10119C00A2441C0053461B0200D49BE0944B013626
:1011AC009E4200D1B8E053469249E4080B40190026
:1011BC005B07234372054C02240B520D1205ED07FD
:1011CC0022432A4318001100E0BCBA46B146A84697
:1011DC00F0BD002F48D0971B002E00D00EE10C0064
:1011EC001C4300D1B7E17C1E012F00D126E2804DBB
:1011FC00AF4200D1D5E1270007E1002F00DCB2E0BF
:10120C00002A47D07A4A964200D189E080224C4687
:10121C0012041443A146382F6BDC1F2F00DC6EE147
:10122C003A004846203AD0408446202F07D040222E
:10123C004846D21B90400200404610438046404630
:10124C00421E904162460400144357E04A46024352
:10125C0000D103E17A1E012F00D193E1644CA74227
:10126C0000D18AE117003BE7634C721C224200D08C
:10127C00E0E00A001A43002E00D074E1002A00D1ED
:10128C00D0E14A46024300D0E3E14A07DB081343AE
:10129C00C90829E04A46024300D17DE17A1E012F9C
:1012AC0000D1E0E0524CA74200D166E11700B2E752
:1012BC0010001F3BD840202903D040235B1A9A40D2
:1012CC001443631E9C41002300269A460443630783
:1012DC0000D055E75246E3085207134352463700F5
:1012EC00D108434A97421FD009037A050C0B520DC3
:1012FC0064E742464C461443621E9441E4189C42F7
:10130C009241524292468A4453461B02DFD5384BD7
:10131C0001369E4200D0B3E03200002400234DE79A
:10132C004A07DB081343C9081A000A4300D100E23C
:10133C00802424030C4324032D4A240B3EE7200075
:10134C0001F0B6FD030018331F2B00DCF7E622007A
:10135C00083882400024B34200DBFCE6F61A254B29
:10136C001A4092460AE7002F2BD0971B002E00D173
:10137C00B8E01F4CA24200D11CE18024240421437C
:10138C00382F00DD1EE11F2F00DD9EE120260C0012
:10139C00F61B1800B340B440F8405E1EB341F94050
:1013AC0004431C438944444444459B415B424B44A5
:1013BC009A461600A8E742464C461443621E9441D6
:1013CC00A6E60D4C721C224200D0A8E00A001A437B
:1013DC00002E00D00AE1002A00D15EE14A46024309
:1013EC0000D061E14A07DB081343C9087CE7C0461B
:1013FC00FF070000FFFF7FFFFE070000CF4CA2425B
:10140C0000D1CEE0802424042143382F5BDC1F2F35
:10141C0000DDDCE020250C00ED1B1E00AB40AC40D9
:10142C00FE405D1EAB413443F9401C434B465B1AF6
:10143C0099464CE04A461C1A881AA34292415242E1
:10144C00924602005046121A9246120278D4534623
:10145C00234300D06AE60021002545E74A07DB0854
:10146C001343C9083DE71C189C429B4149448A46DA
:10147C005B429A44534601261B0200D427E70226FE
:10148C005246AF4B01211A401300214062080A4317
:10149C00DC075B089A46144370E63A004C46203A47
:1014AC00D440A446202F07D040224846D21B90405F
:1014BC0002004046104380464046421E9041624620
:1014CC000400144324E619430C00631E9C4143465C
:1014DC001C1BA0459B4149465B42CB1A9A4665466C
:1014EC0016001BE60C001C4300D1C7E07C1E012F2C
:1014FC0000D1F9E0914EB7425CD0270040E72022A2
:10150C004C464046D21B9440F84004434046904021
:10151C00421E90414A46FA4004438918EEE6874C35
:10152C00A24200D1F9E6181898429B4149445B420B
:10153C00CB18DC0740085B089A4616000443C6E645
:10154C004246D41AA04580414B464042591A0B1AC8
:10155C009A466546EAE54B464A46C0085B0765462F
:10156C000343D108BDE6002A00D08EE04B4603436E
:10157C0017D1802100250903DAE64A07DB0813435B
:10158C00C908D1E61C1A4A46A3429B41891A5B4200
:10159C00CB1A9A460126C1E54A07DB081343C90852
:1015AC009FE64346D8084B464A465B0765460343CD
:1015BC00D108B9E64346D8084B464A465B07034375
:1015CC00D108B1E619430C00631E9C41EBE63C00CC
:1015DC000D00203CE540202F03D04024E41BA1400B
:1015EC000B431C00631E9C412C4370E7002AE1D086
:1015FC004A460243C1D04A07DB0813438022C9087C
:10160C001203114208D04846C408144204D1434680
:10161C002100DB08420713435A0FDB005207DB089B
:10162C00134381E64B46034300D114E74B464A462D
:10163C00C0085B0765460343D10855E6C41AA045AC
:10164C0080414B464042591A0B1A9A466546012670
:10165C0064E51C1A4A46A34280418A1A4042121A77
:10166C009246120249D54246D41AA04580414B46B7
:10167C004042591A0B1A9A4665467FE54B464A4634
:10168C00C0085B070343D1082BE64A46DB0802433C
:10169C0038D14A071343C90846E64B464A46C008A8
:1016AC005B070343D1081FE61C189C429B4149442D
:1016BC008A465B429A4453461B0200D407E65246C4
:1016CC001F4B01261A40924601E63C000E00203CBE
:1016DC00E640202F03D04024E41BA1400B431C0008
:1016EC00631E9C4134435EE643448342804149443B
:1016FC008A4640421C008244BCE65346234300D138
:10170C00A9E6E4E54A0713438022C90812031142F3
:10171C0009D04846C408144205D143466546210009
:10172C00DB08420713435A0FDB00DB085207134355
:10173C00FAE50023014A1C0040E5C046FF07000003
:10174C00FFFF7FFFF0B557464E464546DE46E0B5F7
:10175C000C031F004B0081469246050085B0240BFC
:10176C005B0DCE0F002B00D152E1D24A934200D137
:10177C006EE1420FE400144380221204224390468F
:10178C00CD4AC50093469B440023994600933C03E5
:10179C007B005046240B5B0DFF0F002B00D11AE190
:1017AC00C44A934200D15EE1420FE40022438024FC
:1017BC0024041443C04AC10094465A466344D31AC5
:1017CC009B46002033007B409A464B460F2B27D874
:1017DC00BA4A9B00D3589F46B246009B022B16D0A8
:1017EC00032B00D187E2012B00D0D5E0002300228F
:1017FC0000251B0513435246D2071343280019003A
:10180C0005B0F0BCBB46B246A946A046F0BD0022CE
:10181C000025A84BEDE7BA46A0460D000090DCE78A
:10182C00444500D2C4E100D1BFE101235B429C4698
:10183C002E0040460025E34423020C0E1C431B0CD7
:10184C00994623040A021F0C494600920197FEF7A1
:10185C00FFFC02007A430B04310C804619438A4288
:10186C0007D901235B429C460919E0448C4200D8FD
:10187C0001E2881A4946FEF7EBFC019A3604424312
:10188C000904360C03000E43B24204D93619013B4D
:10189C00B44200D8E9E1B01A4246009E12041A4341
:1018AC00330C1F00110C9046029313043204160CD7
:1018BC0032001B0C5A4303967B434E437943170C5F
:1018CC00BC469B1963449E4203D980267602B446DB
:1018DC0061441E0C711816041B04360C9E198842A8
:1018EC0002D312D1B54210D243465A1E009B9C46DD
:1018FC0065441F009D429B415B421B19C0188442EA
:10190C0000D29EE100D199E19046AE1BB542AD41AB
:10191C00401A6D42401B844200D1D2E14946FEF789
:10192C0097FC019A0B044243310C050019438A427F
:10193C0000D96CE1881A4946FEF78AFC019A3604F4
:10194C0042430904360C03000E43B24200D953E162
:10195C000398B61A02002D041D43029F2B041B0C86
:10196C005A437B439C46290C4843130C84446344E0
:10197C007943984203D98020400284466144180C74
:10198C0012041B04120C40189B18864200D200E172
:10199C0000D1FBE001231D43494B5B44002B00DCD1
:1019AC00AAE06A0700D03DE1E9084246D20106D51B
:1019BC004246444B1A4080239046DB005B44424A2B
:1019CC00934200DD23E742465B05550752020D4367
:1019DC00120B5B0D0DE75146214300D17CE0002C2E
:1019EC0000D1FBE0200001F063FA02000B3A1D234A
:1019FC009B1A52460100DA40534608398B408C4002
:101A0C0019001443314B58449B4683440020D9E6BB
:101A1C0003002343984644D0002C00D1CFE0200093
:101A2C0001F046FA010002000B391D235B1A4946EE
:101A3C001000D940083884400B004D46234398468B
:101A4C008540234B9B1A9B460023994600939EE6A8
:101A5C000200224390461DD108229B4602230025FA
:101A6C009146009393E65146214309D102234A46FD
:101A7C001A43184B91469C4600240220E344A1E6ED
:101A8C0003234A461A43134B91469C465146032066
:101A9C00E34497E60C229B460323A0469146009311
:101AAC0075E60423994600239B46013300250093D9
:101ABC006DE6C046FF07000001FCFFFF349E0108E5
:101ACC00FF030000FFFFFFFEFE070000F303000012
:101ADC000DFCFFFF01F8FFFF4A4601231A43914614
:101AEC00002401206EE6002380229A460025884BB4
:101AFC0012037EE601256D420122D21A382A00DD3E
:101B0C0074E61F2A00DCBDE01F214942CB1A414676
:101B1C00D9400B00202A04D041467E4A5A449140B9
:101B2C000D4329004A1E9141194307231D00002231
:101B3C000D400B4200D1D0E00F2200230A40042AB2
:101B4C0000D1C7E00A1D8A42894149425B18110045
:101B5C001A0200D4BEE001230022002549E68022AF
:101B6C0043461203134208D0144206D122431203F7
:101B7C00BA460D00664B120B3BE68022434612031D
:101B8C001A431203B246624B120B32E6002B00D101
:101B9C0002E7A6196A1EA64200D289E0864200D24C
:101BAC009FE000D1AFE01500F4E6A94200D93CE675
:101BBC004346DE0758086B081E43ED073CE601F070
:101BCC0077F901000200153120321C2900DC2CE7CA
:101BDC004B46083883400025984632E701F068F9F7
:101BEC0003001A00153220301C2A00DCFFE6544694
:101BFC00083B00219C4005E73619013BB44200D953
:101C0C00A6E6B24200D8A3E6831E3619A0E609194F
:101C1C00013D8C4200D98DE68A4200D88AE6851EA9
:101C2C00091987E60F222A40042A00D1BCE6291D97
:101C3C00A942AD416D42C908A844B6E6AF4200D9ED
:101C4C0062E6814204D800D05EE6AE4200D85BE684
:101C5C0002235B429C46009BE0449C4665449D42AB
:101C6C009B415B421B19C0184FE6B24200D812E6EA
:101C7C00831E36190FE68A4200D8FAE5831E984671
:101C8C000919F6E5244B28005B4441469D409940D8
:101C9C00D0406B1E9D41434601432943D3404A0724
:101CAC0000D155E70F220A40042A00D04AE74FE73B
:101CBC001500864200D06DE6009A9A4200D069E683
:101CCC006AE6164B5B44002B00DC13E70125002170
:101CDC00A8446AE65D075B021A0BC90800230D4392
:101CEC0087E50099023D4A008A42BF417F423F1975
:101CFC00F6190092DDE78022434612031A431203C1
:101D0C00034B120B75E500999942EAD31500D3E702
:101D1C00FF0700003E0400001E040000FF0300004B
:101D2C00F0B54E464546DE4657469046E0B51700A0
:101D3C001A03120B0500844619480E034C009146F9
:101D4C005A00DB0F9B46360B640DC90F520D8442B3
:101D5C0019D0824210D0012094420ED14E450CD1A4
:101D6C000120C44509D1594517D0002C05D13000AC
:101D7C002843431E984100E00120F0BCBB46B2460C
:101D8C00A946A046F0BD330001202B43F5D1A24259
:101D9C00F3D14B463B43F0D1E2E70020EDE7C046E0
:101DAC00FF070000F0B54746CE46040018001600A9
:101DBC001B031B0B2D4D4A00994680B543000F03A6
:101DCC00A446B0463F0B520DC90F5B0DC00FAA4283
:101DDC0021D0AB4213D0002A22D13C43002B02D19C
:101DEC004D462E4322D0002C10D0814222D002200E
:101DFC00013908400138C0BCB946B046F0BD4D466B
:101E0C002E4329D1002AF0D13C43EED10028F2D147
:101E1C0001204042EFE73D0025431DD19342EED017
:101E2C00002BE2D14C462643DFD1E0E70020002C0A
:101E3C00E1D0DCE79A420ADCE8DB4F45D7D80ED07C
:101E4C0000204F45D7D20029E2D00800D3E7434207
:101E5C00584140000138CEE702204042CBE7C44550
:101E6C00C5D80020C445C6D2EDE7C046FF07000028
:101E7C00F0B54746CE460400180016001B031B0B9A
:101E8C002C4D4A00994680B543000F03A446B0463A
:101E9C003F0B520DC90F5B0DC00FAA420DD0AB42C8
:101EAC0010D0002A27D13C43002B11D14D462E4394
:101EBC000ED10020002C15D00EE03D00254310D192
:101ECC00934218D14D462E430BD1002A02D13C43EC
:101EDC00002C0BD0814214D002200139084001386B
:101EEC0000E00220C0BCB946B046F0BD0028F9D1D4
:101EFC0001204042F6E7002BECD14C462643E9D1B9
:101F0C00EAE79A4204DD4342584140000138E9E7D0
:101F1C009A42EBDB4F45DFD806D000204F45E1D28B
:101F2C000029E5D00800DDE7C445D5D80020C4451C
:101F3C00D8D2F5E7FF070000F0B54546DE46574618
:101F4C004E46E0B51F000B031B0B9B464D00CB0F01
:101F5C0004009146984687B06D0D00D1CDE1CE4B73
:101F6C009D4200D1E9E15A46430FD200134380222F
:101F7C0012041A43C3009A46C84B93469C4600234E
:101F8C000026654400933C037B004846240B5B0D04
:101F9C00FF0F002B00D189E1BF4A934219D0420FA9
:101FAC00E4002243802424041443BC4A00219446B8
:101FBC00424663445B190193019B7A400133C00094
:101FCC00D2B202930A2E1CDD3A000B2E5ED047468D
:101FDC0056E04946B04B2143EB18019300292AD116
:101FEC008020022200012B008446164342466344A3
:101FFC007A40D2B202930A2E00DD31E20020002496
:10200C000221022E26DC013E012E52D802294CD090
:10201C00012900D018E10023002400251B052343CF
:10202C00D20713432800190007B0F0BCBB46B246D8
:10203C00A946A046F0BD8021032209012B008C4645
:10204C001643424663447A40D2B202930A2E00DD14
:10205C0028E203210125B540AC46A6266346F600CE
:10206C00354033420BD19026B600334218D1B93EDD
:10207C00FF3E1E421DD0A3468246009100E0170091
:10208C0000993A00022910D05C4650460329BFD172
:10209C0080231B031C43240305007F4B240BBDE74B
:1020AC00802400227C4B2403B8E7002400257A4BC3
:1020BC00B4E753461E04360C1F0C3300010C00040D
:1020CC00000C4343984603007B43994633004B4333
:1020DC009C4643460D001B0C9A467D43CC44D4448D
:1020EC000095E14504D980235B0299464D44009547
:1020FC0063461B0C1D0063461B049C4643461B0495
:10210C001B0C9846634643440393230C98463300B8
:10211C002404240C63439C4623007B43994643468A
:10212C005E435F434E446346B2461E0C5644B14573
:10213C0003D980235B0299464F44330C99463B00EC
:10214C004B4405936346AC461F043F0C3604F6190A
:10215C00B444634604935B461B0C9C465B461F04CD
:10216C003F0C3B0043439946634643439A464B46D8
:10217C0060461B0C9B4648437943514459448A455D
:10218C0003D980235B029A4650440B0C9A464B466B
:10219C001B041B0C99463B00634309044546494408
:1021AC00994663465C436B439C464B461B0C9846D6
:1021BC006F433F1947445044BC4203D980235B0210
:1021CC009846C444049B009D98464544B542B6418C
:1021DC00734298464B461E04059B3C049946360CAC
:1021EC00A4194C44A14683466E18C1448E428941C1
:1021FC00CB445D4649426D189C42A441C1459B416C
:10220C00834580418D4289415B4264421C4340427C
:10221C00039B4942014370023F0C1843E419471ECB
:10222C00B84164186444F60D61023043EC0D6E0243
:10223C000C433043C90100D4F1E0012143080140B3
:10224C000B43E007184364081549029B8C46634412
:10225C00002B00DC97E0410709D00F210140042935
:10226C0005D0011D81428041404224180800E10143
:10227C0006D58021C9008C460A4B1C40029B634446
:10228C0009498B4200DD10E76107C50864025B0554
:10229C000D43240B5B0DC1E6FF07000001FCFFFFA3
:1022AC00FF030000FFFFFFFEFE0700004B46234329
:1022BC0059D0002C00D1A3E0200000F0F9FD010062
:1022CC0003000B391D22521A49461800D1404A46C8
:1022DC0008388240844010000C43744AEB1A944630
:1022EC00424663440193019B7A4001330021D2B2F0
:1022FC0002930A2E00DD67E683E65B4603439A46AB
:10230C002AD05B46002B6DD0584600F0D1FD010061
:10231C0003000B391D22521A210018005D46D140D2
:10232C00083885400A0084402A439346A2465F4DF4
:10233C000026ED1A0023009325E65B4603439A46DC
:10234C0005D100239B460233082600931BE603238A
:10235C0082460C26009316E600239B460133042686
:10236C00002500930FE64246013301951E43019B65
:10237C007A400133002400200121D2B202930A2EAC
:10238C0000DD21E63DE60121C91A382900DD42E6CF
:10239C001F2947DD1F2625007642F31ADD402B004E
:1023AC00202905D04249029D8C466544AC4020430F
:1023BC00411E8841184307231D0000240540034299
:1023CC004AD00F2300240340042B42D0031D834228
:1023DC00804140422418180023023AD501230024DE
:1023EC0000251BE600F064FD0100030015312033CD
:1023FC001C298FDD0838002284409246A34696E7BC
:10240C0000F056FD01000300153120331C2900DCBF
:10241C0058E702004C46083A002094405DE7019BC7
:10242C00029311E7234B26009C460300029DCB40F0
:10243C006544AE401E430300AB40581E8341300040
:10244C001843CC404307C7D00F230340042BBDD106
:10245C00C2E765076402240BC00800230543DDE5D1
:10246C00002502230F2E0CD180245B46240323422B
:10247C000ED021420CD10C4324033A000E4B240BFA
:10248C00CCE50B2E00D0A2E58B46AA460093F7E5CF
:10249C0080245B4624031C43240342465546064BCA
:1024AC00240BBBE54D4621000323DBE70DFCFFFFAE
:1024BC003E0400001E040000FF070000F0B5574664
:1024CC004E464546DE46E0B50D00040019001000EE
:1024DC002B035B0A620F1A43E3000C03640A470FD9
:1024EC002743D04C6E00914683B04A00C0009846FA
:1024FC00A246760DED0F520DC90F0190A24200D1EC
:10250C00B9E0012461408B468D4200D18DE0B41AB4
:10251C00A446002C00DCB7E0002A00D1CBE0C14A75
:10252C00964200D186E18022120417436246382A73
:10253C0000DDA4E11F2A00DD1DE2614620223C00E3
:10254C00521A010090409440421E90416246A046AF
:10255C006446D7404A46E1404446D21B91460C4360
:10256C0004431C1BA34292414B4652429B1A9A466F
:10257C0053461B0200D42BE153465A02530A9A4687
:10258C005346002B00D166E1504600F091FC03004D
:10259C00083B20222000D21A5146D040994002001C
:1025AC009C400A439E4200DD64E19B1B591C1F2981
:1025BC0000DDFEE02023100026005B1A9C409840B2
:1025CC00CE40CA40631E9C413043924600260443D1
:1025DC00630709D00F232340042B05D0231DA342EE
:1025EC00A4416442A2441C0053461B0200D4F2E0F6
:1025FC008C4B01369E4200D10FE153468A49E408C8
:10260C000B4019005B07234372054C02240B520D3F
:10261C0012052243ED072A431800110003B0F0BC49
:10262C00BB46B246A946A046F0BDB41AA446002C3F
:10263C0059DD002A00D1B0E0564500D1FAE08022E5
:10264C00120417436246382A00DDD4E01F2A00DC4E
:10265C00C0E13900203AD1406246202A06D06446B7
:10266C004022121B3C00944004430194019C621EC6
:10267C0094410C43C3E03C0004432BD08B468D4269
:10268C002ED06A4CA446B4446446002C5FD0941BF4
:10269C00A446002E00D020E14C461C4300D1C7E1DB
:1026AC0061464C1E012900D123E25E4DAC4500D1A0
:1026BC00D8E1A4461AE13A00024300D1E4E022003A
:1026CC00013A012C00D1C3E156498C4200D1B1E052
:1026DC0094462BE7012461408B468D4200D016E7CF
:1026EC0052498C46B4446446002C00D1D3E0911B73
:1026FC008C46002E00D15EE14A498A4200D1BEE1EF
:10270C0080214C4609040C43A1466146382900DD62
:10271C00BAE11F2900DD27E22024641A4946A140B2
:10272C001E0088466146A340CE4041465C1EA34134
:10273C00314319430C0063464946D9407F1824188D
:10274C0084429B415B429A461600BA445DE0384C89
:10275C00721C224200D0DFE04A461A43002E00D001
:10276C005CE1002A00D1CFE13A00024300D17FE1C5
:10277C001C1A4A46A3428941D21B4942521A92461C
:10278C00120200D40AE2C41AA04280414B464042D5
:10279C00FF1A3B1A9A465D461AE73A00024373D079
:1027AC002200013A012C00D1CBE0544542D0944692
:1027BC0048E710001F3BD840202903D040235B1A68
:1027CC009A401443631E9C41002300269A460443FE
:1027DC00630700D0FEE65246E30852071343524605
:1027EC00B446D2080F498C452AD01203140B62460A
:1027FC005205520D0CE73C000443621E9441E41850
:10280C009C42924152424A44924653461B02DFD5A7
:10281C00044B01369E4200D0A0E03200002400237D
:10282C00F6E6C046FF070000FFFF7FFF01F8FFFF41
:10283C00FE070000DB084A46520713434A46D208FB
:10284C001900114300D1B5E180242403144324035F
:10285C00D54A240BDCE6200000F02AFB03001833D9
:10286C001F2B00DC95E622000838824000249E4293
:10287C0000DC9AE6F61ACD4B1A409246A8E63C00CC
:10288C000443621E94416CE64A46DB08520713432C
:10289C004A46D208A6E7C64C721C224200D0ACE0D5
:1028AC004A461A43002E00D005E1002A00D156E119
:1028BC003A00024300D1DBE01C189C429B414F4480
:1028CC00BA465B429A4453461B0200D480E75246F8
:1028DC00B64B01261A4092467AE7B34CA24200D17D
:1028EC00C0E080244D4624042543A9466446382C78
:1028FC0053DC61461F2C00DDCDE020251E002D1B76
:10290C004C46AB40AC40CE405D1EAB413443234300
:10291C004C46CC403F1B45E04A461C1AD11BA342F7
:10292C009241524292460A005146521A9246120263
:10293C0000D583E05346234300D021E60022002536
:10294C0053E71C189C429B414F44BA465B429A4445
:10295C00534601261B0200D43AE702265246934BFB
:10296C0001211A401300214062080A43DC075B086E
:10297C009A4614432CE63900203AD1406246202A6C
:10298C0006D064464022121B3C0094400443019440
:10299C00019C621E94410C43E3E5494619430B002C
:1029AC005C1EA341C41AA0429B415B42FB1A9A468F
:1029BC005D461600DCE54946194300D1AEE06146A0
:1029CC0064460139012C00D1E0E0774CA44556D087
:1029DC008C469AE6614620223C00521A9440010033
:1029EC009040A0466446421E90416246E1404446F7
:1029FC00D7400C430443B94401E76B498A4200D1E8
:102A0C000CE7181898429B414F445B42FB18DC07BB
:102A1C0040085B089A4616000443D9E6002A00D009
:102A2C0081E03B0003431DD18022002512030BE7FC
:102A3C00C0087B075D460343FA08D3E6C41AA042DC
:102A4C0080414B464042FF1A3B1A9A465D4697E539
:102A5C001C1A4A46A3429B41D71B5B42FB1A9A465F
:102A6C00012685E5C0087B075D460343FA08E7E6C7
:102A7C004A46DB08520713434A46D208B5E6C0085B
:102A8C007B070343FA08DBE6494619430B00591E42
:102A9C008B411C0053E64D46203CE540202905D0D7
:102AAC004024641A4946A1400B43984643465C1E99
:102ABC00A3412B4376E7002AE1D03A00DB0802431E
:102ACC0000D1B8E64A465207802413434A462403F1
:102ADC00D208224207D0FE08264204D15D463200BD
:102AEC00C3087F073B43590FDB004907DB080B4347
:102AFC00A6E6C41AA04280414B464042FF1A3B1A3C
:102B0C009A465D46012633E53B00034300D115E7A9
:102B1C00C0087B075D460343FA0866E6C0087B07DE
:102B2C000343FA085EE63A00DB08024300D182E672
:102B3C004A465207802413434A462403D2082242B1
:102B4C0007D0FE08264204D15D463200C3087F0739
:102B5C003B43590FDB00DB0849070B4370E6C00809
:102B6C007B070343FA0840E64C462039CC406146CB
:102B7C00202906D066464021891B4E468E403343A1
:102B8C0098464346591E8B411C43D8E51C18844279
:102B9C0080414F44BA4640428244D9E653462343CF
:102BAC0000D1CBE614E6C046FF070000FFFF7FFF15
:102BBC00FE0700000023014A1C0029E5FF07000066
:102BCC0070B505000C481C0316005B000A03490095
:102BDC00120B490D240B5B0D814208D0064A0020D4
:102BEC00934203D120003043431E984170BD012015
:102BFC002A43FBD1F2E7C046FF0700000A0030B5BC
:102C0C00134C530009030500090B00205B0DD20F78
:102C1C00A34204DD0F48834202DD0F4BD01830BDB8
:102C2C008020400301430D48C01A1F2808DD0C48C2
:102C3C00C31AD9400B005842002AF0D11800EEE715
:102C4C00084CC540A446634499400B002B43F2E763
:102C5C00FE0300001D040000FFFFFF7F3304000093
:102C6C0013040000EDFBFFFF70B5002816D0C3174E
:102C7C00C5185D40C40F280000F01AF9114B1B1A3F
:102C8C000A2816DC02002E00153296400B22121A6E
:102C9C00D5405B052D032D0B5B0D03E000240023B9
:102CAC00002500261B052B43E407234330001900A5
:102CBC0070BD0B3885405B052D0300262D0B5B0D7D
:102CCC00F0E7C0461E04000010B5041E10D000F042
:102CDC00EFF80F4B1B1A0A2811DC0B222100121AD9
:102CEC00D14015300A035B058440120B5B0D01E0EB
:102CFC00002300221B0513432000190010BD2200E5
:102D0C000B3882405B0512030024120B5B0DF1E7BC
:102D1C001E04000070B542024300C40FFE201B0EBF
:102D2C00591C550A08420CD0E02189008C466D07CD
:102D3C00120B63441B051343E407234328001900BB
:102D4C0070BD002B14D1002D1BD0280000F0B0F862
:102D5C000A281CDC0B232A001B1ADA40030015334B
:102D6C009D400E4B12031B1A5B05120B5B0DE1E72A
:102D7C00002D09D0130B802212031A436D07084B48
:102D8C00D8E700230022D5E70022054BD2E7030049
:102D9C002A000B3B9A400025E3E7C046890300005C
:102DAC00FF0700000200F0B54B000D03400F5B0D58
:102DBC00CC0F6D0A3A490543581CD70008420AD07B
:102DCC0038495918FE2916DDFF200022C005104392
:102DDC00E4072043F0BD002B06D13D4326D005224D
:102DEC009201520AD8B2F1E72F43EDD08022D203E0
:102DFC00FF202A43EAE700291BDD9201501E824185
:102E0C00ED007F0F2A433A43530747D00F2313405B
:102E1C00042B00D004328023DB0413403ED0481C2A
:102E2C00FE29D1D09201520AC0B2CFE70020002275
:102E3C00CCE70A0017322FDB802636042E431E25E2
:102E4C006D1A1F2D11DD02225242521A3100D1404F
:102E5C00202D04D0144A944663449E4037433A00D4
:102E6C00531E9A410A430021CEE7104A380094467B
:102E7C00634498403A00411E88419E40EA403043EA
:102E8C00024300215307C1D180211300C904012042
:102E9C000B400A42C6D1A3E70023A0E70B009FE733
:102EAC00FE07000080FCFFFFA2FCFFFF82FCFFFF7F
:102EBC001C2101231B04984201D3000C10391B0A5E
:102ECC00984201D3000A08391B09984201D3000922
:102EDC00043902A2105C40187047C0460403020279
:102EEC0001010101000000000000000010B50029E4
:102EFC0003D1FFF7DDFF203002E00800FFF7D8FF19
:102F0C0010BDC0461B2805D8044BC340DB0703D5B6
:102F1C00462070474720FCE74720FAE7E0C78A0FB6
:102F2C00421E024B16205043185C70477C0C00204C
:102F3C00F0B5C64600B507000D0090461C0006AB68
:102F4C001878FFF7EDFF060038000BF013F8002897
:102F5C002AD01A4BBA00D05821000BF0D1F9002816
:102F6C002AD13000FFF7CEFF472802D000240126DB
:102F7C0016E038000AF0FEFF424629000FF0D1FBA4
:102F8C00060012E038000AF0F5FF012229000FF0CC
:102F9C00C8FB0600013502200DF08EF80134E4B2B6
:102FAC00A3B24345EED300E001260A200DF084F8CD
:102FBC00300080BCB846F0BD0126F6E7481B002067
:102FCC00F0B583B0204B1B889BB2204A93420BD0A8
:102FDC001A0A1F490A7002D10A00012111701D4AF8
:102FEC0013700124022023E0194B01221A70194B93
:102FFC0000221A70FA2024E0134BC318671E6A468D
:10300C00D5791E881449BB00DB195B00DB19EB1862
:10301C005B00CE52023080B2D3790133DBB2D37174
:10302C006B4607331B78DBB20A2BE5D90134E4B2CB
:10303C00074B1B78A34203D36B460022DA71EFE7F0
:10304C00002003B0F0BDC04600D80108FFFF00000F
:10305C0008000020A00700207C0C002070B5012483
:10306C00002501E00134E4B2084B1B78A3420AD3DB
:10307C00611E4900064BC918601C08F0FBFC192C9A
:10308C00F0D90A25EEE7280070BDC04608000020E4
:10309C0070280020F0B583B06B460022DA80002641
:1030AC00002526E028001C3080B26B46991D08F0E4
:1030BC00E1FC6B46D8889B799C46124BB200971961
:1030CC007900591867460F55671E010A921950006E
:1030DC001B18D9550135ADB20234E4B2092CE1D933
:1030EC00084BB200921951005B1800225A7201363B
:1030FC00F6B2054B1B78B34201D30124EEE7002056
:10310C0003B0F0BD6C0B002008000020F0B5CE46DB
:10311C00474680B583B06B460022DA800024002538
:10312C000CE0264904316300C9182800CB3080B26A
:10313C0008F0A0FC0135ADB20134E4B2204B1B7891
:10314C00A342EED800262EE02800993080B26B46C0
:10315C00991D08F08FFC6B46DB8899466B469B7972
:10316C0098463820B1008B195A00144B9A18121932
:10317C0047461754621E94464A46170A8A1951004C
:10318C005B1863441F540135ADB20234E4B2092C10
:10319C00DAD90A4BB200921951005B184133002264
:1031AC001A700136F6B2092E01D80124EFE700207F
:1031BC0003B0C0BCB946B046F0BDC046A007002065
:1031CC000800002070B584B00E21694400230B80E8
:1031DC0003AA1380E42008F04DFC002800D076E010
:1031EC000E236B441D780E216944E52008F042FC47
:1031FC00040003A9E62008F03DFC0443A4B2002C13
:10320C0000D066E00E236B441E88360403AB1B888B
:10321C00F6180E216944E72008F02CFC040003A9E1
:10322C00E82008F027FC0443A4B2002C53D10E2351
:10323C006B441C88240403AB1B88E4180E216944DE
:10324C00E92008F017FC002806D10E236B441A88DD
:10325C00110A2C4B19775A770E216944EA2008F091
:10326C0009FC002806D10E236B441A88110A254B41
:10327C009977DA770E216944EB2008F0FBFB0028E4
:10328C0008D10E236B441A88100A1E4B2021585467
:10329C0001315A541B4B1B7F002B03D0194A527F10
:1032AC00002A1AD1174B9B7F002B03D0154AD27FD3
:1032BC00002A19D1134B20229B5C002B04D0114AFD
:1032CC002121525C002A16D1002004B070BD0025CB
:1032DC0089E700269DE70024B0E700922200310028
:1032EC00280004F0BBFDDDE700922200310028002D
:1032FC0004F0B4FDDEE7009222003100280004F057
:10330C00ADFDE1E72008002010B582B08A206B46A5
:10331C00991D400008F0AEFB002800D07FE06B4602
:10332C00DA8898795E4B24215854120A24335A7047
:10333C008E206B46991D400008F09CFB002800D0A5
:10334C0076E06B46DB88DA0B5549080024300271B5
:10335C005B084B8516206B46991DFF3008F08AFBE5
:10336C00002800D06DE04E4B6A46063212889A85D2
:10337C008B206B46991D400008F07CFB002800D088
:10338C0064E0474B6A4606321288DA8518206B4691
:10339C00991DFF3008F06EFB00285CD16B46DA8873
:1033AC0099793F4B2C331971120A5A718C206B4648
:1033BC00991D400008F05EFB04001A2001A9FF30A3
:1033CC0008F058FB0443A4B2002C4CD16B460633D6
:1033DC001B8801AA128812041343314A53638D20AF
:1033EC006B46991D400008F045FB00284AD16B46FE
:1033FC00DA8899792A4B2C331973120A5A731C20C8
:10340C006B46991DFF3008F035FB002841D16B4607
:10341C009A79234B2C339A76002002B010BD214AA6
:10342C0010791F4B24215854527924335A707FE75A
:10343C001C4A107A1A4B19002431087152895A858A
:10344C0088E7184B9A89164B9A8591E7154BDA89C0
:10345C00134BDA859AE7134A117C114B2C331971F3
:10346C00527C5A71A2E70E4B48229B5C002B04D075
:10347C000B4BE12252025A63B1E70A4B5A69084BD3
:10348C005A63ACE7064B2C3318225A7300221A737A
:10349C00B5E7044B26229A5C014B2C339A76BBE79A
:1034AC002008002008000020F0B589B01E236B44D2
:1034BC0000221A80002401E00134E4B2052C5DD80E
:1034CC0025003B35AD00ADB21E216944280008F043
:1034DC00D1FA0028F0D11E236B441B88180A190B53
:1034EC00621C9142E8D10F210F0007400142E3D04A
:1034FC00244ED1008A18B61877703372681C80B2CB
:10350C001E236B44190008F0B5FA6B46DB8B1A0AC4
:10351C00B2707371A81C80B21E236B44190008F0A2
:10352C00A9FA6B46DB8B1A0AF270B3710335A8B299
:10353C001E236B44190008F09DFA6B46DB8B1A0AAC
:10354C003271F371651CEDB27078290008F032FF0E
:10355C00317A4A08B37801200240014000200590DE
:10356C00F0790490B07903907079029030790190E1
:10357C00F0780090280009F037F89DE7002009B09A
:10358C00F0BDC0469C260020F0B5D6464F4680B50F
:10359C0083B032200FF022FE061E68D0364B1B780B
:1035AC00FE2B66D10027344C4AE02278F2540133CA
:1035BC00DBB20134132BF8D9BA46BB00DB199B00E4
:1035CC002E4A99469144711C1422484611F047FB2F
:1035DC0014220021300011F016FA1434002503E0F7
:1035EC00735501340135EDB201942378FD2B01D8CC
:1035FC00312DF5D97319013B1B78002B01D0013506
:10360C00EDB228000FF0EAFD1C4B524692005244DA
:10361C0092009B18D860002816D02A00310011F0B7
:10362C001EFB174A1378013313702A000021300057
:10363C0011F0E9F9019B1B78FE2B0FD10137FFB27A
:10364C00042F0BD80023B5E714220021484611F0B3
:10365C00DAF930000FF0CCFD0E2003E030000FF053
:10366C00C7FD002003B0C0BCBA46B146F0BDFB207C
:10367C00F8E7FF20F6E7C04600DC0108A81400209C
:10368C00A414002010B5FFF79BFCFFF7E7FCFFF735
:10369C0001FDFFF73BFDFFF795FDFFF735FEFFF74B
:1036AC0003FFFFF771FF10BD70B50124002505E085
:1036BC00601C08F091FA0BE00134E4B2074B1B7864
:1036CC00A34209D3631E064A5B00995A0029EFD125
:1036DC00192CF1D90A25EFE7280070BD080000204D
:1036EC0070280020F8B50025002617E0601E134B4B
:1036FC00BA00D21951005B18195C09021B5DC9187C
:10370C0089B230001C3080B208F066FA0136B6B2CD
:10371C000234E4B2092CE9D90135EDB2084B1B781F
:10372C00AB4209D32F00054AAB005B1959008B5CE7
:10373C00002BF1D00124EDE70020F8BD6C0B00202C
:10374C0008000020F8B5DE4657464E464546E0B523
:10375C000F0016001C000AAB1B789B460BAB1B78AA
:10376C009A460CAB1B7899460DAB1D780EAB1B78AB
:10377C0098460100E42008F02FFA390A89B2E520B6
:10378C0008F02AFAB9B2E62008F026FA310A89B212
:10379C00E72008F021FAB1B2E82008F01DFA210266
:1037AC00594489B2E92008F017FA534619024944E2
:1037BC0089B2EA2008F010FA2902414489B2EB20C0
:1037CC0008F00AFA0020F0BCBB46B246A946A04657
:1037DC00F8BD000070B5214C250024356B785B01D9
:1037EC002422A15C19438A20400008F0F5F92B79BA
:1037FC00DB03618D194389B28E20400008F0ECF98F
:10380C00A18D1620FF3008F0E7F9E18D8B204000E8
:10381C0008F0E2F925002C356B791B02297B194342
:10382C001820FF3008F0D8F9A18E8C20400008F049
:10383C00D3F9E18E1A20FF3008F0CEF96B7B1B0216
:10384C00297919438D20400008F0C6F9A97E1C2067
:10385C00FF3008F0C1F9002070BDC04620080020E0
:10386C0070B50F483422002111F0CDF80124002549
:10387C0005E0601C08F0B0F90BE00134E4B2094B30
:10388C001B78A34209D3631E054A5B00995A002991
:10389C00EFD1192CF1D90A25EFE7280070BDC046ED
:1038AC00702800200800002010B5074B1A68074B41
:1038BC009A4200D110BD08F0A5F90028FAD1024BAC
:1038CC00024A1A60F6E7C046F07F0020ADDEEFBE7C
:1038DC0030B58FB004AB009307AB12226A4408A931
:1038EC00012008F015FC03AD009505AB0E226A44CF
:1038FC0006A9022008F00CFC01230A9300240B9467
:10390C006B465B8A0993089809A90DF033FE0A945B
:10391C0002230B932B880993059809A90DF02AFE15
:10392C006B46598A089800220DF079FF05200AF0A1
:10393C001BF9298805980DF06BFF041E03D0002499
:10394C0020000FB030BD12236B4419880898012257
:10395C000DF065FF05200AF007F9298805980DF090
:10396C0057FF0128ECD10400EAE7000070B5050010
:10397C000024002C01D0002070BD084B62001219ED
:10398C0092009B1899682800FCF7B6FB002802D01F
:10399C000134E4B2EDE70134E0B2EDE7940000202D
:1039AC0070B504000025052D26D81A492000FCF717
:1039BC00A3FB002822D018492000FCF79DFB00280F
:1039CC001ED016492000FCF797FB00281AD014498A
:1039DC002000FCF791FB002816D012492000FCF7C0
:1039EC008BFB002812D010492000FCF785FB002827
:1039FC000ED00135EDB2D6E7002070BD0120FCE7FA
:103A0C000220FAE70320F8E70420F6E70520F4E7A4
:103A1C000620F2E7749E0108789E01087C9E01083E
:103A2C00809E0108849E0108889E010810B509F04B
:103A3C004DFF09F0F1FF08F049F908F033FB07F0EE
:103A4C0011F90AF01BF807F023FF0AF049F808F007
:103A5C00CBFB002811D1FFF73BFF002842D0354C9F
:103A6C0048230122E25432200AF07EF806F0FAFFD5
:103A7C00E1235B026363012411E0FFF715FFBFF341
:103A8C004F8F2D4B2D4ADA60BFF34F8FC046FDE7A9
:103A9C00284B596B20000AF0DBFA0134E4B2052CF8
:103AAC00F6D9FFF7EFFD0AF063FB07F055FE244B48
:103ABC001B78002B1CD19024E4050122402120000E
:103ACC000DF0ADFEFA2040000AF04EF80022402125
:103ADC0020000DF0A4FE03F08BFE164B49220121B1
:103AEC00995410BD32200AF03FF806F0BBFFD8E71E
:103AFC009024E4050122402120000DF090FEFA20D4
:103B0C0040000AF031F80022402120000DF087FE21
:103B1C0064200AF029F80122402120000DF07FFEDC
:103B2C0064200AF021F80022402120000DF077FEDD
:103B3C00D1E7C0462008002000ED00E00400FA05A3
:103B4C00A007002010B50CF099FA06F0B3FDFFF7B2
:103B5C006DFF03F06DFE0AF0B0FB10BD30B583B005
:103B6C000500012415E00F4B1A8D100A0E4B4C2149
:103B7C0058544C335A709C70032300930733002223
:103B8C000021200004F080FA0A200AF09BFB01348B
:103B9C00E4B2052C02D8AC42E5D1F8E7002003B022
:103BAC0030BDC0460800002020080020F8B5DE46D5
:103BBC0057464E464546E0B500AF464B1B7807339B
:103BCC00DB08DB006A46D31A9D466E46002308E0EC
:103BDC000021F154404A5C0012197C24115301332A
:103BEC00DBB23C4A12789A42F2D8013801233354A2
:103BFC00012101E00131C9B206291BD8374A8300E3
:103C0C001B185B001B185B185B009B5A002BF1D038
:103C1C004A1E01259540304A7C24A44644001219C2
:103C2C006446145B2C4365465453DB08013B02226B
:103C3C00F254DFE702239C4663460133DBB29C4619
:103C4C000023984600222DE00134E4B2062C27D83C
:103C5C0020002249AB005B195B005B191B195B0050
:103C6C005B5A002BF0D0DB08013B9B46F15C002932
:103C7C00EAD10138013181400B0017497C20814683
:103C8C006800824651444846085A18434B46C8526D
:103C9C0063465946735443460133DBB29846D3E727
:103CAC000132D2B20B4B1B78934207D91500B15C91
:103CBC006346013B9942F3D10124C7E74346002BED
:103CCC00BAD10020BD46F0BCBB46B246A946A046C0
:103CDC00F8BDC04608000020200800207C0C002005
:103CEC0070B504000B78002B03D10578002300205D
:103CFC0002E0FF25FAE70133064A12789A4208DD02
:103D0C00E25CAA42F7D2CE5C002EF4D1D8B21500F8
:103D1C00F1E770BD0800002001000023012002E043
:103D2C00CA5C10400133024A12789A42F8DC7047A0
:103D3C0008000020F0B5C64600B58EB005008846D8
:103D4C00002401942E22002102A810F05CFE54489D
:103D5C001A22002110F057FE2900013D514B5B192E
:103D6C0030229C541C329C54012000E00130062867
:103D7C001DDC4D4AAB005B195B005B191B185B002B
:103D8C009B5A002BF2D0DB08424692B29342EDD103
:103D9C0043465A1E434B9B18302201219954404BE9
:103DAC0042461A70C0B20EB080BCB846F0BD0123BA
:103DBC0000E001333D4A12789A420BDB9942F8D06D
:103DCC00581E384A12183020FF2414541C3000247A
:103DDC001454EEE7002401A8FFF79EFF00280ED133
:103DEC003048303001A9FFF77BFF0130C4B24445A5
:103DFC0005D0601E01AB01221A54012103E0002101
:103E0C002AE00131C9B20629E5D8274A83001B18DC
:103E1C005B001B185B185B009B5A002BF1D0DB0876
:103E2C00DBB2013B01AAD25C002AEAD11D4A302642
:103E3C001718BF5D0137FFB2D218925DBA42E0D9B4
:103E4C00184AD31830229F541C329C54D9E74B1C6F
:103E5C00134A5454D9B20400621E124B9B184C22C4
:103E6C00985C0028F3D1012100E0013106299ADC8D
:103E7C000D4AAB005B195B005B195B185B009B5A2E
:103E8C00002BF2D0DB084246541E064A121930248D
:103E9C00125D013A024CA25C9342E6D1C8B282E7B1
:103EAC00601C0020A00800207C0C002008000020D2
:103EBC00F0B5C64600B582B006005B4C68345B4B6F
:103ECC00220023CB23C2196811609B8893802000A9
:103EDC00FCF71CF982B201235B42009333332100BF
:103EEC0030000AF065F8012414E051494E4D683554
:103EFC002200280010F0FAFC2800FCF707F982B227
:103F0C0001235B4200933333290030000AF050F850
:103F1C000134E4B2052CE8D9464901235B420093F5
:103F2C003333032230000AF043F8002736E007232E
:103F3C001340D20840493C48683010F0D7FC3A4B4B
:103F4C006822904698444046FCF7E0F882B2012380
:103F5C005B4200933333414630000AF029F80134B8
:103F6C00E4B2052C0FD8354AAB005B195B005B192A
:103F7C001B195B009A5A002AD9D131492A4868305A
:103F8C0010F0B4FCDBE72F4901235B420093333381
:103F9C00022230000AF00CF80137FFB22A4B1B78D2
:103FAC00BB4233D93D007A1C28491F4C6834200091
:103FBC0010F09CFC2000FCF7A9F882B201235B42B4
:103FCC009846009333332100300009F0F1FF1B4B6E
:103FDC0016227A43D35A5900C91849001C4BC918E8
:103FEC000522200010F043FD434600933333052295
:103FFC002100300009F0DCFF1649434600933333AF
:10400C000122300009F0D4FF0124AAE71249012350
:10401C005B42009333330122300009F0C9FF02B038
:10402C0080BCB846F0BDC046A00800208C9E01089C
:10403C00A09E010890AD0108B89E01087C0C0020E0
:10404C00B49E0108C49F010808000020A89E010826
:10405C005C9801089C9E0108A4B70108F0B583B0D8
:10406C0006002D4C68342D4B220023CB23C223CBCE
:10407C0023C21B6813602000FCF748F882B20123AE
:10408C005B42009333332100300009F091FF01258E
:10409C0024E00134E4B20A2C1ED86B1E204A5B00CB
:1040AC009A5A611E80231B020B411342F1D01D4909
:1040BC00194F683723002A00380010F017FC38001D
:1040CC00FCF724F882B201235B42009333333900AE
:1040DC00300009F06DFFDCE70135EDB2124B1B78B7
:1040EC00AB4201D30124D6E70B4C68340F4B2200B2
:1040FC0023CB23C223CB23C203CB03C22000FCF768
:10410C0005F882B201235B42009333332100300067
:10411C0009F04EFF03B0F0BDA0080020C09E0108BE
:10412C0070280020DC9E010808000020F09E010889
:10413C00F0B5C64600B582B080460AF0E1F906003B
:10414C0000230370994B1A7899499A4C68342000D3
:10415C0010F0CCFB2100300010F05DFC964B3822A7
:10416C009A5C9649200010F0C1FB2100300010F041
:10417C0052FC934906230093043B0022200010F0CC
:10418C00B5FB2100300010F046FC8E4A8E49200011
:10419C0010F0ACFB2100300010F03DFC8B4A8C4938
:1041AC00200010F0A3FB2100300010F034FC894BF0
:1041BC00220023CB23C219681160998891809B79C6
:1041CC0093712100300010F026FC012410E0794995
:1041DC000A006832804B18688866998891809B79B0
:1041EC00937174496831300010F015FC0134E4B25D
:1041FC00052C3FD879496F4D68352200280010F006
:10420C0075FB2900300010F006FC6B4B1B193C228F
:10421C009B5C042BE5D89B00714AD3589F46654A9A
:10422C006832704BA1CBA1C2110005CB05C11B7824
:10423C000B70D6E75F4B68336B4AA1CAA1C3D0E7BA
:10424C005C496831694B0A00A1CBA1C223CB23C2C4
:10425C001B881380C5E7574A6832654BA1CBA1C2B6
:10426C00110025CB25C11A680A609A888A809B792F
:10427C008B71B6E74F4968315E4B0A0031CB31C2C6
:10428C0031CB31C2300010F0C6FB01241CE05A4B7C
:10429C00EA00521BD2009B18586A06F009FC070072
:1042AC00564BAD00E85806F003FC5549414D6835B6
:1042BC0000903B002200280010F018FB2900300071
:1042CC0010F0A9FB0134E4B2062C13D8651E4A4A3F
:1042DC00EB005B1BDB009B58002BD8D14949354DBB
:1042EC0068352200280010F001FB2900300010F086
:1042FC0092FBE7E73000FBF709FF30184249032235
:10430C0010F0ADFC3000FBF701FF30183F491D22C7
:10431C0010F0A5FC3000FBF7F9FE0700012401E0CA
:10432C000134E4B2052C17D8204B1B78013B384ADA
:10433C005B009A5A611E80231B020B411342EFD083
:10434C0034491C4D68352200280010F0CFFA2900A2
:10435C00300010F060FBE3E73000FBF7D7FE3D04C4
:10436C002D0CA8420ED03000FBF7D0FE3018264999
:10437C00032210F074FC4346002B09D102B080BC20
:10438C00B846F0BD30182449052210F068FCEAE765
:10439C003000FBF7BBFE82B201235B420093333348
:1043AC003100404609F004FEE8E7C046A0070020B3
:1043BC00109F0108A0080020200900202C9F010854
:1043CC00489F0108689F0108749F01088C9F010891
:1043DC00989F0108B49F0108D09F0108C89F01084D
:1043EC00B0970108D89F0108F09F0108FC9F0108B5
:1043FC0018A0010838A0010850230020BC1600208A
:10440C006CA0010850A00108C49F01089CA00108E1
:10441C0070280020BCA00108C4A0010870B50600DB
:10442C002A49FBF769FE00280AD029493000FBF71E
:10443C0063FE002847D03578232D04D0002418E0E3
:10444C00244B187870BD701C0EF0C1FEC0B2002851
:10445C0003D0214B1B78834205D21E4B1C7884421F
:10446C0003D06620EEE700B2ECE720B2EAE70134B5
:10447C00E4B2194B1B78A3420DD9A10009194900CC
:10448C00164BC9183000FBF737FE0028EFD1002D72
:10449C00EDD020B2D6E70025092D12D80D493831C0
:1044AC00AB005B195B00C9183000FBF725FE002838
:1044BC0002D00135EDB2EFE72C02FE231C4320B2F3
:1044CC00C0E76420BEE7FF20BCE7C046CCA00108D3
:1044DC00D0A00108A0070020080000206C0B0020D1
:1044EC00F8B504000E000025032D09DC2A4BAA00A8
:1044FC0099183000FBF700FE002846D00135F3E791
:10450C000125264B1B78AB420BDDA900491949004C
:10451C00234BC9183000FBF7EFFD002837D00135CD
:10452C00EFE7002500E00135092D0CDC1D49383181
:10453C00AB005B195B00C9183000FBF7DDFD0028F0
:10454C00F1D1072024E0184B184A5A64164B5D6CC5
:10455C00002D0FD02B681F683800FBF7D7FD020029
:10456C003900300010F072FA002812D06A680E4B35
:10457C005A64EBE7A00000194000094BC018310049
:10458C0010F065FBFFF7AEF802E0062000E0072014
:10459C00F8BD0820FCE7C0460C9801080800002074
:1045AC006C0B0020A007002020090020BC0000207C
:1045BC00F8B504000E000025092D16DC39493831F8
:1045CC00AB005B195B00C9183000FBF795FD0028A8
:1045DC0001D00135F0E7013C0121A940314B6400C9
:1045EC001B199A880A439A80F8BD0025032D09DC13
:1045FC002D4BAA0099183000FBF77EFD00284AD0FD
:10460C000135F3E70125294B1B78AB420BDDA900E3
:10461C0049194900264BC9183000FBF76DFD0028DD
:10462C003BD00135EFE7234B234A9A64214B9D6C19
:10463C00002D23D02B681F683800FBF767FD0200A4
:10464C003900300010F002FA002828D06A68194BA3
:10465C009A64EBE713483830AB005B195B00C01869
:10466C00310010F0F4FA013C0121A9400D4B64001B
:10467C001B199A880A439A800020B5E7092DF2DCB1
:10468C00084BAA00521952009B1838229B5C002B35
:10469C00E0D00135F2E70620A6E70720A4E70820C2
:1046AC00A2E7C046A00700200C98010808000020D3
:1046BC006C0B002020090020BC000020F0B5D64671
:1046CC004F464646C0B582460F0008A920C9097856
:1046DC0089469D4924268E5D002D1BD024208446BE
:1046EC0004388046604644460C54494600291AD08A
:1046FC002221894680242405A24200D38EE09249CF
:10470C004C240A554C314B70082B18D89B008F4AFF
:10471C00D3589F468C49242084460020804660460E
:10472C0044460C54E1E720218946E3E73A78864B6E
:10473C004C339A7003222021504603F0F9FE824B31
:10474C0024229E54002D00D0EDE00020E0BCBA469F
:10475C00B146A846F0BD3A787B4B4C339A70032295
:10476C002021504603F0E4FEE9E73A88764B4C33BF
:10477C009A703A88120ADA7004222021504603F00B
:10478C00D7FEDCE73B88704A4C3293703B881BB2F7
:10479C001B12D37004222021504603F0C9FECEE731
:1047AC003A68694B4C339A703A68120ADA703A6874
:1047BC00120C1A713A68120E5A71062220215046B8
:1047CC0003F0B6FEBBE73A685F4B4C339A703A681D
:1047DC001212DA703A6812141A713A68120E5A717F
:1047EC0006222021504603F0A3FEA8E73A78564B48
:1047FC004C339A707A78DA70BA781A71FA785A71EE
:10480C003A799A717A79DA71BA791A72FA795A72A2
:10481C000A222021504603F08BFE90E74A4C4C2094
:10482C008446002080466046414621544C346370D7
:10483C00110EA170110CE170110A21716271082B1B
:10484C0000D97CE79B00424AD3589F463A783E4BAE
:10485C004C339A7107224946504603F069FE6EE7C5
:10486C003A78394B4C339A7107224946504603F03B
:10487C005FFE64E73A88344B4C339A713A88120ADB
:10488C00DA7108224946504603F052FE57E73B883E
:10489C002D4A4C3293713B881BB21B12D3710822E8
:1048AC004946504603F044FE49E73A68264B4C33E0
:1048BC009A713A68120ADA713A68120C1A723A68EA
:1048CC00120E5A720A224946504603F031FE36E760
:1048DC003A681D4B4C339A713A681212DA713A6885
:1048EC0012141A723A68120E5A720A22494650462B
:1048FC0003F01EFE23E73A78134B4C339A717A7807
:10490C00DA71BA781A72FA785A723A799A727A79A2
:10491C00DA72BA791A73FA795A730E2249465046EA
:10492C0003F006FE0BE70BF0C1FB0400094B4C2215
:10493C009B5C002B04D00BF0B9FB001BA842F5D3F9
:10494C00044B4C22985C01E720080020C497010816
:10495C00E89701082009002030B583B01E200EF026
:10496C003DFC04001E22002110F04DF80A48010005
:10497C002C310A7D013A8B7D4D7D4421405A0749EB
:10498C0092008A1812692C310190009520000FF0CA
:10499C00ADFF200003B030BD200800200C980108AA
:1049AC0000B585B00A00074B197801230393023B2D
:1049BC0002930193033300930B0003F0DFFD05B06A
:1049CC0000BDC046A007002030B587B005000C0024
:1049DC00002304930393029301930093002200217C
:1049EC000020FEF7AFFE691E164ACB005B1ADB00F7
:1049FC009958002906D0601EC3001B1ADB009B5877
:104A0C00002B0FD1002915D1611E0E4ACB005B1A69
:104A1C00DB009B58002B12D0200006F0E3FE002098
:104A2C0007B030BD280006F0DDFE200006F0DAFEEF
:104A3C000020F5E7280006F0D5FE0020F0E76820FE
:104A4C00EEE7C0465023002030B5002201E0237071
:104A5C0001328418835C002B07D00449CD5C032100
:104A6C0029400129F3D12033F1E730BD09C70108F2
:104A7C00F0B5CE46474680B589B00400D94B1D78B9
:104A8C00052D00D109E2AA005119890059180020FE
:104A9C0008714871181D52199200801802300422B6
:104AAC0000210FF0B0FF2378622B02D1A3782E2BBC
:104ABC0053D0CC4D68352100280010F0C8F8CA4EF0
:104ACC00310028000FF0E8FF0400310000200FF047
:104ADC00E3FF0500310000200FF0DEFF0600002C84
:104AEC0000D1DEE12000FEF741FF041E02D0002DB4
:104AFC0000D1A8E1002D00D1D5E1002E00D1D4E1E8
:104B0C003000FEF733FF002800D1ABE1B5490E7839
:104B1C00B3009A1992008A1804271771D471D072B5
:104B2C00B04C26782800FEF73BFFB3009B199B0086
:104B3C00E3185871227893009B189B00E418637952
:104B4C00002B00D1B3E1A74B01321A7000263000C4
:104B5C0009B0C0BCB946B046F0BD6778303FFFB273
:104B6C00052F00D99BE19F4BAA00521992009B186C
:104B7C0001221A7100225A719F71E61C9B4907325F
:104B8C0030000FF063FF002824D1964BAA00521975
:104B9C0092009B180522DA71954BFA00D2199B18DA
:104BAC001B7A012216001E401A4205D000268D4A9F
:104BBC00137801331370CAE7012305930023049380
:104BCC00039302930193009300220121380007F014
:104BDC000BFDECE787490E2230000FF037FF002861
:104BEC0020D1804BAA00521992009B180622DA7130
:104BFC007F4BFA00D2199B181B7A022216001E401A
:104C0C001A4201D00026D2E7012305930023049316
:104C1C000393029301930093013A0021380007F0AB
:104C2C00E3FCC4E774490C2230000FF00FFF00289E
:104C3C0078D16F4BFA00D2199B189E78002E0FD0AA
:104C4C006B4BFA00D2199B18DE78002E28D0684BDB
:104C5C00FA00D2199B181E79002E42D00C26A6E71A
:104C6C00604AAB005B199B001500D3180922DA715E
:104C7C0020000F300EF0A5FA2978C3B28A00521822
:104C8C009200AD182B72012205920022049203921D
:104C9C000292019200920021380007F0A5FC86E7F1
:104CAC00504AAB005B199B001500D3180A22DA712D
:104CBC0020000F300EF085FA2A78C0B293009B18B2
:104CCC009B00ED1828720123059300230493039392
:104CDC0002930193009000220021380007F084FC1D
:104CEC0065E7404AAB005B199B001500D3180B22FB
:104CFC00DA7120000F300EF064FA2A78C0B29300FB
:104D0C009B189B00ED182872012305930023049334
:104D1C00039302930190009300220021380007F0C6
:104D2C0063FC44E735490D2230000FF08FFE00285C
:104D3C0000D086E02E4BFA00D2199B185E79002E1B
:104D4C000FD02B4BFA00D2199B189E79002E29D02C
:104D5C00274BFA00D2199B18DE79002E50D00D2665
:104D6C0025E7204AAB005B199B001500D3180C22D9
:104D7C00DA71200010300EF024FA2A78C0B29300B9
:104D8C009B189B00ED1828720123059300230493B4
:104D9C00039302900193009300220021380007F046
:104DAC0023FC04E70F4A142398466B431500D318D1
:104DBC000D22DA71200010300EF003FA2B78C0B2FD
:104DCC0042465343ED1828720123059300210491A8
:104DDC0003900291019100910B000A00380007F03A
:104DEC0003FCE4E6A4140020CC9F0108C4AD010828
:104DFC009C26002094A50108A4A50108B4A50108CF
:104E0C002C4B142291465543984645440E23EB7186
:104E1C00200010300EF0D5F943461B78C0B24A463C
:104E2C0053434344187201230593049000210391CA
:104E3C000291019100910B000A00380007F0D4FB9D
:104E4C00B5E60026B3E6002E00D053E619480278EA
:104E5C00930099188900411802350D71CC710132FB
:104E6C00027074E6134F39788B005A189200BA18F6
:104E7C0003201071D47130000EF09EF9FDF792FFF3
:104E8C000790381D3A7893009B189B00C018063089
:104E9C00042207A90FF0E3FE42E60E2657E6002691
:104EAC0055E6672653E6672651E667264FE66726E2
:104EBC004DE6C046A4140020F8B50C00022816D00C
:104ECC00032803D001280ED00020F8BD354A1178F4
:104EDC0001398B005B189B00D2180123137505F068
:104EEC0041FC0020F1E70800FFF7C2FDEDE72D4A79
:104EFC001578013DAB005B199B00D2181769002F88
:104F0C0033D03800FBF702F906002000FBF7FEF85F
:104F1C003118023138000EF0B3FB224AAB005B199A
:104F2C009B001500D31818611278013A93009B1856
:104F3C009B00EB181869731CC01821000FF087FE3A
:104F4C002A78013A93009B189B00ED182B691322C9
:104F5C009A5514490A78013A93009B189B00C9187A
:104F6C000B69002B11D00020AFE70800FBF7CEF83F
:104F7C0001300EF033F90B4BAA00521992009B181A
:104F8C00186121000FF063FEE3E70648043093003C
:104F9C009B189B00C018142200210FF034FD0E202A
:104FAC0093E7C046A4140020F0B5DE4657464E46A3
:104FBC004546E0B589B08146884615001C000023A3
:104FCC0005930522002106A80FF01DFD2AE1E91C1E
:104FDC000120FFF771FF002806D1D24B02229A76EE
:104FEC000D23237057460CE1CF49522220000FF0BD
:104FFC0036FECC4B00229A76574602E1C94B002272
:10500C009A76CA490320FFF757FFC949412220006D
:10501C000FF025FE5746F4E029000220FFF74CFF65
:10502C00002803D10D2323700027EAE0BE49522249
:10503C0020000FF014FE0027E3E0701C9922920070
:10504C00210009F0F3F90700DBE0BA492722200020
:10505C000FF005FE0027D4E0B749252220000FF001
:10506C00FEFD0027CDE0B5481A2200210FF0CBFC45
:10507C0001362800FBF74AF8070005A8FBF746F8AD
:10508C003A1A013AAE4831000FF0F1FC2800FBF758
:10509C003DF8070005A8FBF739F83B1A9BB217221D
:1050AC00FF21504603F01CFA992292002100300097
:1050BC0009F0BCF907002000FBF728F82018A149DB
:1050CC001D220FF0CCFD9CE0029B1B12DBB29B4619
:1050DC00944B03935946D97698481A2200210FF025
:1050EC0092FC711C02912800FBF710F8060005A831
:1050FC00FBF70CF8321A013A914802990FF0B7FC01
:10510C002800FBF703F8060005A8FAF7FFFF331A8F
:10511C009BB217225946504603F0E2F98A4B1B7892
:10512C00013B8A4A5B009B5A039AD27E1341DB07F0
:10513C0006D4874905AB220020000FF0D7FB60E0B6
:10514C00992292002100029809F070F90700F0E70B
:10515C002800FAF7DBFF070005A8FAF7D7FF3A1A81
:10516C00013A774831000FF082FC2800FAF7CEFFA5
:10517C00060005A8FAF7CAFF321A92B2013A92B2A7
:10518C001721584603F0D4F97249029A20000FF007
:10519C00ADFB2378002B02D04346002B08D1200016
:1051AC00FAF7B4FF0200002120000FF02CFCA2E063
:1051BC002000FAF7ABFF82B20123009331332100B8
:1051CC00484608F0F5FEEAE7FA21890001200AF0CA
:1051DC005DFB614B1B78002B00D193E05F4A138879
:1051EC00013313805E49029B220020000FF07EFBEE
:1051FC00002706E0992292002100280009F016F9F8
:10520C0007002378002B02D04346002B7CD12000D2
:10521C00FAF77CFF0200002120000FF0F4FB002FB6
:10522C0000D1ADE02800FFF70FFC3E4B9E7E002E18
:10523C0008D14C49032228000FF008FC82460028B4
:10524C0000D1C4E6002E08D04749062228000FF0F2
:10525C00FDFB8246002800D1D0E6022E00D1DBE611
:10526C002E2128000FF0E4FB061EC3D003383F4963
:10527C0003220FF0EBFB0028BCD073783C4AD35CC4
:10528C005B07B7D4721B290005A80FF0F0FB05A82B
:10529C00FFF7C4F802902C4A12789246904200D143
:1052AC00CBE6642800D1D0E6662800D1D4E6FF28EE
:1052BC0000D1D8E66B461B7A9B46FE2B00D103E748
:1052CC0001362C49062230000FF0C0FB002800D01C
:1052DC003EE7294B00221A701921584603F028F991
:1052EC00642008F0EFFF254B1A78174B1878002331
:1052FC00594605F05BFB204B1B78602B00D163E714
:10530C0000277EE700277CE72000FAF7FFFE82B239
:10531C0001235B42009333332100484608F048FEDA
:10532C0075E7C04624150020C8A50108A49E0108F5
:10533C0024A601086CA6010894A60108500B0020B5
:10534C006C080020BCA60108A0070020A4070020C0
:10535C00DCA6010810A701086C090020D01E002053
:10536C0034A70108C4A501081CA6010868A60108F9
:10537C0009C7010808A701084408002058090020A3
:10538C000922002105A80FF03EFB0C4B9B7E002B45
:10539C0002D14346002B06D109B0F0BCBB46B24645
:1053AC00A946A046F0BD064901235B420093333366
:1053BC003822484608F0FCFDEEE7C04624150020D4
:1053CC0054A7010870B584B00F236B4400221A70E7
:1053DC000121494201200AF059FA09F091F805001F
:1053EC004B4B9A68E1231B039A420FD0012401E036
:1053FC000134E4B2052C09D8464B1B78A342F7D0F4
:10540C00E1210903200008F023FEF1E7424B1A8842
:10541C0053009B185B00414A9B18414A1278414942
:10542C00414C1C343B4E3078009020000FF05EFA5B
:10543C00A4223E4930780A23920008F0E9FD2000AE
:10544C00FAF764FE82B230780A23210008F0E0FDFE
:10545C0000241FE036492F4B18780A230B3A08F02A
:10546C00D7FD002C42D0304C26007836294B1878CA
:10547C002B0032000121FFF797FD20004430310052
:10548C000FF0E5FB3222002130000FF0BCFA0024B3
:10549C000AF0B0FC274A1278012AF9D126490B7878
:1054AC006A46D37300220A70224B1A70194B187873
:1054BC000A2301320F21694408F0AAFD6B46DA7BFE
:1054CC000D2AC7D00A2AE3D0082A16D07F2A14D076
:1054DC001300203BDBB25E2BDAD8312CD8DC124B1C
:1054EC001B1978215A54013464B2D1E70E480100DB
:1054FC00443178300FF0ABFBB5E7002CC8DD013C34
:10550C0064B2094B1B19782200219954C0E7C0469C
:10551C004C08002058090020300000205C9801083D
:10552C00A007002090A7010824150020BCA70108A3
:10553C00D0C40108A1140020E90E002070B50C00A5
:10554C001D4A117801398B005B189B00D218136926
:10555C00002B2ED0194BDB6A002B16D0174BDE6AB2
:10556C003378002B14D0132130000FF061FA051E94
:10557C00124B186311D0821B310020000FF077FA08
:10558C0001350E4BDD62012070BD0C4BD862E5E796
:10559C000A4B0022DA620020F6E7310020000FF0FF
:1055AC0056FB2000FAF7B2FD044B3618DE620120E0
:1055BC00EAE70020E8E7C046A4140020A415002068
:1055CC00F0B583B00400484B8200121892009B186F
:1055DC001B79012B04D0032B16D0002003B0F0BD97
:1055EC00414B8200111889005918897912189200C0
:1055FC009B18D8793D4BCA005218D35C984201D005
:10560C000020EBE70120E9E7374D860033189B00BB
:10561C00EB18DA79013A364953009B189B005B581A
:10562C001F68291D33189B00C9180631042201A8D4
:10563C000FF015FB3619B600AD196B79062B45D852
:10564C009B002C4AD3589F460198391CFAF73AFF15
:10565C000028C3D00120C1E70198391CFAF738FFA4
:10566C000028BBD00120B9E70198391CFAF744FF98
:10567C0000282DD00021381CFAF724FF002829D04F
:10568C000020ABE70198391CFAF72CFF0028A5D0B5
:10569C000120A3E70198391CFAF738FF00281BD02A
:1056AC000021381CFAF70EFF002817D0002095E7D0
:1056BC000198391CFAF706FF002811D10021381C7B
:1056CC00FAF700FF00280DD0002087E7002085E7BF
:1056DC00002083E7012081E700207FE701207DE7A0
:1056EC0000207BE7012079E7A41400209C260020F1
:1056FC00940000204099010870B508F001FF0600E5
:10570C0000241DE01A4A34321A4B18783300002159
:10571C00FFF74AFC3000FAF7F9FC020000213000D8
:10572C000FF071F912493431134BAA00521992003F
:10573C009B181869FFF702FF0028E3D10134A4B2CB
:10574C000D4B1B78A34211D925000B4AA100091956
:10575C0089005218137D002BF0D0E0B2FFF730FF18
:10576C000028EBD0054B20221A70DBE7002070BD1F
:10577C00A415002058090020A4140020440800207F
:10578C00BFF34F8F034B044ADA60BFF34F8FC04611
:10579C00FDE7C04600ED00E00400FA05002070476C
:1057AC0010B5FFF7EDFF0000F0B583B00600140054
:1057BC0000250195009501AA0121200008F0A4FE06
:1057CC000023C356702B17D068276A46022120008D
:1057DC0008F09AFE0DF0FBFC0400682F12D00100BB
:1057EC00280008F035FC0A492B00220030000FF08D
:1057FC007DF8002003B0F0BD01300DF0E8FCC5B21F
:10580C000027E2E70349132230000FF028FAF0E7F3
:10581C0064AA010850AA010810B5044B1A681204B6
:10582C00120C03490FF062F8002010BDCCF7FF1FDB
:10583C008CAA010810B582B004001000002301935B
:10584C000023009301AA012108F05EFE0023C35639
:10585C00323BDBB2012B07D90B49152220000FF08C
:10586C00FEF9002002B010BD0DF0B1FCC0B26946CB
:10587C0007F0A6F90098FDF74DFA02000B0003495A
:10588C0020000FF033F8ECE7D0AA0108ACAA01080D
:10589C0010B582B00400002301930093694601A85F
:1058AC0007F0C4F801A920000FF0D1F90098FDF71A
:1058BC0031FA02000B00034920000FF017F800200A
:1058CC0002B010BDE8AA010810B582B00400002394
:1058DC0001930093694601A807F0A8F801A92000DC
:1058EC000FF0B5F90198FDF715FA02000B0003490A
:1058FC0020000EF0FBFF002002B010BD10AB010821
:10590C0070B584B0060014000023039302930023A7
:10591C00019303AA0121200008F0F6FD050002AA5C
:10592C000221200008F0F0FD04000023EB56323B6E
:10593C00DBB2012B07D91A49152230000FF08FF971
:10594C00002004B070BD28000DF041FCC5B2154913
:10595C002000FAF7D1FB002805D013492000FAF7F4
:10596C00CBFB002816D10F4C2100280007F010FAB1
:10597C0001AA2100280007F03BFA01A930000FF022
:10598C0066F90198FAF724FE82B2084930000EF04D
:10599C00ADFFD5E70649122230000FF060F9CFE7D2
:1059AC00D0AA010834AB010838AB010840AB0108A0
:1059BC0050AB010870B584B00500100000230393B0
:1059CC005E4B1A7802AB1A7003AA012108F09CFDF9
:1059DC0004005B49FAF790FB002869D1594B1B78FE
:1059EC00013B594AD65C012423E058492200280087
:1059FC000EF07CFF2800FAF789FB82B2514B187825
:105A0C00642300935A3B290008F0D2FA3EE00120AF
:105A1C000AF052FB4B4B19780139701C4C4B4A0065
:105A2C00521892019B181B5C002BF0D0060001341D
:105A3C00E4B2052C45D8434B1B78A342F7D00DF0AC
:105A4C0005FE6B461872642300935A3B012202A98F
:105A5C00200008F0ADFA200008F08CFA03689B8C4B
:105A6C00DBB26A46127A9342BFD03A492200280030
:105A7C000EF03CFF2800FAF749FB82B2314B187844
:105A8C00642300935A3B290008F092FA32495422BD
:105A9C0028000FF0E4F82800FAF738FB82B2294B03
:105AAC001878642300935A3B290008F081FAB1E777
:105ABC000023E356702B07D028490F2228000FF043
:105ACC00CEF8002004B070BD601C0DF080FB04000B
