:020000040800F2
:1000000000800020A1D800082DD90008E5CA00080A
:1000100000000000000000000000000000000000E0
:100020000000000000000000000000009DF4000837
:10003000000000000000000029F50008D9CA0008EF
:100040002DD900082DD900082DD900082DD9000878
:100050002DD900082DD900082DD900082DD9000868
:100060002DD9000869CB000875CB0008B5CB000876
:100070002DD900082DD900082DD900082DD9000848
:100080002DD900082DD900082DD900082DD9000838
:100090002DD900082DD900082DD900082DD9000828
:1000A0002DD900082DD900082DD900081DCB000836
:0C00B0002DCB00083DCB00082DD9000826
:1000BC0010B5064C2378002B07D1054B002B02D032
:1000CC00044800E000BF0123237010BD780A002013
:1000DC000000000090750108044B10B5002B03D0F4
:1000EC000349044800E000BF10BDC04600000000FA
:1000FC007C0A00209075010802780B78002A03D046
:10010C00013001319A42F7D0D01A70470023C25CFB
:10011C000133002AFBD1581E7047000002B471460F
:10012C0049084900095C49008E4402BC7047C0462E
:10013C0003B47146490840004900095E49008E44E9
:10014C0003BC7047002243088B4274D303098B42D3
:10015C005FD3030A8B4244D3030B8B4228D3030C8B
:10016C008B420DD3FF22090212BA030C8B4202D32D
:10017C001212090265D0030B8B4219D300E0090A55
:10018C00C30B8B4201D3CB03C01A5241830B8B425E
:10019C0001D38B03C01A5241430B8B4201D34B0347
:1001AC00C01A5241030B8B4201D30B03C01A5241AC
:1001BC00C30A8B4201D3CB02C01A5241830A8B4231
:1001CC0001D38B02C01A5241430A8B4201D34B021A
:1001DC00C01A5241030A8B4201D30B02C01A52417E
:1001EC00CDD2C3098B4201D3CB01C01A5241830932
:1001FC008B4201D38B01C01A524143098B4201D36C
:10020C004B01C01A524103098B4201D30B01C01A96
:10021C005241C3088B4201D3CB00C01A5241830810
:10022C008B4201D38B00C01A524143088B4201D33D
:10023C004B00C01A5241411A00D20146524110469D
:10024C007047FFE701B5002000F0F0F802BDC04692
:10025C000029F7D076E7704703460B437FD4002282
:10026C0043088B4274D303098B425FD3030A8B423E
:10027C0044D3030B8B4228D3030C8B420DD3FF22A8
:10028C00090212BA030C8B4202D31212090265D076
:10029C00030B8B4219D300E0090AC30B8B4201D329
:1002AC00CB03C01A5241830B8B4201D38B03C01A70
:1002BC005241430B8B4201D34B03C01A5241030BE7
:1002CC008B4201D30B03C01A5241C30A8B4201D398
:1002DC00CB02C01A5241830A8B4201D38B02C01A43
:1002EC005241430A8B4201D34B02C01A5241030ABA
:1002FC008B4201D30B02C01A5241CDD2C3098B429F
:10030C0001D3CB01C01A524183098B4201D38B011B
:10031C00C01A524143098B4201D34B01C01A5241BE
:10032C0003098B4201D30B01C01A5241C3088B4203
:10033C0001D3CB00C01A524183088B4201D38B00EE
:10034C00C01A524143088B4201D34B00C01A524190
:10035C00411A00D201465241104670475DE0CA0F67
:10036C0000D04942031000D34042534000229C4627
:10037C0003098B422DD3030A8B4212D3FC22890131
:10038C0012BA030A8B420CD3890192118B4208D307
:10039C00890192118B4204D389013AD0921100E069
:1003AC008909C3098B4201D3CB01C01A524183097D
:1003BC008B4201D38B01C01A524143098B4201D3AA
:1003CC004B01C01A524103098B4201D30B01C01AD5
:1003DC005241C3088B4201D3CB00C01A524183084F
:1003EC008B4201D38B00C01A5241D9D243088B42A5
:1003FC0001D34B00C01A5241411A00D20146634648
:10040C0052415B10104601D34042002B00D54942AB
:10041C00704763465B1000D3404201B5002000F0EA
:10042C0005F802BD0029F8D016E770477047C046A2
:10043C008446101C62468C46191C634600E0C0467C
:10044C001FB501F093FC002801D40021C8421FBD48
:10045C0010B501F0EBFB4042013010BD10B501F0BE
:10046C0085FC002801DB002010BD012010BDC0461A
:10047C0010B501F07BFC002801DD002010BD01202F
:10048C0010BDC04610B501F00DFC002801DC0020A9
:10049C0010BD012010BDC04610B501F003FC0028B2
:1004AC0001DA002010BD012010BDC0468446081C96
:1004BC006146FFE71FB500F0F5F9002801D40021D3
:1004CC00C8421FBD10B500F077F94042013010BD95
:1004DC0010B500F0E7F9002801DB002010BD012069
:1004EC0010BDC04610B500F0DDF9002801DD00207C
:1004FC0010BD012010BDC04610B500F085F90028D4
:10050C0001DC002010BD012010BDC04610B500F06C
:10051C007BF9002801DA002010BD012010BDC04677
:10052C00994201D1801A04D002D201204042704776
:10053C0001207047002B11D1002A0FD1002900D1C6
:10054C00002802D00021C943081C07B4024802A1AC
:10055C004018029003BDC046D5FEFFFF03B46846A9
:10056C0001B5029800F066F8019B9E4602B00CBCE7
:10057C007047C046F0B5CE46474615042D0C2E00EC
:10058C0080B50704140C3F0C9946030C7E435D4365
:10059C00674363437F19340CE4199C46A54203D985
:1005AC0080235B029846C4444B4643435143250C7D
:1005BC0036046544360C2404A4195B195918200020
:1005CC000CBC90469946F0BD9E2110B5C905041C83
:1005DC00FFF79CFF002803D1201C00F0A9FC10BDE4
:1005EC009E21201CC90500F0DFFA00F0A1FC80233D
:1005FC001B069C466044F2E770B500220C4B0400CD
:10060C000D00FFF749FF002804D12000290002F05B
:10061C00EBF970BD064B00222000290001F080FE92
:10062C0002F0E2F980231B069C466044F1E7C046C9
:10063C000000E041F0B54F464646D646C0B5040032
:10064C0082B00D00914698468B422FD82CD0414653
:10065C00484602F05FFB29000600200002F05AFB1E
:10066C00331A9C46203B9A4600D576E04B465246C0
:10067C0093401F004B46624693401E00AF4228D861
:10068C0025D05346A41BBD41002B00DA7BE0002291
:10069C0000230092019301235246934001930123BE
:1006AC0062469340009318E08242D0D90022002386
:1006BC00009201930A9B002B01D01C605D60009896
:1006CC00019902B01CBC90469946A246F0BDA342CB
:1006DC00D7D900220023009201936346002BE9D066
:1006EC00FB079846414672080A437B0866460EE0B3
:1006FC00AB4201D1A2420CD8A41A9D41012024196D
:10070C006D410021013E24184D41002E06D0AB4214
:10071C00EED9013E24196D41002EF8D100980199B3
:10072C00534600196941002B23DB2B005246D34062
:10073C002A006446E2401C0053461500002B2DDBBA
:10074C0026005746BE40330026006746BE403200A6
:10075C00801A994100900191ACE7624620239B1AC4
:10076C004A46DA406146130042468A4017001F434E
:10077C0080E7624620239B1A2A0066469A40230093
:10078C00F3401343D4E76246202300219B1A002236
:10079C00009101920122DA40019280E72023624607
:1007AC0026009B1ADE402F00B0466646B7404646F0
:1007BC003B003343C8E7C04670B542004E024C00C4
:1007CC0045026D0A120EC30F760A240EC90FFF2ABA
:1007DC000FD0FF2C11D00120A24200D070BDB54229
:1007EC00FCD18B420DD0002AF8D12800451EA8411F
:1007FC00F4E70120002DF1D1EBE70120002EEDD123
:10080C00E9E70020EAE7C04670B54A004E0245020F
:10081C0044006D0A240EC30F760A120EC90FFF2C6A
:10082C0015D0FF2A0ED0002C15D1002A01D1002E94
:10083C001CD0002D14D08B4227D00220013B184035
:10084C00013870BD002EEED002204042F9E7002D99
:10085C00FAD1FF2A0ED0002A0ED1002EEDD00BE0DB
:10086C0001230139994308000130EAE70020002DEB
:10087C00E7D0E2E7002EE7D18B42DED1944205DDD2
:10088C000221581E08400138DBE70024A24204DC98
:10089C00B542D2D80020B542D3D2581E012398437A
:1008AC000130CEE730B5420044024D02C30F480080
:1008BC00640A120E6D0A000EC90FFF2A12D0FF280F
:1008CC000CD0002A12D1002819D1002D17D1002CE0
:1008DC002BD00220013B1840013826E0002DF0D02F
:1008EC00022022E0002CFBD1FF281FD000281FD1B2
:1008FC00002D1DD10220013B1840013815E0002CC1
:10090C000ED08B42E5D10022904204DCAC42E0D800
:10091C000020AC4209D2581E01239843013004E058
:10092C000123013999430800013030BD002DD7D186
:10093C008B42CED18242E7DD0221581E084001389D
:10094C00F3E7C046F0B54E4657464546DE46E0B5A1
:10095C0043025B0A450083B00F1C99462D0EC60F4F
:10096C00002D57D0FF2D24D08020DB00C00418436D
:10097C00002381469A469B467F3D7C027A00FB0F02
:10098C00640A120E984623D0FF2A4BD0E300802431
:10099C000020E4047F3A1C43AD186B1C47460193BE
:1009AC00534677403A000F2B48D87D499B00CB58D3
:1009BC009F46002B00D085E008339A46063B9B46A9
:1009CC007C027A00FB0FFF25640A120E9846DBD1DD
:1009DC00002C00D090E0524601231A43924601208D
:1009EC00DBE74C4658461700022824D0032800D1D8
:1009FC00CFE00022002301284DD15802D205400A35
:100A0C00FF071043384303B03CBC90469946A246BE
:100A1C00AB46F0BD002B5BD104239A46033B00256B
:100A2C009B46AAE7FF35002C60D1524602231A439D
:100A3C0092460220B1E7FF220023DEE74B461B0C57
:100A4C009C464B462604360C180461463300220C97
:100A5C006446000C43434E435043544380191A0CD4
:100A6C001218964203D9802149028C4664441B0417
:100A7C001B0C1004C01883015E1EB341800E18437A
:100A8C00130C1B199B0103431C00230179D5012373
:100A9C0062081C401443019A7F32002A4DDD630723
:100AAC0004D00F232340042B00D00434230103D59E
:100ABC003C4B019A1C408032FE2ABCDCA3015B0A31
:100ACC00D2B29AE70C239A46093BFF259B4654E782
:100ADC00180002F001F94A46431F76259A4000237C
:100AEC006D4291462D1A9A469B4646E75246032381
:100AFC001A439246032050E7200002F0EDF8431F02
:100B0C002D1A9C40763D002047E780230027DB030D
:100B1C00FF2272E7424666E74C463200584662E7CF
:100B2C0080234A46DB031A4222D01C4220D12343A5
:100B3C005B025B0A4746FF225FE701239A1A1B2AD6
:100B4C0021DC23000199D3409E318C401A002300F4
:100B5C005C1EA34113435A0704D00F221A40042AE7
:100B6C0000D004335A0111D49B015B0A002244E7E4
:100B7C0080234A46DB0313435B025B0A3700FF22E8
:100B8C003BE7019587E70022002336E7012200238B
:100B9C0033E78023DB0323435B025B0AFF222CE752
:100BAC00547C0108FFFFFFF7F8B54746CE464400DA
:100BBC00C20F80B547024802400A84466646480088
:100BCC007F0A240EF60025009046FB00000EC90F8C
:100BDC00B146FF2800D185E001267140261A9142CA
:100BEC0057D0002E43DD002800D07FE04946002975
:100BFC0000D1AAE0013E002E00D0F7E05B1A5A01AA
:100C0C0000D48BE09B019C09200002F065F80538AC
:100C1C008440854200DDD3E0451B230020200135B4
:100C2C00EB40451BAC40621E944123430724002536
:100C3C001C40012241460A40002C04D00F211940CF
:100C4C00042900D00433590100D480E00135ECB202
:100C5C00FF2D00D0A3E0FF2400235B02E405580A1B
:100C6C00D207204310430CBC90469946F8BD002E89
:100C7C0074D1601CC0B2012800DCA7E04A469C1A63
:100C8C00620100D5B6E0002CBED100220024002366
:100C9C00E3E7002E00DC85E0002846D0FF2C49D08D
:100CAC0080224846D2041043814601221B2E09DCC7
:100CBC0020204C46801B84404A462000F240441EB3
:100CCC00A04102439B185A0128D50135FF2D00D1B4
:100CDC00A8E00122072494491A405B080B401343F7
:100CEC001C40A6E7002E00D078E775E7FF2C54D007
:100CFC0080224946D2041143894601221B2E09DC6D
:100D0C0020214846891B88404A460100F240481E73
:100D1C0081410A439B1A5A0100D573E701224146CF
:100D2C000A40590700D089E711E04846002858D1FD
:100D3C00FF2C0CD1DB08002B00D18CE78020C003EA
:100D4C0003435B025B0AFF2487E7FF2C25D0DB08FB
:100D5C00FF2DF0D05B025B0AECB27EE7002C4DD08D
:100D6C00FF2818D08024E404724223431B2A00DDA0
:100D7C00C4E01C002025D440AA1A93405A1E93416B
:100D8C0023434A460500D31A884638E7721CF8D02C
:100D9C00F243FF28EAD10A004B46FF25D7E79B0117
:100DAC005B0A5AE7002E41D1651CE9B2012945DDE9
:100DBC00FF2D00D14FE707244B445B081C4038E75C
:100DCC0007225A4B2D1A2340144032E7002C1DD118
:100DDC00002B7AD14B46002B00D191E00A00002564
:100DEC00B5E7013E002E19D14B446CE7FF2C84D1A2
:100DFC00FF25ACE74A468846D41A05E7002BC5D137
:100E0C000A00FF28C8D005004B46A0E7002B49D1AB
:100E1C004B46002B77D00A00FF2598E7FF2C00D01B
:100E2C0043E787E70A00FF24002316E7002C15D1BF
:100E3C00002B57D1FF28E6D14B467BE7002C20D165
:100E4C00002B57D04946002953D04B445A0168D542
:100E5C000724364A1C4001251340EAE6FF28EBD054
:100E6C008022D204764213431B2E53DC2025AD1B6B
:100E7C001A00AB40F2405C1EA34113434B440500E7
:100E8C0021E7002BD8D04946002900D152E7802118
:100E9C00C9030F4200D14DE76046084200D049E734
:100EAC004B4647E74846FF25002800D14FE78022F4
:100EBC00D203174204D06046104201D14B468846FB
:100ECC0001224146FF250A4041E7484600281FD031
:100EDC001A1A500120D54A460724D31A1C408846BA
:100EEC000025A6E6741CC9D0F643FF28BCD14B469E
:100EFC0020E799464B460025DB082BE7012340E70A
:100F0C0000220023A9E680230022DB03FF24A4E6B1
:100F1C0000251CE70123B1E7002AF1D013000025BE
:100F2C00FCE60025FAE6C046FFFFFF7DFFFFFFFB56
:100F3C0041024200C30F490A120E00207E2A0DD92D
:100F4C009D2A0CD8802000040143952A0ADC9620A7
:100F5C00821AD1404842002B00D108007047034A46
:100F6C009818FBE7963A9140F4E7C046FFFFFF7FE5
:100F7C0070B5041E34D001F0AFFE9E22121A962AD0
:100F8C0007DCD2B208282EDD083884406002400A03
:100F9C0021E0992A09DD030021001B3399404B1EE7
:100FAC00994105231B1ADC400C43052801DD431F26
:100FBC009C4023000D490B40650709D00F252C40A0
:100FCC00042C05D004335C0102D59F220B40121A6D
:100FDC009B01580AD2B24002D205400A104370BDA0
:100FEC0000220020F7E76002400AF4E7FFFFFFFB56
:100FFC00F0B54F464646D6460C000903C0B5490A23
:10100C00470F5E0039431F03DB0F9C4665007B0ACC
:10101C00570F1F436D0DE40F760DA146C000B84667
:10102C00D200AB1B64457BD0002B5FDD002E00D0C3
:10103C00A4E03E00164300D112E15E1E002E00D04B
:10104C009EE1871A4346B84280410125C91A4042A5
:10105C00091A0B0200D431E149024E0A002E00D1CC
:10106C006EE1300001F038FE0300083B1F2B00DD61
:10107C0061E120223900D21A9E40D1409F400E439C
:10108C009D4200DD51E15D1B6B1C1F2B00DD7CE1E3
:10109C002021C91A3D0030008F408840DD40791E68
:1010AC008F41310007222843D940002507433A409D
:1010BC00002A09D00F233B40042B05D03B1DBB421B
:1010CC00BF417F42C9191F000B0200D426E26A1CE3
:1010DC00C64B55056D0D9A4200D106E1C44AFF0876
:1010EC000A40530752023B43120B8EE0002B00D0F8
:1010FC00B8E06B1C5B055B0D012B00DC30E1871A43
:10110C004346B842B641CB1A76429E1B330200D5F9
:10111C004CE13B003343A1D100220024002570E0B8
:10112C00002B00DCE5E0002E00D183E0AF4EB54291
:10113C0060D0802636043743B846382B00DC3EE1BD
:10114C00434613431F007A1E97413F188742804144
:10115C00404209180B0200D4B0E0A44B01359D426B
:10116C0000D1C3E0A24A7B080A4001210F401F4373
:10117C005108D30707221F433A4099E79B4EB542CB
:10118C0038D0802636043743B846382B00DDDCE0F7
:10119C001F2B00DC30E11E004746203EF740BC46CA
:1011AC00202B04D04026F31A46469E4032431700AB
:1011BC0063467A1E97411F43CCE0002B00D104E21A
:1011CC004346134300D159E14B07C0081843802311
:1011DC00C9081B03194208D04546ED081D4204D12D
:1011EC004346D008590708432900420FC9007F4DD8
:1011FC001143C0004B07CA087C49C00803438D4209
:10120C0068D012036D05120B6D0D0021120318002E
:10121C00130B0A0D12051A43764B2D0513402B4365
:10122C005B00E4075B08234319001CBC90469946FD
:10123C00A246F0BD3E00164312D05E1E002E00D01A
:10124C0000E187188742804141444042091801253A
:10125C000B0233D5022585E7644633004146100066
:10126C001D00C7E7002D00D0DAE00C000443F3D0DA
:10127C005C1C00D19FE15D4CA64200D12FE1DB4309
:10128C00382B00DD66E11F2B00DD83E120240500F7
:10129C00E41A0F00DD40D940A0404346A7405B1A3A
:1012AC00441EA04198462F433843171ABA42924124
:1012BC0043465242991A64463500CAE607223A4020
:1012CC00002A00D0F6E64B07CA084849FF083B4302
:1012DC008D4296D11900114300D19EE18021090362
:1012EC000A431203120B414D8FE715000022002315
:1012FC008BE7002B00D0C7E06B1C5F057F0D012F27
:10130C0000DCF1E0394DAB4200D1B9E085180A00A0
:10131C00854289414244494251180722CF076D0842
:10132C002F4349083A401D00C2E607223049ED1A06
:10133C0031403A40BCE63E002838864000279FE604
:10134C00380001F0C9FC20308EE6434613431F00E1
:10135C007A1E9741C71BB84280414042091A78E671
:10136C000E003B0006431343002D61D1002E00D02C
:10137C00F4E0002B00D11BE164463900100039E782
:10138C001A4FBB427AD03300FFE630001F3DE840D5
:10139C00202B03D04021CB1A9E4037437B1E9F410C
:1013AC00072207433A400021002589E7171A4346D4
:1013BC00BA42B641591A76428E1B64464EE61F2B32
:1013CC0000DDADE020264746F61AB740B9461700B7
:1013DC00B246DF404E463E4337005646B240561E9C
:1013EC00B24117434246DA408918AEE6FF070000C7
:1013FC00FFFF7FFFFFFF0F8020264746F61AB740FE
:10140C00B9461700B246DF404E463E4337005646BB
:10141C00B240561EB24117434246DA40891A99E748
:10142C007F4CA6425BD0802424045B42214327E7F7
:10143C00002E0CD1002B00D1CBE0644639001000FB
:10144C00774DD7E6764FBB4218D0330075E6002BAC
:10145C0014D04B07C00818438023C9081B0319423A
:10146C0007D0FC081C4204D17907D0080843E14698
:10147C0021004C46420FC9001143C000684DB9E62B
:10148C001D0000220023C0E6002D5BD10D0005439A
:10149C0000D1E2E65D1C00D1B0E0614DAE421FD040
:1014AC00DB43382B71DC1F2B00DD96E020250F0071
:1014BC00ED1AAF40B9460700AA46DF404D463D4302
:1014CC002F005546A840D940451EA84188440743E3
:1014DC00BF18974292415142414435003AE6644666
:1014EC0035004146100085E60B000343002D00D06B
:1014FC0063E6002BF5D04346134300D17AE68718F8
:10150C008742804107224144404209183A400B026D
:10151C0000D4D5E6434B01351940C9E5380069E6DE
:10152C001E004746203EF740BC46202B04D04026E8
:10153C00F31A46469E403243170063467A1E974183
:10154C001F4302E6364DAE42CAD080252D045B42C5
:10155C002943A6E70843411E8841A6E6002B00D18B
:10156C0048E6871A4346B842B641CB1A76429E1BD0
:10157C0033024BD5171A4346BA429241591A52427A
:10158C00891A072264463A4092E501430F00791EFE
:10159C008F419DE71C000F00203CE740202B03D01F
:1015AC004024E31A99400843411E884138437CE6A5
:1015BC000022002425E6171A4346BA429241591AD2
:1015CC005242891A6446350043E541461000144DD9
:1015DC0010E680220024120380E61D000F00203D3F
:1015EC00EF40BC46202B03D04025EB1A9940084312
:1015FC0007006346781E87411F4369E787189742A7
:10160C009B4141445B42C9183500A3E53B00334381
:10161C00CED0072231003A4052E600231A00F4E5FE
:10162C00FF070000FFFF7FFFF0B55746DE464E4632
:10163C004546E0B5834607000E03480085B0924648
:10164C001C00360B400DCD0F002800D19DE0954BB2
:10165C00984239D08023F6001B041E43924A7B0F1C
:10166C0033439946944603006344009300230026B9
:10167C00FF00029323031B0B98466300E40F5246B2
:10168C005B0D019400D1B3E086498B4200D19EE002
:10169C004246D100802212040A435146490F11439D
:1016AC008B46814952468C4600996344CB1A0021E3
:1016BC00D20000932B0063409A460F2E00D905E10F
:1016CC007A4BB6009B599F465B463343994600D0F4
:1016DC00B8E002230826002700900293CAE7CB4605
:1016EC003A0002990195019B9A46022927D00329B9
:1016FC0000D180E2012944D06D49009B8C466344A3
:10170C001C00002C38DD530700D013E2D2085B46D6
:10171C00DB0109D55946674B19408B468021C9001E
:10172C008C46009B63441C00634B9C4207DC5B466D
:10173C0064055F075B0217431B0B620D02E000237D
:10174C000027584A00211B031C0B0B0D1B052343C0
:10175C0014055A4A380013401C4353466400DB07F7
:10176C0064081C43210005B03CBC90469946A24637
:10177C00AB46F0BD0122524201231B1B382B00DC6F
:10178C00ADE1002200230027DCE75B46334399469A
:10179C005ED0002E00D18AE1300001F09DFA0300EA
:1017AC000B3B1C2B00DD7BE11D22D31A5A4601009A
:1017BC00DA4008398E4013005F46334399468F4018
:1017CC003F4B00261B1A00930023029352E741461D
:1017DC0053460B433B499B468C46009B634400930A
:1017EC005B46002B3BD1022300221E43022161E702
:1017FC00434613439B4637D04346002B00D162E14E
:10180C00404601F069FA03000B3B1C2B00DD53E151
:10181C0002004146083A914088461D21CB1A514698
:10182C00D9400B0041460B439B46534693401A004C
:10183C00009B25499C46604403008C4663440093FE
:10184C00002137E70323B14600900C26029311E7E1
:10185C000023009301330426002702930AE7032395
:10186C00C3461E43032125E701331E4300220121F9
:10187C0020E700239A46802300271B03094A61E7CF
:10188C00802349461B03194200D1E2E05946194214
:10189C0000D0DEE00B431B0317001B0BA246014AD2
:1018AC0050E7C046FF07000001FCFFFF947C0108D5
:1018BC00FF030000FFFFFFFEFE070000FFFF0F808D
:1018CC000DFCFFFF01F8FFFFF3030000D94500D921
:1018DC00CBE000D1C6E03C0048460027009B013B12
:1018EC0000935B46160E1B021E43130298463304EC
:1018FC001B0C9946310C0191FEF7AAFC4A46424357
:10190C000B04210C050019438A4207D98919013DA2
:10191C008E4203D88A4201D9851E8919881A0199E9
:10192C00FEF796FC09048C464A4621046446424361
:10193C00090C030021438A4204D98919013B8E42C8
:10194C0000D8F1E02D041D43AB464346891A4246AC
:10195C00280C12041D0C5B46140C22001B041B0CDF
:10196C005A4303946B434443029568431B19150C6B
:10197C00EB189C4203D980246402A44660441C0CDE
:10198C0015041B042D0C20185D19814277D373D0DC
:10199C000C1AA24A7D1BAF42BF419446009B7F426A
:1019AC006344E01B1C00864200D1DBE00199FEF78A
:1019BC004FFC4A4642430B04290C070019438A4248
:1019CC0007D98919013F8E4203D88A4201D9871E53
:1019DC008919881A0199FEF73BFC09044A46894685
:1019EC0029044D464243090C030029438A4207D976
:1019FC008919013B8E4203D88A4201D9831E891969
:101A0C003F04891A3A00039F1A43380013041B0C35
:101A1C00584381460298150C6F434343454348464F
:101A2C00000C8446DB1963449F4203D9802040029A
:101A3C008446654448461F0C00041B04000C7D19A9
:101A4C001818A94200D284E000D17FE001231A4388
:101A5C0057E680234A461B0313431B031B0BAA4662
:101A6C006F4A6FE6BA4200D935E74B46DC07580897
:101A7C007B081C43FF0734E70024AF4289D247445C
:101A8C004745A4415B466442A4196418013BA64235
:101A9C001ED2A0426DD800D1B6E0241A9B4678E73E
:101AAC0003005A46283B9A400027914688E6584640
:101ABC0001F012F9203072E603005246283B9A409E
:101ACC0093460022B4E6504601F006F920309AE61F
:101ADC00A642E2D1B845DCD9341A9B4659E71F2BF4
:101AEC0065DC504C0099A4465C46614408008C406F
:101AFC0011008240D940501E82410C4314435A4677
:101B0C00DA401300620709D00F222240042A05D0C4
:101B1C002200141D9442894149425B181A0262D575
:101B2C000122002300270DE68A4200D80AE7831E13
:101B3C00891907E70F231340042B00D1E6E5171D85
:101B4C009742924153429B44FA08E0E5002800D1A9
:101B5C00D7E57118531EB14227D3A94215D358D0DB
:101B6C001A0073E7002B00DC04E6012300229B44DF
:101B7C00CDE502234744474589415B429C46494297
:101B8C0089190C19E344241A03E743465F004745BF
:101B9C009B41B8465B429E19023A8919A94200D072
:101BAC0054E7404500D051E7ABE51A00F6E71F219A
:101BBC005F4649420C1BE740202B07D01A49009B7B
:101BCC008C46634418005B4683401A43501E824186
:101BDC003A4307270023174009D00F210023114057
:101BEC001400042995D122005F075B021B0BD2085D
:101BFC0017430022A6E5802359461B030B431B0306
:101C0C0017001B0B064A9DE5BD42B2D89B4600242B
:101C1C00BFE68045B9D31A00C3E7C046FF030000F6
:101C2C00FF0700001E0400003E040000F0B54F4604
:101C3C004646D6468446C0B58046194E18030F0357
:101C4C004D00000B5C0082463F0B6D0DC90F914699
:101C5C00640DDB0F0120B5420AD0B44203D0A5427B
:101C6C0001D157450CD01CBC90469946A246F0BDFC
:101C7C0066463E43F7D1AC42F5D154461443F2D1FB
:101C8C000120C845EFD1994207D0002DEBD1634616
:101C9C001F433800471EB841E5E70020E3E7C04684
:101CAC00FF070000F0B54F464646D6464D00C0B57E
:101CBC000E03C90F8A462C491F035C008046360B65
:101CCC006D0D91463F0B640DDB0F8D421ED08C4287
:101CDC0016D0002D1ED130438446002C01D13A433E
:101CEC0023D06246002A1AD09A4529D051460220A8
:101CFC000139084001381CBC90469946A246F0BDFB
:101D0C0039001143E5D002204042F4E73043FAD1C8
:101D1C00AC420FD0002C0FD13A43E7D00CE001229B
:101D2C00013B934318000130E5E763460020002B8C
:101D3C00E1D0DBE73A43E6D19A45D7D1A542D5DCD1
:101D4C00A54205DBBE42D1D808D00020BE42D2D27B
:101D5C0050460123013898430130CCE7C845C5D81B
:101D6C000020C845F4D3C6E7FF070000F0B54F4686
:101D7C004646D6464D00C0B50E03C90F8A462E49BD
:101D8C001F035C008046360B6D0D91463F0B640DB6
:101D9C00DB0F8D4218D08C4211D0002D18D130435E
:101DAC008446002C1ED13A431CD163460020002BE4
:101DBC0030D0514602200139084001382AE0390060
:101DCC001143EAD0022025E03043FBD1AC4226D0AF
:101DDC00002C26D13A4324D1514602200139084027
:101DEC00013817E06246002A0FD09A45E1D1A5428E
:101DFC0005DBBE42DDD819D00020BE420AD25046C7
:101E0C00012301389843013004E00122013B934344
:101E1C00180001301CBC90469946A246F0BD3A43CE
:101E2C00D0D19A45C5D1A542C3DCE0E7C845C0D89E
:101E3C000020C845E3D3EDE7FF070000F0B5574697
:101E4C00DE464E464546E0B5834606000F03480085
:101E5C0087B092461D003F0B400DCC0F002800D1DF
:101E6C006FE0DE4B984238D08023FF001B041F43E9
:101E7C00730F3B430193DA4B0027994600239B4693
:101E8C00F60081442B0369001B0B52469846490D02
:101E9C00ED0F002900D185E0D04B994200D173E0C1
:101EAC004346DA0080231B0413435246CC48520F9E
:101EBC0084461343524600206144D20089442100D9
:101ECC00694000918C46012149448A460F2F00D964
:101EDC0090E0C449BF00CF59BF465B463B430193DA
:101EEC0000D06AE102230827002681469B46C9E7F9
:101EFC0032005846019B61460091022800D175E0E2
:101F0C00032800D1FEE1012800D02CE1002300279A
:101F1C00002600253F032A0D3F0BB34812053A4318
:101F2C0002401B051343009A5B00D1075B080B436F
:101F3C003000190007B03CBC90469946A246AB460F
:101F4C00F0BD5B463B43019300D12FE1002F00D144
:101F5C00A5E1380000F0C0FE03000B3B1C2B00DD9C
:101F6C0096E11D22D31A5A460100DA405E46083922
:101F7C008F4013008E403B4301939C4B00271B1A50
:101F8C00994600239B467DE7414653460B439349B4
:101F9C008C46E144002B00D01AE1022202201743A8
:101FAC0000228CE7134300D10DE14346002B00D1F6
:101FBC0081E1404600F090FE02000B3A1C2A00DD45
:101FCC0072E10100434608398B4098461D239A1A4A
:101FDC005346D3401A004346134352468A4049465F
:101FEC00081A824989468144002068E77B4B002708
:101FFC0000268EE7140C1204120C1100370C360458
:10200C00350C794328008C462E006043604483468F
:10201C0056432100300C8046584679434044029187
:10202C00844506D98846802149028C46E0444146C5
:10203C0002913604010C360C00048B4681191E0CDF
:10204C001B041B0C0391190079438C462800754323
:10205C006544A8465843050C45447743A94203D927
:10206C00802149028C466744290C8C4639000004B7
:10207C00000C2D042D186144AB4405915946049174
:10208C0001990F043F0C080C390051434243904610
:10209C0002008C46090C8B4662437C4344445C44EE
:1020AC00A04503D98021490288464244210C884628
:1020BC0061460904090C8C4639005943434370436B
:1020CC007E430F0CF6182404BE19644442448C461B
:1020DC00B34203D980235B0298464044029B61467D
:1020EC009846049B370443449B46AB45AD416B4239
:1020FC000D0405992D0C8C467F196744FD18A846D4
:10210C005D462D19A542A44193466442A446C3449E
:10211C00DC448F42BF4198459B4193459241A44575
:10212C00A4415B427F421F43360C52426442BF19AA
:10213C002243BF18624638184302D20D0399134349
:10214C006A020A43501E82416146ED0D2A434E023B
:10215C003243D90100D4B3E0012650083240024387
:10216C00DE0732435B08224C5444002C62DD5107DD
:10217C0009D00F201040042805D0101D9042924128
:10218C0052429B180200D90104D580241948E4005E
:10219C00034054441848844200DD27E75E075B0285
:1021AC00D2081F0B630516435B0DB2E6002399465C
:1021BC000133042700269B4664E6032301978146DE
:1021CC000C279B465EE6012201201743002276E68F
:1021DC00032303201F43434671E6C046FF0700005C
:1021EC0001FCFFFFD47C0108FFFF0F800DFCFFFFFB
:1021FC00FF030000FFFFFFFEFE0700000023802707
:10220C0000933F030026434B83E6019B3200A44618
:10221C00584670E6AC466EE6802701993F0339427A
:10222C002DD03B422BD11F433F033F0B0095160093
:10223C00384B6EE601252D1B382D00DD66E61F2D73
:10224C0040DC35481C005044160082408440EE406F
:10225C00501E824134431443EB40620709D00F22D5
:10226C002240042A05D02200141D94428041404291
:10227C001B181A023ED501230027002649E68027A9
:10228C00019B3F031F433F033F0B0094214B40E650
:10229C0003005A46283B9A40002601926DE65846A8
:1022AC0000F01AFD203057E603005246283B9A40B6
:1022BC001300002293E6504600F00EFD20307BE622
:1022CC00CA4650E71F201E004042041BE640202D4A
:1022DC0003D0124C5444A3401A43501E8241324343
:1022EC0007260027164009D00F20002310401400A9
:1022FC000428B9D122005E075B021F0BD2081643DB
:10230C00002306E680273F031F433F033F0B1600C5
:10231C00004BFEE5FF0700001E0400003E04000019
:10232C00F8B557464E464546DE460C000903E0B567
:10233C00490A460F5F0031431E03DB0F760A9B46AA
:10234C00530F3343C84E6500C000E40FD2006D0D2F
:10235C00A24681467F0D9C469046B74200D1B9E01B
:10236C005B46012673409B46EE1BA34500D183E0E0
:10237C00002E63DD002F00D0B1E06346134300D183
:10238C0023E1731E002B00D0BAE1861A6346B042DB
:10239C0080410125C91A4042091A0B0200D447E1B9
:1023AC0049024B0A98464346002B00D189E140462E
:1023BC0000F092FC0300083B1F2B00DD7CE1202287
:1023CC003000D21A4146D040994002009E400A4348
:1023DC009D4200DD6AE15D1B6B1C1F2B00DD94E14F
:1023EC00202110003500C91A8E40DA408840DD40AB
:1023FC00711E8E41110007222843002506433240EE
:10240C00002A09D00F233340042B05D0331DB342CF
:10241C00B641764289191E000B0200D43DE26A1CBB
:10242C00914B55056D0D9A4200D119E18F4AF60872
:10243C000A40570752023743120B9BE0002E00D084
:10244C00C5E06E1C7605760D012E00DC48E1674672
:10245C00861ACB1BB042BF417F42B8461F00434691
:10246C00FF1A3B00B8461B0200D55FE137439AD1F7
:10247C0000220024002579E0002E00DCFAE0002F79
:10248C0000D18DE0784B9D4267D0802367461B04BA
:10249C001F43BC46382E00DC52E1634613435A1EE0
:1024AC0093411E1886428041404209180B0200D409
:1024BC00BEE06D4B01359D4200D1D2E06B4A7308F2
:1024CC000A4001210E401E435108D30707221E4328
:1024DC00324095E71E00164300D045E740E7624BBB
:1024EC009D423AD0802367461B041F43BC46382EBE
:1024FC0000DDEBE01F2E00DC3AE133006746203BA9
:10250C00DF403B00202E05D04027BF1B6646BE4057
:10251C00324390464646721E96413343DAE0002B16
:10252C0000D114E26346134300D168E180234E07C7
:10253C00C008C9081B030643194208D06046C008EE
:10254C00184204D163460100D2085E071643F3001B
:10255C009946C900720F444D11434B46DE08424B5D
:10256C004F073743CA089D4200D16EE012036D0538
:10257C00120B6D0D00211203130B0A0D12051A43D9
:10258C003B4B2D0513402B435B00E4075B082343B7
:10259C00380019003CBC90469946A246AB46F8BDA3
:1025AC006346134311D0731E002B00D007E186182D
:1025BC008642804161444042091801250B0237D5FF
:1025CC0002257BE73E00614691463500C5E75C4637
:1025DC00002D00D0E1E00B000343F3D0731C00D1BD
:1025EC00ACE1214B9F4200D13AE1F343382B00DDA3
:1025FC006FE11F2B00DD8CE120250E00ED1AAE40A3
:10260C00B0460600AA46DE40454635432E005546E8
:10261C00D940A8406346451EA8415B1A9C463043EE
:10262C00161AB242924163465242991A3D00B4E6E0
:10263C0007223240002A00D0E4E60B4BF6084F0785
:10264C003743CA089D4200D090E73B00134300D1AA
:10265C00A6E180231B031A431203120B024D89E7D8
:10266C0015000022002785E7FF070000FFFF7FFF12
:10267C00FFFF0F80002E00D0C7E06B1C5E05760DAF
:10268C00012E00DCF0E0C84DAB4200D1B9E085185A
:10269C000A00854289416244494251180722CE07FB
:1026AC006D082E43490832401D00A9E6BF49ED1ABA
:1026BC00114007223240A3E632002838824000261F
:1026CC0086E6300000F008FB203073E663461343C7
:1026DC005A1E9341C61AB04280414042091A5CE628
:1026EC000E00674606431743002D5ED1002E00D026
:1026FC00F3E0002F00D11EE15C46614691462CE7C9
:10270C00A94FBE427BD01E00F1E610001F3DE840F1
:10271C00202B03D04021CB1A9A401643731E9E41A6
:10272C000722064332400021002583E7161A634630
:10273C00B2428041591A40420B1A98465C4632E626
:10274C001F2E00DDABE02027BB1B9A466346574685
:10275C00BB40994613004F46F3401F433B0057467E
:10276C00BA40571EBA4113436246F240891898E6A4
:10277C002027BB1B9A4663465746BB40994613001D
:10278C004F46F3401F433B005746BA40571EBA41D1
:10279C0013436246F240891A9CE7834B9F425FD0F9
:1027AC0080252D047342294320E7002E0CD1002FE5
:1027BC0000D1D0E05C46614691467B4DCDE67A4F28
:1027CC00BE421CD01E0065E6002F18D0C0084E0774
:1027DC0006438020C9080003014208D06346DC0888
:1027EC00044204D12100DA46D2085E071643F300F6
:1027FC00994601245346C900720F11431C406A4D7F
:10280C00ABE61D0000220027B4E6002D59D10B00C9
:10281C00034300D1D6E6731C00D1B2E0624B9F4259
:10282C001ED0F343382B6FDC1F2B00DD97E02025E7
:10283C000E00ED1AAE40B0460600AA46DE404546F4
:10284C0035432E005546A840D940451EA8418C441E
:10285C000643B61896429241514261443D0025E62A
:10286C003D006146914678E60B000343002D00D0F5
:10287C0055E6002BF5D06346134300D16DE6861860
:10288C008642804161444042091800220B0200D468
:10289C00D0E6464B01351940B2E5B1465DE6330052
:1028AC006746203BDF403B00202E05D04027BF1B56
:1028BC006646BE40324390464646721E96413343AE
:1028CC00EFE5394B9F42CBD080252D047342294331
:1028DC00A8E70843411E8841A2E6002F00D13CE640
:1028EC006346861ACF1AB0429B415B42FB1A98464C
:1028FC001B024ED5161A6346B2429241591A5242E5
:10290C00891A5C4600227BE501430E00711E8E4144
:10291C009FE71D000E00203DEE40B046202B04D05A
:10292C004025EB1A99400843814648464346411ED0
:10293C008841184374E60022002417E6161A6346F1
:10294C00B2429241591A5242891A3D0025E561461C
:10295C009146154D01E680220024120379E61D00F4
:10296C000E00203DEE40B046202B04D04025EB1A43
:10297C009940084381464E464346711E8E411E4384
:10298C0067E7861896429B4161445B42C9183D003B
:10299C008CE547463743CED007224146324049E6C4
:1029AC0000273A00E6E5C046FF070000FFFF7FFF67
:1029BC0070B50C4E0D031C0349005B002D0B490D2B
:1029CC00240B5B0DB14208D0064900208B4203D189
:1029DC0014432000441EA04170BD05430120002D6E
:1029EC00FAD1F1E7FF07000030B5144D0A034B0094
:1029FC00120B5B0DC90F0024AB4211DD104CA3422E
:102A0C0010DC8024640322430E4CE41A1F2C0CDDD2
:102A1C000D48C31ADA4013005C42002900D11C0097
:102A2C00200030BD094BCC18FAE7094DE040AC460C
:102A3C0063449A4013000343EEE7C046FE030000D4
:102A4C001D0400003304000013040000FFFFFF7F8F
:102A5C00EDFBFFFF70B500282DD0C317C5185D40E6
:102A6C00C40F280000F038F9154B1B1A5B055B0DE1
:102A7C000A2815DD0B38854000222D032D0B002173
:102A8C0010002D030A0D2D0B12052A430D4D1B05AD
:102A9C002A4013435B00E4075B082343190070BD15
:102AAC0002002900153291400A000B21081AC5407A
:102ABC002D032D0BE3E70024002300250022DEE785
:102ACC001E040000FFFF0F8010B5041E25D000F07F
:102ADC0003F9144B1B1A5B055B0D0A2812DD0B382E
:102AEC00844000222403240B0021100024030A0D2F
:102AFC00240B120522430C4C1B05224013435B0094
:102B0C00590810BD02002100153291400A000B211A
:102B1C00081AC4402403240BE6E7002300240022F7
:102B2C00E2E7C0461E040000FFFF0F804100090EC3
:102B3C004B1C70B5DBB24602750AC40F012B14DDB9
:102B4C00E0239B006D07360BCB1800210A0D2800E3
:102B5C0012051C4D32435B052A405B0813435B0096
:102B6C00E4075B082343190070BD002914D1002D24
:102B7C001ED0280000F0B0F80A281CDC0B232A0019
:102B8C001B1ADA40030015339D400F4B12031B1A1E
:102B9C005B05160B5B0DD8E7002D06D0320B80269B
:102BAC0036036D071643094BCFE7084B0026CCE7DD
:102BBC0000230026C9E703002A000B3B9A4000259E
:102BCC00E3E7C046FFFF0F8089030000FF0700000A
:102BDC00F0B54C00640D0B03621C5B0A460F5205EA
:102BEC00C90F1E43C500520D012A29DD374BE718CA
:102BFC00FE2F1CDC002F3BDD8001431E9841072279
:102C0C00F3006D0F03432B431A40002A04D00F220C
:102C1C001A40042A00D004338022D2041A4024D053
:102C2C000137FAB2FF2F02D09B01580A01E0FF22B4
:102C3C0000204002D205400AC90710430843F0BDEA
:102C4C003543002C04D1002D0AD100220020F0E7DE
:102C5C00002DECD08020C0033043FF22E9E7002494
:102C6C0000235B02580AE2B2E3E7DB083C00F8E71A
:102C7C003B001733F3DB80231B0433431E26F61B68
:102C8C001F2E14DD02225242D71B1A00FA401700E5
:102C9C00202E04D00E4A94466444A3401D432B00BE
:102CAC005D1EAB4107223B431A400027ADE7094AA2
:102CBC002800A218954093406C1EA541F0400722B5
:102CCC002B4303431A4000279FE7C04680FCFFFFBD
:102CDC00A2FCFFFF82FCFFFF1C2101231B04984276
:102CEC0001D3000C10391B0A984201D3000A083991
:102CFC001B09984201D30009043902A2105C401848
:102D0C007047C046040302020101010100000000EB
:102D1C000000000010B5002903D1FFF7DDFF2030C3
:102D2C0002E0081CFFF7D8FF10BDC046F0B583B019
:102D3C0006000F0015001C000AF08EFC002820D0A5
:102D4C00B300144A985821000AF044FE002803D11D
:102D5C0000240123019310E00123019313E03000C0
:102D6C000AF07AFC012239000FF049F80190013782
:102D7C0002200CF00BFD0134E4B2A3B2AB42EED353
:102D8C0001E0012301930A200CF000FD019803B02F
:102D9C00F0BDC046CC68002070B582B0204B1B88BB
:102DAC009BB2204A93420BD01A0A1F490A7002D1D7
:102DBC000A00012111701D4A13700124022023E026
:102DCC00194B01221A70194B00221A70FA2024E0B8
:102DDC00134BC318651E6A46D1791E88AB005B196C
:102DEC005B005B19CB185B001149CE52023080B2EC
:102DFC00D3790133DBB2D3716B4607331B78DBB26B
:102E0C000A2BE5D90134E4B2074B1B78A34203D358
:102E1C006B460022DA71EFE7002002B070BDC046AD
:102E2C0000D80108FFFF000008000020980A0020CD
:102E3C00D40E002070B50124002501E00134E4B269
:102E4C00084B1B78A3420BD3611E4900064BC918D3
:102E5C00601C08F0E3F9A31C1B2BEFDD0A25EDE742
:102E6C00280070BD08000020586D0020F0B583B01C
:102E7C006B460022DA800026002523E06B469F1D5E
:102E8C0028001C3080B2390008F0C8F93988124A81
:102E9C00B3009F19780010180155671E090A9B1979
:102EAC0058001218D1550135ADB20234E4B2092CD8
:102EBC00E4D9B3009B195A00074B9B1800225A7295
:102ECC000136F6B2054B1B78B34201D30124EEE771
:102EDC00002003B0F0BDC046C40D00200800002047
:102EEC00F0B583B06B460022DA80002400250CE09C
:102EFC0021496200043189182800CB3080B208F0D7
:102F0C008DF90135ADB20134E4B21C4B1B78A342F0
:102F1C00EED8002628E06B469F1D2800993080B221
:102F2C00390008F07BF93888134B3827B1008A191F
:102F3C0052009A181219D055621E9446000A8A192A
:102F4C0051005B186344D8550135ADB20234E4B27C
:102F5C00092CE0D9B20092195100074B5B18413390
:102F6C0000221A700136F6B2092E01D80124EFE7BF
:102F7C00002003B0F0BDC046980A002008000020D5
:102F8C0070B584B00E21694400230B8003AA138012
:102F9C00E42008F043F9002800D076E00E236B44BF
:102FAC001E780E216944E52008F038F9040003A9C5
:102FBC00E62008F033F90443A4B2002C00D066E0FC
:102FCC000E236B441D882D0403AB1B88ED180E21BA
:102FDC006944E72008F022F9040003A9E82008F06E
:102FEC001DF90443A4B2002C53D10E236B441C884E
:102FFC00240403AB1B88E4180E216944E92008F073
:10300C000DF9002806D10E236B441A88110A2C4B9B
:10301C0019775A770E216944EA2008F0FFF8002846
:10302C0006D10E236B441A88110A254B9977DA774F
:10303C000E216944EB2008F0F1F8002808D10E238A
:10304C006B441A88100A1E4B2021585401315A54D3
:10305C001B4B1B7F002B03D0194A527F002A1AD11D
:10306C00174B9B7F002B03D0154AD27F002A19D116
:10307C00134A2023D35C002B04D0110021228A5C3C
:10308C00002A16D1002004B070BD002689E7002567
:10309C009DE70024B0E7009222002900300004F0E4
:1030AC0053FDDDE7009222002900300004F04CFDB6
:1030BC00DEE7009222002900300004F045FDE1E734
:1030CC00180B002010B582B08A206B46991D400069
:1030DC0008F0A4F8002800D077E06B4606331B8874
:1030EC00564A13701B0A53708E206B46991D400074
:1030FC0008F094F8002800D06EE06B4606331B886D
:10310C00D90B4E4A11715B08D38016206B46991D62
:10311C00FF3008F083F8002800D064E06B46DA88B2
:10312C00474B1A808B206B46991D400008F076F8AF
:10313C0000285DD16B46DA88414B5A8018206B46CB
:10314C00991DFF3008F06AF8002856D16B460633FB
:10315C001B883B4A13711B0A53718C206B46991DBB
:10316C00400008F05BF804001A2001A9FF3008F0B9
:10317C0055F80443A4B2002C46D16B4606331B8889
:10318C0001AA1288120413432D4A93608D206B46BA
:10319C00991D400008F042F8002844D16B460633D4
:1031AC001B88274A13731B0A53731C206B46991DEB
:1031BC00FF3008F033F800283BD0224A2623D25C9B
:1031CC001F4B9A76002002B010BD1E4A11791B4B82
:1031DC00197052795A7087E71A4A117A174B19717C
:1031EC005289DA8091E7174B9A89154B1A8099E727
:1031FC00144BDA89124B5A80A0E7124A117C104BFF
:10320C001971527C5A71A8E70F4A2223D35C002B08
:10321C0004D00B4BE12252029A60B7E7094B5A6972
:10322C00074B9A60B2E7064B18225A7300221A73A6
:10323C00BBE76B469A79024B9A76C3E7C8670020C6
:10324C004868002008000020180B0020F0B589B059
:10325C001E236B4400221A80002401E00134E4B2E6
:10326C00052C54D825003B35AD00ADB21E21694468
:10327C00280007F0D3FF0028F0D11E236B441988D7
:10328C000B0A1809621C9042E8D10F200340E5D0CC
:10329C00D700BA181F4FBF187B7039721E266E44A8
:1032AC00681C80B2310007F0B9FF33881A0ABA7073
:1032BC007B71A81C80B2310007F0B0FF33881A0A6A
:1032CC00FA70BB710335A8B2310007F0A7FF338841
:1032DC001A0A3A71FB71651CEDB27878290008F076
:1032EC003FFC397A4A08BB7801200240014000209B
:1032FC000590F8790490B879039078790290387930
:10330C000190F8780090280008F044FDA6E7002012
:10331C0009B0F0BDA4230020F0B5D6464F4680B5C9
:10332C0083B032200FF0ECFA071E65D0364B1B78B9
:10333C00FE2B63D10026344C4BE02278FA54013337
:10334C00DBB20134132BF8D9B246B3009B199A00A7
:10335C002E4B91469944791C142248460FF01DFDC2
:10336C001422002138000FF021FD002503E07A55CE
:10337C0001340135EDB201942278931CDBB2012BA0
:10338C0001D9312DF3D97B19013B1B78002B01D0CE
:10339C000135EDB228000FF0B3FA53469B005344AD
:1033AC009A001A4B9B18D860002816D02A003900B6
:1033BC000FF0F3FC164A1378013313702A00002126
:1033CC0038000FF0F3FC019B1B78FE2B0FD101365C
:1033DC00F6B2042E0BD80023B4E714220021484681
:1033EC000FF0E4FC38000FF095FA0E2007E03800DF
:1033FC000FF090FA002002E0FB2000E0FF2003B069
:10340C000CBC91469A46F0BD00DC010864680020B3
:10341C00D416002010B5FFF7BFFCFFF70BFDFFF72C
:10342C0025FDFFF75DFDFFF7ABFDFFF74BFEFFF74B
:10343C000DFFFFF771FF10BD70B50124002605E0EC
:10344C00601C07F09DFF0CE00134E4B2084B1B78C4
:10345C00A3420BD32500631E5B00064A995A002930
:10346C00EED102351B2DEFDD0A26EDE7300070BDE5
:10347C0008000020586D0020F8B50026002517E044
:10348C00601EBA00D2195100114B5B18195C09026D
:10349C001B5DC91889B228001C3080B207F070FF80
:1034AC000135ADB20234E4B2092CE9D90136F6B2D9
:1034BC00084B1B78B34209D33700B3009B195A0051
:1034CC00034BD35C002BF1D00124EDE70020F8BDB9
:1034DC00C40D002008000020F8B5DE4657464E46C5
:1034EC004546E0B50F00160099460AAB1B789B4683
:1034FC000BAB1D780CAB1B789A460DAB1C780EAB46
:10350C001B78984681B2E42007F03AFF390A89B259
:10351C00E52007F035FFB9B2E62007F031FF310A9C
:10352C0089B2E72007F02CFFB1B2E82007F028FFA2
:10353C004B461902594489B2E92007F021FF2D02AC
:10354C005544A9B2EA2007F01BFF24024444A1B25F
:10355C00EB2007F015FF00203CBC90469946A24694
:10356C00AB46F8BD10B51F4C63785B01217819434D
:10357C008A20400007F004FF2379DB030622A15EBA
:10358C00194389B28E20400007F0FAFE164C2188B0
:10359C001620FF3007F0F4FE61888B20400007F006
:1035AC00EFFE63791B02217B19431820FF3007F0D3
:1035BC00E7FE21898C20400007F0E2FE61891A2089
:1035CC00FF3007F0DDFE637B1B02217919438D2050
:1035DC00400007F0D5FEA17E1C20FF3007F0D0FE86
:1035EC00002010BDC86700204868002070B5342248
:1035FC0000210F480FF0DAFB0124002605E0601CC7
:10360C0007F0BEFE0CE00134E4B20A4B1B78A34277
:10361C000BD32500631E5B00054A995A0029EED195
:10362C0002351B2DEFDD0A26EDE7300070BDC046DC
:10363C00586D00200800002010B5064B1A68064B88
:10364C009A4206D007F0B2FE002802D1014B024A82
:10365C001A6010BDF07F0020ADDEEFBE70B58EB0ED
:10366C0012256D4404AB009307AB2A0008A9012076
:10367C0008F022F903AC009405AB0E226A4406A9AB
:10368C00022008F019F901230A9300260B962B88C7
:10369C00099309A908980DF0DFFA0A9602230B93F7
:1036AC002388099309A905980DF0D6FA29880022D8
:1036BC0008980DF022FC052009F0D6FD218805980C
:1036CC000DF014FC002802D000200EB070BD1223A7
:1036DC006B441988012208980DF00FFC052009F0A5
:1036EC00C3FD03AB198805980DF000FC0128ECD044
:1036FC000020EAE770B505000024002C01D0002062
:10370C0070BD63001B199A00064B9B189968280022
:10371C00FCF7F2FC002802D00134E4B2EDE70134EE
:10372C00E0B2EDE79400002070B50400002501E044
:10373C000135EDB2052D25D818492000FCF7DCFC2D
:10374C00002821D016492000FCF7D6FC00281DD0FB
:10375C0014492000FCF7D0FC002819D01249200095
:10376C00FCF7CAFC002815D010492000FCF7C4FC5B
:10377C00002811D00E492000FCF7BEFC0028D7D140
:10378C00062000E0002070BD0120FCE70220FAE7D3
:10379C000320F8E70420F6E70520F4E7147D010880
:1037AC00187D01081C7D0108207D0108247D01087D
:1037BC00287D010810B509F00FFC09F0ADFC07F0ED
:1037CC0059FE08F043F806F0FBFD09F0D9FC07F0B0
:1037DC0033FC09F007FD08F0DBF8002812D1FFF7E5
:1037EC003DFF002853D0354A22230121D1543220E9
:1037FC0009F03AFD06F01EFD314BE12252029A60AF
:10380C00012411E0FFF718FFBFF34F8F2D4B2E4A09
:10381C00DA60BFF34F8FC046FDE7294B9968200053
:10382C0009F086FF0134E4B2052CF6D9FFF7F2FD5E
:10383C000AF00AF807F068FB244B1B78002B2CD0FD
:10384C009024E4050122402120000DF056FBFA20C3
:10385C00400009F009FD0022402120000DF04DFB35
:10386C00642009F001FD0122402120000DF045FBF0
:10387C00642009F0F9FC0022402120000DF03DFBF2
:10388C0003F008FE0D4A23230121D15410BD322030
:10389C0009F0EAFC06F0CEFCC8E79024E40501220E
:1038AC00402120000DF029FBFA20400009F0DCFC3F
:1038BC000022402120000DF020FBE1E7180B002036
:1038CC004868002000ED00E00400FA05980A00208A
:1038DC0010B50BF03DFF06F0E3FAFFF76BFF03F0BA
:1038EC00F9FD0AF054F810BD30B583B00500012481
:1038FC0001E00134E4B2052C16D8AC42F9D00C4BE3
:10390C001A8D100A0B4B2421585424335A709C7076
:10391C0003230093073300220021200004F028FA2F
:10392C000A200AF039F8E4E7002003B030BDC046A5
:10393C0008000020180B0020F0B5DE4657464E4616
:10394C004546E0B583B000AF484B1B780733DB0826
:10395C00DB006A46D31A9D466D46002308E0002121
:10396C00E9545C00424A1219542411530133DBB25E
:10397C003E4A12789342F2D3013801232B54012290
:10398C0001E00132D2B2062A1BD883001B185B005F
:10399C001B189B185B0037495B5A002BF1D0511E4A
:1039AC0001268E4054218C46440031490919644645
:1039BC000C5B344366468C53DB08013B0221E95413
:1039CC00DFE702239B465E460136F3B29B4600239B
:1039DC009C46002031E00132D2B2062A2BD8A3003B
:1039EC001B195B001B199B185B0022495B5A002BAF
:1039FC00F1D0DB08013B7B60E95C0029EBD11100C5
:103A0C00013901268E40B246542189466100184E78
:103A1C00B0460B0043444E469E5BB046564641466C
:103A2C000E4349465E525B4679686B5463460133DC
:103A3C00DBB29C46CFE70130C0B20C4B1B789842EE
:103A4C0007D204002A5C5B46013B9A42F3D1012267
:103A5C00C3E76346002BB6D10020BD4603B03CBC87
:103A6C0090469946A246AB46F0BDC04608000020E1
:103A7C00180B0020D40E002070B50B78002B03D14E
:103A8C0004780023002602E0FF24FAE70133074AFA
:103A9C0012789A4208DDC25CA242F7D2CD5C002DAE
:103AAC00F4D1DEB21400F1E7300070BD0800002044
:103ABC000023012202E0C15C0A400133024909786B
:103ACC009942F8DC1000704708000020F0B58FB068
:103ADC0005000E003222002101A80FF067F91A220E
:103AEC0000214D480FF062F92A00013D4B4B5B1948
:103AFC000021197224201954233800E001300628C3
:103B0C0017DCAB005B195B005B191B185B004449AD
:103B1C005B5A002BF2D0DB08B1B28B42EED1721E95
:103B2C003E4B9B1801221A723B4B1E70C0B20FB059
:103B3C00F0BD012300E001333A49097899420ADBD0
:103B4C009A42F8D0581E35490918FF200872DB3804
:103B5C0000240C54EFE7002401A8FFF7A9FF00286C
:103B6C000DD12E4801A90830FFF786FF0130C4B2F1
:103B7C00B44204D0611E01AB01225A5403E000216F
:103B8C0028E00132D2B2062AE6D88B005B185B0023
:103B9C005B189B185B0022481B5A002BF1D0DB08EA
:103BAC00DBB2013B01A8C05C0028EAD11B4F78189E
:103BBC00007A0130C0B2FF183F7A8742E1D9174F23
:103BCC00FB18187224201C54DBE74B1C124A54546B
:103BDC00D9B20400621E114B9B182422985C002859
:103BEC00F3D1233A00E00132062AA0DCAB005B19CA
:103BFC005B005B199B185B0009495B5A002BF2D0E8
:103C0C00DB08741E05490919097A0139024C615CFB
:103C1C008B42E8D1D0B28AE710690020980B0020C3
:103C2C00D40E002008000020F0B585B004000390ED
:103C3C00584D4035584B2A0043CB43C219001B68E2
:103C4C0013608B8893802800FCF760FA82B2012302
:103C5C005B42009333332900200009F01BFD012542
:103C6C0014E04C4E40362A004C4930000FF098FAC4
:103C7C003000FCF74BFA82B201235B4200933333E2
:103C8C003100039809F006FD0135EDB2052DE8D998
:103C9C0001235B420093333303224149039809F01B
:103CAC00F9FC002434E007231340D20839483D497D
:103CBC0040300FF075FA374E40363000FCF726FADC
:103CCC0082B201235B42009333333100039809F035
:103CDC00E1FC0135EDB2052D0FD8BB00DB195B0003
:103CEC00DB195B195B00304A9A5A002ADBD1294850
:103CFC002E4940300FF054FADDE701235B4200936C
:103D0C00333302222A49039809F0C4FC0134E4B28B
:103D1C00284B1B78A34231D92700621C1D4D40351E
:103D2C00254928000FF03CFA2800FCF7EFF982B285
:103D3C0001267642009632232900039809F0AAFC4A
:103D4C0016236343184A9A5A53009B1859001B4B6D
:103D5C00C918052228000FF078FA009632230522A4
:103D6C002900039D280009F095FC009632230122BE
:103D7C001349280009F08EFC0125ACE701235B42B6
:103D8C000093333301220F49039809F083FC05B0EB
:103D9C00F0BDC046980B00202C7D0108407D010829
:103DAC002C8C0108587D0108D40E0020547D01088C
:103DBC00647E010808000020487D01085476010843
:103DCC003C7D010840960108F0B583B005002E4CEF
:103DDC0040342E4923000A0043CA43C343CA43C399
:103DEC0012681A602000FCF791F982B201235B4241
:103DFC00009333332100280009F04CFC012624E009
:103E0C000134E4B20A2C1ED8731E5B00204A9A5A65
:103E1C00611E80231B020B411342F1D01A4F403715
:103E2C00230032001B4938000FF0BAF93800FCF7B8
:103E3C006DF982B201235B420093333339002800C1
:103E4C0009F028FCDCE70136F6B2134B1B78B342C1
:103E5C0001D30124D6E70C4C4034104923000A004E
:103E6C0043CA43C343CA43C303CA03C32000FCF77A
:103E7C004DF982B201235B420093333321002800B9
:103E8C0009F008FC03B0F0BD980B0020607D010820
:103E9C00586D00207C7D010808000020907D0108F1
:103EAC00F0B5C64600B584B0070009F095FE0400D5
:103EBC00002303709A4B1A789A4D40359A49280082
:103ECC000FF06EF9290020000FF08AF9974B1A7C3D
:103EDC00974928000FF064F9290020000FF080F9B1
:103EEC0006230093043B0022924928000FF058F956
:103EFC00290020000FF074F98F4A904928000FF028
:103F0C004FF9290020000FF06BF98D4A8D492800DC
:103F1C000FF046F9290020000FF062F98A4B2A00B5
:103F2C0043CB43C219001B6813608B8893808B7939
:103F3C009371290020000FF053F9012510E0794905
:103F4C000A004032814B18680864998891809B79EB
:103F5C0093717449403120000FF042F90135EDB2F4
:103F6C00052D41D86F4E40362A00794930000FF0AC
:103F7C0017F9310020000FF033F96C4B5B191B7DE6
:103F8C00042BE6D89B00734AD3589F46654B4033AD
:103F9C007148010045C945C31A0009C909C20B780B
:103FAC001370D6E75F4B40336C4A43CA43C3D0E728
:103FBC005C4940316A480B00020043CA43C343CA00
:103FCC0043C312881A80C4E75649403165480B0038
:103FDC00020043CA43C343CA43C3116819609188A2
:103FEC00998092799A71B4E74E4940315E480B0042
:103FFC00020061CA61C361CA61C320000FF0F0F80E
:10400C0001260CE0474D40353200584928000FF08E
:10401C00C7F8290020000FF0E3F80136F6B2062E9F
:10402C0023D8751EEB005B1BDA00514BD358002BC9
:10403C00E8D0EB005B1BDA004D4B9B18586A06F07E
:10404C001DF90390AD004B4BE85806F017F9354DB0
:10405C0040350090039B3200474928000FF0A0F830
:10406C00290020000FF0BCF8D7E72000FCF74EF831
:10407C002018032241490EF090FE2000FCF746F870
:10408C0020181D223E490EF088FE2000FCF73EF859
:10409C008046012501E00135EDB2052D17D8204BE6
:1040AC001B78013B5B00374A9A5A691E80231B021E
:1040BC000B411342EFD01B4E40362A0032493000E0
:1040CC000FF06EF8310020000FF08AF8E3E72000C3
:1040DC00FCF71CF843461B041B0C98420DD0200027
:1040EC00FCF714F82018032224490EF056FE002F7A
:1040FC0009D104B004BC9046F0BD20180522234918
:10410C000EF04BFEEBE72000FCF700F882B2012327
:10411C005B42009333332100380009F0BBFAE8E727
:10412C00980A0020980B0020B07D0108180C002084
:10413C00CC7D0108E87D0108087E0108147E010889
:10414C002C7E0108387E0108547E0108707E01081F
:10415C00687E0108A8750108787E0108907E010828
:10416C009C7E0108B87E0108D87E0108F07E01080B
:10417C0058200020501800200C7F0108647E010894
:10418C003C7F0108586D00205C7F0108647F0108AA
:10419C0070B505002A49FBF7AFFF00280AD0294962
:1041AC002800FBF7A9FF002845D02E78232E04D039
:1041BC00002416E0244B187870BD681C0EF063FBCD
:1041CC00C0B2002803D0214B1B78834205D21E4B72
:1041DC001C78844231D120B2EEE700B2ECE7013416
:1041EC00E4B21A4B1B78A3420DD9A3001B1959003A
:1041FC00174BC9182800FBF77FFF0028EFD1002EC2
:10420C00EDD020B2D8E70026092E12D80E49B30003
:10421C009B195A00383189182800FBF76DFF0028CC
:10422C0002D00136F6B2EFE73402FE20204300B292
:10423C00C2E76420C0E7FF20BEE76620BCE7C046AB
:10424C006C7F0108707F0108980A0020080000208C
:10425C00C40D0020F8B506000D000024032C09DC69
:10426C00A3002A49C9182800FBF746FF002844D0B0
:10427C000134F3E70124264B1B78A3420BDDA3008A
:10428C001B195900234BC9182800FBF735FF0028D0
:10429C0035D00134EFE70024092C0CDC1E49A300B7
:1042AC001B195A00383189182800FBF725FF002804
:1042BC0027D00134F0E7194B194ADA61174BDC6946
:1042CC00002C0FD023681F683800FBF71FFF02007B
:1042DC00390028000EF0A8FF002814D062680F4B9C
:1042EC00DA61EBE7B3009E1970000A4BC018290085
:1042FC000EF092FFFFF7C0F802E0062000E0072066
:10430C00F8BD0720FCE70820FAE7C0460476010850
:10431C0008000020C40D0020980A0020180C002072
:10432C00BC000020F8B505000C000026092E16DC98
:10433C003949B3009B195A00383189182000FBF712
:10434C00DBFE002801D00136F0E7013D0122B2402E
:10435C006B00314DED18AB881343AB80F8BD0026D4
:10436C00032E09DCB3002D49C9182000FBF7C4FE4D
:10437C0000284CD00136F3E70126294B1B78B342B9
:10438C000BDDB3009B195900264BC9182000FBF715
:10439C00B3FE00283DD00136EFE7234B234A1A62C7
:1043AC0002E07268204B1A621F4B1E6A002E21D04D
:1043BC0033681F683800FBF7A9FE020039002000A3
:1043CC000EF032FF0028ECD10820C7E71248B200EB
:1043DC00921951003830401821000EF01DFF013D9C
:1043EC000122B2406D000C4B5D19AB881343AB80BE
:1043FC000020B3E7092EF2DCB3009B195A00064BE0
:10440C009B1838229B5C002BE0D00136F2E706208B
:10441C00A4E70720A2E7C046980A0020047601080A
:10442C0008000020C40D0020180C0020BC00002047
:10443C00F0B5C64600B582B0009008AD10CD2D7811
:10444C00954E3778002C14D020203070002D14D0CD
:10445C0022200190914DAA4200D987E0904D24264C
:10446C00AA5524356B70082B13D89B008D4AD35852
:10447C009F46894E00203070E8E720200190E9E744
:10448C000A78874B24339A7003222021009803F07A
:10449C00C3FE814B1F70002C00D0ECE0002002B05A
:1044AC0004BC9046F0BD0A787D4B24339A700322ED
:1044BC002021009803F0B0FEEBE70A88784B2433F8
:1044CC009A700A88120ADA7004222021009803F0EC
:1044DC00A3FEDEE70B88724A243293700B881BB262
:1044EC001B12D37004222021009803F095FED0E714
:1044FC000A686B4B24339A700A68120ADA700A68DD
:10450C00120C1A710A68120E5A7106222021009898
:10451C0003F082FEBDE70A68614B24339A700A6887
:10452C001212DA700A6812141A710A68120E5A7191
:10453C0006222021009803F06FFEAAE70A78584B58
:10454C0024339A704A78DA708A781A71CA785A7158
:10455C000A799A714A79DA718A791A72CA795A7215
:10456C000A222021009803F057FE92E74C4D24209C
:10457C00844600208046604646462E5424356B7097
:10458C00100EA870100CE870100A28716A71082BB4
:10459C0000D97EE79B00444AD3589F460A78404B8B
:1045AC0024339A7107220199009803F035FE70E7C5
:1045BC000A783B4B24339A7107220199009803F037
:1045CC002BFE66E70A88364B24339A710A88120A46
:1045DC00DA7108220199009803F01EFE59E70B8846
:1045EC002F4A243293710B881BB21B12D3710822F1
:1045FC000199009803F010FE4BE70A68284B24330E
:10460C009A710A68120ADA710A68120C1A720A682C
:10461C00120E5A720A220199009803F0FDFD38E738
:10462C000A681F4B24339A710A681212DA710A68ED
:10463C0012141A720A68120E5A720A220199009800
:10464C0003F0EAFD25E70A78154B24339A714A7872
:10465C00DA718A781A72CA785A720A799A724A7915
:10466C00DA728A791A73CA795A730E2201990098F0
:10467C0003F0D2FD0DE70BF083F805000B4A242361
:10468C00D35C002B04D00BF07BF8401BA042F5D37D
:10469C00064A2423D05C02E7C8670020FFFFFF070F
:1046AC00180B0020BC750108E0750108180C0020DF
:1046BC0030B583B01E200EF023F904001E22002119
:1046CC000EF074FB09490A7D013A8B7D487D0D8BF8
:1046DC00074992008A1812692C310195009020002C
:1046EC000EF05EFD200003B030BDC04648680020CF
:1046FC000476010800B585B00A00074B1978012330
:10470C000393023B02930193033300930B0003F0DA
:10471C00A9FD05B000BDC046980A002030B587B091
:10472C0004000D0000230493039302930193009360
:10473C00002200210020FEF7CFFE621ED3009B1A40
:10474C00DA00154BD258002A07D0691ECB005B1A31
:10475C00D900114BCB58002B0ED1002A15D16A1E53
:10476C00D3009B1ADA000C4BD358002B12D0280024
:10477C0006F010FC002006E0200006F00BFC2800E0
:10478C0006F008FC002007B030BD200006F002FC4B
:10479C000020F8E76820F6E758200020F8B507005D
:1047AC00002501E0347001357E193478002C09D0D5
:1047BC000EF098F80019427803231340012BF1D125
:1047CC002034EFE7F8BD0000F0B5C64600B588B060
:1047DC000500D84B1C78052C00D10DE2D648A3005F
:1047EC001A19910000220A54401842700230043207
:1047FC0000210EF0DBFA2B78622B02D1AB782E2B3A
:10480C0050D0CC4C0434290020000EF005FDCB4DCB
:10481C00290020000FF080FB0400290000200FF07D
:10482C007BFB0600290000200FF076FB0500002C16
:10483C0000D1E8E12000FEF75DFF041E02D0002E3F
:10484C0000D1ABE1002E00D1DFE1002D00D1DEE183
:10485C002800FEF74FFF002800D1B0E1B54B1978C6
:10486C00B54A8B005F18BD000427AF545519EC7086
:10487C00E871B04D2C783000FEF756FFAE4AA1001F
:10488C0009198B00D31858702B789900C918880017
:10489C0012185278002A00D1BBE10133A54A1370DB
:1048AC000020AAE16E78303EF6B2052E00D9A8E1C0
:1048BC00A14BA200101981000120C8545B180022E2
:1048CC005A709E70EF1C07329D4938000EF0ACFCFC
:1048DC00002822D1A3001C19A200974B9B1805227B
:1048EC00DA70F2009219974B9B181B7ADB0705D5EF
:1048FC000020904A1378013313707EE10123059355
:10490C00002304930393029301930093002201214B
:10491C00300007F03FFA0020EBE70E228A493800FE
:10492C000EF082FC00281ED1A3001C19A200824BA1
:10493C009B180622DA70F2009219824B9B181B7A94
:10494C009B0701D50020D4E7012305930023049392
:10495C00039302930193009301220021300007F08E
:10496C0019FA0020C5E70C22784938000EF05CFCDF
:10497C0000287BD1F2009219724B9B189B78002B6C
:10498C000FD0F20092196F4B9B18DB78002B29D0BB
:10499C00F20092196B4B9B181B79002B44D00C2006
:1049AC00A7E7654FA3001C19A300FB180922DA70B6
:1049BC0028000F300DF061FF5E4B1978C3B28A00EE
:1049CC00521891007F183B7101220592002204922B
:1049DC0003920292019200920021300007F0DAF962
:1049EC00002086E7544FA3001C19A300FB180A22D1
:1049FC00DA7028000F300DF040FF4E4B1A78C0B221
:104A0C0093009B189A00BF1838710123059300235B
:104A1C000493039302930193009000220021300031
:104A2C0007F0B8F9002064E7434FA3001C19A3005A
:104A3C00FB180B22DA7028000F300DF01EFF3D4BD7
:104A4C001A78C0B293009B189A00BF1838710123D2
:104A5C000593002304930393029301900093002287
:104A6C000021300007F096F9002042E70D2238496A
:104A7C0038000EF0D9FB002800D08DE0F20092191E
:104A8C00304B9B185B79002B0FD0F20092192D4BF9
:104A9C009B189B79002B2AD0F2009219294B9B185A
:104AAC00DB79002B56D00D2023E7234FA3001C19D4
:104ABC00A300FB180C22DA70280010300DF0DDFE7C
:104ACC001C4B1A78C0B293009B189A00BF1838710F
:104ADC000123059300230493039302900193009305
:104AEC0000220021300007F055F9002001E7124F99
:104AFC00A3001C19A300FB180D22DA70280010303B
:104B0C000DF0BBFE0B4B1A78C0B293009B189A00A9
:104B1C00BF1838710123059300230493039002936B
:104B2C000193009300220021300007F033F900209C
:104B3C00DFE6C046D4160020646800206C7E0108B5
:104B4C00608C0108A42300203484010844840108EB
:104B5C0054840108304F143398465C433C19063B8F
:104B6C00E370280010300DF088FE2C4B1B78C0B27F
:104B7C0042465343FF1838710123059304900024D7
:104B8C00039402940194009423002200210030002D
:104B9C0007F000F92000ACE60020AAE6002D00D0BA
:104BAC0050E61E4803781C499A00D618B500022618
:104BBC006E544919CC700133037000201DE0174B63
:104BCC0098461A78144F9300981881000320C85502
:104BDC007A18D47028000DF04BFEFDF7F9FF079002
:104BEC0043461A7893009B189800C019063004228B
:104BFC0007A90EF0D2F83CE60E2008B004BC904693
:104C0C00F0BD0020F9E76720F7E76720F5E767209C
:104C1C00F3E76720F1E7C04664680020D416002053
:104C2C00F8B50C00022817D0032803D001280FD0A8
:104C3C0000200CE0344B1A78013A93009B189A0030
:104C4C00324B9B1801221A7405F082F90020F8BD32
:104C5C000800FFF7B9FDFAE72B4B1D78013DAB00BF
:104C6C005B199A00294B9B18DE68002E34D030005B
:104C7C00FBF74CFA07002000FBF748FA3918023111
:104C8C0030000EF0C5F8214EAB005D19AB00F318E7
:104C9C00D8601D4D2B78013B9A00D2189300F31865
:104CAC00D8687B1CC01821000EF0B6FA2A78013A9D
:104CBC0093009B189A00B618F3681322DA55124B1E
:104CCC001B78013B9A00D2189100104A5218D268F6
:104CDC00002A11D00020BAE70800FBF717FA0130C0
:104CEC000DF00EFEAB005D19AA00084B9B18D860A6
:104CFC0021000EF091FAE2E7044BC81814220021AF
:104D0C000EF054F80E20A2E7D416002064680020A0
:104D1C00F0B5DE4657464E464546E0B58BB004909E
:104D2C00039115001C000922002107A80EF03EF883
:104D3C0068E1E91C0130FFF773FF002807D1D44A62
:104D4C0036230221D154293B237000278CE15222B7
:104D5C00D04920000EF021F8CD4A36230021D15441
:104D6C00002781E1CA4A36230021D154CA490330B5
:104D7C00FFF756FF4122C94920000EF00EF800271C
:104D8C0072E129000220FFF74BFF002803D10D230D
:104D9C002370002768E15222BE4920000DF0FDFF70
:104DAC00002761E10DF09EFD7378C01843785B0716
:104DBC0000D552E1721B290007A80EF046FA07A88D
:104DCC00FFF7E6F90590B64A1278904690422CD03F
:104DDC00642832D0662837D0FF283CD06B461B7D28
:104DEC009946FE2B68D001360622AE4930000EF0F3
:104DFC001BFA002800D0A8E0AB4B00221A70192136
:104E0C00484603F009FA642008F0C6FDA74B1A784F
:104E1C00A34B18780023494605F0B2F9A24B1B7836
:104E2C00602B00D1CDE000271EE1701C992292006E
:104E3C00210008F069FE070016E127229C4920009A
:104E4C000DF0ABFF00270FE125229A4920000DF051
:104E5C00A4FF002708E11A22002197480DF0A6FFB5
:104E6C0001362800FBF752F9070007A8FBF74EF9AB
:104E7C003A1A013A310091480EF0E7F92800FBF795
:104E8C0045F9070007A8FBF741F93B1A9BB217221B
:104E9C00FF21404603F098F999229200210030003E
:104EAC0008F032FE07002000FBF730F920181D2215
:104EBC0083490DF072FFD7E0059B1B12DBB29946BC
:104ECC00734B9B4637239A465B4652464946995448
:104EDC001D3A002178480DF069FF731C05932800DA
:104EEC00FBF714F9060007A8FBF710F9321A013A80
:104EFC00059972480EF0A9F92800FBF707F906008E
:104F0C0007A8FBF703F9331A9BB217224946404610
:104F1C0003F05AF9624B1B78013B5B00694A9B5AC0
:104F2C005A465146525C1341DB0706D407AB2200AC
:104F3C00654920000EF034F996E099229200210088
:104F4C00059808F0E1FD0700F0E72800FBF7DEF814
:104F5C00070007A8FBF7DAF83A1A013A310057486C
:104F6C000EF073F92800FBF7D1F8060007A8FBF741
:104F7C00CDF8321A92B2013A92B21721484603F098
:104F8C004BF9059A514920000EF00AF92378002BB1
:104F9C0002D0039B002B08D12000FBF7B7F80200CE
:104FAC00002120000DF002FF38E72000FBF7AEF8DF
:104FBC0082B20123009331332100049808F06AFB7C
:104FCC00EAE7FA218900012009F0C8FF404B1B7861
:104FDC00002B0BD03F4A138801331380059B220012
:104FEC003D4920000EF0DCF800273DE000273BE0B7
:104FFC002000FBF78BF80200002120000DF0D6FEFC
:10500C00002F71D02800FFF7C9FB214A3623D65C4C
:10501C00002E07D10322314928000EF005F9002893
:10502C0000D186E6002E07D006222D4928000EF06E
:10503C00FBF8002800D195E6022E00D1A1E62E2126
:10504C0028000EF0DBF8061E07D003380322254992
:10505C000EF0EAF8002800D0A4E699229200210074
:10506C00280008F051FD07002378002BC0D0039BCB
:10507C00002BBDD02000FBF749F882B201235B4224
:10508C00009333332100049808F004FBB0E7C046CA
:10509C00D416002068840108447D0108C4840108EA
:1050AC00980A0020A8850108C8670020280C002059
:1050BC000C85010834850108A80D00203C0B00204C
:1050CC005C8501089C0A00207C850108B0850108DC
:1050DC003C0C0020A41F0020D48501086484010826
:1050EC00BC840108088501080922002107A80DF0DD
:1050FC005DFE0C4A3623D35C002B02D1039B002BA4
:10510C0006D10BB03CBC90469946A246AB46F0BDCE
:10511C0001235B420093333338220349049808F08F
:10512C00B9FAEEE7D4160020F485010870B584B006
:10513C000F236B4400221A7001214942012009F00F
:10514C000DFF08F049FD0500494B9A68E1231B034C
:10515C009A420FD0012406E0E1210903200008F057
:10516C00E7FA0134E4B2052C04D8424B1B78A34275
:10517C00F7D0F1E7404B1B885A00D21853003F4A36
:10518C009B183F4A12783F4C38343A4E3178009194
:10519C003D4920000EF004F8A42230780A23920036
:1051AC003A4908F0A5FA2000FAF7B0FF82B230783D
:1051BC000A23210008F09CFA00261EE02D4B1878DB
:1051CC000A230222324908F093FA002E40D0314CC7
:1051DC001434284B18782B0022000121FFF798FD7E
:1051EC002848210060300EF017F8322200212000F0
:1051FC000DF0DCFD00260AF067F9274B1B78012B1C
:10520C00F9D11C4B1878421E24498B5C0F246C443A
:10521C00237000238B54204A13700A33012221007F
:10522C0008F066FA23780D2BC8D00A2BE3D0082B94
:10523C0015D07F2B13D01A00203AD2B25E2ADAD8BE
:10524C00312ED8DC134A92191375013676B2D2E797
:10525C000C491048603114300DF0DEFFB7E7002E1A
:10526C00C9DD013E76B20B4B9B1900221A75C2E7C1
:10527C0048680020280C00203000002054760108DB
:10528C00980A0020D4160020308601085C8601089C
:10529C006CA3010854170020D1160020941C002088
:1052AC0070B50C001C4B1A78013A93009B189A00AD
:1052BC001A4B9B18DB68002B2CD0194B9B6C002BCA
:1052CC0014D0174B9D6C2B78002B12D01321280077
:1052DC000DF094FF061E11D0421B290020000DF08A
:1052EC00B4FF01360E4B9E64012006E00C4B986413
:1052FC00E7E70B4B00229A64002070BD29002000C8
:10530C000DF08AFF2000FAF701FF2D18044B9D6465
:10531C000120F2E70020F0E7D4160020646800209A
:10532C0054170020F0B583B0040083001B189A00BA
:10533C00464BD35C012B04D0032B15D0002003B0BB
:10534C00F0BD424A83001818810008005118897872
:10535C001218D278CB005B183D495B5C9A4201D0A5
:10536C000020ECE70120EAE7384E85002B18990065
:10537C007118CA78013A53009B189A00354BD358D0
:10538C001F680631042201A80DF007FD2C19A3009B
:10539C00F6187378062B47D89B002F4AD3589F4694
:1053AC00391C0198FBF78EF800283FD00120C6E786
:1053BC00391C0198FBF78CF8002801D10020BEE7BE
:1053CC000120BCE7391C0198FBF796F800282FD078
:1053DC000021381CFBF776F800282BD10130AEE702
:1053EC00391C0198FBF77EF8002825D00120A6E790
:1053FC00391C0198FBF78AF800281FD00021381CB3
:10540C00FBF760F800281BD1013098E7391C019894
:10541C00FBF758F8002815D10021381CFBF752F87F
:10542C00002811D101308AE7002088E7002086E7A8
:10543C00002084E7002082E7002080E700207EE740
:10544C0000207CE700207AE7002078E764680020E1
:10545C00A4230020940000201477010870B508F0F4
:10546C00BBFB050000241DE01A4A1B4B18782B00CF
:10547C004C320021FFF74CFC2800FAF747FE0200E3
:10548C00002128000DF092FC1249B3009B199A00E0
:10549C00124B9B18D8684C31FFF702FF0028E3D160
:1054AC000134A4B20E4B1B78A34211D92600A300E1
:1054BC001B199A00094B9B181B7C002BF0D0E0B2F7
:1054CC00FFF730FF0028EBD0064B20221A70DBE7E9
:1054DC00002070BD54170020280C002064680020A8
:1054EC00D4160020C867002000207047F0B583B0A8
:1054FC000500140000230193009301AA0121200050
:10550C0008F06EFB0023C356702B17D068276A4631
:10551C000221200008F064FB0DF0B5F90400682F9F
:10552C0012D00100300008F003F9330022000949C1
:10553C0028000DF035FE002003B0F0BD01300DF059
:10554C00A2F9C6B20027E2E71322034928000DF0A6
:10555C0024FCF0E704890108F088010810B5044B1D
:10556C001A681204120C03490DF01AFE002010BD2B
:10557C00CCF7FF1F2C89010810B582B00400100075
:10558C00002301930023009301AA012108F028FBBA
:10559C000023C356323BDBB2012B07D915220B4932
:1055AC0020000DF0FAFB002002B010BD0DF06BF9DD
:1055BC00C0B2694606F0BAFE0098FDF7B7FA0200D1
:1055CC000B00034920000DF0EBFDECE7708901089E
:1055DC004C89010810B582B004000023019300939C
:1055EC00694601A806F0E4FD01A920000DF014FEA7
:1055FC000098FDF79BFA02000B00034920000DF008
:10560C00CFFD002002B010BD8889010810B582B012
:10561C000400002301930093694601A806F0C8FD1D
:10562C0001A920000DF0F8FD0198FDF77FFA0200AA
:10563C000B00034920000DF0B3FD002002B010BD9B
:10564C00B089010870B584B00500160000230393DF
:10565C0002930023019303AA0121300008F0C0FA41
:10566C00040002AA0221300008F0BAFA0600002356
:10567C00E356323BDBB2012B07D91522194928001E
:10568C000DF08BFB002004B070BD20000DF0FBF87A
:10569C00C4B215493000FAF72FFD002805D0134984
:1056AC003000FAF729FD002816D10F4E31002000EA
:1056BC0006F01EFF01AA3100200006F049FF01A9E7
:1056CC0028000DF0A9FD0198FAF77EFF82B2084977
:1056DC0028000DF065FDD5E71222064928000DF0D3
:1056EC005CFBCFE770890108D4890108D8890108CF
:1056FC00E0890108F0890108F0B585B004001000BC
:10570C00002303935D4B1A7802AB1A7003AA012194
:10571C0008F066FA05005A49FAF7EEFC002868D141
:10572C00584B1B78013B584AD65C012523E02A00D4
:10573C00564920000DF034FD2000FAF7E7FC82B248
:10574C00504B1878642300935A3B210007F0A2FFBA
:10575C003DE001200AF01AF84A4B1A78013A711C04
:10576C0053009B189B014A4AD3185B5C002BF0D06A
:10577C000E000135EDB2052D44D8424B1B78AB42DF
:10578C00F7D00DF02BFB02AF3870642300935A3B1B
:10579C0001223900280007F07DFF280007F05CFF8C
:1057AC0003689B8CDBB23A789342C0D02A0039490B
:1057BC0020000DF0F5FC2000FAF7A8FC82B2314B6A
:1057CC001878642300935A3B210007F063FF54229E
:1057DC00314920000DF0E1FA2000FAF797FC82B273
:1057EC00284B1878642300935A3B210007F052FF92
:1057FC00B2E70023EB56702B07D00F22274920006D
:10580C000DF0CBFA002005B0F0BD681C0DF03BF894
:10581C000500C6B2731EDBB2042B0BD96623662BB4
:10582C0026D0062BEED1FF222A401A4920000DF07B
:10583C00B7FCE7E70DF0D2FA02AF3870642300939F
:10584C00323B01223900300007F024FF002007F022
:10585C0003FF03689B8CDBB23A78934201D006239A
:10586C00DDE7FF222A40094920000DF099FCC9E729
:10587C001B220B4920000DF090FAC3E78C7901082C
:10588C00707F0108280C002094180020048A01085D
:10589C00D4180020208A0108348A0108A48A01083F
:1058AC00888A0108F0B585B0050014000023039325
:1058BC00029303AA0121200008F092F90023C35699
:1058CC00702B16D0672602AA0221200008F088F956
:1058DC000023C356702B13D0672000281DD06728D7
:1058EC0022D01922134928000DF057FA002005B0D8
:1058FC00F0BD01300CF0C7FFC3B201930026E2E704
:10590C0001300CF0C0FFC7B2002E01D06720E6E7D3
:10591C0039000198FEF702FFDFE73B00019A0649C8
:10592C0028000DF03DFCE1E70F22044928000DF0A2
:10593C0034FADBE7D48A0108B48A0108A48A010886
:10594C00F0B585B00500140000230393029303AA5D
:10595C000121200008F044F90023C356702B16D007
:10596C00672602AA0221200008F03AF90023C35648
:10597C00702B13D0672000281DD0672822D0172247
:10598C00134928000DF009FA002005B0F0BD0130D4
:10599C000CF079FFC3B201930026E2E701300CF062
:1059AC0072FFC7B2002E01D06720E6E739000198DC
:1059BC00FEF7A0FEDFE73B00019A064928000DF038
:1059CC00EFFBE1E70F22044928000DF0E6F9DBE7D5
:1059DC00148B0108F08A0108A48A0108F0B5D64698
:1059EC004F4680B585B0019010000023039303AAA5
:1059FC00012108F0F5F80CF040FFC4B2002C49D09E
:105A0C002E4B1B78A34201D2FF2344E0FF26064015
:105A1C00013E2B4B9946B3009A469A1993000025E8
:105A2C004A469D5453469B199F004F447D70B81CA9
:105A3C00042200210DF0BAF93D74F8680CF06AFFED
:105A4C00FD6001E00134E4B21C4B1B78A3421AD96F
:105A5C00A3001B199A001A4BD35C002BF2D0621EC8
:105A6C0093009B189800164A8018A3001B199E00DF
:105A7C00B618142231000DF090F9142200213000D8
:105A8C000DF094F9DEE7013B0C4A137004F060FA58
:105A9C00002300E0FF23002B0AD0232209490198A0
:105AAC000DF07BF9002005B00CBC91469A46F0BD78
:105ABC003622054901980DF070F9F3E7D416002051
:105ACC0064680020648B01082C8B010810B582B02F
