:020000040800F2
:1000000000800020EDDF000879E000086DD20008D4
:1000100000000000000000000000000000000000E0
:10002000000000000000000000000000F5FB0008D8
:10003000000000000000000081FC000861D2000800
:1000400079E0000879E0000879E0000879E000082C
:1000500079E0000879E0000879E0000879E000081C
:1000600079E00008F1D20008FDD200083DD3000875
:1000700079E0000879E0000879E0000879E00008FC
:1000800079E0000879E0000879E0000879E00008EC
:1000900079E0000879E0000879E0000879E00008DC
:1000A00079E0000879E0000879E00008A5D20008AE
:0C00B000B5D20008C5D2000879E00008B5
:1000BC0010B5064C2378002B07D1054B002B02D032
:1000CC00044800E000BF0123237010BD800A00200B
:1000DC000000000088960108044B10B5002B03D0DB
:1000EC000349044800E000BF10BDC04600000000FA
:1000FC00840A00208896010802780B78002A03D025
:10010C00013001319A42F7D0D01A70470023C25CFB
:10011C000133002AFBD1581E7047000002B471460F
:10012C0049084900095C49008E4402BC7047C0462E
:10013C0003B47146490840004900095A49008E44ED
:10014C0003BC7047002243088B4274D303098B42D3
:10015C005FD3030A8B4244D3030B8B4228D3030C8B
:10016C008B420DD3FF22090212BA030C8B4202D32D
:10017C001212090265D0030B8B4219D300E0090A55
:10018C00C30B8B4201D3CB03C01A5241830B8B425E
:10019C0001D38B03C01A5241430B8B4201D34B0347
:1001AC00C01A5241030B8B4201D30B03C01A5241AC
:1001BC00C30A8B4201D3CB02C01A5241830A8B4231
:1001CC0001D38B02C01A5241430A8B4201D34B021A
:1001DC00C01A5241030A8B4201D30B02C01A52417E
:1001EC00CDD2C3098B4201D3CB01C01A5241830932
:1001FC008B4201D38B01C01A524143098B4201D36C
:10020C004B01C01A524103098B4201D30B01C01A96
:10021C005241C3088B4201D3CB00C01A5241830810
:10022C008B4201D38B00C01A524143088B4201D33D
:10023C004B00C01A5241411A00D20146524110469D
:10024C007047FFE701B5002000F0F0F802BDC04692
:10025C000029F7D076E7704703460B437FD4002282
:10026C0043088B4274D303098B425FD3030A8B423E
:10027C0044D3030B8B4228D3030C8B420DD3FF22A8
:10028C00090212BA030C8B4202D31212090265D076
:10029C00030B8B4219D300E0090AC30B8B4201D329
:1002AC00CB03C01A5241830B8B4201D38B03C01A70
:1002BC005241430B8B4201D34B03C01A5241030BE7
:1002CC008B4201D30B03C01A5241C30A8B4201D398
:1002DC00CB02C01A5241830A8B4201D38B02C01A43
:1002EC005241430A8B4201D34B02C01A5241030ABA
:1002FC008B4201D30B02C01A5241CDD2C3098B429F
:10030C0001D3CB01C01A524183098B4201D38B011B
:10031C00C01A524143098B4201D34B01C01A5241BE
:10032C0003098B4201D30B01C01A5241C3088B4203
:10033C0001D3CB00C01A524183088B4201D38B00EE
:10034C00C01A524143088B4201D34B00C01A524190
:10035C00411A00D201465241104670475DE0CA0F67
:10036C0000D04942031000D34042534000229C4627
:10037C0003098B422DD3030A8B4212D3FC22890131
:10038C0012BA030A8B420CD3890192118B4208D307
:10039C00890192118B4204D389013AD0921100E069
:1003AC008909C3098B4201D3CB01C01A524183097D
:1003BC008B4201D38B01C01A524143098B4201D3AA
:1003CC004B01C01A524103098B4201D30B01C01AD5
:1003DC005241C3088B4201D3CB00C01A524183084F
:1003EC008B4201D38B00C01A5241D9D243088B42A5
:1003FC0001D34B00C01A5241411A00D20146634648
:10040C0052415B10104601D34042002B00D54942AB
:10041C00704763465B1000D3404201B5002000F0EA
:10042C0005F802BD0029F8D016E770477047C046A2
:10043C008446100062468C461900634600E0C046B4
:10044C001FB501F0D9FC002801D40021C8421FBD02
:10045C0010B501F029FC4042013010BD10B501F07F
:10046C00CBFC002801DB002010BD012010BDC046D4
:10047C0010B501F0C1FC002801DD002010BD0120E9
:10048C0010BDC04610B501F051FC002801DC002065
:10049C0010BD012010BDC04610B501F047FC00286E
:1004AC0001DA002010BD012010BDC04684460800B2
:1004BC006146FFE71FB500F04BFA002801D400217C
:1004CC00C8421FBD10B500F0D7F94042013010BD35
:1004DC0010B500F03DFA002801DB002010BD012012
:1004EC0010BDC04610B500F033FA002801DD002025
:1004FC0010BD012010BDC04610B500F0E3F9002876
:10050C0001DC002010BD012010BDC04610B500F06C
:10051C00D9F9002801DA002010BD012010BDC04619
:10052C00994201D1801A04D002D201204042704776
:10053C0001207047002B11D1002A0FD1002900D1C6
:10054C00002802D00021C943080007B4024802A1C8
:10055C004018029003BDC046D5FEFFFF03B46846A9
:10056C0001B5029800F0BCF8019B9E4602B00CBC91
:10057C007047C046F0B5CE46474680B50700994651
:10058C003B0C9C4613041B0C1D000E006146000422
:10059C00140C000C45434B4360436143C0182C0CB6
:1005AC0020188C46834203D980235B029846C444AE
:1005BC00494679437243030C63442D042D0CC9182E
:1005CC00000440198918C0BCB946B046F0BDC046FD
:1005DC009E2110B5C905041CFFF798FF002803D114
:1005EC00201C00F0CDFC10BD9E21201CC90500F084
:1005FC0019FB00F0C5FC80231B069C466044F2E707
:10060C0070B500220C4B04000D00FFF745FF0028CD
:10061C0004D12000290002F06FFA70BD064B0022B5
:10062C002000290001F0B8FE02F066FA80231B06B8
:10063C009C466044F1E7C0460000E04170B50500FF
:10064C000C000022002328002100FFF707FF0028E0
:10065C0008D12800210000F00FF802000B00100058
:10066C00190070BD80231B06E118280000F004F867
:10067C00002342428B41F2E770B500220B4B0D0078
:10068C00040001F01DFCFFF7BBFF060002F09AFA14
:10069C000022074B01F014FC02000B002000290083
:1006AC0001F07AFEFFF7ACFF310070BD0000F03DA9
:1006BC000000F04170B50600080002F053FA002269
:1006CC00064B01F0FDFB0D000400300002F07AFA3D
:1006DC002B00220000F0B6FC70BDC0460000F041BB
:1006EC00F0B557464E464546DE46E0B504000D00D3
:1006FC009246994683B08B4230D82DD0494650460D
:10070C0002F074FB29000600200002F06FFB331A84
:10071C009846203B9B4633D45A4653469340424618
:10072C001F00534693401E00AF423AD8AF4200D14F
:10073C0078E05B46A41BBD41002B00DA75E000227B
:10074C0000230092019301235A4693400193012305
:10075C0042469340009328E08242CFD900220023E6
:10076C00009201930C9B002B01D01C605D600098E3
:10077C00019903B0F0BCBB46B246A946A046F0BDF9
:10078C00424620239B1A5246DA40414613004A4601
:10079C008A40170042461F43534693401E00AF4207
:1007AC00C4D900220023009201934346002BD9D0D8
:1007BC00FB0772081A4346467B080EE0AB4201D198
:1007CC00A2420CD8A41A9D41012024196D4100218C
:1007DC00013E24184D41002E06D0AB42EED9013E0D
:1007EC0024196D41002EF8D1009801995B4600192F
:1007FC006941002B24DB2B005A464446D3402A0087
:10080C00E2401C005B461500002B2ADB26009E40B4
:10081C00330026004746BE403200801A99410090B2
:10082C0001919FE7A342BCD883E7424620230021D5
:10083C009B1A0022009101920122DA40019286E774
:10084C00424620239B1A2A0046469A402300F34036
:10085C00444613432A00E2401C005B461500002B63
:10086C00D4DA42462F002023260097409B1ADE4004
:10087C003B003343CDE7C04670B5420045024E0203
:10088C004C00C30F6D0A0120120E760A240EC90FFC
:10089C00FF2A06D0FF2C03D0A24201D1B54206D0CC
:1008AC0070BD002DFCD1FF2CFAD1002EF8D18B425B
:1008BC0006D00120002AF3D12800431E9841EFE70F
:1008CC000020EDE770B5420045024E024C00C30F0C
:1008DC006D0A120E760A240EC80FFF2A1BD0FF2CAD
:1008EC000ED0002A1BD1002C01D1002E1CD0002DC3
:1008FC000CD083421CD00221581E0840013870BD18
:10090C00002E22D1002AF4D1002DF2D10028F6D1EC
:10091C0001204042F3E7002D17D1FF2CF0D0002C22
:10092C00E7D1002EE5D1E6E70020002DE7D0E2E785
:10093C00A24205DCEADBB54202D8E7D30020DEE7B1
:10094C004342584140000138D9E702204042D6E7E3
:10095C0070B5420045024E024C00C30F6D0A120ED8
:10096C00760A240EC80FFF2A0BD0FF2C0DD0002ABC
:10097C001FD1002C16D1002E14D10020002D10D028
:10098C0009E0002D0CD1FF2C13D1002E08D1002A28
:10099C0008D0834212D00221581E0840013800E0D2
:1009AC00022070BD002DF4D10028FAD10120404264
:1009BC00F7E7002CEDD1002EEBD1ECE7A24205DCE1
:1009CC00F2DBB54202D8EFD30020EAE743425841AC
:1009DC0040000138E5E7C046F0B54F464646D646DE
:1009EC0044024500C0B5640A0F1C2D0EC60F002D25
:1009FC0000D18DE0FF2D00D192E00023802099469C
:100A0C009A46E400C00404437F3D7802430A9846AA
:100A1C007B001B0EFF0F002B00D170E0FF2B00D1D1
:100A2C0086E04246D00080227F3BED180023D204A2
:100A3C00024390469C4631004B467940681C0F2B74
:100A4C001CD8764A9B00D3589F4639004446E24650
:100A5C005346022B0FD0032B00D1D7E0012B37D1FB
:100A6C0000200024C0052043C9070843E0BCBA4657
:100A7C00B146A846F0BDFF200024F3E7260C240461
:100A8C00220C44462404240C434627001B0C5743D9
:100A9C0074435A435E4312193B0C9B189C4203D976
:100AAC0080225202944666443F041A043F0CD21929
:100ABC009401671EBC411B0C920E9B1914439B01A5
:100ACC001C431B0100D49BE0012362081C4014430F
:100ADC0002007F32002A64DD630704D00F23234019
:100AEC00042B00D00434230103D502004C4B80327C
:100AFC001C40FE2ABFDCA401640AD0B2B2E7434614
:100B0C00002B3DD14A4601331A4391469C4692E74D
:100B1C00002C29D104239946033B00259A4674E7FF
:100B2C00002C1BD108239946063BFF259A466CE7FF
:100B3C004346FF35002B0BD102234A461A439146FC
:100B4C009C4678E753463100022B00D083E792E7AE
:100B5C0003234A461A4391469C466CE70C2399465C
:100B6C00093BFF259A4650E7200002F021F9762533
:100B7C00431F9C4000236D4299469A462D1A44E728
:100B8C00404602F015F94246431F9A4000232D1AA5
:100B9C0090469C46763D4EE780240021FF20E403DE
:100BAC0060E701239B1A1B2B00DD59E722009E30C6
:100BBC00DA4084401300621E94411C43630704D046
:100BCC000F232340042B00D0043463011AD50120D9
:100BDC00002447E78020C003044209D04346034267
:100BEC0006D14446044364023900FF20640A39E705
:100BFC008020C003044364023100FF20640A31E703
:100C0C00280065E7A4010020640A2BE78020C003BC
:100C1C0004436402FF20640A24E7C046249D0108B3
:100C2C00FFFFFFF7F8B5CE46474643025B0A4E027C
:100C3C00DA009446720A914645004A0080B52D0EA2
:100C4C001F00C40F120EC90FB609FF2A5BD001207A
:100C5C0041408C4239D0A81A00285ADD002A6AD0AB
:100C6C00FF2D00D1D9E08022D20416431B2800DCD2
:100C7C00E9E001206346181A430100D4B4E0800176
:100C8C008709380002F094F805388740854200DC6B
:100C9C00CCE02D1AB5483840430704D00F2303404D
:100CAC00042B00D00430430100D4A0E06A1CFE2DBC
:100CBC0000D18DE08001470AD2B2D0053843E40759
:100CCC002043C0BCB946B046F8BDA81A80460028DF
:100CDC0045DD002A70D0FF2D00D19EE08023DB047F
:100CEC001E4343461B2B00DCD2E001206044430131
:100CFC007AD50135FF2D6BD001239D4A0340400866
:100D0C0010401843C8E7002E20D08C4223D0280076
:100D1C00FF38002839D0571B002D00D09DE06346CA
:100D2C00002B00D1DBE07B1E012F00D10DE1FF2F4A
:100D3C0071D01F0098E0002E00D1A7E0421E0128C0
:100D4C0000D1E6E0FF2868D010008FE70120414079
:100D5C00A14200D07FE7FF2040428046A844404695
:100D6C00002838D0511B002D00D1AEE0FF2A00D155
:100D7C00DFE080236046DB04184384461B2900DC3B
:100D8C00D9E0012015008019B1E7FE206A1C104241
:100D9C0071D1002D00D0A6E06346002B00D1D9E024
:100DAC000022002E00D188E7981B430100D4E1E01B
:100DBC0063460C00F01A6FE7002E00D1B7E002007A
:100DCC00013A012800D19CE0FF2826D0904688E704
:100DDC00FF22002771E7FE206A1C104264D0FF2A14
:100DEC00F6D0150066447008430700D056E7C308D8
:100DFC00FF2D12D05B025F0AEAB25EE76246002A60
:100E0C0000D196E0002E08D08022D203134204D0E9
:100E1C004846104201D10C004B46002BD8D08027FD
:100E2C00FF031F437F02FF227F0A46E720233A007D
:100E3C00451B38000135EA405D1BA840431E984114
:100E4C000025104328E720231B1A32009E40C24085
:100E5C003000431E984110430CE7FF2ADBD080235F
:100E6C006046DB04184384461B2F56DD01200C0022
:100E7C001500301A00E763469F1B7B013DD4002F01
:100E8C0000D0FEE600240022002716E70500AFE79D
:100E9C00320043464146DA4020235B1A9E40300024
:100EAC00431E9841104321E7002DA7D16346002B28
:100EBC0059D00022002E00D1FFE6300060444301DF
:100ECC0092D52A4B013518408EE76346002B47D04C
:100EDC004B1E012915D0FF292BD019004EE70C0011
:100EEC004B463D0084E76246002A8BD1002E92D1FE
:100EFC0080270024FF22FF03DFE663460C00F71A6D
:100F0C00BFE6300060440125430100D46CE70225A4
:100F1C00F2E663460125981BAEE620236446604644
:100F2C00FC40DF1BB840431E984120439FE705005F
:100F3C005EE74B4671E7202365466046CD40591A63
:100F4C008840431E984128431CE763460C0001254A
:100F5C00F01A91E6002E95D00C004F460022ACE61C
:100F6C004B460D0044E74F460022A6E6FFFFFFFB71
:100F7C00FFFFFF7D002800D036E7002400279CE609
:100F8C0041024200C30F490A0020120E7E2A03DDE3
:100F9C009D2A02DD094A98187047802000040143FD
:100FAC00952A07DC9620821AD1404842002BF3D1B7
:100FBC000800F1E7963A9140F7E7C046FFFFFF7F44
:100FCC0070B5051E0ED001F0F3FE9E2304001B1A13
:100FDC00962B0CDC082801DD083CA5406D026D0A3F
:100FEC00D8B201E000200025C005284370BD992B24
:100FFC0009DD020029001B3291404A1E9141052255
:10100C00121AD5400D43052C12DC29000C4E314030
:10101C006A0709D00F202840042805D004314A0162
:10102C0002D59F2331401B1B89014D0AD8B2DBE747
:10103C00621F95402900024E31406A07F4D0E9E75F
:10104C00FFFFFFFBF0B54F464646D6460D000400A9
:10105C00C0B51F0011002803620F400A10437A002C
:10106C00520DE3003C039146640AFA0F4F0F6E00D9
:10107C0027439246B846760DED0FC900954200D134
:10108C0099E04C46341BA446002C00DC7CE04A461C
:10109C00002A00D1B8E0C54A964200D11CE180225A
:1010AC003C0012041443A0466246382A00DD61E17C
:1010BC001F2A00DDCCE164462022121B44469440DA
:1010CC000F00A14664469140E7404C464A1E9141B0
:1010DC003C43424621436446E240801A5C1AA342D8
:1010EC009B415F42C71B3B0200D4D0E07F027F0ACA
:1010FC00002F00D1FFE0380001F05AFE0100083942
:10110C00202322005B1A8F40DA408C401743B142F7
:10111C0000DAFFE0891B4B1C1F2B00DDA8E020220E
:10112C003900D21A200094409140D840621E94415C
:10113C00DF40002601430C43630709D00F232340F3
:10114C00042B05D0231DA342A44164423F191C006B
:10115C003B0200D49EE0954B01369E4200D1B7E095
:10116C00934AE40817407B0771057F0223433F0B2A
:10117C004A0D12053A43ED072A4318001100E0BC52
:10118C00BA46B146A846F0BD002C4BD04C46A41B29
:10119C00A446002E00D023E104001C4300D1AFE193
:1011AC006246541E012A00D115E2804DAC4500D197
:1011BC00C8E1A4461BE14A46B21A9446002A00DC58
:1011CC00ACE04A46002A43D0784A964200D1AFE1BF
:1011DC0080223C0012041443A0466246382A67DC85
:1011EC001F2A00DC5FE14746203AD7406246202A9E
:1011FC0005D064464022121B4446944021434A1EAB
:10120C0091410C003C4357E03A000A4300D105E100
:10121C002200013A012C00D182E1644CA4455BD040
:10122C00944641E7634C771C274200D0C4E004008D
:10123C001C43002E00D069E1002C00D1BFE14446D4
:10124C000C4300D0D0E14207DB081343C00829E06F
:10125C003A000A4300D170E162466446013A012C1F
:10126C0000D1E0E0514CA44500D161E19446B4E7D3
:10127C003A001F39CA401100202B03D04022D31A48
:10128C009F403C43631E9C41002700260C43630790
:10129C0000D053E7B446E4087B072343F808434ADD
:1012AC0094451DD06246070352053F0B520D60E773
:1012BC0044460C43621E9441E4189C429B415F429D
:1012CC003F183B02E3D5394B01369E4200D0B5E0C6
:1012DC003200002700234CE74207DB081343C00809
:1012EC001A00024300D1E1E180273F0307433F038B
:1012FC002E4A3F0B3DE7200001F05AFD010018314A
:10130C001F2900DCFCE60838844027000024B14289
:10131C0000DBFFE6264A761A17400DE7002A2FD08D
:10132C004A46921B9446002E00D1ADE01F4A9145CF
:10133C0000D10FE18022120410436246382A00DDEE
:10134C000FE11F2A00DD80E1644620221E00121BE3
:10135C006746040093409440FE405A1E9341F84067
:10136C0034431C43804464188C42BF417F424E4638
:10137C004744A6E742460A4311004A1E9141ADE696
:10138C000C4C721C224200D0A1E002001A43002E29
:10139C0000D0FAE0002A00D145E13A000A4300D01F
:1013AC0046E14207DB081343C0087BE7FF07000058
:1013BC00FFFF7FFFFE07000047465C1AC21BA342DB
:1013CC00BF417F42B94617004A46BF1A3A0200D5C0
:1013DC008DE023003B4300D08AE60020002561E726
:1013EC00B44CA14500D1ADE08024240420436446D4
:1013FC00382C3DDC62461F2C00DDB7E020251E009A
:10140C002D1B0400AB40AC40D640D04042465D1E84
:10141C00AB413443121A904623432CE04207DB08BD
:10142C001343C0083BE75C189C429B4140445B4221
:10143C00C71801263B0200D429E702269E4A6308FE
:10144C001740012214401C43FB071C437F0873E622
:10145C004446203AD4406246202A05D067464022B2
:10146C00D21B4746974039434A1E9141214335E6EA
:10147C000343581E8341CC1AA142BF4143467F42CD
:10148C0055464E46DF1B2EE602001A4300D1BDE046
:10149C0062466446013A012C00D1E5E0854CA44536
:1014AC0058D0944649E764462022121B4446944087
:1014BC000F00A14664469140E7404C464A1E9141BC
:1014CC003C4342460C436146CA408018F4E6794CD2
:1014DC00A24200D1FDE6591899429B4140445F421B
:1014EC00C719FC07490816000C437F08CFE6CC1A35
:1014FC00A142BF4143467F42181A5546C71BF7E528
:10150C00C9087B0755460B43F808C8E6002C00D0E9
:10151C0081E043460B4315D1802000250003E3E610
:10152C005C1AA3429B41C71B5B420126FF1ADAE5FA
:10153C004207DB081343C008D2E64207DB0813431B
:10154C00C008ACE643464246C9085B0755460B4308
:10155C00D008C5E6434642465B07C9080B43D00892
:10156C00BEE603431C00631E9C41FCE60200203CCB
:10157C00E24014006246202A03D04025AD1AA84050
:10158C000343581E8341234375E7002AE2D03A00F7
:10159C000A43CDD04207DB0813438022C008120354
:1015AC00104206D0FC08144203D12000CB087A0765
:1015BC0013435A0FDB005207DB08134390E64346F4
:1015CC000B4300D109E743464246C9085B07554621
:1015DC000B43D00866E6CC1AA14289413F1A494216
:1015EC00554601267F1A7EE542465C1A871AA342AD
:1015FC0092415242BF1A3A023DD5CC1AA1428941BE
:10160C00434649421F1A55467F1A95E57B07C90880
:10161C000B43F80843E64446DB080C4330D1420741
:10162C001343C0085CE67B07C9080B43F80839E68E
:10163C005C189C429B4140445B42C7183B0200D45F
:10164C0025E61D4B01261F4021E60400203AD4401C
:10165C006246202A04D040226646921B90400343E7
:10166C005A1E93411C437EE65C188C4289414044CF
:10167C0049424718DDE623003B4300D1ADE606E6C0
:10168C00440723438024C0082403204208D0424648
:10169C00D608264204D155463000CB0851070B43DF
:1016AC005A0FDB00DB085207134319E60023014AEB
:1016BC001F005EE5FF070000FFFF7FFFF0B55746F8
:1016CC004E464546DE46E0B5814605000C03480013
:1016DC0092461F0085B0240B400DCE0F002800D180
:1016EC0056E1D44B984200D172E16B0FE4001C43DD
:1016FC0080231B0423439846CF4BED009B460023CD
:10170C009946834400933C037B005046240B5B0DAD
:10171C00FF0F002B00D11FE1C64A934200D162E1BA
:10172C00C549420F8C46E400594614438022634459
:10173C001204CB1A14439B46C200002033007B409A
:10174C009A464B460F2B27D8BC499B00CB589F463B
:10175C00B246009B022B16D0032B00D18EE2012B3C
:10176C0000D0D9E000230024002552461B0523435A
:10177C00D20713432800190005B0F0BCBB46B24693
:10178C00A946A046F0BD00240025AA4BEDE7BA46B9
:10179C00A04615000090DCE7444500D2C7E100D11B
:1017AC00C2E101235B429C462E0040460025E344E7
:1017BC002302140E1C431B0C994623041F0C12020B
:1017CC00494600920197FEF743FD02007A430B0451
:1017DC00310C804619438A4207D901235B429C464F
:1017EC000919E0448C4200D807E2881A4946FEF7F2
:1017FC002FFD09048C4631046646019A090C4243BC
:10180C00030031438A4204D90919013B8C4200D8A8
:10181C00EDE1881A424612041A4390464146009B59
:10182C000E041B0C1F000293009B360C1B04190C9E
:10183C000B007343120C7E43039151437A431F0CEC
:10184C00BC4676186644B14203D9802149028C46C5
:10185C006244310C8A1831041E04360C8E199042E5
:10186C0002D312D1B54210D24346591E009B9C465E
:10187C0065441F009D429B415B421B19C01884426A
:10188C0000D2A0E100D19BE18846AE1BB542AD4130
:10189C00801A6D42401B844200D1D5E14946FEF7C7
:1018AC00D7FC019A0B044243310C050019438A42C0
:1018BC0000D96CE1881A4946FEF7CAFC019A360435
:1018CC0042430904360C03000E43B24200D953E1E3
:1018DC000398B61A02002D041D43029F2B041B0C07
:1018EC005A437B439C46290C4843130C8444634461
:1018FC007943984203D98020400284466144180CF5
:10190C0012041B04120C41189B188E4200D2FFE0EB
:10191C0000D1FAE001231D43494A5A44002A00DC55
:10192C00AAE06B0700D03DE1ED084346DB0106D58C
:10193C004246444B1A4090468022D2005A44424BB5
:10194C009A4200DD1FE743465B071D4343465205A1
:10195C005C02240B530D08E75246224300D17BE076
:10196C00002C00D1FAE0200001F022FA02000B3A20
:10197C001D2301009B1A52460839DA408C4014434F
:10198C0052468A40314B58449B4683440020D5E64E
:10199C004B462343984644D0002C00D1CEE0200087
:1019AC0001F006FA010002000B391D235B1A4946AF
:1019BC001000D940083884400B004D46234398460C
:1019CC0085402348831A9B460023994600939AE648
:1019DC004B46234398461DD108239946063B0025C8
:1019EC00834600938FE65246224309D1022349468F
:1019FC001943184B89469C4600240220E3449DE67B
:101A0C0003234A461A43134B91469C4652460320E5
:101A1C00E34493E60C239946093BA0468346009386
:101A2C0071E60423994600239B460133002500935D
:101A3C0069E6C046FF07000001FCFFFF649D01083A
:101A4C00FF030000FFFFFFFEFE070000F303000092
:101A5C000DFCFFFF01F8FFFF49460123194389469E
:101A6C00002401206AE6002380249A4600258A4B34
:101A7C0024037AE601256D4201239B1A382B00DDE5
:101A8C0070E61F2B00DCBFE01F2149428A1A414639
:101A9C00D1400A00202B04D04146804B5B44994036
:101AAC000D436B1E9D4107232A431D000024154046
:101ABC00134200D1D4E00F2100231140042900D19E
:101ACC00CBE0111D9142924152429B180A0019021F
:101ADC0000D4C2E001230024002546E680234146C1
:101AEC001B03194208D01C4206D11C432403BA46DE
:101AFC001500694B240B38E68024434624031C4311
:101B0C002403B246644B240B2FE6002B00D103E7D1
:101B1C00A619681EA64200D28DE08E4200D2A3E028
:101B2C0000D1B3E00500F5E6AA4200D939E64346F8
:101B3C00DE0758086B081E43ED0739E6484601F0EE
:101B4C0037F901000200153120321C2900DC2CE78A
:101B5C004B46083883400025984632E701F028F9B7
:101B6C0003001A00153220301C2A00DC00E7544612
:101B7C00083B00229C4005E73619013BB44200D9D2
:101B8C00A6E6B24200D8A3E6831E3619A0E60919D0
:101B9C00013D8C4200D98DE68A4200D88AE6851E2A
:101BAC00091987E60F232B40042B00D1BCE6052333
:101BBC005B42AB429B4104355B42ED089844B4E672
:101BCC00AF4200D960E6824204D800D05CE6AE4257
:101BDC0000D859E602235B429C46009BE0449C469D
:101BEC0065449D429B415B421B19C0184DE68A42DD
:101BFC0000D80EE6831E09190BE68A4200D8F4E5DC
:101C0C00831E98460919F0E52549280059448D4052
:101C1C0042468A40691E8D414146D840D940024314
:101C2C002A430B00510700D151E70F211140042921
:101C3C0000D046E74BE705008E4200D06AE6009ADA
:101C4C00934200D066E667E6164A5A44002A00DC46
:101C5C0010E701230025984467E65D075B021C0B27
:101C6C00D2080023154380E50098023D42008242D1
:101C7C00BF417F423C1936190092DDE78024434670
:101C8C0024031C432403044B240B6EE5009A9A4254
:101C9C00EAD30500D3E7C046FF0700003E0400006E
:101CAC001E040000FF030000F0B54E464546DE461C
:101CBC0057469046E0B517001A03120B05008446F0
:101CCC0019480E034C0091465A00DB0F9B46360B0D
:101CDC00640DC90F520D844219D0824210D00120DC
:101CEC0094420ED14E450CD10120C44509D1594521
:101CFC0017D0002C05D130002843431E984100E03A
:101D0C000120F0BCBB46B246A946A046F0BD33004C
:101D1C0001202B43F5D1A242F3D14B463B43F0D1EA
:101D2C00E2E70020EDE7C046FF070000F0B54746AC
:101D3C00CE460400180016001B031B0B2D4D4A0049
:101D4C00994680B543000F03A446B0463F0B520D95
:101D5C00C90F5B0DC00FAA4221D0AB4213D0002A91
:101D6C0022D13C43002B02D14D462E4322D0002CD5
:101D7C0010D0814222D00220013908400138C0BC69
:101D8C00B946B046F0BD4D462E4329D1002AF0D1BC
:101D9C003C43EED10028F2D101204042EFE73D0058
:101DAC0025431DD19342EED0002BE2D14C46264365
:101DBC00DFD1E0E70020002CE1D0DCE79A420ADC1E
:101DCC00E8DB4F45D7D80ED000204F45D7D200299D
:101DDC00E2D00800D3E74342584140000138CEE737
:101DEC0002204042CBE7C445C5D80020C445C6D22A
:101DFC00EDE7C046FF070000F0B54746CE460400AD
:101E0C00180016001B031B0B2C4D4A00994680B57D
:101E1C0043000F03A446B0463F0B520DC90F5B0D98
:101E2C00C00FAA420DD0AB4210D0002A27D13C43A0
:101E3C00002B11D14D462E430ED10020002C15D075
:101E4C000EE03D00254310D1934218D14D462E4350
:101E5C000BD1002A02D13C43002C0BD0814214D070
:101E6C00022001390840013800E00220C0BCB9460C
:101E7C00B046F0BD0028F9D101204042F6E7002B16
:101E8C00ECD14C462643E9D1EAE79A4204DD4342C1
:101E9C00584140000138E9E79A42EBDB4F45DFD867
:101EAC0006D000204F45E1D20029E5D00800DDE73F
:101EBC00C445D5D80020C445D8D2F5E7FF070000AB
:101ECC00F0B557464E464546DE46E0B598460C03FF
:101EDC004B000600924687B0240B5B0DCF0F002BF6
:101EEC0000D15CE1D94A934200D175E1420FE40084
:101EFC001443802212041443D54AC500944663440B
:101F0C000093002399469B46434642461E03D20F3C
:101F1C005B0050469046360B5B0D00D120E1CB4A5E
:101F2C00934200D162E1CA49420F8C460099634446
:101F3C00F6008C46164380229C44120463461643DA
:101F4C00C200002000930099434601318C4649465B
:101F5C007B4001930F2926D8BE4B890059588F46D8
:101F6C00434601933400150083465B46022B16D082
:101F7C00032B00D103E2012B00D0CDE00022002482
:101F8C000025019B12052243DB071A432800110090
:101F9C0007B0F0BCBB46B246A946A046F0BD002433
:101FAC000025AA4AEDE7280C2D042D0C2B00110C52
:101FBC001204120C5343984613002F0043439946C6
:101FCC004F434F44BB4647460B003F0CBA46434376
:101FDC00DA440293D14504D980277F02B9464B4499
:101FEC00029353461B0C9B4653461F0443461B044B
:101FFC001B0C98463B0043440493330C3604360CBC
:10200C009846330043439946434643432F009A4630
:10201C00434677435D43380C4D444519A94503D9D4
:10202C0080235B029946CA443F04280C3F0C2D04C4
:10203C00ED19270C2404240C0300200050437A4390
:10204C0091463A0053440593030C9A464A43614324
:10205C0049445144AB44894503D980235B029946DA
:10206C004A4400040B0C000C090409182000994682
:10207C00434670435C437E435F43030C9846A4196C
:10208C0044444A440397A64204D980235B029846F1
:10209C00474403972304029E9A46059B5E44984648
:1020AC00AE42AD4176188E4289410004000C50447A
:1020BC0040446D424719B846934649428946C34449
:1020CC00D94498428041A845AD41934592418945F8
:1020DC0089416D4240422843240C524249420A43F2
:1020EC00039B00198018C7184B46DC0D049B750226
:1020FC001D436A1E95414B46F60D7F0235435A022D
:10210C003C431543FB0100D41CE101216A080D403E
:10211C001543E207154364084F496144002900DC6C
:10212C00B0E06B0709D00F222A40042A05D02A1DE3
:10213C00AA42AD416D4264191500E30104D580211A
:10214C00464AC90014406144454A914200DD26E7E5
:10215C006207ED08640249051543240B4A0D10E78C
:10216C005246324300D17FE0002E00D1DCE030003B
:10217C0000F01EFE02000B3A1D2301009B1A524672
:10218C000839DA408E40164352468A40009B354946
:10219C00181A03008C46634400200093D3E62500F4
:1021AC0005434AD0002C00D1B0E0200000F000FE26
:1021BC00010002000B391D2310005B1A31003500A1
:1021CC0008388440D94085400C432648831A009334
:1021DC00002399469B4697E60500254326D1082205
:1021EC0000930223002491469B468DE65246009BA9
:1021FC00324310D1154900268C466344494600935E
:10220C0002231943894602209DE65B460197022B67
:10221C0000D0ADE6C3E60D4A0320944663444A461B
:10222C00009303231A43914652468CE60C220093EA
:10223C000323050091469B4666E60423994600233A
:10224C000093013300249B465EE6C046FF07000066
:10225C0001FCFFFFA49D0108FF030000FFFFFFFE30
:10226C00FE0700000DFCFFFF494601231943894678
:10227C000026012067E6002380240025434A0193B1
:10228C0024037EE60120401A382800DD76E61F285C
:10229C005BDD1F2223005242511ACB40190020282B
:1022AC0003D03B4A6244944025436A1E95412A0060
:1022BC000A4307210D000024154011425BD00F2169
:1022CC0000241140042953D0111D914292415242D5
:1022DC00A4180A0023024BD501220024002550E645
:1022EC0080231B031C4209D01E4207D133431C031D
:1022FC0043461500240B254A019342E68022120323
:10230C0014432403214A240B01973AE600F050FDB4
:10231C0001000200153120321C2900DC4BE734008F
:10232C0008380025844050E700F042FD03001A00F5
:10233C00153220301C2A00DC1EE75646083B0022D2
:10234C009E4023E7009B9C46E6E61249220061442E
:10235C002E008D408A40C640691E8D4132432A436F
:10236C00C4405307B6D00F2111400429ACD1B1E7BA
:10237C0065076402240BD2081543002201E6802273
:10238C00120314432403014A240BFAE5FF0700004F
:10239C003E0400001E040000F8B557464E46454664
:1023AC00DE46E0B51E0017004A000B03520D5B0A17
:1023BC009046420F1A43CD0FCD4C3103C3009446C7
:1023CC0070007A0F490AFF009A46B946400DF60F85
:1023DC001143A04200D1B1E001225640B346B542B0
:1023EC0000D188E04246121A002A00DCAEE0002838
:1023FC0000D1C1E0BE48804500D151E180200004ED
:10240C000143382A00DD7BE11F2A00DDEEE12020AC
:10241C003E00801A0C00D640D14087406246844072
:10242C00521A781E8741944634432743DC1BA3423F
:10243C009B4162465B42D31A99464B461B0200D421
:10244C0018E14B465802430A99464B46002B00D1E3
:10245C0037E1484600F0ACFC01000839202322008B
:10246C0048465B1ADA4088408C4043461043884506
:10247C0000DD36E1C91A4B1C1F2B00DDEAE02022DF
:10248C002600D21A01009440DE40D840002391402F
:10249C00621E94418146984631430C43630709D030
:1024AC000F232340042B05D0231DA342A4416442D7
:1024BC00A1441C004B461B0200D4DEE041468C4B71
:1024CC000131994200D1E7E04B468A48E4080340C9
:1024DC00180049055B07400223434A0D040B120503
:1024EC00ED0722432A4318001100F0BCBB46B2464C
:1024FC00A946A046F8BD4246121A002A52DD002811
:10250C0000D19CE0A04500D1CAE08020000401432A
:10251C00382A00DD49E11F2A00DC97E110000E008B
:10252C002038C640202A04D04020821A91400F4304
:10253C00B9464C46621E944134433AE10A003A4390
:10254C0028D0B346B5422BD06B4A4244002A5DD00A
:10255C0042464446821A002C00D0F5E065461D43E5
:10256C0000D19CE1551E012A00D1FBE1604CA24236
:10257C0000D1BDE12A00F0E00800384300D1C3E0EF
:10258C00501E012A00D1A8E1594CA24200D187E08B
:10259C00020036E701225640B346B54200D021E78F
:1025AC00554A4244002A00D1B5E042464446821ABC
:1025BC00002C00D138E14E4EB04200D1DEE1802635
:1025CC00644636043443A446382A00DD96E11F2ABB
:1025DC0000DD24E22026B41AA24664465646B440D6
:1025EC00A1461C004E46D440264334005646B34008
:1025FC005E1EB3411C436346D340C918E419BC4268
:10260C00BF417F42B94680468944D8E040463B4CA6
:10261C000130204200D0B4E04046002800D044E114
:10262C006046184300D190E10800384300D0AAE17D
:10263C006146DB0849070B436146CC0827E00800DC
:10264C00384361D0501E012A00D139E1A24227D073
:10265C0002005DE702001F39CA401100202B03D095
:10266C004022D31A98400443631E9C410023994690
:10267C0098460C43630700D012E74B464A46E408E1
:10268C005B072343D408424619498A420ED02403DF
:10269C005205240B520D22E70A00002400231EE7EA
:1026AC00DB086246520713436246D4081A002243E1
:1026BC0000D1FCE180221203144324030C4A240BA6
:1026CC000DE7200000F074FB010018311F2900DC1D
:1026DC00C4E608388440434620000024884500DCCA
:1026EC00C8E6044A5B1A104098468146D6E6C046B6
:1026FC00FF070000FFFF7FFF01F8FFFFFE07000050
:10270C000F437A1E974191E66146DB0849070B435C
:10271C006146CC08B8E74046D34C0130204200D08B
:10272C00A2E04046002800D001E16046184300D1E9
:10273C005EE10800384300D05FE16146DB084907E1
:10274C000B436146CC08A2E7C84DA84200D1CFE0AC
:10275C00802564462D042C43A446382A56DC1F2AB7
:10276C0000DDD1E020251E00AD1A6446AB40AC4024
:10277C00D6405D1EAB41344323436446D440091B11
:10278C0049E06046DC1B461AA34280414042814628
:10279C0030004E46801B8146000276D44B462343C4
:1027AC0000D052E60024002571E739430C00621E6C
:1027BC009441E4189C429B415B42634499464B46CE
:1027CC001B0200D456E701239C46A84BE0449845D5
:1027DC0038D04B46A6480122034018006308144029
:1027EC001C43C3071C434308994657E610000E00D0
:1027FC002038C640202A04D04020821A91400F4332
:10280C00B9464F467A1E974137430FE662461A4344
:10281C0013005A1E9341FC1AA742BF417F42CB1BA7
:10282C0099465D46804608E666461E4300D1BEE0EA
:10283C00561E012A00D109E18C4CA24200D119E1AB
:10284C003200C1E642460024002348E620200C005A
:10285C00801A3E0087408440D640781E8741D14084
:10286C0034433C438C44A4E7804A904200D1E9E0D5
:10287C00DF199F429B4161445B42C918CC077F081A
:10288C004B08994680463C43F4E6FC1AA742BF41EC
:10289C0063467F42C91ACB1B99465D46D5E5FF08B6
:1028AC004B075D463B43CC08EEE662461A4300D02C
:1028BC0082E00B003B431BD1802400252403F9E666
:1028CC00DC199C429B41614489465B4299444B46CE
:1028DC001B0244D401239846CCE6DC1B6246A3427F
:1028EC009B41511A5B42CB1A994601239846A4E5A9
:1028FC00FF084B075D463B43CC08D7E662461A43BC
:10290C001400631E9C4179E615006446203DEC40A2
:10291C00A046202A05D040256446AA1A9440234399
:10292C009A465446631E9C414346234373E76246D2
:10293C001A4323D00A003A4300D0A0E06246DB08D9
:10294C00520713436246D408B0E60B003B4300D158
:10295C0028E7FF084B075D463B43CC0897E602236C
:10296C00984636E7FC1AA742BF4163467F42C91A14
:10297C00CB1B994601235D4698465EE54B07FF0845
:10298C003B43CC0892E6DC1B6046A342B641401A9E
:10299C007642801B8146000260D5FC1AA742BF41DB
:1029AC0063467F42C91ACB1B99465D4676E5FF0804
:1029BC004B073B43CC0867E60A00DB083A4300D1DF
:1029CC006FE66246520713436246D4088022120314
:1029DC00144207D0C808104204D15D460400FB081D
:1029EC0049070B435A0FDB00DB08520713435DE624
:1029FC004B07FF083B43CC0849E6DC199C429B4142
:102A0C00614489465B4299444B461B0200D431E633
:102A1C004A46174B1A400123914698462AE616005F
:102A2C006446203EF440A046202A05D04026644649
:102A3C00B21A944023439A465446631E9C41434623
:102A4C001C43DBE502000024002348E5DC19BC42F2
:102A5C00BF41614489467F42B94438E74B46234322
:102A6C0000D19FE606E6C046FE070000FF07000007
:102A7C00FFFF7FFFFF084B073B43CC0816E662467F
:102A8C00DB08520713436246D40880221203144217
:102A9C0007D0C808104204D15D460400FB08490762
:102AAC000B435A0FDB005207DB081343FEE50023F0
:102ABC00014A1C0013E5C046FF07000070B5050075
:102ACC000C481C0316005B000A034900120B490D4D
:102ADC00240B5B0D814208D0064A0020934203D19F
:102AEC0020003043431E984170BD01202A43FBD186
:102AFC00F2E7C046FF0700000A0030B5134C530044
:102B0C0009030500090B00205B0DD20FA34204DD65
:102B1C000F48834202DD0F4BD01830BD802040039C
:102B2C0001430D48C01A1F2808DD0C48C31AD940B0
:102B3C000B005842002AF0D11800EEE7084CC540B3
:102B4C00A446634499400B002B43F2E7FE030000BC
:102B5C001D040000FFFFFF7F33040000130400007E
:102B6C00EDFBFFFF70B5002816D0C317C5185D40EC
:102B7C00C40F280000F01CF9114A121A0A2816DC9E
:102B8C0003002E0015339E400B23181AC540520526
:102B9C002D032D0B530D03E00024002300250026EC
:102BAC001B052B43E40723433000190070BD0B3881
:102BBC00854052052D0300262D0B530DF0E7C04622
:102BCC001E04000010B5041E10D000F0F1F80F4BDD
:102BDC001B1A0A2811DC0B222100121AD1401530C5
:102BEC000A035B058440120B5B0D01E000230022FD
:102BFC001B0513432000190010BD22000B38824026
:102C0C005B0512030024120B5B0DF1E71E040000A0
:102C1C0070B543004602C40FFE201B0E591C750AEA
:102C2C0008420CD0E022920094466D07360B6344A8
:102C3C001B053343E40723432800190070BD002B08
:102C4C0014D1002D1BD0280000F0B2F80A281CDC8F
:102C5C000B232E001B1ADE40030015339D400E4A39
:102C6C003603121A5205360B530DE1E7002D09D02D
:102C7C008022360B1203094B6D071643D8E700234D
:102C8C000026D5E70026054BD2E703000B3B9D4001
:102C9C002E000025E3E7C04689030000FF07000073
:102CAC0002004B00F0B55B0D0C033D4E640A400F67
:102CBC005F1CC90F0443D50037420AD039481E188F
:102CCC00FE2E16DDFF200024C0052043C907084353
:102CDC00F0BD002B06D12C4326D005229201540ABC
:102CEC00D8B2F1E72543EDD08020C0030443FF2088
:102CFC00EAE7002E1BDD9201531E9A41E4006D0F92
:102D0C0022432A43530748D00F231340042B00D0EF
:102D1C0004328023DB0413403FD0701CFE2ED1D034
:102D2C009201540AC0B2CFE700200024CCE7320055
:102D3C00173222DB8020000420431E24A41B1F2CEE
:102D4C001DDD02225242961B0200F2401600202C7E
:102D5C0004D0154A94466344984005432A00531EF8
:102D6C009A41324300265307CED180241300E40449
:102D7C00012023402242D3D1B0E70023ADE70B4A18
:102D8C0094462A00E24014002A0063449A4098407A
:102D9C00551EAA4102432243E4E733009EE7C04696
:102DAC00FE07000080FCFFFFA2FCFFFF82FCFFFF80
:102DBC001C2101231B04984201D3000C10391B0A5F
:102DCC00984201D3000A08391B09984201D3000923
:102DDC00043902A2105C40187047C046040302027A
:102DEC0001010101000000000000000010B50029E5
:102DFC0003D1FFF7DDFF203002E00800FFF7D8FF1A
:102E0C0010BDC04611281FD005281FD019281FD06F
:102E1C0007281FD008281FD017281FD00F281FD015
:102E2C000E281FD01A281FD01B281FD018281FD0DF
:102E3C000A281FD009281FD013281FD0062801D01C
:102E4C00472002E0403000E0462070474620FCE777
:102E5C004620FAE74620F8E74620F6E74620F4E756
:102E6C004620F2E74620F0E74620EEE74620ECE766
:102E7C004620EAE74620E8E74620E6E74620E4E776
:102E8C00431E16205843014B185C70477C0F0020E2
:102E9C00F0B5C64600B507000D0090461C0006AB09
:102EAC001878FFF7EDFF060038000AF073FF0028D2
:102EBC002AD0BB00194A985821000BF031F9002890
:102ECC002AD13000FFF79EFF472802D000240126AC
:102EDC0016E038000AF05EFF424629000FF045FB71
:102EEC00060012E038000AF055FF012229000FF00D
:102EFC003CFB0600013502200CF0F4FF0134E4B277
:102F0C00A3B24345EED300E001260A200CF0EAFF01
:102F1C00300080BCB846F0BD0126F6E7481E002004
:102F2C0070B582B0204B1B889BB2204A93420BD0C9
:102F3C001A0A1F490A7002D10A00012111701D4A98
:102F4C0013700124022023E0194B01221A70194B33
:102F5C0000221A70FA2024E0134BC318651E6A462F
:102F6C00D1791E88AB005B195B005B19CB185B0039
:102F7C001149CE52023080B2D3790133DBB2D37116
:102F8C006B4607331B78DBB20A2BE5D90134E4B26C
:102F9C00074B1B78A34203D36B460022DA71EFE791
:102FAC00002002B070BDC04600D80108FFFF000031
:102FBC0008000020A00A00207C0F002070B501241E
:102FCC00002501E00134E4B2084B1B78A3420AD37C
:102FDC00611E4900064BC918601C08F0B5FC192C81
:102FEC00F0D90A25EEE7280070BDC0460800002085
:102FFC00702B0020F0B583B06B460022DA800026DF
:10300C00002526E028001C3080B26B46991D08F084
:10301C009BFC6B46D8889B799C46124AB3009F193F
:10302C007900511867460F55671E010A9B19580005
:10303C001218D1550135ADB20234E4B2092CE1D9E4
:10304C00B3009B195A00074B9B1800225A72013689
:10305C00F6B2054B1B78B34201D30124EEE70020F6
:10306C0003B0F0BD6C0E002008000020F0B5CE4679
:10307C00474680B583B06B460022DA8000240025D9
:10308C000CE0254963000431C9182800CB3080B20C
:10309C0008F05AFC0135ADB20134E4B21F4B1B7879
:1030AC00A342EED800262DE02800993080B26B4662
:1030BC00991D08F049FC6B46D8889B799846164BAD
:1030CC0099463827B1008A1952004A4412194346CE
:1030DC00D355631E9C46000A8A1951000B004B44C1
:1030EC006344D8550135ADB20234E4B2092CDBD9B6
:1030FC00B20092195100084B5B18413300221A7030
:10310C000136F6B2092E01D80124EFE7002003B0F6
:10311C00C0BCB946B046F0BDA00A00200800002093
:10312C0070B584B00E21694400230B8003AA138070
:10313C00E42008F009FC002800D076E00E236B4454
:10314C001D780E216944E52008F0FEFB040003A95C
:10315C00E62008F0F9FB0443A4B2002C00D066E092
:10316C000E236B441E88360403AB1B88F6180E2105
:10317C006944E72008F0E8FB040003A9E82008F004
:10318C00E3FB0443A4B2002C53D10E236B441C88E4
:10319C00240403AB1B88E4180E216944E92008F0D1
:1031AC00D3FB002806D10E236B441A88110A2C4B32
:1031BC0019775A770E216944EA2008F0C5FB0028DC
:1031CC0006D10E236B441A88110A254B9977DA77AE
:1031DC000E216944EB2008F0B7FB002808D10E2320
:1031EC006B441A88100A1E4B2021585401315A5432
:1031FC001B4B1B7F002B03D0194A527F002A1AD17C
:10320C00174B9B7F002B03D0154AD27F002A19D174
:10321C00134A2023D35C002B04D0110021228A5C9A
:10322C00002A16D1002004B070BD002589E70026C5
:10323C009DE70024B0E7009222003100280004F042
:10324C00BDFDDDE7009222003100280004F0B6FD40
:10325C00DEE7009222003100280004F0AFFDE1E728
:10326C00200B002010B582B08A206B46991D4000BF
:10327C0008F06AFB002800D07CE06B46DA8898796D
:10328C005D4B24215854120A24335A708E206B46FD
:10329C00991D400008F058FB002800D073E06B46E5
:1032AC00DB88DA0B54490800243002715B084B852B
:1032BC0016206B46991DFF3008F046FB002800D005
:1032CC006AE06B46DA884C4B9A858B206B46991DCD
:1032DC00400008F039FB002863D16B46DA88464B76
:1032EC00DA8518206B46991DFF3008F02DFB00285D
:1032FC005CD16B46DA8899793F4B2C331971120AE1
:10330C005A718C206B46991D400008F01DFB04007F
:10331C001A2001A9FF3008F017FB0443A4B2002CBB
:10332C004CD16B4606331B8801AA12881204134336
:10333C00314A53638D206B46991D400008F004FB05
:10334C0000284AD16B46DA8899792B4B2C331973A8
:10335C00120A5A731C206B46991DFF3008F0F4FAC0
:10336C00002841D16B469A79234B2C339A76002056
:10337C0002B010BD214A10791F4B242158545279A8
:10338C0024335A7082E71D4A107A1B4B19002431E2
:10339C00087152895A858BE7184B9A89164B9A8576
:1033AC0093E7164BDA89144BDA859AE7134A117CAA
:1033BC00114B2C331971527C5A71A2E70E4A4823D7
:1033CC00D35C002B04D01300E12252025A63B1E704
:1033DC000A4B5A69084B5A63ACE7074B2C3318223B
:1033EC005A7300221A73B5E7044A2623D25C024BA7
:1033FC002C339A76BBE7C046200B00200800002037
:10340C00F0B589B01E236B4400221A80002401E021
:10341C000134E4B2052C5DD825003B35AD00ADB2CE
:10342C001E216944280008F08FFA0028F0D11E23D1
:10343C006B441B88180A190B621C9142E8D10F21AE
:10344C000F0007400142E3D0D600B218234EB61845
:10345C0077703372681C80B21E236B44190008F01D
:10346C0073FA6B46DB8B1A0AB2707371A81C80B2AC
:10347C001E236B44190008F067FA6B46DB8B1A0AA3
:10348C00F270B3710335A8B21E236B44190008F017
:10349C005BFA6B46DB8B1A0A3271F371651CEDB269
:1034AC007078290008F0E0FE317A4A08B3780120E0
:1034BC000240014000200590F0790490B07903900F
:1034CC007079029030790190F0780090280008F023
:1034DC00E5FF9DE7002009B0F0BDC0469C29002007
:1034EC00F0B5D6464F4680B583B032200FF0B6FD0E
:1034FC00061E68D0364B1B78FE2B66D10027344C49
:10350C004AE02278F2540133DBB20134132BF8D9A0
:10351C00BA46BB00DB199B002E4A99469144711C9C
:10352C00142248460FF0CEFF1422002130000FF079
:10353C00D2FF1434002503E0735501340135EDB28C
:10354C0001942378FD2B01D8312DF5D97319013B4A
:10355C001B78002B01D00135EDB228000FF07EFD59
:10356C0053469B0053449B001A4AD318D86000283A
:10357C0016D02A0031000FF0A5FF174A137801333B
:10358C0013702A00002130000FF0A5FF019B1B785F
:10359C00FE2B0FD10137FFB2042F0BD80023B5E758
:1035AC001422002148460FF096FF30000FF060FD0A
:1035BC000E2003E030000FF05BFD002003B0C0BC18
:1035CC00BA46B146F0BDFB20F8E7FF20F6E7C0464F
:1035DC0000DC0108A8170020A417002010B5FFF785
:1035EC009FFCFFF7EBFCFFF705FDFFF73FFDFFF737
:1035FC0097FDFFF737FEFFF703FFFFF771FF10BDD5
:10360C0070B50124002505E0601C08F04FFA0BE0B2
:10361C000134E4B2074B1B78A34209D3631E5B0051
:10362C00054A995A0029EFD1192CF1D90A25EFE74F
:10363C00280070BD08000020702B0020F8B5002574
:10364C00002617E0601EBA00D2195100114B5B180E
:10365C00195C09021B5DC91889B230001C3080B29C
:10366C0008F024FA0136B6B20234E4B2092CE9D9D6
:10367C000135EDB2084B1B78AB4209D32F00AB00E0
:10368C005B195A00034BD35C002BF1D00124EDE7FE
:10369C000020F8BD6C0E002008000020F8B5DE46B6
:1036AC0057464E464546E0B50F0016001C000AABC7
:1036BC001B789B460BAB1B789A460CAB1B78994638
:1036CC000DAB1D780EAB1B7898460100E42008F07A
:1036DC00EDF9390A89B2E52008F0E8F9B9B2E6202B
:1036EC0008F0E4F9310A89B2E72008F0DFF9B1B249
:1036FC00E82008F0DBF92102594489B2E92008F0EE
:10370C00D5F953461902494489B2EA2008F0CEF99A
:10371C002902414489B2EB2008F0C8F90020F0BC22
:10372C00BB46B246A946A046F8BD000070B5214C78
:10373C00250024356B785B012422A15C19438A2077
:10374C00400008F0B3F92B79DB032A22A15E194360
:10375C0089B28E20400008F0A9F9A18D1620FF3007
:10376C0008F0A4F9E18D8B20400008F09FF92500AA
:10377C002C356B791B02297B19431820FF3008F07C
:10378C0095F9A18E8C20400008F090F9E18E1A205A
:10379C00FF3008F08BF96B7B1B02297919438D20C4
:1037AC00400008F083F9A97E1C20FF3008F07EF958
:1037BC00002070BD200B002070B5342200210E4873
:1037CC000FF089FE0124002505E0601C08F06EF95D
:1037DC000BE00134E4B2094B1B78A34209D3631EFE
:1037EC005B00054A995A0029EFD1192CF1D90A2509
:1037FC00EFE7280070BDC046702B002008000020A9
:10380C0010B5074B1A68074B9A4200D110BD08F04F
:10381C0063F90028FAD1024B024A1A60F6E7C04657
:10382C00F07F0020ADDEEFBE30B58FB004AB00935F
:10383C0007AB12226A4408A9012008F0D3FB03ACA1
:10384C00009405AB0E226A4406A9022008F0CAFBBC
:10385C0001230A9300250B956B465B8A099309A9F2
:10386C0008980DF0ABFD0A9502230B93238809935E
:10387C0009A905980DF0A2FD6B46598A00220898FB
:10388C000DF0F1FE05200AF0B5F8218805980DF031
:10389C00E3FE041E03D0002420000FB030BD122321
:1038AC006B441988012208980DF0DDFE05200AF002
:1038BC00A1F803AB198805980DF0CEFE0128EBD1C9
:1038CC000400E9E770B505000024002C01D00020AD
:1038DC0070BD63001B199B00064AD3189968280019
:1038EC00FCF70AFC002802D00134E4B2EDE7013405
:1038FC00E0B2EDE79400002070B504000025052D22
:10390C0026D81A492000FCF7F7FB002822D01849CA
:10391C002000FCF7F1FB00281ED016492000FCF714
:10392C00EBFB00281AD014492000FCF7E5FB00281B
:10393C0016D012492000FCF7DFFB002812D01049EA
:10394C002000FCF7D9FB00280ED00135EDB2D6E7EC
:10395C00002070BD0120FCE70220FAE70320F8E705
:10396C000420F6E70520F4E70620F2E7E49D0108C1
:10397C00E89D0108EC9D0108F09D0108F49D0108EB
:10398C00F89D010810B509F0E5FE09F089FF08F073
:10399C0007F908F0F1FA07F0D1F809F0B5FF07F0D4
:1039AC00E1FE09F0E3FF08F079FB002811D1FFF7E5
:1039BC003BFF002842D0354C48230122E2543220F0
:1039CC000AF018F806F0F0FFE1235B0263630124B0
:1039DC0011E0FFF715FFBFF34F8F2D4B2D4ADA6027
:1039EC00BFF34F8FC046FDE7284B596B20000AF000
:1039FC003FFA0134E4B2052CF6D9FFF7EFFD0AF0DB
:103A0C00C7FA07F013FE244B1B78002B1CD1902413
:103A1C00E4050122402120000DF025FEFA20400093
:103A2C0009F0E8FF0022402120000DF01CFE03F0FD
:103A3C008FFE164A49230121D15410BD322009F0C2
:103A4C00D9FF06F0B1FFD8E79024E405012240210C
:103A5C0020000DF008FEFA20400009F0CBFF0022F8
:103A6C00402120000DF0FFFD642009F0C3FF01226E
:103A7C00402120000DF0F7FD642009F0BBFF00226F
:103A8C00402120000DF0EFFDD1E7C046200B0020B7
:103A9C0000ED00E00400FA05A00A002010B50CF0BF
:103AAC0003FA06F0ABFDFFF76DFF03F071FE0AF0B1
:103ABC0014FB10BD30B583B00500012415E00F4B8D
:103ACC001A8D100A0E4B4C2158544C335A709C7062
:103ADC0003230093073300220021200004F082FA14
:103AEC000A200AF0FFFA0134E4B2052C02D8AC42E9
:103AFC00E5D1F8E7002003B030BDC0460800002037
:103B0C00200B0020F0B5DE4657464E464546E0B544
:103B1C0083B000AF484B1B780733DB08DB006A46E9
:103B2C00D31A9D466D46002308E00021E9545C0041
:103B3C00424A12197C2411530133DBB23E4A1278EB
:103B4C009342F2D3013801232B54012201E00132BC
:103B5C00D2B2062A1BD883001B185B001B189B18BB
:103B6C005B0037495B5A002BF1D0511E01268E4069
:103B7C007C218C4644003149091964460C5B344362
:103B8C0066468C53DB08013B0221E954DFE7022334
:103B9C009B465E460136F3B29B4600239C460022B0
:103BAC0031E00130C0B206282BD8A3001B195B00F2
:103BBC001B191B185B0022495B5A002BF1D0DB0848
:103BCC00013B7B60E95C0029EBD101000139012646
:103BDC008E40B2467C2189466100184EB0460B00DF
:103BEC0043444E469E5BB046564641460E434946BC
:103BFC005E525B4679686B5463460133DBB29C467C
:103C0C00CFE70132D2B20C4B1B789A4207D2140088
:103C1C00A95C5B46013B9942F3D10120C3E76346A3
:103C2C00002BB6D10020BD4603B0F0BCBB46B2465B
:103C3C00A946A046F0BDC04608000020200B00207D
:103C4C007C0F002070B504000B78002B03D1057895
:103C5C000023002002E0FF25FAE70133064A127820
:103C6C009A4208DDE25CAA42F7D2CE5C002EF4D177
:103C7C00D8B21500F1E770BD080000200100002348
:103C8C00012002E0CA5C10400133024A12789A42C9
:103C9C00F8DC704708000020F0B5C64600B58EB0C1
:103CAC0005008846002401942E22002102A80FF062
:103CBC0012FC1A22002153480FF00DFC2900013D83
:103CCC00514B5B1930229C541C329C54012000E057
:103CDC00013006281DDCAB005B195B005B191B185F
:103CEC005B004A4A9B5A002BF2D0DB08424692B248
:103CFC009342EDD143465A1E434B9B18302201216F
:103D0C009954404B42461A70C0B20EB080BCB846B3
:103D1C00F0BD012300E001333D4A12789A420BDBDF
:103D2C009942F8D0581E384A12183020FF241454E7
:103D3C001C3000241454EEE7002401A8FFF79EFF6A
:103D4C0000280DD1304801A93030FFF77BFF01303E
:103D5C00C4B2444504D0611E01AB01225A5403E0A5
:103D6C0000212AE00132D2B2062AE6D88B005B1879
:103D7C005B005B189B185B0024481B5A002BF1D08E
:103D8C00DB08DBB2013B01A8C05C0028EAD11E4F66
:103D9C0030267818805D0130C0B2FF18BF5D8742B5
:103DAC00E0D9194FFB183027D8554C201C54D9E7B3
:103DBC004B1C144A5454D9B20400621E124B9B186B
:103DCC004C22985C0028F3D14B3A00E00132062AD1
:103DDC009BDCAB005B195B005B199B185B000B4910
:103DEC005B5A002BF2D0DB0841464C1E06490919E0
:103DFC003024095D0139034C615C8B42E6D1D0B2B1
:103E0C0083E7C046601F0020A00B00207C0F002021
:103E1C0008000020F0B5C64600B582B006005B4C29
:103E2C0068345B4B220023CB23C2196811609B883A
:103E3C0093802000FCF76AF982B201235B42009365
:103E4C0033332100300009F0C3FF012414E04F4D3F
:103E5C00683522004F4928000FF02EFD2800FCF792
:103E6C0055F982B201235B420093333329003000B1
:103E7C0009F0AEFF0134E4B2052CE8D901235B4212
:103E8C000093333303224449300009F0A1FF00278B
:103E9C0036E007231340D2083C48404968300FF005
:103EAC000BFD3A4B6822904698444046FCF72EF99D
:103EBC0082B201235B42009333334146300009F058
:103ECC0087FF0134E4B2052C0FD8AB005B195B0003
:103EDC005B191B195B00324A9A5A002AD9D12B481C
:103EEC00304968300FF0E8FCDBE701235B420093BC
:103EFC00333302222C49300009F06AFF0137FFB23C
:103F0C002A4B1B78BB4233D93D007A1C1F4C6834BA
:103F1C00274920000FF0D0FC2000FCF7F7F882B204
:103F2C0001235B429846009333332100300009F0A3
:103F3C004FFF16237B431A4A9B5A5900C918490054
:103F4C001C4BC918052220000FF00BFD43460093B3
:103F5C00333305222100300009F03AFF4346009329
:103F6C00333301221449300009F032FF0124AAE74F
:103F7C0001235B420093333301221049300009F0D6
:103F8C0027FF02B080BCB846F0BDC046A00B002095
:103F9C00FC9D0108109E010800AD0108289E010837
:103FAC007C0F0020249E0108349F0108080000208B
:103FBC00189E01084C9701080C9E010814B70108C3
:103FCC00F0B583B006002D4C68342D4B220023CB6A
:103FDC0023C223CB23C21B6813602000FCF796F886
:103FEC0082B201235B42009333332100300009F08D
:103FFC00EFFE012524E00134E4B20A2C1ED86B1E1E
:10400C005B00204A9A5A611E80231B020B4113420B
:10401C00F1D01A4F683723002A001B4938000FF0E3
:10402C004BFC3800FCF772F882B201235B42009320
:10403C0033333900300009F0CBFEDCE70135EDB24B
:10404C00124B1B78AB4201D30124D6E70B4C6834DE
:10405C000F4B220023CB23C223CB23C203CB03C29F
:10406C002000FCF753F882B201235B4200933333F8
:10407C002100300009F0ACFE03B0F0BDA00B002015
:10408C00309E0108702B00204C9E01080800002077
:10409C00609E0108F0B5C64600B582B080460AF0B5
:1040AC003FF9060000230370994B1A78994C683439
:1040BC00994920000FF000FC210030000FF01CFC8F
:1040CC00964A3823D25C964920000FF0F5FB21006C
:1040DC0030000FF011FC06230093043B00229149A1
:1040EC0020000FF0E9FB210030000FF005FC8E4A98
:1040FC008E4920000FF0E0FB210030000FF0FCFB9C
:10410C008B4A8C4920000FF0D7FB210030000FF0B8
:10411C00F3FB894B220023CB23C2196811609988C9
:10412C0091809B799371210030000FF0E5FB012405
:10413C0010E078490A006832804B186888669988C4
:10414C0091809B7993717349683130000FF0D4FBE7
:10415C000134E4B2052C3FD86E4D68352200784905
:10416C0028000FF0A9FB290030000FF0C5FB6B4BAA
:10417C001B193C229B5C042BE5D89B00714AD3583D
:10418C009F46644A6832704B23CB23C2110005CB87
:10419C0005C11B780B70D6E75E4B68336B4A23CA9C
:1041AC0023C3D0E75B496831694B0A0023CB23C298
:1041BC0023CB23C21B881380C5E756496831654B56
:1041CC000A0023CB23C223CB23C219681160998820
:1041DC0091809B799371B6E74E4968315E4B0A002A
:1041EC0031CB31C231CB31C230000FF085FB012411
:1041FC001CE0EB005B1BDB00584AD318586A06F036
:10420C00F9FB0700AD00564BE85806F0F3FB414DA7
:10421C00683500903B002200524928000FF04CFBFF
:10422C00290030000FF068FB0134E4B2062C13D8DF
:10423C00651EEB005B1BDB00484A9B58002BD8D15A
:10424C00344D68352200484928000FF035FB290011
:10425C0030000FF051FBE7E73000FBF757FF301849
:10426C00032242490FF02EF93000FBF74FFF3018B4
:10427C001D223F490FF026F93000FBF747FF0700DE
:10428C00012401E00134E4B2052C17D8204B1B7833
:10429C00013B5B00374A9A5A611E80231B020B417B
:1042AC001342EFD01B4D68352200334928000FF024
:1042BC0003FB290030000FF01FFBE3E73000FBF796
:1042CC0025FF3D042D0CA8420ED03000FBF71EFF3D
:1042DC003018032225490FF0F5F84346002B09D17D
:1042EC0002B080BCB846F0BD3018052223490FF04F
:1042FC00E9F8EAE73000FBF709FF82B201235B42E1
:10430C00009333333100404609F062FDE8E7C046C4
:10431C00A00A0020A00B0020809E0108200C002089
:10432C009C9E0108B89E0108D89E0108E49E0108D5
:10433C00FC9E0108089F0108249F0108409F01086A
:10434C00389F0108A0960108489F0108609F01084A
:10435C006C9F0108889F0108A89F01085026002027
:10436C00BC190020DC9F0108C09F0108349F010884
:10437C000CA00108702B00202CA0010834A001080F
:10438C0070B506002A49FBF7B7FE00280AD0294968
:10439C003000FBF7B1FE002847D03578232D04D030
:1043AC00002418E0244B187870BD701C0EF02BFE06
:1043BC00C0B2002803D0214B1B78834205D21E4B80
:1043CC001C78844203D06620EEE700B2ECE720B202
:1043DC00EAE70134E4B2194B1B78A3420DD9A100D2
:1043EC0009194900164BC9183000FBF785FE002847
:1043FC00EFD1002DEDD020B2D6E70025092D12D833
:10440C000D4BA90049194A00383399183000FBF7B5
:10441C0073FE002802D00135EDB2EFE72C02FE202E
:10442C00204300B2C0E76420BEE7FF20BCE7C046D3
:10443C003CA0010840A00108A00A002008000020B0
:10444C006C0E0020F8B504000E000025032D09DCCD
:10445C00AB002A49C9183000FBF74EFE002846D0A5
:10446C000135F3E70125264B1B78AB420BDDA90088
:10447C0049194900234BC9183000FBF73DFE0028B1
:10448C0037D00135EFE7002500E00135092D0CDCB4
:10449C001D4BA90049194A00383399183000FBF715
:1044AC002BFE0028F1D1072024E0184B184A5A643F
:1044BC00164B5D6C002D0FD02B681F683800FBF776
:1044CC0025FE0200390030000FF039FA002812D016
:1044DC006A680E4B5A64EBE7A00000194000094CC7
:1044EC00001931000FF023FAFFF7A8F802E00620BC
:1044FC0000E00720F8BD0820FCE7C046FC96010848
:10450C00080000206C0E0020A00A0020200C0020C7
:10451C00BC000020F8B504000E000025092D17DCA6
:10452C00394BA90049194A00383399183000FBF768
:10453C00E3FD002801D00135F0E7013C0122AA403F
:10454C006000314C2418A3881343A3800020F8BDCD
:10455C000025032D09DCAB002C49C9183000FBF7F2
:10456C00CBFD00284AD00135F3E70125284B1B78F9
:10457C00AB420BDDA90049194900264BC918300084
:10458C00FBF7BAFD00283BD00135EFE7224B234A5D
:10459C009A64214B9D6C002D23D02B681F6838002A
:1045AC00FBF7B4FD0200390030000FF0C8F9002809
:1045BC0028D06A68184B9A64EBE71348AB005B1978
:1045CC005B003830C01831000FF0B1F9013C01220A
:1045DC00AA4064000C4B1C19A3881343A380002031
:1045EC00B5E7092DF2DCAB005B195B00064AD3186A
:1045FC0038229B5C002BE0D00135F2E70620A6E7C1
:10460C000720A4E70820A2E7A00A0020FC960108D6
:10461C00080000206C0E0020200C0020BC000020A4
:10462C00F0B5D6464F464646C0B582460C0008A9A2
:10463C0020C9097889469E4F2426BF5D002D1CD0C9
:10464C009B4EB44624262020804660464146815528
:10465C00494600291AD02221894680263605B242C5
:10466C0000D38EE092494C268A554C314B70082B66
:10467C0018D89B008F4AD3589F468D498C462426C8
:10468C0000218846614640468855E1E7202189464D
:10469C00E3E72278864B4C339A7003222021504654
:1046AC0003F0F4FE824A2423D754002D00D0EDE011
:1046BC000020E0BCBA46B146A846F0BD22787C4B3F
:1046CC004C339A7003222021504603F0DFFEE9E7B9
:1046DC002288774B4C339A702288120ADA700422A3
:1046EC002021504603F0D2FEDCE72388704A4C327E
:1046FC00937023881BB21B12D370042220215046C6
:10470C0003F0C4FECEE72268694B4C339A702268E2
:10471C00120ADA702268120C1A712268120E5A717F
:10472C0006222021504603F0B1FEBBE72268604B05
:10473C004C339A7022681212DA70226812141A71B1
:10474C002268120E5A7106222021504603F09EFE5A
:10475C00A8E72278564B4C339A706278DA70A278BC
:10476C001A71E2785A7122799A716279DA71A279A6
:10477C001A72E2795A720A222021504603F086FE00
:10478C0090E74B4E4C2084460020804660464146C4
:10479C0031544C367370110EB170110CF170110A4A
:1047AC0031717271082B00D97CE79B00424AD358B7
:1047BC009F4622783E4B4C339A710722494650460D
:1047CC0003F064FE6EE72278394B4C339A71072262
:1047DC004946504603F05AFE64E72288344B4C336A
:1047EC009A712288120ADA7108224946504603F05F
:1047FC004DFE57E723882E4A4C32937123881BB207
:10480C001B12D37108224946504603F03FFE49E77C
:10481C002268274B4C339A712268120ADA7122688B
:10482C00120C1A722268120E5A720A22494650460B
:10483C0003F02CFE36E722681D4B4C339A7122682C
:10484C001212DA71226812141A722268120E5A723B
:10485C000A224946504603F019FE23E72278144BEE
:10486C004C339A716278DA71A2781A72E2785A72C1
:10487C0022799A726279DA72A2791A73E2795A738E
:10488C000E224946504603F001FE0BE70BF024FBC9
:10489C0004000A4A4C23D35C002B04D00BF01CFB05
:1048AC00001BA842F5D3054A4C23D05C01E7C04657
:1048BC00200B0020B4960108D8960108200C00208B
:1048CC0030B583B01E200EF0C9FB04001E2200215F
:1048DC000EF001FE0A4801002C310A7D013A8B7D55
:1048EC004D7D4421405A074992008A1812692C3197
:1048FC000190009520000EF0DFFF200003B030BDCA
:10490C00200B0020FC96010800B585B00A00074B6F
:10491C00197801230393023B029301930333009311
:10492C000B0003F0D9FD05B000BDC046A00A002065
:10493C0030B587B005000C00002304930393029359
:10494C0001930093002200210020FEF7A7FE6A1EAF
:10495C00D3009B1ADB00154A9A58002A07D0611E17
:10496C00CB005B1ADB0011495B58002B0FD1002ADE
:10497C0015D1621ED3009B1ADB000C4A9B58002BEE
:10498C0012D0200006F098FE002007B030BD2800A1
:10499C0006F092FE200006F08FFE0020F5E72800BE
:1049AC0006F08AFE0020F0E76820EEE75026002093
:1049BC0030B5002201E0237001328418835C002B97
:1049CC0007D00449CD5C032129400129F3D12033C0
:1049DC00F1E730BD32C60108F0B5CE46474680B58A
:1049EC0089B00400DC4B1D78052D00D10FE2AA0024
:1049FC00511989005918002008714871181D521955
:104A0C00920080180230042200210EF064FD2378FD
:104A1C00622B02D1A3782E2B53D0CF4D68352100B9
:104A2C0028000EF084FFCD4E310028000FF0E8FD79
:104A3C000400310000200FF0E3FD050031000020E0
:104A4C000FF0DEFD0600002C00D1E4E12000FEF7A3
:104A5C0039FF041E02D0002D00D1AEE1002D00D193
:104A6C00DBE1002E00D1DAE13000FEF72BFF00284D
:104A7C0000D1B1E1B8490E78B3009A1992008A18A6
:104A8C0004271771D471D072B34C26782800FEF726
:104A9C0033FFB3009B199B00E318587122789300E5
:104AAC009B189B00E4186379002B00D1B9E101320B
:104ABC00A94B1A700026300009B0C0BCB946B046EC
:104ACC00F0BD6778303FFFB2052F00D9A1E1AB00F4
:104ADC005B199A00A04B9B1801221A7100225A7183
:104AEC009F71E61C07329E4930000EF028FF00280B
:104AFC0024D1AB005D19AD00974B5D190523EB710B
:104B0C00FA00D219974B9B181B7A012216001E40F3
:104B1C001A4205D00026904A137801331370CAE765
:104B2C0001230593002304930393029301930093B1
:104B3C0000220121380007F0B1FCECE70E228A4973
:104B4C0030000EF0FCFE002820D1AB005D19AD004A
:104B5C00814B5D190623EB71FA00D219814B9B181E
:104B6C001B7A022216001E401A4201D00026D2E700
:104B7C000123059300230493039302930193009361
:104B8C00013A0021380007F089FCC4E70C22774970
:104B9C0030000EF0D4FE00287BD1FA00D219714BF4
:104BAC009B189E78002E0FD0FA00D2196D4B9B18D3
:104BBC00DE78002E29D0FA00D2196A4B9B181E7988
:104BCC00002E44D00C26A6E7634B9846AB005B192D
:104BDC009B0043440922DA7120000F300EF00DFACD
:104BEC0043461978C3B28A00521892004244137299
:104BFC0001220592002204920392029201920092E9
:104C0C000021380007F04AFC85E7534B9846AB006F
:104C1C005B199B0043440A22DA7120000F300EF01E
:104C2C00ECF943461A78C0B293009B189B0043449E
:104C3C0018720123059300230493039302930193A9
:104C4C00009000220021380007F028FC63E7424B5B
:104C5C009846AB005B199B0043440B22DA71200091
:104C6C000F300EF0CAF943461A78C0B293009B1865
:104C7C009B00434418720123059300230493039370
:104C8C0002930190009300220021380007F006FCEB
:104C9C0041E70D22364930000EF051FE002800D0BD
:104CAC0089E0FA00D2192F4B9B185E79002E0FD099
:104CBC00FA00D2192B4B9B189E79002E2AD0FA00A1
:104CCC00D219284B9B18DE79002E53D00D2622E7E3
:104CDC00214B9846AB005B199B0043440C22DA71C4
:104CEC00200010300EF089F943461A78C0B29300B8
:104CFC009B189B00434418720123059300230493D3
:104D0C00039302900193009300220021380007F0D6
:104D1C00C5FB00E7104B9846142399465D43454468
:104D2C00073BEB71200010300EF067F943461B78FF
:104D3C00C0B24A46534343441872012305930021E1
:104D4C00049103900291019100910B000A0038002C
:104D5C0007F0A4FBDFE6C046A41700203C9F010827
:104D6C0034AD01089C29002004A5010814A50108F4
:104D7C0024A501082C4B9846142399465D434544C1
:104D8C00063BEB71200010300EF037F943461B78D0
:104D9C00C0B24A465343434418720123059304900E
:104DAC00002103910291019100910B000A0038003F
:104DBC0007F074FBAFE60026ADE6002E00D04DE602
:104DCC0019480278930099188900411802350D7121
:104DDC00CC71013202706EE6134F39788B005A1881
:104DEC009200BA1803201071D47130000EF000F943
:104DFC00FDF756FF0790381D3A7893009B189B00DF
:104E0C00C0180630042207A90EF05CFB3CE60E2607
:104E1C0051E600264FE667264DE667264BE66726E9
:104E2C0049E6672647E6C046A4170020F8B50C00F3
:104E3C00022816D0032803D001280ED00020F8BD7C
:104E4C00344A117801398B005B189B00D31801226E
:104E5C001A7505F02BFC0020F1E70800FFF7BCFDEC
:104E6C00EDE72C4A1578013DAB005B199B00D3187C
:104E7C001E69002E32D03000FBF748F907002000E5
:104E8C00FBF744F93918023130000EF057FB214E74
:104E9C00AB005D19AD00751928613278013A9300A9
:104EAC009B189B00F31818697B1CC01821000EF08E
:104EBC003EFD3278013A93009B189B00F61833693B
:104ECC001322DA5513490A78013A93009B189B0078
:104EDC00CB181B69002B11D00020B0E70800FBF7A2
:104EEC0015F901300EF0BAF8AB005D19AD00094BA5
:104EFC005D19286121000EF01AFDE3E7900082187D
:104F0C009200081D8018142200210EF0E4FA0E20E5
:104F1C0095E7C046A4170020F0B5DE4657464E462E
:104F2C004546E0B589B08246894615001C00002331
:104F3C0005930522002106A80EF0CDFA2EE1E91CFE
:104F4C000120FFF773FF002806D1D34B02229A767B
:104F5C000D232370B8460FE15222D04920000EF0E9
:104F6C00B1FACD4B00229A76B84605E1CA4B002225
:104F7C009A76CB490320FFF759FF4122C9492000FB
:104F8C000EF0A0FAB846F7E029000220FFF74EFF1A
:104F9C00002804D10D23237000239846ECE0522204
:104FAC00BE4920000EF08EFA00239846E4E0701CF7
:104FBC0099229200210009F049F98046DCE0272271
:104FCC00B94920000EF07EFA00239846D4E0252241
:104FDC00B64920000EF076FA00239846CCE01A224F
:104FEC000021B3480EF077FA01362800FBF78EF853
:104FFC00070005A8FBF78AF83A1A013A3100AD48C8
:10500C000EF0AFFC2800FBF781F8070005A8FBF7B2
:10501C007DF83B1A9BB21722FF21584603F00EFA7B
:10502C00992292002100300009F010F980462000EE
:10503C00FBF76CF820181D229F490EF043FA9BE0F9
:10504C00029B1F12FBB2944F0393FB761A22002192
:10505C0097480EF040FA721C02922800FBF756F8A3
:10506C00060005A8FBF752F8321A013A029991484A
:10507C000EF077FC2800FBF749F8060005A8FBF7B3
:10508C0045F8331A9BB217220399584603F0D6F908
:10509C008A4B1B78013B5B00894A9B5AFA7E134171
:1050AC00DB0706D405AB2200864920000EF004FC79
:1050BC0062E0992292002100029809F0C7F880461C
:1050CC00F0E72800FBF722F8804605A8FBF71EF84E
:1050DC0043461A1A013A310076480EF042FC280079
:1050EC00FBF714F8060005A8FBF710F8321A92B279
:1050FC00013A92B21721380003F0C8F9029A7249AA
:10510C0020000EF0D9FB2378002B02D04B46002B4D
:10511C0008D12000FAF7FAFF0200002120000EF05F
:10512C00DAF9A1E02000FAF7F1FF82B20123009333
:10513C0031332100504608F04BFEEAE7FA21890092
:10514C0001200AF0B9FA614B1B78002B00D193E0D7
:10515C005F4A138801331380029B22005D492000B3
:10516C000EF0AAFB0023984606E09922920021003B
:10517C00280009F06BF880462378002B02D04B46B0
:10518C00002B7CD12000FAF7C1FF02000021200087
:10519C000EF0A1F94346002B00D1ABE02800FFF73D
:1051AC0007FC3D4B9E7E002E07D103224A49280066
:1051BC000EF0C5FB071E00D1C1E6002E07D006225B
:1051CC00464928000EF0BBFB071E00D1CEE6022E8E
:1051DC0000D1D9E62E2128000EF09BFB061EC4D070
:1051EC00033803223E490EF0AAFB0028BDD0737889
:1051FC003C4AD35C5B07B8D4721B290005A80EF09F
:10520C00B0FB05A8FFF7BCF802902C4A1278934625
:10521C00904200D1CBE6642800D1D0E6662800D1BC
:10522C00D5E6FF2800D1DAE66B461F7AFE2F00D1B7
:10523C0006E7013606222C4930000EF080FB0028D0
:10524C0000D03EE7294B00221A701921380003F0D8
:10525C001DF9642008F046FF254B1A78174B187877
:10526C000023390005F044FB204B1B78602B00D148
:10527C0064E7002398467FE7002398467CE72000EC
:10528C00FAF744FF82B201235B42009333332100CF
:10529C00504608F09DFD75E72418002038A501083C
:1052AC00149E010894A50108DCA5010804A60108B8
:1052BC00500E00206C0B00202CA60108A00A002028
:1052CC00A40A00204CA6010880A601086C0C002042
:1052DC00D0210020A4A6010834A501088CA5010842
:1052EC00D8A5010832C6010878A60108440B002095
:1052FC00580C00200922002105A80EF0ECF80C4BEC
:10530C009B7E002B02D14B46002B06D109B0F0BC82
:10531C00BB46B246A946A046F0BD01235B420093B2
:10532C00333338220349504608F052FDEEE7C046AD
:10533C0024180020C4A6010870B584B00F236B4458
:10534C0000221A700121494201200AF0B5F908F037
:10535C00E7FF0600544B9A68E1231B039A420FD0D7
:10536C00012401E00134E4B2052C09D84F4B1B7821
:10537C00A342F7D0E1210903200008F079FDF1E701
:10538C004B4B1A8853009B185B004A4A9B184A4A9D
:10539C0012784A4C1C34454D29780091484920001C
:1053AC000EF08AFAA42228780A239200454908F0C4
:1053BC003FFD2000FAF7AAFE82B228780A232100CA
:1053CC0008F036FD002527E03F4B19780F226A4480
:1053DC00117000221A7033E0344B18780A230B3A00
:1053EC003A4908F025FD002D4DD0344C2500783578
:1053FC002E4B187833002A000121FFF78DFD200079
:10540C00443029000EF093FA3222002128000EF0CD
:10541C0062F800250AF004FC2D4A1278012AF9D111
:10542C00234B1878FDF7EEFC4728CDD01F4B1A788C
:10543C00013A284B985C0F2169440870002199545B
:10544C00234B00221A700F246C44184B18780A2333
:10545C000132210008F0ECFC22780D2ABCD00A2A7B
:10546C00D8D0082A16D07F2A14D01300203BDBB2E8
:10547C005E2BCFD8312DCDDC104B5B1978215A54D3
:10548C0001356DB2C6E70D480100443178300EF09D
:10549C004EFAAAE7002DBDDD013D6DB2074B5B193D
:1054AC00782200219954B5E74C0B0020580C0020B1
:1054BC00300000204C970108A00A0020241800207E
:1054CC0000A701082CA70108E911002040C401081D
:1054DC00A1170020001E002070B50C001D4A117889
:1054EC0001398B005B189B00D3181B69002B2ED045
:1054FC00194BDB6A002B16D0174BDE6A3378002B66
:10550C0014D0132130000EF004FA051E124B186350
:10551C0011D0821B310020000EF023FA01350E4B06
:10552C00DD62012070BD0C4BD862E5E70A4B00220E
:10553C00DA620020F6E7310020000EF0F8F92000C6
:10554C00FAF7E4FD3618044BDE620120EAE700208E
:10555C00E8E7C046A4170020A4180020F0B583B0DB
:10556C00040083001B189B00454AD3181B79012BA0
:10557C0004D0032B13D0002003B0F0BD404A8000B0
:10558C0003199B00D3189979DA79CB005B183D4944
:10559C005B5C9A4201D00020EEE70120ECE7384E2C
:1055AC0085002B189B00F318DA79013A53009B18ED
:1055BC009B00354A9B581F68311D2B189B00C9183E
:1055CC000631042201A80DF07DFF2D19AD007519CF
:1055DC006B79062B45D89B002C4AD3589F46391C17
:1055EC000198FAF76FFF0028C6D00120C4E7391CD8
:1055FC000198FAF76DFF0028BED00120BCE7391CDA
:10560C000198FAF779FF00282DD00021381CFAF701
:10561C0059FF002829D00020AEE7391C0198FAF771
:10562C0061FF0028A8D00120A6E7391C0198FAF7E1
:10563C006DFF00281BD00021381CFAF743FF00280F
:10564C0017D0002098E7391C0198FAF73BFF002887
:10565C0011D10021381CFAF735FF00280DD000209D
:10566C008AE7002088E7002086E7012084E70020F5
:10567C0082E7012080E700207EE701207CE7C0461E
:10568C00A41700209C2900209400002030980108C9
:10569C0070B508F045FE060000241DE01A4A1B4BAD
:1056AC001878330034320021FFF736FC3000FAF75B
:1056BC002DFD0200002130000DF00DFF1249AA0053
:1056CC0052199200124B9A1810693431FFF704FFEB
:1056DC000028E3D10134A4B20D4B1B78A34211D99D
:1056EC002500A20012199200094B9A18137D002B69
:1056FC00F0D0E0B2FFF732FF0028EBD0054B2022B0
:10570C001A70DBE7002070BDA4180020580C002094
:10571C00A4170020440B0020BFF34F8F034B044A07
:10572C00DA60BFF34F8FC046FDE7C04600ED00E0E6
:10573C000400FA050020704710B5FFF7EDFF0000DC
:10574C00F0B583B00600140000250195009501AA60
:10575C000121200008F0E8FD0023C356702B17D060
:10576C0068276A460221200008F0DEFD0DF04BFC94
:10577C000400682F12D00100280008F079FB2B00E0
:10578C002200094930000EF097F8002003B0F0BD5C
:10579C0001300DF038FCC5B20027E2E713220349B3
:1057AC0030000DF08FFEF0E7D4A90108C0A9010864
:1057BC0010B5044B1A681204120C03490EF07CF855
:1057CC00002010BDCCF7FF1FFCA9010810B582B05A
:1057DC0004001000002301930023009301AA01216F
:1057EC0008F0A2FD0023C356323BDBB2012B07D9D4
:1057FC0015220B4920000DF065FE002002B010BDF3
:10580C000DF001FCC0B2694607F034F90098FDF7C1
:10581C00FFF902000B00034920000EF04DF8ECE7F5
:10582C0040AA01081CAA010810B582B0040000238C
:10583C0001930093694601A807F054F801A92000D0
:10584C000EF075F80098FDF7E3F902000B00034920
:10585C0020000EF031F8002002B010BD58AA01084B
:10586C0010B582B00400002301930093694601A88F
:10587C0007F038F801A920000EF059F80198FDF74F
:10588C00C7F902000B00034920000EF015F80020A8
:10589C0002B010BD80AA010870B584B006001400D7
:1058AC000023039302930023019303AA01212000F8
:1058BC0008F03AFD050002AA0221200008F034FD90
:1058CC0004000023EB56323BDBB2012B07D9152227
:1058DC00194930000DF0F6FD002004B070BD280011
:1058EC000DF091FBC5B215492000FAF705FC002814
:1058FC0005D013492000FAF7FFFB002816D10F4CF6
:10590C002100280007F09EF901AA2100280007F0C9
:10591C00C9F901A930000EF00AF80198FAF758FEFF
:10592C0082B2084930000DF0C7FFD5E712220649B4
:10593C0030000DF0C7FDCFE740AA0108A4AA01086A
:10594C00A8AA0108B0AA0108C0AA010870B584B0C1
:10595C0005001000002303935E4B1A7802AB1A70FB
:10596C0003AA012108F0E0FC04005B49FAF7C4FB30
:10597C00002869D1594B1B78013B594AD65C01244C
:10598C0023E02200574928000DF096FF2800FAF773
:10599C00BDFB82B2514B1878642300935A3B29000B
:1059AC0008F016FA3EE001200AF09CFA4B4B1A78EC
:1059BC00013A711C53009B189B014B4AD3185B5C3A
:1059CC00002BF0D00E000134E4B2052C45D8434B2B
:1059DC001B78A342F7D00DF097FD6B461872642329
:1059EC0000935A3B012202A9200008F0F1F9200093
:1059FC0008F0D0F903689B8CDBB26A46127A9342AA
:105A0C00BFD02200394928000DF056FF2800FAF7C4
:105A1C007DFB82B2314B1878642300935A3B2900EA
:105A2C0008F0D6F95422324928000DF04BFD28001D
:105A3C00FAF76CFB82B2294B1878642300935A3B1B
:105A4C00290008F0C5F9B1E70023E356702B07D005
:105A5C000F22284928000DF035FD002004B070BD40
:105A6C00601C0DF0D0FA0400C6B2731EDBB2042B1E
:105A7C000BD96623662B27D0062BEED1FF222240B2
:105A8C001A4928000DF018FFE7E70DF03DFD6B46B5
:105A9C00187264230093323B012202A9300008F0F3
:105AAC0097F9002008F076F903689B8CDBB26A4604
:105ABC00127A934201D00623DCE7FF2222400949E7
:105ACC0028000DF0F9FEC8E71B220B4928000DF049
